:100000000C9423020C946A020C9485020C946A02EC
:100010000C946A020C946A020C946A020C946A02B0
:100020000C946A020C946A020C946A020C946A02A0
:100030000C946A020C946A020C94F7180C946A02ED
:100040000C946A020C946A020C946A020C946A0280
:100050000C946A020C946A020C946A020C946A0270
:100060000C946A020C946A022B0014001A00080017
:10007000150017001C0018000C00120013002A00C5
:10008000290004001600070009000A000B000D00FB
:100090000E000F0033003400E1001D001B000600BD
:1000A0001900050011001000360037003800280044
:1000B000E000E600E200E30003512C002C000451B4
:1000C0005000510052004F002B0014001A0009008C
:1000D00013000A000D000F0018001C0033002A0056
:1000E0002900040015001600170007000B0011007E
:1000F00008000C0012003400E1001D001B00060087
:10010000190005000E0010003600370038002800E6
:10011000E000E600E200E30003512C002C00045153
:100120005000510052004F002B00340036003700C1
:1001300013001C0009000A00060015000F002A0029
:10014000290004001200080018000C0007000B0032
:100150001700110016003800E100330014000D00F4
:100160000E001B00050010001A0019001D002800D9
:10017000E000E600E200E30003512C002C000451F3
:100180005000510052004F0035021E021F02200293
:1001900021022202230224022502260227022A002B
:1001A0004C003A003B003C003D003E003F002D0269
:1001B0002E022F02300231020100400041004200B5
:1001C000430044004500320264024A004D00010031
:1001D0000100010001000100010001000100010017
:1001E000AB00AA00A900AE0035001E001F002000D1
:1001F00021002200230024002500260027002A00D9
:100200004C003A003B003C003D003E003F002D000A
:100210002E002F003000310001004000410042005C
:10022000430044004500320064004B004E000100D2
:1002300001000100010001000100010001000100B6
:10024000AB00AA00A900AE001E001E001E001E008A
:100250001E001E001E001E001E001E001E001E00AE
:10026000000014001A000800150017001C001800F8
:100270000C00120013002F000000040016000700FD
:1002800009000A000B000D000E000F0033003400BF
:100290000C5D0000000006001900000000001100C5
:1002A0001000000000000000005C0D5D0E5D0F5DA1
:1002B000105D115D125D135D145D155D165D4C00E2
:1002C00001000100295C1D5C1E5C135C0A5C085D7A
:1002D000095D0A5D0B5D010001002B5C2A5C265C58
:1002E000275C2C5C2D5C0000000001000100010077
:1002F00001000100010001000100010001000100F6
:10030000010001000100010009023B00020100A000
:10031000320904000001030101000921010100016B
:1003200022400007058103080001090401000103C0
:10033000000000092101010001228100070583035B
:100340000800011201100100000008C016DB27029E
:1003500000010203010403300000000C0350006C94
:10036000006100690064000000160364006D00393C
:10037000007200650063006F00720064007300008B
:10038000000403090405010902A10185020901A174
:10039000000509190129051500250195057501813B
:1003A0000295017503810305010930093115812585
:1003B0007F95027508810609381581257F9501759D
:1003C000088106050C0A38021581257F95017508FC
:1003D0008106C0C005010980A101850319012AB762
:1003E00000150126B700950175108100C0050C09A4
:1003F00001A101850419012AA002150126A0029578
:100400000175108100C005010906A101050719E069
:1004100029E71500250195087501810295017508E8
:1004200081030507190029FF150026FF00950675B1
:1004300008810005081901290595057501910295A6
:100440000175039103C011241FBECFEFD8E0DEBFBA
:10045000CDBF04B603FE27C080911C0390911D03FD
:10046000A0911E03B0911F038730904BA740B04B63
:10047000D1F410921C0310921D0310921E031092CF
:100480001F0314BE84B7877F84BF0FB6F894A89566
:1004900080916000886180936000109260000FBEC0
:1004A000E0E0F8E3099511E0A0E0B1E0E4EDF0E46C
:1004B00002C005900D92AA39B107D9F723E0AAE945
:1004C000B1E001C01D92AC31B207E1F70E94F41B0C
:1004D0000C942D200C940000A82FB92F80E090E000
:1004E00041E050EA609530E009C02D918227979550
:1004F000879510F084279527305EC8F36F5FA8F3C7
:100500000895EADF8D939D930895CF93CFB7CF934E
:10051000DF93C3954B9BE9F74B9B10C04B9B0EC0E1
:100520004B9B0CC04B9B0AC04B9B08C04B9B06C00F
:10053000C091F302C395C093F3028EC06F93C09134
:10054000F202DD27C650DD4F2F9365E54B9B03C0BC
:100550002F916F91E1CF0F931F934F9320E040E1D4
:100560005F9309B10C7003FB27F93F9350E03BE028
:1005700039C01C7040642F77012F5F5F1EC0406838
:1005800019B11C702F7752501FC0406409B12F77EA
:100590000C70D1F15F5F00C023C0406219B12F77AA
:1005A0001C7091F15F5F00C025C00C701027515086
:1005B00012F45D5F0000115027952C3F19B1C8F669
:1005C0001C700127015027952C3FC8F642274993FC
:1005D00009B10C7010274F73115027952C3FA8F6C6
:1005E0004695469519B11C7079F001270150279561
:1005F0002C3F98F66B5A60F3315009B1B0F600C049
:1006000012E01CBB00271CC03B503195C31BD040DF
:1006100012E01CBB0881033C21F10B3411F1209145
:10062000F0021981110F1213EDCF4A81441F0936D0
:1006300069F10D3211F0013E29F74F7009F0042FD6
:100640000093F8023F915F914F911F910F912F916D
:100650006F91CCB3C1FD5DCFDF91CF91CFBFCF9173
:1006600018952091F802222369F31091F6021123C4
:10067000E9F53430EAF13093F6022093F10210915B
:10068000F2023BE0311B3093F20232C00091F602DD
:10069000013064F50AE54F7049F43091190134FDD9
:1006A00028C000931901C9EDD2E027C0433049F0BA
:1006B0003091E40234FD1DC00093E402C5EED2E0A7
:1006C0001CC03091100334FD14C000931003C1E12D
:1006D000D3E013C0052710E000C000000BB91AC01A
:1006E000052710E0221F1DC010E021C04AE502C00E
:1006F00032ED432FC4E1D0E032E01AB11C605B9AC6
:100700000BB11AB95CE020E865E320FF05270BB9BF
:10071000279517951C3FF0F66695B8F7B1F720FFBF
:1007200005270BB9279517951C3FD0F627951795E8
:1007300017FF052700001C3F0BB9B0F629913A9529
:1007400019F7037F1091F702110FC651D0400BB972
:1007500011F01093F00212E01CBB08601AB1137F75
:10076000402F437F54E05A95F1F70BB91AB94BB9B2
:1007700069CF0C94B0080C94B1080C949A040C94B2
:100780004A060E94F5176093BD027093BE028093E3
:10079000BF029093C002613009F4459A8091BE0275
:1007A000813009F4449A0895CF93DF9300D000D0AC
:1007B000CDB7DEB71092BD021092BE021092BF02FA
:1007C0001092C002EDEBF2E081E0808382E0818351
:1007D0008091BD029091BE02A091BF02B091C00273
:1007E000BC01CD010E94F9178091BD029091BE021B
:1007F000A091BF02B091C00289839A83AB83BC836E
:10080000BC01CD010F900F900F900F90DF91CF9111
:100810000C94F9170F9306E024E043E00E94D20500
:100820000F9108950F931F93CF93DF93C82F8A01E1
:10083000A901643009F469C050F46230E9F0633012
:1008400009F43FC0DF91CF911F910F91089565305A
:10085000C9F7E82FE295EF70F0E0CF7081E090E00B
:1008600001C0880FCA95EAF792A10832110509F470
:100870005EC0809589235CC0E82FE295EF70F0E0C0
:10088000B296CF7081E090E001C0880FCA95EAF778
:10089000282F8095CAE1D1E069917991601771079D
:1008A00041F4DA0112969C91992341F09081922BA8
:1008B0009083B1E0CE32DB0779F7C4CF90819823E3
:1008C000F7CFF9018281882309F4BCCF0E94721FFF
:1008D00062E070E00E94F81E8C01019709F0B2CF2F
:1008E0000E94721FEC2FE295EF70F0E0CF7001C014
:1008F000000FCA95EAF780FD05C082A10095082384
:1009000002A3A0CF82A1082BFBCFE82FE295EF70C6
:10091000F0E0CF7081E090E001C0880FCA95EAF75F
:10092000D90112962C9192A1222309F4A2CF892BEE
:1009300082A388CF0F931F93CF93DF9300D000D073
:10094000CDB7DEB78C0169837A836091BD028EEFEB
:10095000860F843030F429813A81A80185E60E940F
:1009600012046091BE028EEF860F843030F429812C
:100970003A81A80184E60E941204F801E850FD457E
:1009800081E0EF30F10570F4E15DFF4D0C940C1F38
:10099000A981BA8112968C91882321F080E00E946F
:1009A000AD0580E00F900F900F900F90DF91CF91E9
:1009B0001F910F910895E981FA818281882391F333
:1009C00081E0EDCFA981BA8112968C91882351F3F1
:1009D00082E0E5CFE981FA818281882319F384E0FE
:1009E0000E94371583E00E94371586E00E94371574
:1009F00085E00E9406150E94BC17811102C00E946A
:100A00005D180E94D4179093D80280688093D70213
:100A10008091D7029091D8020E94E217C2CFA9819B
:100A2000BA8112968C91882309F4BCCF85E00E948C
:100A30003715B7CFE981FA818281882339F0809117
:100A4000BD02813081F41092BD0245988091BD02B3
:100A50009091BE02A091BF02B091C002BC01CD0135
:100A60000E94F9179ECF81E08093BD02459AEECF98
:100A7000A981BA8112968C91882341F38091BE029C
:100A8000813021F41092BE024498E0CF81E080933F
:100A9000BE02449ADBCF82E08093BD02D7CF82E0D2
:100AA0008093BE02D3CF83E0F7CF83E0F9CF84E019
:100AB000F3CF84E0F5CF85E0EFCF85E0F1CF81E0A3
:100AC000089508950C9461051F93CF93DF9300D090
:100AD00000D00F92CDB7DEB749835A836B83309134
:100AE000B00189819A8131111DC06623B9F022239A
:100AF000A9F00E946D16182F682F89819A810E9493
:100B0000161669817A81812F0F900F900F900F90A8
:100B10000F90DF91CF911F910C94A7060E9444166D
:100B2000182FEFCF0E946D1669817A81EDCFFC01FD
:100B3000262F408151816281738184810C946405E8
:100B4000CF93DF93D82FC92F60E00E9497056D2FB8
:100B50007C2FDF91CF910C946205CF93DF9300D06F
:100B600000D0CDB7DEB721E030E002C0220F331F46
:100B70008A95E2F73A83298389810E94CF17A98158
:100B8000BA81CD01B0E0A0E089839A83AB83BC83B6
:100B9000BC01CD010F900F900F900F90DF91CF917E
:100BA0000C9454148F929F92AF92BF92CF92DF9287
:100BB000EF92FF920F931F93CF93DF9300D000D05B
:100BC000CDB7DEB76B017C0181E090E0A0E0B0E042
:100BD0004C015D0104C0880C991CAA1CBB1C4A95E1
:100BE000D2F7B501A4014C015D0104C0880C991C29
:100BF000AA1CBB1C2A95D2F7482959296A297B29A6
:100C000004C0880F991FAA1FBB1F0A95D2F78A013B
:100C10009B010C211D212E213F21041715072607BA
:100C20003707F9F49C01AD012C293D294E295F2994
:100C300029833A834B835C8369817A818B819C8190
:100C40000F900F900F900F90DF91CF911F910F9108
:100C5000FF90EF90DF90CF90BF90AF909F908F90DC
:100C6000089580959095A095B0954C015D018C20DC
:100C70009D20AE20BF2089829A82AB82BC82DCCFCD
:100C80000E94BC17811102C00E945D180C94B90328
:100C90000C94BB03089581E008950C944B06CF9308
:100CA000C82F0E94BF038C2FCF910C944D0608953E
:100CB0000E94C5100E9457062FEF84E39CE021504C
:100CC00080409040E1F700C000000C941B190F9386
:100CD0001F93CF93DF93EC0161E00E9497058C0195
:100CE000BE010E94BD03882329F1BE01C8010E94F4
:100CF000600A8823F9F0BE01C8010E94A40A882373
:100D0000C9F0BE01C8010E94770B882399F08A813F
:100D1000882339F001158CE5180751F00E3D1C456C
:100D200079F0CE01DF91CF911F910F910C945F0567
:100D30000E94580680E0DF91CF911F910F91089596
:100D40000E945D18F7CF90E080E008950895972FF6
:100D500070E02CE0929F600D711D1124FB0190E367
:100D6000899FE00DF11D1124EE0FFF1FE859FF4F81
:100D7000859194910895FC01EE0FFF1FE85FFC4FF1
:100D8000859194910895CF93DF930E94A7060E94C6
:100D9000D507EC01811520E5920708F04BC08115BD
:100DA00030E4930708F0B2C0803E910518F5803C0E
:100DB000910508F09FC0883A910570F4853A910535
:100DC00008F095C08130910529F10497813A910589
:100DD00008F1D0E0C0E01EC08F3B9105D1F3C85AA6
:100DE000D0E0CC0FDD1FC25DDE4F0990D881C02D51
:100DF000D46410C0811540E2940780F48F3F9105C0
:100E000009F040F4883E910528F0805F9109D06593
:100E10004097F8F6CE01DF91CF910895C11580E398
:100E2000D80708F46DC0CE019927D3FD6CC0EC0142
:100E3000D06CF0CFC11595E5D90760F5C11524E553
:100E4000D20708F094C0C11533E5D30778F4C11573
:100E500042E5D40708F07AC0C11581E5D80708F447
:100E600058C0DC2FCC27C16FD06AD4CFCE0183709D
:100E7000992721E030E002C0220F331F8A95E2F764
:100E8000C695C69590E2C99FE0011124C22BD32BD1
:100E9000DA68C0CFC1152AE5D207B0F4C11539E52B
:100EA000D30708F074C0C11546E5D40708F464C040
:100EB000CE0198558F3F910511F008F08ACFDC2FB5
:100EC000CC27C06FD06AA6CFCE0190568115904234
:100ED00008F07FCF8D2F8F710E946D0890E0982FC2
:100EE000882788279F719C012C2BE9014EC0A4976D
:100EF000D06490CF805C91090E94BB06EC018ACF40
:100F0000CE019F70F9CFEC01D86C84CFDF70D06A2E
:100F100081CFCE0174E0969587957A95E1F783703D
:100F20002C2F26952695237040E2249F90011124B2
:100F3000382B8C2F8370C1E0D0E002C0CC0FDD1FB6
:100F40008A95E2F7C22BD32BDC6864CFCE01837085
:100F5000992721E030E002C0220F331F8A95E2F783
:100F6000C695C69580E2C89FE0011124EBCFDC2F27
:100F7000CC27C46FD06A4ECF8C2F0E946D08C82F2B
:100F8000D0E0DC2FCC27CC27DF71D06243CF8C2F71
:100F90008F700E946D0834E0D695C7953A95E1F7B9
:100FA000CF70DC2FC82FD06935CF803E910599F1E5
:100FB000C8F48133910509F476C048F4893291056B
:100FC00009F46AC08A32910509F474C0089589331E
:100FD0009105D1F082389105B9F08533910509F476
:100FE00054C00895843E910599F138F4823E9105EC
:100FF000F9F0833E910509F10895863E910599F136
:10100000873E9105B9F108952091D7022370A1F090
:1010100080EE90E008952091D70220FD52C03091DB
:10102000D80230FF09C024FF4FC090E080E004C028
:101030002091D70222FDF7CF08952091D70222FDFB
:1010400046C03091D80230FDE3CF24FFF5CFEDCF7D
:101050002091D80221FFF0CF8091D70284FDE5CF07
:1010600087EE90E008952091D70223FFE5CF24FD7D
:10107000DCCFF6CF2091D70223FD2CC03091D802CF
:1010800031FFE3CF84EE90E008952091D70225FF51
:10109000D3CF89E290E008952091D70225FFCCCFED
:1010A00085E390E008952091D70226FFC5CF8AE21C
:1010B00090E008952091D70226FFBECF81E390E013
:1010C000089589E390E0089583EE90E0089582EE1C
:1010D00090E0089586EE90E008959091D70292FFF7
:1010E00006C0282F28712830F9F4877F846093FF89
:1010F00006C0282F28712831F1F4877E8461209161
:10110000D80220FF06C0382F38713830D9F4877FD5
:10111000816021FF06C0282F28712831D1F4877EF5
:10112000816194FD877E0895282F24712430F9F67B
:101130008B7F8860DCCF282F2471243101F78B7ED0
:101140008861DDCF382F3171313019F78E7F88609B
:10115000E0CF282F2171213121F78E7E8861E1CFE8
:1011600008950895E82FF0E0EE0FFF1FE753FD4FBD
:10117000808191810895089580EA8A95F1F7089514
:10118000CF93DF93A8E6B1E04CE651E0C1E0D0E0B8
:101190008D91E82FE295EF70F0E061A18F709E01D4
:1011A00001C0220F8A95EAF7922F9095962391A37A
:1011B00082A1822B82A34A175B0751F7ACE5B1E00D
:1011C00048E651E0C1E0D0E08D91E82FE295EF7064
:1011D000F0E061A18F709E0101C0220F8A95EAF7AD
:1011E000922F9095962391A382A1822B82A34A17D6
:1011F0005B0751F71092C2021092C1021092CA020C
:101200001092C9021092C4021092C3021092CC0232
:101210001092CB021092C6021092C5021092CE021A
:101220001092CD021092C8021092C7021092D00202
:101230001092CF0284E00E94B909DF91CF910C9403
:1012400040064F925F926F927F928F929F92AF92E1
:10125000BF92CF92DF92EF92FF920F931F93CF93A3
:10126000DF9381ECE82E82E0F82E98E6A92E91E03B
:10127000B92E512C88248394912CD7016D907D90A8
:101280007D01FD01129212928F01D5018D915D01B8
:10129000C82FC295CF70D0E099A18F70640101C0B2
:1012A000CC0C8A95EAF7892F8C2989A38AA14C2C2A
:1012B000409484218AA30E94BC08ECE5F1E030E070
:1012C00020E06191A62FA295AF70B0E090968C912E
:1012D000D8014D915C9190E06F7002C09595879513
:1012E0006A95E2F780FD42C0C401022E02C0880F59
:1012F000991F0A94E2F7482B592BD80111965C9359
:101300004E932F5F3F4F2C303105D9F689A14822EB
:1013100049A28AA1C82ACAA281E02D913C91261532
:10132000370509F480E0582AB9ECEB16B2E0FB0669
:1013300009F0A3CF252D44E069EC72E081EC92E046
:101340000E94BA090E944806852DDF91CF911F9116
:101350000F91FF90EF90DF90CF90BF90AF909F9054
:101360008F907F906F905F904F90089590E080E015
:10137000C2CF0895FF920F931F93CF93DF93F82E60
:10138000092F162FD72FC42F222349F081E08093F5
:101390009C010E94DC1890939B0180939A0180919C
:1013A0009C018823A1F080919A0190919B010E9459
:1013B000E818069760F0EF2DF02FA12FBD2F90E0D9
:1013C00080E0D0E08C179D0744F010929C01DF91E3
:1013D000CF911F910F91FF900895219131912D93FD
:1013E0003D930196EFCF0F931F93CF93DF93C62FBB
:1013F000D42F022FFC0182818823C9F060939F01C2
:101400000E94DC1890939E0180939D0180E28C0FD6
:10141000883008F050C0C77081E001C0880FCA95BD
:10142000EAF7DF91CF911F910F910C94D90D109194
:101430009F01161335C080919D0190919E010E94DD
:10144000E818883C910560F5C0E2CD0F1D17B9F092
:1014500080E2810F883040F4177081E001C0880F6E
:101460001A95EAF70E94E00DC83048F481E09D2FFC
:10147000977001C0880F9A95EAF70E94D90D802FC6
:101480000E94C60DC830B8F4D77081E001C0880F43
:10149000DA95EAF7DF91CF911F910F910C94E00D4F
:1014A00080E28C0F883038F4C77081E001C0880F6B
:1014B000CA95EAF7EFCFDF91CF911F910F91089571
:1014C0009C01CB01233F4CE5340769F190F4283DA2
:1014D000FCE53F0721F1293D4CE5340781F1273D2B
:1014E0003C45B1F0FC018281882361F110929F019B
:1014F0000895253FFCE53F07D1F0263F4CE5340732
:10150000D1F0243F3C4571F727E245EE64EE03C07D
:1015100026E241EE61EE0E94F30980E0089527E2A1
:1015200045EE65EEF8CF26E241EE60EEF4CF26E21E
:1015300041EE62EEF0CF27E245EE66EEECCF28E218
:1015400041E0EFCF81E00895CF93DF93EC01FB0101
:101550008281882309F4C9C0C631FCE5DF07E0F4C5
:10156000C2309CE5D907F0F00E94D4179093D802BE
:101570008093D702C631ECE5DE0720F5C230FCE5EA
:10158000DF0798F48091D7029091D8020E94E21769
:101590000E94C51080E006C09E012A5F3C452930AC
:1015A000310510F3DF91CF910895FE01E350FC4522
:1015B0008091D7028160E331F10588F4E25CFF4D50
:1015C0000C940C1FCA5FDC45C930D105D8F6CF5A40
:1015D000DF4DFE010C940C1F8091D7028260809336
:1015E000D702D0CF8091D7028460F9CF8091D70203
:1015F0008860F5CF8091D80281608093D802C2CFF5
:101600008091D8028260F9CF8091D7028061E7CFC4
:101610008091D7028062E3CF8091D7028064DFCFD0
:101620000E94C5108091D7028068D9CF8091D702DF
:101630008C60D5CF8091D8028360DFCF8091D702B4
:101640008E7FCDCF8091D7028D7FC9CF8091D70279
:101650008B7FC5CF8091D702877FC1CF8091D80281
:101660008E7FCBCF8091D8028D7FC7CF8091D7025C
:101670008F7EB5CF8091D7028F7DB1CF8091D70279
:101680008F7BADCF0E94C5108091D7028F77A7CFF7
:101690008091D702837FA3CF8091D8028C7FADCF7A
:1016A0008091D70282FB992790F921E0922790FB45
:1016B00082F990FB83F993CF8091D802982F90956F
:1016C00091708E7F892B90FB81F997CF0E94C51076
:1016D0009091D702892F97FB87F9805880CF81E0BE
:1016E0000E945F184FCF80E0FBCF81E05BCFCF93AC
:1016F000DF93EB0186319C4511F50E940A179A8110
:10170000992399F08A7A91E009F490E09093A001EE
:10171000811109C089E20E94E5160E94591780E0F4
:10172000DF91CF91089585E3F6CF8091A0018111DB
:1017300004C089E20E94EC16F0CF85E3FBCF81E084
:10174000EFCF9093A6018093A5010895E091A501A4
:10175000F091A601309721F00190F081E02D0994DD
:1017600080E00895E091A501F091A601309721F065
:101770000280F381E02D09940895E091A501F09194
:10178000A601309721F00480F581E02D0994089599
:101790002091A3013091A4012817390771F090938B
:1017A000A4018093A301E091A501F091A6013097D7
:1017B00021F00680F781E02D099408952091A10180
:1017C0003091A2012817390771F09093A2018093FC
:1017D000A101E091A501F091A601309721F00084CC
:1017E000F185E02D09940895089508950C94F40B63
:1017F0000C94C1030E94F50B0C94F60B81E0089544
:101800000C94FE0B0E94D3180E94C0080E9430194D
:101810000C94F80B9F92AF92BF92CF92DF92EF920F
:10182000FF920F931F93CF93DF9300D000D00F92BE
:10183000CDB7DEB70E9421090E94000C882309F46D
:101840006EC058EAA52E51E0B52E10E000E0902EB3
:10185000802F0E94B2087C01F501C190D1905F01F8
:10186000C816D90609F455C080911C0281FD0E945A
:10187000BB0896012E253F2580E0CC24C394D12CB3
:10188000A9014C215D21452BF1F189839A82EC203D
:10189000FD2081E0EF2809F480E08B830E94DC18B2
:1018A0008160782F9D838C8349815A816B818D81E2
:1018B0000E94B10C000F111FF801E855FE4F808106
:1018C0009181C826D926D182C0820E94CF1A0E9457
:1018D000A60B9091A701891799F10E94A60B8093FE
:1018E000A7010F900F900F900F900F90DF91CF9165
:1018F0001F910F91FF90EF90DF90CF90BF90AF902E
:101900009F900C944F068F5FCC0CDD1C8C3009F03F
:10191000B7CF0F5F1F4F0430110509F098CF8FEF3D
:1019200089838A831B820E94DC188160782F9D83C3
:101930008C8349815A816B818D810E94B10CC5CF06
:101940000F900F900F900F900F90DF91CF911F91FC
:101950000F91FF90EF90DF90CF90BF90AF909F904E
:101960000895CF93DF93CDB7DEB72B970FB6F894DA
:10197000DEBF0FBECDBF4F83588769877A878B87BD
:101980001E8285E0FE013796DE01119601900D92D0
:101990008A95E1F749815A816B817C818D819E8195
:1019A0002B960FB6F894DEBF0FBECDBFDF91CF915F
:1019B0000C942813FC01808191810C94AF16CF9375
:1019C000C82F882309F48AC08238C1F40E94A60B6C
:1019D00081FD84C089E30E94E5160E9459172FEF0C
:1019E00031EE84E0215030408040E1F700C000003B
:1019F00089E30E94EC16CF910C9459178338A1F417
:101A00000E94A60B80FD6AC083E50E94E5160E9435
:101A100059179FEF21EE34E0915020403040E1F71C
:101A200000C0000083E5E5CF8438A1F40E94A60B36
:101A300082FD54C087E40E94E5160E9459178FEF7B
:101A400091EE24E0815090402040E1F700C000007A
:101A500087E4CFCF8CEF8C0F813A90F46C2F80917C
:101A60000401909105010E947618882329F08C2F9B
:101A70000E94EC160E9459178C2F0E94E516BBCFCE
:101A800080E28C0F883048F4C77081E001C0880F75
:101A9000CA95EAF70E940D17AECF8BE58C0F833005
:101AA00038F42C2F2452330BC901CF910C94C80B5E
:101AB000E8E5EC0FE73150F4F0E0EE0FFF1FE459DA
:101AC000FE4F80819181CF910C94DE0BC03F30F0AE
:101AD0008C2F0E94DD19CF910C94C41ACF910895D8
:101AE000882309F452C0823871F40E94A60B81FF4A
:101AF0004CC089E30E94E5160E94591789E30E94B1
:101B0000EC160C945917833859F40E94A60B80FFE9
:101B10003CC083E50E94E5160E94591783E5EFCF8C
:101B2000843859F40E94A60B82FF2FC087E40E94DC
:101B3000E5160E94591787E4E2CF9CEF980F913A7F
:101B4000F0F290E2980F983050F4877091E001C065
:101B5000990F8A95EAF7892F0E941317D2CF9BE538
:101B6000980F933020F490E080E00C94C80B98E537
:101B7000980F973120F490E080E00C94DE0B803FCA
:101B800020F00E94451A0C94C41A0895CF93C82FD0
:101B90000E94DF0CC93349F42FEF87EE93E0215008
:101BA00080409040E1F700C000008C2FCF910C9452
:101BB000700D882321F00E940D170C945917089579
:101BC000882321F00E9413170C9459170895AF929F
:101BD000BF92CF92DF92EF92FF920F931F93CF931A
:101BE000DF9300D000D00F92CDB7DEB76C016D83CC
:101BF0007983FC01058102950F70128111110E94F9
:101C00002C170E940317E82E882371F01123B1F0DE
:101C10008D81805E883090F082E00E94A4170E943F
:101C2000031791E0E82EE926A980A2949FE0A9225B
:101C3000B12CF501E65AFF4D0C940C1FE12CF4CFAA
:101C400009810F70F981F07F11F00295007F112357
:101C5000B1F0002361F08D81805E883018F02D8115
:101C6000211109C0802F0E940D170E9459178D81E4
:101C70000E94DF0C15C0802F0E941E17F6CF8D81A9
:101C80000E94700D002361F08D81805E883018F015
:101C90004D81411133C0802F0E9413170E945917A4
:101CA00058E0A51AB10864E0A616B10420F40E9419
:101CB000A60B0E944F06EE2009F40EC20E94FF16EA
:101CC00080FD0AC2F60112820E94F9160E940615D2
:101CD000C6010E9493100E94F9160F900F900F906A
:101CE0000F900F90DF91CF911F910F91FF90EF9088
:101CF000DF90CF90BF90AF900C943715802F0E944B
:101D00002417CCCF59815F70F52E6981607F6032D6
:101D100019F0F29480EFF8227D81772369F0713019
:101D200049F1112391F1002351F1F601858180FFE2
:101D30009ECF8F70858323C0112381F0011106C0CF
:101D40000E9440178F290E94D90DAACF0130C1F7F8
:101D50000E9440178F290E944617A2CF011106C08A
:101D60000E944F178F2D0E94E00D9ACF013009F489
:101D700097CFF6CF112329F0063008F091CF8F2DA1
:101D8000E2CF053008F08CCFEDCF002359F3FD8171
:101D9000F93349F42FEF47EE53E0215040405040D3
:101DA000E1F700C000008D810E94700D79CF89811C
:101DB00086958695837069F0813009F071CF8D81A9
:101DC00099819370111102C090E080E00E94DE0BB7
:101DD00067CF8D8199819370111102C090E080E0EE
:101DE0000E94C80B5DCF112311F16D81653F99F001
:101DF000663FB9F0643F49F48091D1029091D202DC
:101E000081609093D2028093D1028D810E94DD196E
:101E10000E94C41A45CF8091D1029091D202826073
:101E2000F0CF8091D1029091D2028460EACF7D817F
:101E3000753F89F0763FA9F0743F49F48091D10253
:101E40009091D2028E7F9093D2028093D1028D81A5
:101E50000E94451ADDCF8091D1029091D2028D7FF0
:101E6000F2CF8091D1029091D2028B7FECCF898109
:101E7000837009F059C0111113CF4D8142954695D9
:101E80004770440F440F8D818F7090E0B0E0A0E068
:101E9000042E04C0880F991FAA1FBB1F0A94D2F7F3
:101EA000ED8100E010E09801E4FF0FC00FE010E0CA
:101EB00020E030E004C0000F111F221F331F4A959D
:101EC000D2F70095109520953095F981F695F69505
:101ED000F370FD83B901A801482B592B6A2B7B2B8A
:101EE00049835A836B837C83F23081F0F330A9F00D
:101EF000F13029F0CB01BA010E947E14D1CE698164
:101F00007A818B819C810E945614CACE69817A8124
:101F10008B819C810E94A614C3CE69817A818B81BA
:101F20009C810E945414BCCE8695112311F08981A6
:101F30008170882309F4B4CE4D814295469547704F
:101F4000440F440F8D818F7090E0B0E0A0E0042E2C
:101F500004C0880F991FAA1FBB1F0A94D2F75D8186
:101F600000E010E0980154FF0FC00FE010E020E007
:101F700030E004C0000F111F221F331F4A95D2F713
:101F800000951095209530956981669566956370EA
:101F90006D83B901A801482B592B6A2B7B2B4983F0
:101FA0005A836B837C835D8169817A818B819C817B
:101FB000523051F0533059F0513019F00E94C5158C
:101FC0006FCE0E949D156CCE0E94ED1569CE0E94C9
:101FD000D01466CE69816F706983112329F0862F32
:101FE0000E9406158D81AFCE8D810E94E00D898102
:101FF0000E94371555CE7D81723FA1F160F4703F8C
:10200000E1F0713F41F1112309F445C001112FCED8
:1020100089818F7124C08D81833F49F1843F99F775
:10202000112379F199819F719983892F0E94061557
:1020300063E089810E948F1733CE112341F0053070
:1020400008F02ECE89818F710E946C1529CE063042
:1020500008F026CEF7CF89818F71112349F20E94B3
:1020600006151ECE89818F711123C9F3C1CF1123AB
:1020700029F089818F710E94E11412CE0E94DC1434
:102080000FCE81E00E94A417023008F409CE82E04E
:102090000E94A41705CE002361F0ED81E93309F019
:1020A00082CEFFEF27EE43E0F15020404040E1F7C1
:1020B00078CE89818F719CCF49814F706D81C60127
:1020C0000E94A3060E94C813EBCD49814F706D8119
:1020D000C6010E94A606E4CD0F900F900F900F90BE
:1020E0000F90DF91CF911F910F91FF90EF90DF90B4
:1020F000CF90BF90AF9008950F931F93CF93DF932E
:10210000EC01688179818A810E94BB168C010E9452
:1021100015160E945314B801CE01DF91CF911F9183
:102120000F910C94E70DCF93DF93EC018B819C8191
:10213000892B29F08881998189238F3F19F4DF91B8
:10214000CF910895CE010E9467068823C1F3CE0186
:102150000E947C10CE01DF91CF910C94A0050E94CB
:102160002C170E943D170E9459170E94E81B0E94DD
:10217000C41A90E080E00E94C80B90E080E00C94CC
:10218000DE0B0E94F3160C94AF100E941B170C94E8
:10219000C110282F892F82958F70903C80F48A304F
:1021A000B0F4843020F4823090F480E008958630DA
:1021B000E1F781E0283E88F0213FB9F70EC08C306E
:1021C00011F08F3091F793FB882780F9089581E013
:1021D000203F39F018F4283E40F70895243F29F7AE
:1021E000FCCF08950E94AF160C94C910CF93DF93D3
:1021F00000D000D00F92CDB7DEB70F900F900F90A8
:102200000F900F90DF91CF910895CF93DF9300D07F
:1022100000D000D0CDB7DEB726960FB6F894DEBF5B
:102220000FBECDBFDF91CF9108951F93CF93DF9362
:10223000E091B10116E08091B2018E1304C0DF91EC
:10224000CF911F910895CE2FD0E01E9FF001112451
:10225000ED54FE4F4081518162817381848195816B
:102260000E940511FE013196E770E5CF4091E30130
:102270005091E4016091E5017091E6018091E701E0
:102280009091E8010C9405111F93CF93DF938091F7
:10229000E801807FA9F48091E501882389F080918D
:1022A000B101C091B2016091E3017091E401A0918C
:1022B000E601B091E701D62FD72316E0C81304C07A
:1022C000DF91CF911F91089590E0109711F0DF3FBB
:1022D00019F401968770F2CF189F9001199F300D65
:1022E0001124F901ED54FE4F41814713F2CF408193
:1022F0004613EFCF42814111ECCF438154814A1BF9
:102300005B0B483C510528F78091E8018F70806194
:102310008093E801F901E854FE4F80818F7080615D
:10232000808383EE91E00E949310DF91CF911F9103
:102330000C941511AF92BF92CF92DF92EF92FF9261
:102340000F931F93CF93DF93CDB7DEB72B970FB6C5
:10235000F894DEBF0FBECDBF8C0185E0F801DE0131
:10236000179601900D928A95E1F7F801408151810D
:10237000E28083EEC82E81E0D82E6091E601709154
:10238000E7016115710509F444C19091E3012091C1
:10239000E401822F89238F3F09F43BC1A380B480DD
:1023A000F090E501F501E61BF70BFF2009F4E0C012
:1023B0008091E801382F307FE83CF10508F0B2C089
:1023C000311179C0FE2C251323C0941321C0E110D4
:1023D0001FC08F7080618093E8010E943611C60192
:1023E0000E9493108091E801F80185838F2D2B9630
:1023F0000FB6F894DEBF0FBECDBFDF91CF911F9116
:102400000F91FF90EF90DF90CF90BF90AF90089525
:10241000AB2829F0842F85238F3F09F016C180E077
:10242000F82FF170DF2EE091B1012091B20136E07A
:1024300080FD1CC0EE20D1F28091E8018160809384
:10244000E801F12CD3CF8E2F90E03E9FF0011124B4
:10245000ED54FE4F6181651306C06081641303C0B3
:102460006281E612E7CFFC013196E770E213EBCF11
:102470004F8358878F8198850E94AF16292F229508
:102480002F70903260F0225F2F70223078F49F70AE
:1024900051F0F8019581907F31F4D12C0AC09F70E2
:1024A00011F08823D1F3805E8830B8F3C8010E9410
:1024B0009310FD2C9BCF251306C0941304C0F80184
:1024C000EE2009F470C04F8358878F8198850E9451
:1024D000F210882319F1EE2009F18091E801803291
:1024E00070F02091E3013091E4013A8329831B824B
:1024F000BD82AC828E83CE0101960E94931086E04D
:10250000F801A3EEB1E001900D928A95E1F70E94E7
:1025100044110E943611FF24F39468CFC8010E9431
:102520009310F9CF311113C07A2DBB86AA866E2D78
:102530008B850E94F61083EE91E00E94931086E056
:10254000F60111928A95E9F70E9436117ACF251388
:10255000BACF9413B8CFE110B6CFF8018583C80184
:102560000E94931086E0F60111928A95E9F73ECF1A
:10257000E83CF10508F040C0FE2CEE2079F225136E
:102580002AC0941328C08091E80180FD1BC0982FB9
:10259000907FC1F0F8018583903F31F0982F907FB4
:1025A000905F8F70892B8583C8010E94931086E00D
:1025B000F801A3EEB1E001900D928A95E1F70E9437
:1025C000361114CF86E0F801A3EEB1E001900D9230
:1025D0008A95E1F70BCF4F8358878F8198850E94AA
:1025E000F21081118CCF8091E80181608093E80125
:1025F000C8010E949310FACE7A2DBB86AA866E2D52
:102600008B850E94F61086E0F60111928A95E9F713
:10261000D6CFEE2009F482CF4F8358878F819885DB
:102620000E94F210F82E882309F478CF86E0F80192
:10263000A3EEB1E001900D928A95E1F783EE91E06F
:102640000E94DA0C0E944411BACF81E08E25E8CEB8
:102650001F93CF93DF93CDB7DEB72C970FB6F894C7
:10266000DEBF0FBECDBF4F83588769877A878B87C0
:102670009C87CE0107960E949A11882369F08A856B
:102680009B85892B39F04F815885842F85238F3F77
:1026900009F077C016E065C086E0FE013796DE01DE
:1026A000119601900D928A95E1F76A857B856115F7
:1026B000710581F35F814885842F85238F3F51F316
:1026C0002091B20130E0C901019687709927E0910D
:1026D000B101E817190671F40E94C5101092B201F9
:1026E0001092B10186E0E3EEF1E0DF011D928A95E0
:1026F000E9F7D0CF59834A837D836C8396E0929F1C
:10270000D001939FB00D1124AD54BE4FFE01319600
:1027100001900D929A95E1F78093B2010E941511F4
:10272000B9CF819FC00111248D549E4F0E949A11F0
:102730008823E9F0E091B1011E9FF0011124ED54CE
:10274000FE4F4081518162817381848195810E9415
:1027500005118091B10190E00196877099278093CF
:10276000B1018091B1019091B2018913DACF2C9619
:102770000FB6F894DEBF0FBECDBFDF91CF911F9192
:10278000089569857A858B859C850E94051182CF85
:10279000EF92FF920F931F93CF93DF938C01892BBE
:1027A00089F0F12CEE24E394E8012196F80184915C
:1027B000843709F457C0A0F4823009F43EC048F4CD
:1027C0008130D1F0DF91CF911F910F91FF90EF9069
:1027D00008959CEF980F9037A8F70E94DF0C0AC06D
:1027E000853709F44CC09CE7980F903758F78F77DE
:1027F0000E94700D8E0116C00E5F1F4FFE01849166
:1028000090E2980F983060F48770FE2D01C0FF0FA2
:102810008A95EAF78F2F0E942F170E94591702C03E
:102820000E94DF0C8F2D815008F4BECFEFE9FFE04E
:102830003197F1F700C00000F6CF0E5F1F4FFE0189
:10284000849190E2980F983050F48770FE2D01C06B
:10285000FF0F8A95EAF78F2F0E943517DECF0E946F
:10286000700DE0CF0E5F1F4FFE01C491C150D0F23A
:102870008FE99FE00197F1F700C00000F7CF0E5FEE
:102880001F4FFE01F490CECF08950C9444140E9483
:10289000451460930B0270930C0280930D02909389
:1028A0000E020C94AF1008950C944714CF93DF934D
:1028B00000D000D0CDB7DEB769837A838B839C8349
:1028C00080910B0290910C02A0910D02B0910E022A
:1028D00029813A814B815C81282B392B4A2B5B2B38
:1028E00029833A834B835C83CA01B9010F900F900F
:1028F0000F900F90DF91CF910C944714CF93DF93FB
:1029000000D000D0CDB7DEB769837A838B839C83F8
:1029100080910B0290910C02A0910D02B0910E02D9
:1029200029813A814B815C81282339234A235B2307
:1029300029833A834B835C83CA01B9010F900F90BE
:102940000F900F90DF91CF910C944714CF93DF93AA
:1029500000D000D0CDB7DEB769837A838B839C83A8
:1029600080910B0290910C02A0910D02B0910E0289
:1029700029813A814B815C81282739274A275B27A7
:1029800029833A834B835C83CA01B9010F900F906E
:102990000F900F90DF91CF910C9447140C940A0480
:1029A0000E94CE146093070270930802809309027C
:1029B00090930A020C94AF1060E070E0CB010C948D
:1029C000D0140F931F93CF93DF9300D000D0CDB7D7
:1029D000DEB741E050E060E070E08A019B0104C096
:1029E000000F111F221F331F8A95D2F709831A8304
:1029F0002B833C83C901B8010F900F900F900F906B
:102A0000DF91CF911F910F910C94D0140F931F93CE
:102A1000CF93DF9300D000D0CDB7DEB741E050E0D8
:102A200060E070E004C0440F551F661F771F8A9551
:102A3000D2F78091070290910802A0910902B0910B
:102A40000A028A019B01082B192B2A2B3B2B098395
:102A50001A832B833C83C901B8010F900F900F900C
:102A60000F90DF91CF911F910F910C94D0140F9381
:102A70001F93CF93DF9300D000D0CDB7DEB741E0F6
:102A800050E060E070E004C0440F551F661F771FE0
:102A90008A95D2F740955095609570958091070280
:102AA00090910802A0910902B0910A028A019B014B
:102AB000082319232A233B2309831A832B833C836E
:102AC000C901B8010F900F900F900F90DF91CF9137
:102AD0001F910F910C94D0140F931F93CF93DF93FA
:102AE00000D000D0CDB7DEB741E050E060E070E04C
:102AF00004C0440F551F661F771F8A95D2F7809137
:102B0000070290910802A0910902B0910A028A017D
:102B10009B01082719272A273B2709831A832B8320
:102B20003C83C901B8010F900F900F900F90DF9177
:102B3000CF911F910F910C94D014CF93DF9300D0BD
:102B400000D0CDB7DEB769837A838B839C83809175
:102B5000070290910802A0910902B0910A0229810E
:102B60003A814B815C81282B392B4A2B5B2B2983A3
:102B70003A834B835C83CA01B9010F900F900F9089
:102B80000F90DF91CF910C94D014CF93DF9300D0AE
:102B900000D0CDB7DEB769837A838B839C83809125
:102BA000070290910802A0910902B0910A022981BE
:102BB0003A814B815C81282339234A235B23298373
:102BC0003A834B835C83CA01B9010F900F900F9039
:102BD0000F90DF91CF910C94D014CF93DF9300D05E
:102BE00000D0CDB7DEB769837A838B839C838091D5
:102BF000070290910802A0910902B0910A0229816E
:102C00003A814B815C81282739274A275B27298312
:102C10003A834B835C83CA01B9010F900F900F90E8
:102C20000F90DF91CF910C94D0140895E82F2CE0F1
:102C3000929FE00D11248E2F877041E001C0440F58
:102C40008A95EAF7E695E695E69585E0E89FF00136
:102C50001124E751FE4F30E020E070E05191DF0198
:102C60001197CB01022E02C0969587950A94E2F740
:102C7000817081958527842385278C932F5F3F4F13
:102C80002530310559F70895E82F2CE0929FE00D8B
:102C900011249E2F9770E695E695E69585E0E89FCE
:102CA000F0011124E751FE4F50E040E080E0219117
:102CB00030E0092E02C0369527950A94E2F721707C
:102CC0003327042E01C0220F0A94EAF7822B4F5FAC
:102CD0005F4F4530510559F70895BF92CF92DF926B
:102CE000EF92FF920F931F93CF93DF938C01C090CD
:102CF0000702D0900802E0900902F0900A02809149
:102D00000B0290910C02A0910D02B0910E02C82A04
:102D1000D92AEA2AFB2ACFE1D0E0BC2ED701C6018E
:102D20000C2E04C0B695A795979587950A94D2F76F
:102D300080FD0EC0219788F7B12C8B2DDF91CF91AC
:102D40001F910F91FF90EF90DF90CF90BF9008956B
:102D5000B8018C2F0E94C306019761F3EECFCF9389
:102D6000DF93D82FC92F0E946D166D2F7C2FDF9116
:102D7000CF910C94C3061F93CF93DF93162FD72FB9
:102D80009091B001992339F0862F972FDF91CF9141
:102D90001F910C94AF16882391F0862F972F0E94D5
:102DA0006D16C82F682F812F9D2F0E941616612F38
:102DB0007D2F8C2FDF91CF911F910C94C306862F0E
:102DC000972F0E944416C82FF2CF682F80910401DC
:102DD000909105010C94B018682F80910401909196
:102DE00005010C94B21880910401909105010C9496
:102DF000B41880910F0285958595859508958091E9
:102E00000F028770089590910F02977081E009F486
:102E100080E0089580911B02089590911B02982BE9
:102E200090931B020895982F909580911B028923FF
:102E300080931B02089510921B02089590911A022C
:102E4000982B90931A020895982F909580911A02CA
:102E5000892380931A02089510921A02089590917E
:102E60001902982B909319020895982F90958091AC
:102E70001902892380931902089510921902089566
:102E800080911002089508950C94431790911002B8
:102E9000981721F0809310020C94441708958091A4
:102EA0001002882329F01092100280E00C9444173D
:102EB0000895E0910401F091050180911B02808347
:102EC000E0910401F0910501808190911A02892B13
:102ED0008083E0910401F0910501808190911902B5
:102EE000892B808390911002992381F0E091040155
:102EF000F09105018081892B80838091040190915C
:102F000005010E94641881110E944F1780910401ED
:102F1000909105010C94B20B08950C948C1798E0D5
:102F2000899F90011124622B60930F020E94061565
:102F300080910F028595859585950C948D1710923B
:102F40000F0280E00C948D1790910F0280958923D9
:102F500080930F02282F277071F4282F082E000C61
:102F6000330B9217130639F08595859585950E9448
:102F700037150C949F17089590E080E00E94901FF1
:102F80009C0181E02C3E3E4F09F080E0089582E0F4
:102F900090E00C94821F83E090E00C94821F682FD5
:102FA00083E090E00C94961FCF9384E090E00E9421
:102FB000821FC82F81E290E00E94821F982F8C2FE1
:102FC000CF910895CF93682FC92F84E090E00E949D
:102FD000961F6C2F81E290E0CF910C94961FAB016D
:102FE000BC018FE090E00C94A81F83E190E00C946A
:102FF0008A1FAB01BC0183E190E00C94A81F60E044
:1030000070E0CB010E94EF170C94D4036CEE7EEFBE
:1030100090E080E00E94B41F60E082E090E00E94B7
:10302000961F60E083E090E00E94961F10920B02D2
:1030300010920C0210920D0210920E0260E084E0D9
:1030400090E00E94961F60E081E290E00E94961F4F
:1030500060E085E090E00E94961F60E086E090E0EE
:103060000E94961F6FEF87E090E00E94961F40E05D
:1030700050E0BA0188E090E00E94A81F60E08DE077
:1030800090E00E94961F40E050E0BA0188E190E095
:103090000E94A81F60E087E190E00E94961F40E038
:1030A00050E0BA018CE190E00E94A81F60E080E24D
:1030B00090E00E94961F0C94FF170C940618682F3E
:1030C0008EE090E00C94961FAC019C012E5F3F4F68
:1030D000485F5F4F80E02417350709F40895F90130
:1030E00091919F019923B9F38F5FF5CF9C016623DE
:1030F00051F0FC013296285F3F4F8191861729F0ED
:10310000E217F307D1F780E0089581E008959C016C
:10311000FC0132968FEF90E04191461751F08F3FBE
:1031200019F4411101C0892F9F5F9630A9F78F3F95
:1031300009F40895280F311D87FD3A95F90162833E
:1031400008959C01FC013296285F3F4F81918613C0
:1031500003C0DF0111971C92E217F307B9F7089536
:103160000C9487180C94A118FC01329686E0DF01BC
:103170001D928A95E9F7089508950895CF930E94C6
:10318000BC180E9421090E94BD18C0E08C2F0E942B
:10319000B208892B31F4CF5FC430C1F780E0CF9102
:1031A000089581E0FCCF82E084BD93E095BD9AEF65
:1031B00097BD80936E0008952FB7F8948091D30245
:1031C0009091D402A091D502B091D6022FBF08955C
:1031D0009C014FB7F8948091D3029091D402A091B2
:1031E000D502B091D6024FBF821B930B08957894FD
:1031F0001F921FB61F9211248F939F93AF93BF937B
:103200008091D3029091D402A091D502B091D602C0
:103210000196A11DB11D8093D3029093D402A09377
:10322000D502B093D602BF91AF919F918F911F901D
:103230001FBE1F90189588E198E00FB6F894A895E6
:10324000809360000FBE90936000A895F894D8E03A
:10325000CEEF28E3299320E0299314BEFFCF0895F1
:10326000CF93DF9300D000D0CDB7DEB70E94BC175C
:10327000811102C00E945D180E94C71780931C0232
:103280000E94D4179093D8028093D7020E94CB1744
:10329000282F30E050E040E029833A834B835C8361
:1032A000CA01B9010F900F900F900F90DF91CF914D
:1032B0000C9454148091240280FF12C060910B0181
:1032C00085E0689FB00111247595679575956795A0
:1032D00060387105A8F561157105A1F1862F089573
:1032E00081FF09C060910B0185E0689FB001112446
:1032F00075956795EDCF60910B0182FD0AC08091B5
:1033000023028823D1F090910A0160910B01891763
:1033100028F085E0689FB0011124DACF869FB001C4
:10332000112485E0869F9001879F300D1124692F1D
:1033300070E0C9010E94F81ECBCF65E070E0CECFEF
:103340008FE7089581E008958091240280FF0CC0EA
:103350006091070170E075956795759567956115A2
:10336000710549F1862F089581FF06C0609107011C
:1033700070E075956795F3CF6091070182FD0BC0F2
:10338000909123029923A1F0609106018091070199
:10339000961738F0682F70E06038710500F38FE7FA
:1033A0000895899FC001112470E00E94F81EF4CF97
:1033B00061E070E0D7CF81E00895803F31F40E9452
:1033C0005A198195809327020895813F19F40E942C
:1033D0005A19F8CF823F31F40E945A19819580938F
:1033E00026020895833F19F40E945A19F8CF893FA5
:1033F00029F40E94A4198093280208958A3F21F499
:103400000E94A4198195F7CF8B3F31F40E94A41933
:1034100081958093290208958C3F19F40E94A41984
:10342000F8CF843F31F4809125028160809325029A
:103430000895853F21F4809125028260F7CF863F71
:1034400021F4809125028460F1CF873F21F480919F
:1034500025028860EBCF883F21F4809125028061AE
:10346000E5CF8D3F31F48091240281608093240266
:1034700008958E3F21F4809124028260F7CF8F3F20
:10348000B9F7809124028460F1CF90912602803FA9
:1034900041F48091270287FD10922702992371F051
:1034A0000895813F29F4809127021816ACF3F6CFD6
:1034B000823F81F497FFF2CF10922602809127027B
:1034C00090912802892B90912902892B49F710921B
:1034D00023020895833F19F4191674F3DFCF893F4F
:1034E00039F4809128021816CCF610922802D6CF13
:1034F0008A3F29F48091280287FFD0CFF6CF8B3FF7
:1035000039F48091290287FFC9CF10922902C6CFD2
:103510008C3F29F4809129021816BCF3BFCF843F59
:1035200031F4809125028E7F80932502B7CF853FAD
:1035300021F4809125028D7FF7CF863F21F4809181
:1035400025028B7FF1CF873F21F480912502877F71
:10355000EBCF883F21F4809125028F7EE5CF8D3F10
:1035600031F4809124028E7F8093240297CF8E3F86
:1035700021F4809124028D7FF7CF8F3F09F08ECF09
:10358000809124028B7FF0CF85E292E00E94BD0BF8
:103590000E94DC1890932202809321020895CF9319
:1035A000DF9300D000D00F92CDB7DEB785E0E5E223
:1035B000F2E0DE01119601900D928A95E1F780917B
:1035C000260290912702892B81F080911F02909111
:1035D00020020E94E8189C0180912302882329F18F
:1035E00090910C019217130668F180912802909136
:1035F0002902892B91F080911D0290911E020E9458
:10360000E8189C0180912302882309F477C09091E7
:1036100008019217130608F47FC00F900F900F90C7
:103620000F900F90DF91CF91089540910D019AE096
:10363000499FA001112442175307B8F68F5F80936A
:10364000230202C08F3FD1F7109228021092290264
:1036500080912602181624F40E945A19809326029B
:103660008091260287FF05C00E945A198195809398
:10367000260280912702181624F40E945A1980937A
:1036800027028091270287FF05C00E945A19819561
:1036900080932702309126023323A1F02091270244
:1036A000222381F045EB3403C00111249923F1F06A
:1036B0009093260245EB2403900111243323D1F08B
:1036C000309327020E94C41A809121029091220215
:1036D0009093200280931F0285E0FE013196A5E2BF
:1036E000B2E001900D928A95E1F77FCF81E080935F
:1036F0002602E0CF81E080932702E4CF40910901C8
:103700009AE0499FA00111244217530708F085CF82
:103710008F5F8093230202C08F3FD1F71092260261
:103720001092270280912802181624F40E94A419EE
:10373000809328028091280287FF05C00E94A41967
:1037400081958093280280912902181624F40E9402
:10375000A419809329028091290287FF05C00E9445
:10376000A419819580932902309128023323A1F076
:1037700020912902222381F045EB3403C00111245A
:103780009923F1F09093280245EB24039001112432
:103790003323D1F0309329020E94C41A8091210270
:1037A0009091220290931E0280931D0285E0FE01FB
:1037B0003196A5E2B2E001900D928A95E1F72DCF06
:1037C00081E080932802E0CF81E080932902E4CF5A
:1037D00085E0E5E2F2E0DF011D928A95E9F71092BB
:1037E00023021092240208950E94DC18D82F192F6A
:1037F00080E880936100109261000E94FA0B0E94A1
:10380000051D0E94A10B0E94E51E539A80E0815085
:1038100041F553987894FFEF20E732E0F1502040D3
:103820003040E1F700C000000E94020CC0E00CE054
:103830008091F3028823F9F01092F3020E94DC18C1
:10384000D82F192F0E94F01D8091F902882329F0AA
:103850008091E40284FD0E940A0C0E94B91CC0E021
:10386000E7CFA895EFE9FFE03197F1F700C000003E
:10387000CECFC1E0DDCF8D2F912F0E94E8180697A3
:1038800010F4CC23F9F20E94BE18C82F882389F3C4
:10389000F8949AB15B9A892F8C608AB98BB1802792
:1038A0008BB98FE7E8E3F1E08150E040F040E1F7C9
:1038B00000C000008BB180278BB99AB95B987894CF
:1038C000B7CF8091BB020895CF93DF9300D00F92C2
:1038D000CDB7DEB79B0190912C02981307C04091A1
:1038E0002A0250912B024617570791F080932C0221
:1038F00030932B0220932A0289833B832A83809171
:10390000100384FF05C063E0CE0101960E94EC1D08
:103910000F900F900F90DF91CF910895BC0184E03C
:103920000C94641CBC0183E00C94641CCF93DF9363
:1039300000D000D000D0CDB7DEB7FC0182E0898393
:1039400085E0DE01129601900D928A95E1F7809153
:10395000100384FF05C066E0CE0101960E94EC1DB5
:1039600026960FB6F894DEBF0FBECDBFDF91CF9184
:103970000895CF93DF93CAE0D0E08091E40284FF02
:103980001AC08091380290913902981789F028E086
:10399000829FC001112468E0865C9D4F0E94E81D53
:1039A0008091380290E001968F70992780933802B9
:1039B000DF91CF9108950E94F01D8FE99FE001975C
:1039C000F1F700C000002197C1F6F2CFFC01A091F1
:1039D0003902B0E09D012F5F3F4F2F703327809158
:1039E0003802821771F083E0AA0FBB1F8A95E1F7B6
:1039F000A65CBD4F88E001900D928A95E1F7209377
:103A000039020E94F01D0C94B91C8EE091E00895DB
:103A1000FC01808180768032D1F48181813041F453
:103A200080E392E09093F5028093F40288E0089599
:103A3000823041F48AEB92E09093F5028093F40295
:103A400081E008958A3029F483818093BA0280E06E
:103A500008958930E1F7828193818115924069F45C
:103A600084819581892B49F481E080932F0286819E
:103A7000978190932E0280932D028FEF0895FC0181
:103A800080912D0290912E02892B61F080912F025E
:103A9000813041F490819093BB0210922E021092DB
:103AA0002D0208958FEF08950895FC0183818330DE
:103AB00059F130F48130C1F08230F1F080E00895A6
:103AC000813209F444C08232C9F78481958100971C
:103AD00009F44EC0019791F785E893E09093F502C1
:103AE0008093F40281E8089583E493E09093F502D3
:103AF0008093F40282E1089588E093E09093F502C8
:103B00008093F4028BE3089582818230C1F050F4F7
:103B100081110DC081E893E09093F5028093F40247
:103B200084E00895833051F685E593E0F5CF89E68A
:103B300093E09093F5028093F40286E108958BE57B
:103B400093E09093F5028093F4028CE008958281D3
:103B5000882331F0813009F0B1CF83E393E002C0D4
:103B60008AE193E09093F5028093F40289E008954E
:103B700086E094E09093F5028093F40280E4089547
:103B80001F93CF93DF93782F162FEA01888184FF4C
:103B90001CC0898128E882278983AE014E5F5F4F70
:103BA000FA01272F392F710FD9012F5F3F4F8C91C9
:103BB00081937213F9CF612FCA010E9481021C5FA9
:103BC0001883DF91CF911F9108958AE58883E5CF0F
:103BD00044EE52E00C94C01D40E153E00C94C01D33
:103BE000CF93DF936091F602635067FD12C080911E
:103BF000F202CCE0D0E0C81BD109C650DD4F809165
:103C0000F102803108F059C0CE010E94541D10927B
:103C1000F6028091190184FF43C0809118018F3F03
:103C200009F43EC0C82F893008F0C8E0982F9C1BCB
:103C3000909318019091D90228E892279093D90285
:103C4000882301F18091F4029091F5022091BC0249
:103C50004C2F480F26FFAEC0FC012AED32E05491F4
:103C6000D9015C932F5F3F4F31964E13F8CF2FEF62
:103C70002C0F30E02F5F3F4F820F931F9093F50280
:103C80008093F4026C2F8AED92E00E94810284E01E
:103C90008C0FC83019F09FEF909318018093190191
:103CA00084E199B19C7031F48150D9F71092F702F8
:103CB0001092F002DF91CF9108958D3209F067C024
:103CC000683009F0A4CF83EC8093D9028AE5809311
:103CD00019011092BC028881807671F0CE010E9499
:103CE000081D8F3FC1F4988197FD8E8190E89093D5
:103CF000BC02809318018BCF2A811092E202998135
:103D0000911111C01092E30222EE32E082E0309372
:103D1000F5022093F4029F819111EBCF9E819817B9
:103D200040F7892FE6CF953029F42093F70222EE51
:103D300032E0EDCF963099F49B81913021F4CE01A1
:103D40000E94551D08C09230D1F39330C1F39132D7
:103D5000B1F39232A1F390E49093BC02C2CF9830B9
:103D600079F0993019F42093F902E1CF9A3061F09B
:103D70009B30E9F69BE49093E50290931103D7CF33
:103D800029EF32E081E0C3CF22EE32E0FBCF809119
:103D9000BC0287FF3CCFCE010E943F1D8F3F21F424
:103DA0008EE18093190133CF882309F430CF10922C
:103DB00018012DCFEAEDF2E09C01D9012F5F3F4FB2
:103DC0005C9151934213F9CF52CFE9E6F0E0808144
:103DD00088608083E99AA4EEB2E08BE411968C931C
:103DE0001197E0E1F3E081838AE58C938083089565
:103DF00097FB072E16F4009407D077FD09D00E9498
:103E0000121F07FC05D03EF4909581959F4F0895B1
:103E1000709561957F4F0895EE0FFF1F0590F49107
:103E2000E02D0994AA1BBB1B51E107C0AA1FBB1FB1
:103E3000A617B70710F0A61BB70B881F991F5A9536
:103E4000A9F780959095BC01CD0108958F929F921E
:103E5000AF92BF92CF92DF92EF92FF92CF93DF9318
:103E6000EC01688179818A819B81611571058105E9
:103E7000910521F464E279ED8BE597E02DE133EFD4
:103E800041E050E00E94CA1F49015A019B01AC0168
:103E9000A7EAB1E40E94E91F6B017C01ACEEB4EF2C
:103EA000A50194010E94F71FDC01CB018C0D9D1D23
:103EB000AE1DBF1DB7FF03C00197A109B04888839D
:103EC0009983AA83BB839F77DF91CF91FF90EF9077
:103ED000DF90CF90BF90AF909F908F9008950E94F9
:103EE000261F089580E091E00E94261F0895B0E00B
:103EF000A0E08093000190930101A0930201B09390
:103F000003010895F999FECF92BD81BDF89A9927D2
:103F100080B50895A6E1B0E044E050E00C94BC1FE9
:103F2000A8E1B0E042E050E00C94BC1F262FF999C4
:103F3000FECF92BD81BDF89A019700B4021639F008
:103F40001FBA20BD0FB6F894FA9AF99A0FBE0895D9
:103F50000396272F0E94971F0E94961F252F0E94CD
:103F6000971F242F0C94971F0196272F0E94971FAD
:103F70000C94961FDC01CB01FC01F999FECF06C021
:103F8000F2BDE1BDF89A319600B40D924150504017
:103F9000B8F70895052E97FB1EF400940E94E11FC8
:103FA00057FD07D00E94FC1F07FC03D04EF40C9471
:103FB000E11F50954095309521953F4F4F4F5F4FF2
:103FC000089590958095709561957F4F8F4F9F4F85
:103FD00008950E941E20A59F900DB49F900DA49F50
:103FE000800D911D11240895B7FF0C94E91F0E94C4
:103FF000E91F821B930B0895A1E21A2EAA1BBB1B7B
:10400000FD010DC0AA1FBB1FEE1FFF1FA217B307A4
:10401000E407F50720F0A21BB30BE40BF50B661FBA
:10402000771F881F991F1A9469F76095709580957E
:1040300090959B01AC01BD01CF010895A29FB001F5
:10404000B39FC001A39F700D811D1124911DB29FCC
:10405000700D811D1124911D0895F894FFCFC8049F
:10406000DB04E204EA040F051A0538054B054F0589
:1040700053055505570559055B055D05EC0AF20A20
:10408000F60A040B080B0C0B100B160B1E0B220B65
:10409000260B2A0B360B3A0B3E0B420B480B660BDA
:1040A000500BFA0A000B2E0B320B1A0B4C0B5C0B4D
:1040B0006F0B730B200E200E820E820ED70EF30EA6
:1040C000500E500E370FEA0FFB0FFB0F5C10500E17
:0440D000500E651019
:1040D4000100000011022808641E140A321E611C2B
:1040E400E61C961C921C8E1CFF5AE000E400E200C1
:1040F400E600E100E500E300E70003510451E200BB
:10410400E900EA00B500B600B700CD008301CC0099
:104114008A0192019401210223022402250226022B
:1041240027022A02B300B4006F00700030979695FE
:10413400323160616263919034353394E200E90076
:10414400EA00B500B600B700CD008301CC008A01B7
:10415400920194012102230224022502260227024D
:0A4164002A02B300B4006F007000DF
:00000001FF
