:100000000C94B3010C94FA010C9415020C94FA01AF
:100010000C94FA010C94FA010C94FA010C94FA0174
:100020000C94FA010C94FA010C94FA010C946D1BD7
:100030000C94FA010C94FA010C945C160C94FA01DD
:100040000C94FA010C94FA010C94FA010C94FA0144
:100050000C94FA010C94FA010C94FA010C94FA0134
:100060000C94FA010C94FA01290014001A000800FB
:10007000150017001D0018000C00120013002A00C4
:100080002B0004001600070009000A000B000D00F9
:100090000E000F002F003000E1001C001B000600C6
:1000A0001900050011001000330034003100D95C44
:1000B000E000E200E600E30001512C432C43025132
:1000C000360037003800640029001E001F002000A1
:1000D00021002200230024002500260027002A00FA
:1000E00001003A003B003C003D003E003F000000A4
:1000F00000004A004B004C0001004000410042005B
:100100004300440045004600AC004D004E0028006E
:10011000010001000100010000002C002C00000083
:10012000BB00AA00A900AE00290000005200000098
:1001300000000000F400F000F5002D002E002A0061
:100140000100500051004F0000000000F200F100DB
:10015000F300000000004C0001000000000000005F
:10016000000000000000F600AC00000000002800C5
:10017000010001000100010000002C002C00000023
:10018000AB00AA00A900AE00015C00005200000014
:1001900000000000000000005F00600061005400EB
:1001A0000100500051004F0000000000000000005E
:1001B0005C005D005E0055000100000000000000D2
:1001C000000000000000000059005A005B005600CB
:1001D000010001000100010000000000000000001B
:1001E000620063005800570000000000000000009B
:1001F000000000010204060A0F17202C3A4A5D7124
:10020000879DB3C7DAE9F5FCFFFCF5E9DAC7B39DD2
:1002100087715D4A3A2C20170F0A0604020100007C
:10022000000000000000000009023B00020100A0E5
:10023000320904000001030101000921010100014C
:1002400022400007058103080001090401000103A1
:10025000000000092101010001228100070583033C
:100260000800011201100100000008C016DB27027F
:1002700000010203010403300000000C0350006C75
:10028000006100690064000000160364006D00391D
:10029000007200650063006F00720064007300006C
:1002A000000403090405010902A10185020901A155
:1002B000000509190129051500250195057501811C
:1002C0000295017503810305010930093115812566
:1002D0007F95027508810609381581257F9501757E
:1002E000088106050C0A38021581257F95017508DD
:1002F0008106C0C005010980A101850319012AB743
:1003000000150126B700950175108100C0050C0984
:1003100001A101850419012AA002150126A0029558
:100320000175108100C005010906A101050719E04A
:1003300029E71500250195087501810295017508C9
:1003400081030507190029FF150026FF0095067592
:100350000881000508190129059505750191029587
:100360000175039103C011241FBECFEFD8E0DEBF9B
:10037000CDBF04B603FE27C080910E0390910F03FA
:10038000A0911003B09111038730904BA740B04B60
:10039000D1F410920E0310920F03109210031092DA
:1003A000110314BE84B7877F84BF0FB6F894A89555
:1003B00080916000886180936000109260000FBEA1
:1003C000E0E0F8E3099511E0A0E0B1E0EAE2FFE344
:1003D00002C005900D92AC38B107D9F723E0ACE824
:1003E000B1E001C01D92AE30B207E1F70E94AC1B34
:1003F0000C94281F0C940000A82FB92F80E090E0E7
:1004000041E050EA609530E009C02D918227979530
:10041000879510F084279527305EC8F36F5FA8F3A7
:100420000895EADF8D939D930895CF93CFB7CF932F
:10043000DF93C3954B9BE9F74B9B10C04B9B0EC0C2
:100440004B9B0CC04B9B0AC04B9B08C04B9B06C0F0
:10045000C091E502C395C093E5028EC06F93C09131
:10046000E402DD27C451DD4F2F9365E54B9B03C0AC
:100470002F916F91E1CF0F931F934F9320E040E1B5
:100480005F9309B10C7003FB27F93F9350E03BE009
:1004900039C01C7040642F77012F5F5F1EC0406819
:1004A00019B11C702F7752501FC0406409B12F77CB
:1004B0000C70D1F15F5F00C023C0406219B12F778B
:1004C0001C7091F15F5F00C025C00C701027515067
:1004D00012F45D5F0000115027952C3F19B1C8F64A
:1004E0001C700127015027952C3FC8F642274993DD
:1004F00009B10C7010274F73115027952C3FA8F6A7
:100500004695469519B11C7079F001270150279541
:100510002C3F98F66B5A60F3315009B1B0F600C029
:1005200012E01CBB00271CC03B503195C31BD040C0
:1005300012E01CBB0881033C21F10B3411F1209126
:10054000E2021981110F1213EDCF4A81441F0936BF
:1005500069F10D3211F0013E29F74F7009F0042FB7
:100560000093EA023F915F914F911F910F912F915C
:100570006F91CCB3C1FD5DCFDF91CF91CFBFCF9154
:1005800018952091EA02222369F31091E8021123C1
:10059000E9F53430EAF13093E8022093E302109158
:1005A000E4023BE0311B3093E40232C00091E802E8
:1005B000013064F50AE54F7049F43091150134FDBE
:1005C00028C000931501CBECD2E027C0433049F09E
:1005D0003091D60234FD1DC00093D602C7EDD2E0A3
:1005E0001CC03091020334FD14C000930203C3E029
:1005F000D3E013C0052710E000C000000BB91AC0FB
:10060000052710E0221F1DC010E021C04AE502C0EE
:1006100032ED432FC4E1D0E032E01AB11C605B9AA6
:100620000BB11AB95CE020E865E320FF05270BB9A0
:10063000279517951C3FF0F66695B8F7B1F720FFA0
:1006400005270BB9279517951C3FD0F627951795C9
:1006500017FF052700001C3F0BB9B0F629913A950A
:1006600019F7037F1091E902110FC651D0400BB961
:1006700011F01093E20212E01CBB08601AB1137F64
:10068000402F437F54E05A95F1F70BB91AB94BB993
:1006900069CF0C9411060C9412060C9453030C941D
:1006A000AB0381E0089581E0089508950C9455030B
:1006B0001F93CF93DF9300D000D00F92CDB7DEB75A
:1006C00049835A836B833091A20189819A813111C8
:1006D0001DC06623B9F02223A9F00E94D613182F5B
:1006E000682F89819A810E947F1369817A81812F85
:1006F0000F900F900F900F900F90DF91CF911F915F
:100700000C9408040E94AD13182FEFCF0E94D6134B
:1007100069817A81EDCFFC01262F40815181628170
:10072000738184810C945803CF93DF93D82FC92F02
:1007300060E00E948B036D2F7C2FDF91CF910C9492
:1007400056030E942515811102C00E94C2150C9407
:1007500049030C944B03089581E008950C94AC0375
:10076000CF93C82F0E944F038C2FCF910C94AE03D0
:1007700008950E942C0E0E94B8032FEF84E39CE0A2
:10078000215080409040E1F700C000000C9480169A
:100790000F931F93CF93DF93EC0161E00E948B03D3
:1007A0008C01BE010E944D03882329F1BE01C801BE
:1007B0000E94C1078823F9F0BE01C8010E94050804
:1007C0008823C9F0BE01C8010E94D808882399F087
:1007D0008A81882339F001158CE5180751F00E3D08
:1007E0001C4579F0CE01DF91CF911F910F910C94B0
:1007F00051030E94B90380E0DF91CF911F910F91C7
:1008000008950E94C215F7CF90E080E00895089502
:10081000972F70E02CE0929F600D711D1124FB0159
:1008200090E3899FE00DF11D1124EE0FFF1FE859A1
:10083000FF4F859194910895FC01EE0FFF1FE85141
:10084000FE4F859194910895CF93DF930E94080401
:100850000E943605EC01811520E5920708F04BC097
:10086000811530E4930708F0B2C0803E910518F579
:10087000803C910508F09FC0883A910570F4853A54
:10088000910508F095C08130910529F10497813ACE
:10089000910508F1D0E0C0E01EC08F3B9105D1F377
:1008A000C85AD0E0CC0FDD1FCA5EDE4F0990D88158
:1008B000C02DD46410C0811540E2940780F48F3FAE
:1008C000910509F040F4883E910528F0805F910978
:1008D000D0654097F8F6CE01DF91CF910895C1150C
:1008E00080E3D80708F46DC0CE019927D3FD6CC012
:1008F000EC01D06CF0CFC11595E5D90760F5C115B5
:1009000024E5D20708F094C0C11533E5D30778F485
:10091000C11542E5D40708F07AC0C11581E5D807B2
:1009200008F458C0DC2FCC27C16FD06AD4CFCE01D9
:100930008370992721E030E002C0220F331F8A958F
:10094000E2F7C695C69590E2C99FE0011124C22B3B
:10095000D32BDA68C0CFC1152AE5D207B0F4C11590
:1009600039E5D30708F074C0C11546E5D40708F48B
:1009700064C0CE0198558F3F910511F008F08ACFE1
:10098000DC2FCC27C06FD06AA6CFCE019056811540
:10099000904208F07FCF8D2F8F710E94CE0590E09E
:1009A000982F882788279F719C012C2BE9014EC026
:1009B000A497D06490CF805C91090E941C04EC0144
:1009C0008ACFCE019F70F9CFEC01D86C84CFDF7055
:1009D000D06A81CFCE0174E0969587957A95E1F73C
:1009E00083702C2F26952695237040E2249F90013A
:1009F0001124382B8C2F8370C1E0D0E002C0CC0FC3
:100A0000DD1F8A95E2F7C22BD32BDC6864CFCE01C1
:100A10008370992721E030E002C0220F331F8A95AE
:100A2000E2F7C695C69580E2C89FE0011124EBCF9E
:100A3000DC2FCC27C46FD06A4ECF8C2F0E94CE05FE
:100A4000C82FD0E0DC2FCC27CC27DF71D06243CF7A
:100A50008C2F8F700E94CE0534E0D695C7953A95BD
:100A6000E1F7CF70DC2FC82FD06935CF803E9105DC
:100A700099F1C8F48133910509F476C048F48932BC
:100A8000910509F46AC08A32910509F474C0089589
:100A900089339105D1F082389105B9F085339105FC
:100AA00009F454C00895843E910599F138F4823ECA
:100AB0009105F9F0833E910509F10895863E91056F
:100AC00099F1873E9105B9F108952091C9022370EB
:100AD000A1F080EE90E008952091C90220FD52C05F
:100AE0003091CA0230FF09C024FF4FC090E080E07F
:100AF00004C02091C90222FDF7CF08952091C902B8
:100B000022FD46C03091CA0230FDE3CF24FFF5CF6D
:100B1000EDCF2091CA0221FFF0CF8091C90284FD60
:100B2000E5CF87EE90E008952091C90223FFE5CF3D
:100B300024FDDCCFF6CF2091C90223FD2CC03091DB
:100B4000CA0231FFE3CF84EE90E008952091C902FC
:100B500025FFD3CF89E290E008952091C90225FFB7
:100B6000CCCF85E390E008952091C90226FFC5CF40
:100B70008AE290E008952091C90226FFBECF81E36A
:100B800090E0089589E390E0089583EE90E0089561
:100B900082EE90E0089586EE90E008959091C9026B
:100BA00092FF06C0282F28712830F9F4877F8460CF
:100BB00093FF06C0282F28712831F1F4877E8461C5
:100BC0002091CA0220FF06C0382F38713830D9F47E
:100BD000877F816021FF06C0282F28712831D1F43A
:100BE000877E816194FD877E0895282F24712430AB
:100BF000F9F68B7F8860DCCF282F2471243101F730
:100C00008B7E8861DDCF382F3171313019F78E7FBF
:100C10008860E0CF282F2171213121F78E7E8861F5
:100C2000E1CF08950895E82FF0E0EE0FFF1FE5549F
:100C3000FD4F808191810895089580EA8A95F1F7AA
:100C40000895CF93DF93A0E5B1E044E551E0C1E022
:100C5000D0E08D91E82FE295EF70F0E061A18F7008
:100C60009E0101C0220F8A95EAF7922F9095962354
:100C700091A382A1822B82A34A175B0751F7A4E4B8
:100C8000B1E040E551E0C1E0D0E08D91E82FE29580
:100C9000EF70F0E061A18F709E0101C0220F8A9574
:100CA000EAF7922F9095962391A382A1822B82A39B
:100CB0004A175B0751F71092B4021092B3021092D8
:100CC000BC021092BB021092B6021092B5021092B2
:100CD000BE021092BD021092B8021092B70210929A
:100CE000C0021092BF021092BA021092B902109282
:100CF000C2021092C10284E00E941A07DF91CF91D4
:100D00000C94A1034F925F926F927F928F929F9269
:100D1000AF92BF92CF92DF92EF92FF920F931F9309
:100D2000CF93DF9383EBE82E82E0F82E90E5A92E97
:100D300091E0B92E512C88248394912CD7016D9089
:100D40007D907D01FD01129212928F01D5018D914E
:100D50005D01C82FC295CF70D0E099A18F7064015A
:100D600001C0CC0C8A95EAF7892F8C2989A38AA126
:100D70004C2C409484218AA30E941D06E4E4F1E0F7
:100D800030E020E06191A62FA295AF70B0E0909680
:100D90008C91D8014D915C9190E06F7002C0959557
:100DA00087956A95E2F780FD42C0C401022E02C019
:100DB000880F991F0A94E2F7482B592BD8011196F6
:100DC0005C934E932F5F3F4F2C303105D9F689A1AC
:100DD000482249A28AA1C82ACAA281E02D913C9149
:100DE0002615370509F480E0582ABBEBEB16B2E074
:100DF000FB0609F0A3CF252D44E06BEB72E083EBFB
:100E000092E00E941B070E94A903852DDF91CF91DC
:100E10001F910F91FF90EF90DF90CF90BF90AF9018
:100E20009F908F907F906F905F904F90089590E08B
:100E300080E0C2CF0895FF920F931F93CF93DF936B
:100E4000F82E092F162FD72FC42F222349F081E027
:100E500080938E010E94411690938D0180938C01A6
:100E600080918E018823A1F080918C0190918D0159
:100E70000E944D16069760F0EF2DF02FA12FBD2F89
:100E800090E080E0D0E08C179D0744F010928E0136
:100E9000DF91CF911F910F91FF9008952191319192
:100EA0002D933D930196EFCF0F931F93CF93DF9335
:100EB000C62FD42F022FFC0182818823C9F06093B2
:100EC00091010E9441169093900180938F0180E2DE
:100ED0008C0F883008F050C0C77081E001C0880FC7
:100EE000CA95EAF7DF91CF911F910F910C94400BB7
:100EF00010919101161335C080918F01909190014E
:100F00000E944D16883C910560F5C0E2CD0F1D177B
:100F1000B9F080E2810F883040F4177081E001C0A1
:100F2000880F1A95EAF70E94470BC83048F481E011
:100F30009D2F977001C0880F9A95EAF70E94400B89
:100F4000802F0E942D0BC830B8F4D77081E001C00B
:100F5000880FDA95EAF7DF91CF911F910F910C94EA
:100F6000470B80E28C0F883038F4C77081E001C0F5
:100F7000880FCA95EAF7EFCFDF91CF911F910F91BC
:100F800008959C01CB01233F4CE5340769F190F4AF
:100F9000283DFCE53F0721F1293D4CE5340781F16F
:100FA000273D3C45B1F0FC018281882361F110921C
:100FB00091010895253FFCE53F07D1F0263F4CE520
:100FC0003407D1F0243F3C4571F727E245EE64EE4B
:100FD00003C026E241EE61EE0E94540780E00895CE
:100FE00027E245EE65EEF8CF26E241EE60EEF4CF63
:100FF00026E241EE62EEF0CF27E245EE66EEECCF60
:1010000028E241E0EFCF81E00895CF93DF93EC0138
:10101000FB018281882309F4C9C0C631FCE5DF07E2
:10102000E0F4C2309CE5D907F0F00E9438159093A7
:10103000CA028093C902C631ECE5DE0720F5C23052
:10104000FCE5DF0798F48091C9029091CA020E94E2
:1010500046150E942C0E80E006C09E012A5F3C458A
:101060002930310510F3DF91CF910895FE01E3504F
:10107000FC458091C9028160E331F10588F4E65DA9
:10108000F04E0C94CC1ECA5FDC45C930D105D8F6B1
:10109000C35CD04EFE010C94CC1E8091C9028260CC
:1010A0008093C902D0CF8091C9028460F9CF80912A
:1010B000C9028860F5CF8091CA0281608093CA021C
:1010C000C2CF8091CA028260F9CF8091C90280614B
:1010D000E7CF8091C9028062E3CF8091C90280642A
:1010E000DFCF0E942C0E8091C9028068D9CF8091F9
:1010F000C9028C60D5CF8091CA028360DFCF809116
:10110000C9028E7FCDCF8091C9028D7FC9CF8091DA
:10111000C9028B7FC5CF8091C902877FC1CF8091E3
:10112000CA028E7FCBCF8091CA028D7FC7CF8091BC
:10113000C9028F7EB5CF8091C9028F7DB1CF8091DA
:10114000C9028F7BADCF0E942C0E8091C9028F7790
:10115000A7CF8091C902837FA3CF8091CA028C7FE1
:10116000ADCF8091C90282FB992790F921E09227A7
:1011700090FB82F990FB83F993CF8091CA02982F5C
:10118000909591708E7F892B90FB81F997CF0E946B
:101190002C0E9091C902892F97FB87F9805880CF38
:1011A00081E00E94C4154FCF80E0FBCF81E05BCF90
:1011B000CF93DF93EB0186319C4511F50E947314A8
:1011C0009A81992399F08A7A91E009F490E09093BA
:1011D0009201811109C089E20E944E140E94C2143A
:1011E00080E0DF91CF91089585E3F6CF8091920161
:1011F000811104C089E20E945514F0CF85E3FBCF32
:1012000081E0EFCF90939801809397010895E0914A
:101210009701F0919801309721F00190F081E02D35
:10122000099480E00895E0919701F091980130973A
:1012300021F00280F381E02D09940895E091970157
:10124000F0919801309721F00480F581E02D099408
:10125000089520919501309196012817390771F072
:101260009093960180939501E0919701F0919801F8
:10127000309721F00680F781E02D099408952091A0
:101280009301309194012817390771F090939401DC
:1012900080939301E0919701F0919801309721F0AC
:1012A0000084F185E02D09940895089508950C9423
:1012B000550908950C9459090E9456090C94570930
:1012C00081E008950C9460090E9438160E9421065E
:1012D0000E9495160C945A099F92AF92BF92CF929A
:1012E000DF92EF92FF920F931F93CF93DF9300D083
:1012F00000D00F92CDB7DEB70E9482060E9462092D
:10130000882309F46EC05AE9A52E51E0B52E10E0ED
:1013100000E0902E802F0E9413067C01F501C19001
:10132000D1905F01C816D90609F455C080910E020C
:1013300081FD0E941C0696012E253F2580E0CC24CD
:10134000C394D12CA9014C215D21452BF1F1898356
:101350009A82EC20FD2081E0EF2809F480E08B8365
:101360000E9441168160782F9D838C8349815A8128
:101370006B818D810E94130A000F111FF801E65640
:10138000FE4F80819181C826D926D182C0820E94D9
:1013900034180E94070990919901891799F10E94C8
:1013A0000709809399010F900F900F900F900F9065
:1013B000DF91CF911F910F91FF90EF90DF90CF9031
:1013C000BF90AF909F900C94B0038F5FCC0CDD1C4E
:1013D0008C3009F0B7CF0F5F1F4F0430110509F0B3
:1013E00098CF8FEF89838A831B820E944116816088
:1013F000782F9D838C8349815A816B818D810E94D6
:10140000130AC5CF0F900F900F900F900F90DF91A0
:10141000CF911F910F91FF90EF90DF90CF90BF90F1
:10142000AF909F900895CF93DF93CDB7DEB72B9702
:101430000FB6F894DEBF0FBECDBF4F8358876987C4
:101440007A878B871E8285E0FE013796DE01119632
:1014500001900D928A95E1F749815A816B817C81D7
:101460008D819E812B960FB6F894DEBF0FBECDBF47
:10147000DF91CF910C948F10FC01808191810C94AD
:101480001814CF93C82F882309F48FC08238C1F471
:101490000E94070981FD89C089E30E944E140E94C1
:1014A000C2142FEF31EE84E0215030408040E1F74C
:1014B00000C0000089E30E945514CF910C94C2141F
:1014C0008338A1F40E94070980FD6FC083E50E9464
:1014D0004E140E94C2149FEF21EE34E09150204040
:1014E0003040E1F700C0000083E5E5CF8438A1F487
:1014F0000E94070982FD59C087E40E944E140E9491
:10150000C2148FEF91EE24E0815090402040E1F72B
:1015100000C0000087E4CFCF8CEF8C0F813AB8F485
:101520008C2F0E94C01A811140C06C2F8091000145
:10153000909101010E94DB15882329F08C2F0E94D5
:1015400055140E94C2148C2F0E944E14B6CF80E214
:101550008C0F883048F4C77081E001C0880FCA95AD
:10156000EAF70E947614A9CF8BE58C0F833038F40C
:101570002C2F2452330BC901CF910C942909E8E593
:10158000EC0FE73150F4F0E0EE0FFF1FEC5AFE4F86
:1015900080819181CF910C943F09C03F30F08C2F16
:1015A0000E944217CF910C942918CF910895882357
:1015B00009F452C0823871F40E94070981FF4CC0BF
:1015C00089E30E944E140E94C21489E30E945514BC
:1015D0000C94C214833859F40E94070980FF3CC060
:1015E00083E50E944E140E94C21483E5EFCF843835
:1015F00059F40E94070982FF2FC087E40E944E140D
:101600000E94C21487E4E2CF9CEF980F913AF0F267
:1016100090E2980F983050F4877091E001C0990FD4
:101620008A95EAF7892F0E947C14D2CF9BE5980F08
:10163000933020F490E080E00C94290998E5980F0D
:10164000973120F490E080E00C943F09803F20F037
:101650000E94AA170C9429180895CF93C82F0E94AE
:10166000410AC93349F42FEF87EE93E021508040BF
:101670009040E1F700C000008C2FCF910C94D70A66
:10168000882321F00E9476140C94C21408958823B4
:1016900021F00E947C140C94C2140895AF92BF9262
:1016A000CF92DF92EF92FF920F931F93CF93DF932E
:1016B00000D000D00F92CDB7DEB76C016D83798377
:1016C000FC01058102950F70128111110E94951481
:1016D0000E946C14E82E882371F01123B1F08D81E3
:1016E000805E883090F082E00E940D150E946C149C
:1016F00091E0E82EE926A980A2949FE0A922B12CCE
:10170000F501EA5BF04E0C94CC1EE12CF4CF09817C
:101710000F70F981F07F11F00295007F1123B1F075
:10172000002361F08D81805E883018F02D812111B9
:1017300009C0802F0E9476140E94C2148D810E94DD
:10174000410A15C0802F0E948714F6CF8D810E9418
:10175000D70A002361F08D81805E883018F04D81BA
:10176000411133C0802F0E947C140E94C21458E0A3
:10177000A51AB10864E0A616B10420F40E94070976
:101780000E94B003EE2009F40EC20E94681480FD8E
:101790000AC2F60112820E9462140E946F12C601F0
:1017A0000E94FA0D0E9462140F900F900F900F90FC
:1017B0000F90DF91CF911F910F91FF90EF90DF90ED
:1017C000CF90BF90AF900C94A012802F0E948D14E8
:1017D000CCCF59815F70F52E6981607F603219F03E
:1017E000F29480EFF8227D81772369F0713049F11E
:1017F000112391F1002351F1F601858180FF9ECFE5
:101800008F70858323C0112381F0011106C00E94CF
:10181000A9148F290E94400BAACF0130C1F70E9462
:10182000A9148F290E94AF14A2CF011106C00E94F3
:10183000B8148F2D0E94470B9ACF013009F497CF2F
:10184000F6CF112329F0063008F091CF8F2DE2CF8B
:10185000053008F08CCFEDCF002359F3FD81F9332B
:1018600049F42FEF47EE53E0215040405040E1F75C
:1018700000C000008D810E94D70A79CF89818695AA
:101880008695837069F0813009F071CF8D819981DF
:101890009370111102C090E080E00E943F0967CF71
:1018A0008D8199819370111102C090E080E00E94B7
:1018B00029095DCF112311F16D81653F99F0663FD4
:1018C000B9F0643F49F48091C3029091C4028160F1
:1018D0009093C4028093C3028D810E9442170E949C
:1018E000291845CF8091C3029091C4028260F0CF45
:1018F0008091C3029091C4028460EACF7D81753FDC
:1019000089F0763FA9F0743F49F48091C302909129
:10191000C4028E7F9093C4028093C3028D810E9483
:10192000AA17DDCF8091C3029091C4028D7FF2CFC0
:101930008091C3029091C4028B7FECCF8981837028
:1019400009F059C0111113CF4D814295469547704A
:10195000440F440F8D818F7090E0B0E0A0E0042E22
:1019600004C0880F991FAA1FBB1F0A94D2F7ED81EC
:1019700000E010E09801E4FF0FC00FE010E020E06D
:1019800030E004C0000F111F221F331F4A95D2F709
:101990000095109520953095F981F695F695F370A0
:1019A000FD83B901A801482B592B6A2B7B2B498356
:1019B0005A836B837C83F23081F0F330A9F0F130ED
:1019C00029F0CB01BA010E94E511D1CE69817A815B
:1019D0008B819C810E94BD11CACE69817A818B81E5
:1019E0009C810E940D12C3CE69817A818B819C817A
:1019F0000E94BB11BCCE8695112311F089818170A4
:101A0000882309F4B4CE4D81429546954770440F22
:101A1000440F8D818F7090E0B0E0A0E0042E04C0F0
:101A2000880F991FAA1FBB1F0A94D2F75D8100E09F
:101A300010E0980154FF0FC00FE010E020E030E00C
:101A400004C0000F111F221F331F4A95D2F70095C3
:101A500010952095309569816695669563706D83C4
:101A6000B901A801482B592B6A2B7B2B49835A8338
:101A70006B837C835D8169817A818B819C8152300B
:101A800051F0533059F0513019F00E942E136FCE9F
:101A90000E9406136CCE0E94561369CE0E94391222
:101AA00066CE69816F706983112329F0862F0E94A9
:101AB0006F128D81AFCE8D810E94470B89810E946C
:101AC000A01255CE7D81723FA1F160F4703FE1F02C
:101AD000713F41F1112309F445C001112FCE8981D5
:101AE0008F7124C08D81833F49F1843F99F7112381
:101AF00079F199819F719983892F0E946F1263E018
:101B000089810E94F81433CE112341F0053008F08A
:101B10002ECE89818F710E94D51229CE063008F011
:101B200026CEF7CF89818F71112349F20E946F125F
:101B30001ECE89818F711123C9F3C1CF112329F0E2
:101B400089818F710E944A1212CE0E9445120FCED7
:101B500081E00E940D15023008F409CE82E00E9457
:101B60000D1505CE002361F0ED81E93309F082CE39
:101B7000FFEF27EE43E0F15020404040E1F778CE00
:101B800089818F719CCF49814F706D81C6010E9400
:101B900004040E942F11EBCD49814F706D81C60165
:101BA0000E940704E4CD0F900F900F900F900F90BC
:101BB000DF91CF911F910F91FF90EF90DF90CF9029
:101BC000BF90AF9008950F931F93CF93DF93EC01D5
:101BD000688179818A810E9424148C010E947E137D
:101BE0000E94BA11B801CE01DF91CF911F910F91E0
:101BF0000C944E0BCF93DF93EC018B819C81892B4E
:101C000029F08881998189238F3F19F4DF91CF9141
:101C10000895CE010E94C8038823C1F3CE010E941B
:101C2000E30DCE01DF91CF910C9494030E949514A3
:101C30000E94A6140E94C2140E944D190E942918E5
:101C400090E080E00E94290990E080E00C943F0938
:101C50000E945C140C94160E0E9484140C94280E9E
:101C6000282F892F82958F70903C80F48A30B0F4B1
:101C7000843020F4823090F480E008958630E1F7DB
:101C800081E0283E88F0213FB9F70EC08C3011F07A
:101C90008F3091F793FB882780F9089581E0203FEA
:101CA00039F018F4283E40F70895243F29F7FCCF77
:101CB00008950E9418140C94300ECF93DF9300D037
:101CC00000D00F92CDB7DEB70F900F900F900F900E
:101CD0000F90DF91CF910895CF93DF9300D000D084
:101CE00000D0CDB7DEB726960FB6F894DEBF0FBE94
:101CF000CDBFDF91CF9108951F93CF93DF93E091F4
:101D0000A30116E08091A4018E1304C0DF91CF914E
:101D10001F910895CE2FD0E01E9FF0011124EB55A6
:101D2000FE4F4081518162817381848195810E943F
:101D30006C0EFE013196E770E5CF4091D5015091D0
:101D4000D6016091D7017091D8018091D90190910D
:101D5000DA010C946C0E1F93CF93DF938091DA011C
:101D6000807FA9F48091D701882389F08091A30115
:101D7000C091A4016091D5017091D601A091D801C4
:101D8000B091D901D62FD72316E0C81304C0DF9134
:101D9000CF911F91089590E0109711F0DF3F19F453
:101DA00001968770F2CF189F9001199F300D112472
:101DB000F901EB55FE4F41814713F2CF40814613A5
:101DC000EFCF42814111ECCF438154814A1B5B0B21
:101DD000483C510528F78091DA018F70806180932B
:101DE000DA01F901E655FE4F80818F7080618083B2
:101DF00085ED91E00E94FA0DDF91CF911F910C9437
:101E00007C0EAF92BF92CF92DF92EF92FF920F9330
:101E10001F93CF93DF93CDB7DEB72B970FB6F89410
:101E2000DEBF0FBECDBF8C0185E0F801DE01179645
:101E300001900D928A95E1F7F80140815181E2808D
:101E400085EDC82E81E0D82E6091D8017091D9011E
:101E50006115710509F444C19091D5012091D60115
:101E6000822F89238F3F09F43BC1A380B480F09077
:101E7000D701F501E61BF70BFF2009F4E0C08091C4
:101E8000DA01382F307FE83CF10508F0B2C031119B
:101E900079C0FE2C251323C0941321C0E1101FC06C
:101EA0008F7080618093DA010E949D0EC6010E94AE
:101EB000FA0D8091DA01F80185838F2D2B960FB6EC
:101EC000F894DEBF0FBECDBFDF91CF911F910F9170
:101ED000FF90EF90DF90CF90BF90AF900895AB2828
:101EE00029F0842F85238F3F09F016C180E0F82F59
:101EF000F170DF2EE091A3012091A40136E080FD76
:101F00001CC0EE20D1F28091DA0181608093DA0169
:101F1000F12CD3CF8E2F90E03E9FF0011124EB5592
:101F2000FE4F6181651306C06081641303C0628146
:101F3000E612E7CFFC013196E770E213EBCF4F8357
:101F400058878F8198850E941814292F22952F7009
:101F5000903260F0225F2F70223078F49F7051F041
:101F6000F8019581907F31F4D12C0AC09F7011F057
:101F70008823D1F3805E8830B8F3C8010E94FA0D3F
:101F8000FD2C9BCF251306C0941304C0F801EE204E
:101F900009F470C04F8358878F8198850E94590E2D
:101FA000882319F1EE2009F18091DA01803270F076
:101FB0002091D5013091D6013A8329831B82BD82BD
:101FC000AC828E83CE0101960E94FA0D86E0F80164
:101FD000A5EDB1E001900D928A95E1F70E94AB0E5C
:101FE0000E949D0EFF24F39468CFC8010E94FA0D51
:101FF000F9CF311113C07A2DBB86AA866E2D8B8541
:102000000E945D0E85ED91E00E94FA0D86E0F601DA
:1020100011928A95E9F70E949D0E7ACF2513BACFC7
:102020009413B8CFE110B6CFF8018583C8010E94A0
:10203000FA0D86E0F60111928A95E9F73ECFE83C69
:10204000F10508F040C0FE2CEE2079F225132AC0DD
:10205000941328C08091DA0180FD1BC0982F907FD7
:10206000C1F0F8018583903F31F0982F907F905F09
:102070008F70892B8583C8010E94FA0D86E0F801D4
:10208000A5EDB1E001900D928A95E1F70E949D0EB9
:1020900014CF86E0F801A5EDB1E001900D928A958C
:1020A000E1F70BCF4F8358878F8198850E94590E97
:1020B00081118CCF8091DA0181608093DA01C801AF
:1020C0000E94FA0DFACE7A2DBB86AA866E2D8B85DC
:1020D0000E945D0E86E0F60111928A95E9F7D6CF4F
:1020E000EE2009F482CF4F8358878F8198850E9414
:1020F000590EF82E882309F478CF86E0F801A5ED73
:10210000B1E001900D928A95E1F785ED91E00E9492
:102110003C0A0E94AB0EBACF81E08E25E8CE1F9319
:10212000CF93DF93CDB7DEB72C970FB6F894DEBF11
:102130000FBECDBF4F83588769877A878B879C876F
:10214000CE0107960E94010F882369F08A859B853E
:10215000892B39F04F815885842F85238F3F09F0D3
:1021600077C016E065C086E0FE013796DE01119665
:1021700001900D928A95E1F76A857B85611571055D
:1021800081F35F814885842F85238F3F51F3209110
:10219000A40130E0C901019687709927E091A3015D
:1021A000E817190671F40E942C0E1092A4011092E7
:1021B000A30186E0E5EDF1E0DF011D928A95E9F7E4
:1021C000D0CF59834A837D836C8396E0929FD00160
:1021D000939FB00D1124AB55BE4FFE013196019077
:1021E0000D929A95E1F78093A4010E947C0EB9CFDD
:1021F000819FC00111248B559E4F0E94010F88239F
:10220000E9F0E091A3011E9FF0011124EB55FE4F70
:102210004081518162817381848195810E946C0E1D
:102220008091A30190E00196877099278093A30184
:102230008091A3019091A4018913DACF2C960FB657
:10224000F894DEBF0FBECDBFDF91CF911F910895EF
:1022500069857A858B859C850E946C0E82CFEF9272
:10226000FF920F931F93CF93DF938C01892B89F0FB
:10227000F12CEE24E394E8012196F801849184374F
:1022800009F457C0A0F4823009F43EC048F481300C
:10229000D1F0DF91CF911F910F91FF90EF900895B2
:1022A0009CEF980F9037A8F70E94410A0AC0853723
:1022B00009F44CC09CE7980F903758F78F770E942D
:1022C000D70A8E0116C00E5F1F4FFE01849190E267
:1022D000980F983060F48770FE2D01C0FF0F8A952B
:1022E000EAF78F2F0E9498140E94C21402C00E9425
:1022F000410A8F2D815008F4BECFEFE9FFE03197FE
:10230000F1F700C00000F6CF0E5F1F4FFE01849171
:1023100090E2980F983050F48770FE2D01C0FF0FA7
:102320008A95EAF78F2F0E949E14DECF0E94D70A6B
:10233000E0CF0E5F1F4FFE01C491C150D0F28FE974
:102340009FE00197F1F700C00000F7CF0E5F1F4F2D
:10235000FE01F490CECF08950C94AB110E94AC1105
:102360006093FD017093FE018093FF019093000242
:102370000C94160E08950C94AE11CF93DF9300D0F9
:1023800000D0CDB7DEB769837A838B839C8380913D
:10239000FD019091FE01A091FF01B0910002298101
:1023A0003A814B815C81282B392B4A2B5B2B29836B
:1023B0003A834B835C83CA01B9010F900F900F9051
:1023C0000F90DF91CF910C94AE11CF93DF9300D09B
:1023D00000D0CDB7DEB769837A838B839C838091ED
:1023E000FD019091FE01A091FF01B09100022981B1
:1023F0003A814B815C81282339234A235B2329833B
:102400003A834B835C83CA01B9010F900F900F9000
:102410000F90DF91CF910C94AE11CF93DF9300D04A
:1024200000D0CDB7DEB769837A838B839C8380919C
:10243000FD019091FE01A091FF01B0910002298160
:102440003A814B815C81282739274A275B272983DA
:102450003A834B835C83CA01B9010F900F900F90B0
:102460000F90DF91CF910C94AE110C94AB110C94A2
:1024700035120E9437126093F9017093FA0180932C
:10248000FB019093FC010C94160E60E070E0CB0110
:102490000C9439120F931F93CF93DF9300D000D089
:1024A000CDB7DEB741E050E060E070E08A019B010B
:1024B00004C0000F111F221F331F8A95D2F7098312
:1024C0001A832B833C83C901B8010F900F900F90A2
:1024D0000F90DF91CF911F910F910C9439120F93B0
:1024E0001F93CF93DF9300D000D0CDB7DEB741E08C
:1024F00050E060E070E004C0440F551F661F771F76
:102500008A95D2F78091F9019091FA01A091FB018F
:10251000B091FC018A019B01082B192B2A2B3B2B24
:1025200009831A832B833C83C901B8010F900F9054
:102530000F900F90DF91CF911F910F910C94391252
:102540000F931F93CF93DF9300D000D0CDB7DEB7AA
:1025500041E050E060E070E004C0440F551F661F8A
:10256000771F8A95D2F74095509560957095809128
:10257000F9019091FA01A091FB01B091FC018A014F
:102580009B01082319232A233B2309831A832B83C6
:102590003C83C901B8010F900F900F900F90DF910D
:1025A000CF911F910F910C9439120F931F93CF93DA
:1025B000DF9300D000D0CDB7DEB741E050E060E05F
:1025C00070E004C0440F551F661F771F8A95D2F72D
:1025D0008091F9019091FA01A091FB01B091FC0169
:1025E0008A019B01082719272A273B2709831A8379
:1025F0002B833C83C901B8010F900F900F900F906F
:10260000DF91CF911F910F910C943912CF93DF93EB
:1026100000D000D0CDB7DEB769837A838B839C83EB
:102620008091F9019091FA01A091FB01B091FC0118
:1026300029813A814B815C81282B392B4A2B5B2BDA
:1026400029833A834B835C83CA01B9010F900F90B1
:102650000F900F90DF91CF910C943912CF93DF93AD
:1026600000D000D0CDB7DEB769837A838B839C839B
:102670008091F9019091FA01A091FB01B091FC01C8
:1026800029813A814B815C81282339234A235B23AA
:1026900029833A834B835C83CA01B9010F900F9061
:1026A0000F900F90DF91CF910C943912CF93DF935D
:1026B00000D000D0CDB7DEB769837A838B839C834B
:1026C0008091F9019091FA01A091FB01B091FC0178
:1026D00029813A814B815C81282739274A275B274A
:1026E00029833A834B835C83CA01B9010F900F9011
:1026F0000F900F90DF91CF910C9439120895E82F2D
:102700002CE0929FE00D11248E2F877041E001C0D4
:10271000440F8A95EAF7E695E695E69585E0E89F09
:10272000F0011124E552FE4F30E020E070E05191BD
:10273000DF011197CB01022E02C0969587950A946E
:10274000E2F7817081958527842385278C932F5FFD
:102750003F4F2530310559F70895E82F2CE0929F1F
:10276000E00D11249E2F9770E695E695E69585E09D
:10277000E89FF0011124E552FE4F50E040E080E078
:10278000219130E0092E02C0369527950A94E2F790
:1027900021703327042E01C0220F0A94EAF7822BFE
:1027A0004F5F5F4F4530510559F70895BF92CF9263
:1027B000DF92EF92FF920F931F93CF93DF938C01E1
:1027C000C090F901D090FA01E090FB01F090FC017B
:1027D0008091FD019091FE01A091FF01B091000256
:1027E000C82AD92AEA2AFB2ACFE1D0E0BC2ED70199
:1027F000C6010C2E04C0B695A795979587950A94A7
:10280000D2F780FD0EC0219788F7B12C8B2DDF9178
:10281000CF911F910F91FF90EF90DF90CF90BF90DD
:102820000895B8018C2F0E942404019761F3EECF24
:10283000CF93DF93D82FC92F0E94D6136D2F7C2FF3
:10284000DF91CF910C9424041F93CF93DF93162F25
:10285000D72F9091A201992339F0862F972FDF91DE
:10286000CF911F910C941814882391F0862F972FE5
:102870000E94D613C82F682F812F9D2F0E947F138F
:10288000612F7D2F8C2FDF91CF911F910C94240409
:10289000862F972F0E94AD13C82FF2CF682F8091FB
:1028A0000001909101010C941516682F8091000190
:1028B000909101010C9417168091000190910101F3
:1028C0000C9419168091010285958595859508953A
:1028D000809101028770089590910102977081E0C4
:1028E00009F480E0089580910D02089590910D0201
:1028F000982B90930D020895982F909580910D023A
:10290000892380930D02089510920D0208959091ED
:102910000C02982B90930C020895982F909580911B
:102920000C02892380930C02089510920C020895E2
:1029300090910B02982B90930B020895982F9095ED
:1029400080910B02892380930B02089510920B0251
:10295000089580910202089508950C94AC1490910A
:102960000202981721F0809302020C94AD1408958E
:1029700080910202882329F01092020280E00C94D8
:10298000AD140895E0910001F091010180910D02D4
:102990008083E0910001F0910101808190910C020F
:1029A000892B8083E0910001F09101018081909159
:1029B0000B02892B808390910202992381F0E09190
:1029C0000001F09101018081892B808380910001B9
:1029D000909101010E94C91581110E94B814809143
:1029E0000001909101010C94130908950C94F514C1
:1029F00098E0899F90011124622B609301020E944C
:102A00006F12809101028595859585950C94F61439
:102A10001092010280E00C94F614909101028095CE
:102A2000892380930102282F277071F4282F082E04
:102A3000000C330B9217130639F085958595859513
:102A40000E94A0120C940815089590E080E00E9466
:102A5000EE1E9C0181E02C3E3E4F09F080E008957F
:102A600082E090E00C94E61E83E090E00C94E61E79
:102A7000CF9384E090E00E94E61EC82F81E290E0B0
:102A80000E94E61E982F8C2FCF910895CF93682F28
:102A9000C92F84E090E00E94F41E6C2F81E290E048
:102AA000CF910C94F41EAB01BC018FE090E00C942C
:102AB000061FAB01BC0183E190E00C94061F60E0AF
:102AC00070E0CB010C94591560E070E0CB010E94DE
:102AD00053150C945F156CEE7EEF90E080E00E9441
:102AE000121F60E082E090E00E94F41E60E083E04C
:102AF00090E00E94F41E1092FD011092FE011092CF
:102B0000FF011092000260E084E090E00E94F41E59
:102B100060E081E290E00E94F41E60E085E090E0D9
:102B20000E94F41E60E086E090E00E94F41E6FEFC9
:102B300087E090E00E94F41E40E050E0BA0188E097
:102B400090E00E94061F60E08DE090E00E94F41E7D
:102B500040E050E0BA0188E190E00E94061F60E08A
:102B600087E190E00E94F41E40E050E0BA018CE161
:102B700090E00E94061F60E080E290E00E94F41E58
:102B80000C9464150C946B15682F8EE090E00C94F7
:102B9000F41EAC019C012E5F3F4F485F5F4F80E009
:102BA0002417350709F40895F90191919F0199239C
:102BB000B9F38F5FF5CF9C01662351F0FC0132968B
:102BC000285F3F4F8191861729F0E217F307D1F76D
:102BD00080E0089581E008959C01FC0132968FEF1A
:102BE00090E04191461751F08F3F19F4411101C017
:102BF000892F9F5F9630A9F78F3F09F40895280F1A
:102C0000311D87FD3A95F901628308959C01FC010D
:102C10003296285F3F4F8191861303C0DF011197E1
:102C20001C92E217F307B9F708950C94EC150C9475
:102C30000616FC01329686E0DF011D928A95E9F7BF
:102C4000089508950895CF930E9421160E94820648
:102C50000E942216C0E08C2F0E941306892B31F4AB
:102C6000CF5FC430C1F780E0CF91089581E0FCCF01
:102C700082E084BD93E095BD9AEF97BD80936E008E
:102C800008952FB7F8948091C5029091C602A09143
:102C9000C702B091C8022FBF08959C014FB7F894A6
:102CA0008091C5029091C602A091C702B091C8025E
:102CB0004FBF821B930B089578941F921FB61F92EB
:102CC00011248F939F93AF93BF938091C5029091EE
:102CD000C602A091C702B091C8020196A11DB11D04
:102CE0008093C5029093C602A093C702B093C80216
:102CF000BF91AF919F918F911F901FBE1F9018950C
:102D000088E198E00FB6F894A895809360000FBE14
:102D100090936000A895F894D8E0CEEF28E329932B
:102D200020E0299314BEFFCF0895CF93DF9300D006
:102D300000D0CDB7DEB70E942515811102C00E94D8
:102D4000C2150E94301580930E020E943815909390
:102D5000CA028093C9020E943415282F30E050E047
:102D600040E029833A834B835C83CA01B9010F9009
:102D70000F900F900F90DF91CF910C94BB11809129
:102D8000160280FF12C06091070185E0689FB001C4
:102D90001124759567957595679560387105A8F547
:102DA00061157105A1F1862F089581FF09C0609119
:102DB000070185E0689FB001112475956795EDCFF7
:102DC0006091070182FD0AC0809115028823D1F02D
:102DD0009091060160910701891728F085E0689FAE
:102DE000B0011124DACF869FB001112485E0869FBF
:102DF0009001879F300D1124692F70E0C9010E9456
:102E0000B81ECBCF65E070E0CECF8FE7089581E0AC
:102E100008958091160280FF0CC06091030170E05C
:102E200075956795759567956115710549F1862FBB
:102E3000089581FF06C06091030170E07595679564
:102E4000F3CF6091030182FD0BC09091150299238D
:102E5000A1F06091020180910301961738F0682F6C
:102E600070E06038710500F38FE70895899FC00115
:102E7000112470E00E94B81EF4CF61E070E0D7CF5B
:102E800081E00895803F31F40E94BF1681958093C0
:102E900019020895813F19F40E94BF16F8CF823FAE
:102EA00031F40E94BF168195809318020895833FE4
:102EB00019F40E94BF16F8CF893F29F40E94091720
:102EC00080931A0208958A3F21F40E940917819580
:102ED000F7CF8B3F31F40E940917819580931B0235
:102EE00008958C3F19F40E940917F8CF843F31F4FC
:102EF000809117028160809317020895853F21F425
:102F0000809117028260F7CF863F21F480911702EB
:102F10008460F1CF873F21F4809117028860EBCF66
:102F2000883F21F4809117028061E5CF8D3F31F415
:102F30008091160281608093160208958E3F21F4DD
:102F4000809116028260F7CF8F3FB9F78091160209
:102F50008460F1CF90911802803F41F48091190272
:102F600087FD10921902992371F00895813F29F489
:102F7000809119021816ACF3F6CF823F81F497FFC7
:102F8000F2CF109218028091190290911A02892BA7
:102F900090911B02892B49F7109215020895833FE7
:102FA00019F4191674F3DFCF893F39F480911A02AE
:102FB0001816CCF610921A02D6CF8A3F29F48091C7
:102FC0001A0287FFD0CFF6CF8B3F39F480911B02D6
:102FD00087FFC9CF10921B02C6CF8C3F29F4809186
:102FE0001B021816BCF3BFCF843F31F48091170247
:102FF0008E7F80931702B7CF853F21F4809117020F
:103000008D7FF7CF863F21F4809117028B7FF1CF20
:10301000873F21F480911702877FEBCF883F21F40F
:10302000809117028F7EE5CF8D3F31F4809116029B
:103030008E7F8093160297CF8E3F21F480911602E7
:103040008D7FF7CF8F3F09F08ECF809116028B7F57
:10305000F0CF87E192E00E941E090E9441169093F2
:103060001402809313020895CF93DF9300D000D011
:103070000F92CDB7DEB785E0E7E1F2E0DE01119611
:1030800001900D928A95E1F78091180290911902B2
:10309000892B81F080911102909112020E944D16AD
:1030A0009C0180911502882329F1909108019217C3
:1030B000130668F180911A0290911B02892B91F0FE
:1030C00080910F02909110020E944D169C018091F8
:1030D0001502882309F477C0909104019217130612
:1030E00008F47FC00F900F900F900F900F90DF911A
:1030F000CF910895409109019AE0499FA0011124C0
:1031000042175307B8F68F5F8093150202C08F3FB6
:10311000D1F710921A0210921B0280911802181611
:1031200024F40E94BF16809318028091180287FF32
:1031300005C00E94BF1681958093180280911902E4
:10314000181624F40E94BF16809319028091190268
:1031500087FF05C00E94BF168195809319023091A8
:1031600018023323A1F020911902222381F045EBAC
:103170003403C00111249923F1F09093180245EB18
:103180002403900111243323D1F0309319020E94BB
:103190002918809113029091140290931202809347
:1031A000110285E0FE013196A7E1B2E001900D9297
:1031B0008A95E1F77FCF81E080931802E0CF81E02C
:1031C00080931902E4CF409105019AE0499FA00144
:1031D00011244217530708F085CF8F5F80931502A3
:1031E00002C08F3FD1F710921802109219028091FD
:1031F0001A02181624F40E94091780931A0280916B
:103200001A0287FF05C00E940917819580931A0250
:1032100080911B02181624F40E94091780931B0248
:1032200080911B0287FF05C00E940917819580933A
:103230001B0230911A023323A1F020911B0222239A
:1032400081F045EB3403C00111249923F1F09093F0
:103250001A0245EB2403900111243323D1F030935B
:103260001B020E94291880911302909114029093DE
:10327000100280930F0285E0FE013196A7E1B2E0D3
:1032800001900D928A95E1F72DCF81E080931A028B
:10329000E0CF81E080931B02E4CF85E0E7E1F2E03C
:1032A000DF011D928A95E9F710921502109216021D
:1032B0000895843009F442C038F48230E9F0833054
:1032C00061F1813041F00895853009F448C08630BD
:1032D00009F456C0089580910901482F460F5527DB
:1032E000551F4F3F510524F4680F6093090108955D
:1032F0008FEF80930901089580910801482F460FB0
:103300005527551F4F3F510524F4680F609308015E
:1033100008958FEF80930801089580910701482F49
:10332000460F5527551F4F3F510524F4680F6093F2
:10333000070108958FEF809307010895809106019A
:10334000482F460F5527551F4F3F510524F4680F4E
:103350006093060108958FEF809306010895809190
:103360000301482F460F5527551F4F3F510524F4A1
:10337000680F6093030108958FEF80930301089510
:1033800080910201482F460F5527551F4F3F510589
:1033900024F4680F6093020108958FEF8093020177
:1033A0000895843071F138F48230A9F08330F1F05F
:1033B000813031F00895853079F18630C1F108957A
:1033C00080910901681720F4861B809309010895F4
:1033D00010920901089580910801681720F4861B56
:1033E00080930801089510920801089580910701C3
:1033F000681720F4861B8093070108951092070137
:10340000089580910601681720F4861B80930601B9
:10341000089510920601089580910301681720F421
:10342000861B8093030108951092030108958091F3
:103430000201681720F4861B809302010895109200
:10344000020108950F931F93CF93DF9300D000D014
:10345000CDB7DEB741E050E060E070E08A019B014B
:1034600004C0000F111F221F331F8A95D2F7098352
:103470001A832B833C83C901B8010E94BB110F90B2
:103480000F900F900F90DF91CF911F910F910C949F
:103490002C0EEBEFE80FEF3308F061C0F0E0EA5AD2
:1034A000F04E0C94CC1E0E94661B0E9407090E94DD
:1034B000B00381E008950E94C215FBCF80910E02F7
:1034C000807F80930E0281E080931D0208950E9408
:1034D0002C0E2FEF83ED90E3215080409040E1F7D8
:1034E00000C000000E948016E4CF90910E02892F48
:1034F0008E7F90FF816080930E0280FDDACF817F06
:1035000080930E02D6CF90910E02892F8D7F91FF6E
:10351000826080930E0281FFCCCF80910E02816089
:10352000EFCF90910E02892F8B7F92FF8460809362
:103530000E0282FDF2CFBDCF90910E02892F877FC0
:1035400093FF886080930E0283FDE7CFB2CF80E0C7
:103550000E94221AAECF8953FBCF8D51F9CF80E064
:10356000089580E008950C94B11A8E518A3030F499
:10357000E82FF0E0EE57FE4F8081089580E0089537
:10358000CF93C82F80911D028130A1F08230A1F12C
:1035900081117AC00E947314823209F077C08C2F97
:1035A0000E94B11A81111BC08C2F0E94491A817090
:1035B000CF9108950E947314823289F38C2F0E9458
:1035C000B31A81110AC0C431A1F060F4CB3029F0E4
:1035D000C03169F782E080931D0281E0E8CF81E08D
:1035E00090E0E5CFC93229F081E0C83301F380E0F3
:1035F000DECF10921D02FBCFCB3469F198F4C432B8
:1036000040F4CE3100F5C73061F1C43121F081E0E2
:10361000CFCFC932E1F780911C02882381F010924C
:103620001C02F5CFC135A9F061E0C235A9F06AE00E
:10363000CE3469F780911C020E94D119E8CF81E055
:1036400080931D02B5CF8C2F0E94B51A80931C0267
:10365000DECF61E0EFCF6AE080911C020E94591931
:10366000D6CF8EE18093090182E3809308018AE03E
:103670008093070184E18093060188E08093030131
:1036800088E280930201C3CF10921D0280E090CFA8
:10369000E1E8F0E0808188608083808181608083C0
:1036A0008FB7F89420ED33E03093890020938800A1
:1036B0008FBF0895EFE6F0E08081826080830895F7
:1036C000EFE6F0E080818D7F80830895EFE6F0E003
:1036D000808192E08927808308951F920F920FB610
:1036E0000F9211242F933F934F935F936F937F9388
:1036F0008F939F93AF93BF93EF93FF9380911E029D
:1037000090911F02019690931F0280931E028111D7
:1037100003C082E00E94B003E0911F02E695E695A7
:10372000F0E0E851FE4FE49180911E028E1303C039
:1037300080E00E94B003FF91EF91BF91AF919F9104
:103740008F917F916F915F914F913F912F910F904A
:103750000FBE0F901F9018950E944116D82F192F59
:1037600080E880936100109261000E945C090E94D1
:10377000C51C0E9402090E94A51E539A80E0815038
:1037800061F553987894FFEF20E732E0F150204044
:103790003040E1F700C000000E9464090E94481B0D
:1037A000C0E00CE08091E502882309F11092E50267
:1037B0000E944116D82F192F0E94601B0E94B01D35
:1037C0008091EB02882329F08091D60284FD0E942B
:1037D0006C090E94791CC0E0E5CFA895EFE9FFE0F5
:1037E0003197F1F700C00000CACFC1E0DBCF8D2FC9
:1037F000912F0E944D16069700F10E945A1B0E94BD
:103800002316C82F882389F3F8949AB15B9A892FDD
:103810008C608AB98BB180278BB98FE7E8E3F1E040
:103820008150E040F040E1F700C000008BB18027FC
:103830008BB99AB95B987894B5CFCC2309F4BECFF5
:10384000DECF8091B1020895CF93DF9300D00F9225
:10385000CDB7DEB79B0190912202981307C040912B
:103860002002509121024617570791F080932202BF
:10387000309321022093200289833B832A83809105
:10388000020384FF05C063E0CE0101960E94AC1DD7
:103890000F900F900F90DF91CF910895BC0184E0BD
:1038A0000C94241CBC0183E00C94241CCF93DF9364
:1038B00000D000D000D0CDB7DEB7FC0182E0898314
:1038C00085E0DE01129601900D928A95E1F78091D4
:1038D000020384FF05C066E0CE0101960E94AC1D84
:1038E00026960FB6F894DEBF0FBECDBFDF91CF9105
:1038F0000895CF93DF93CAE0D0E08091D60284FF91
:103900001AC080912E0290912F02981789F028E01A
:10391000829FC001112468E0805D9D4F0E94A81D18
:1039200080912E0290E001968F70992780932E024D
:10393000DF91CF9108950E94B01D8FE99FE001971C
:10394000F1F700C000002197C1F6F2CFFC01A09171
:103950002F02B0E09D012F5F3F4F2F7033278091E2
:103960002E02821771F083E0AA0FBB1F8A95E1F740
:10397000A05DBD4F88E001900D928A95E1F72093FC
:103980002F020E94B01D0C94791C8AE091E00895EA
:10399000FC01808180768032D1F48181813041F4D4
:1039A00086E292E09093E7028093E60288E0089531
:1039B000823041F480EB92E09093E7028093E6023C
:1039C00081E008958A3029F483818093B00280E0F9
:1039D00008958930E1F7828193818115924069F4DD
:1039E00084819581892B49F481E080932502868129
:1039F000978190932402809323028FEF0895FC0116
:103A00008091230290912402892B61F080912502FC
:103A1000813041F490819093B1021092240210926F
:103A2000230208958FEF08950895FC018381833068
:103A300059F130F48130C1F08230F1F080E0089526
:103A4000813209F444C08232C9F78481958100979C
:103A500009F44EC0019791F785EA92E09093E7024E
:103A60008093E60281E8089583E692E09093E7026E
:103A70008093E60282E1089588E292E09093E70263
:103A80008093E6028BE3089582818230C1F050F486
:103A900081110DC081EA92E09093E7028093E602E3
:103AA00084E00895833051F685E792E0F5CF89E808
:103AB00092E09093E7028093E60286E108958BE717
:103AC00092E09093E7028093E6028CE00895828171
:103AD000882331F0813009F0B1CF83E592E002C054
:103AE0008AE392E09093E7028093E60289E00895EA
:103AF00086E293E09093E7028093E60280E40895E3
:103B00001F93CF93DF93782F162FEA01888184FFCC
:103B10001CC0898128E882278983AE014E5F5F4FF0
:103B2000FA01272F392F710FD9012F5F3F4F8C9149
:103B300081937213F9CF612FCA010E9411021C5F99
:103B40001883DF91CF911F9108958AE58883E5CF8F
:103B500046ED52E00C94801D42E053E00C94801D31
:103B6000CF93DF936091E802635067FD12C08091AC
:103B7000E402CCE0D0E0C81BD109C451DD4F8091F4
:103B8000E302803108F059C0CE010E94141D10924A
:103B9000E8028091150184FF43C0809114018F3F9A
:103BA00009F43EC0C82F893008F0C8E0982F9C1B4C
:103BB000909314019091CB0228E892279093CB0226
:103BC000882301F18091E6029091E7022091B202F0
:103BD0004C2F480F26FFAEC0FC012CEC32E0549174
:103BE000D9015C932F5F3F4F31964E13F8CF2FEFE3
:103BF0002C0F30E02F5F3F4F820F931F9093E7020F
:103C00008093E6026C2F8CEC92E00E94110284E01B
:103C10008C0FC83019F09FEF909314018093150119
:103C200084E199B19C7031F48150D9F71092E90286
:103C30001092E202DF91CF9108958D3209F067C0B2
:103C4000683009F0A4CF83EC8093CB028AE580939F
:103C500015011092B2028881807671F0CE010E9427
:103C6000C81C8F3FC1F4988197FD8E8190E8909396
:103C7000B202809314018BCF2A811092D4029981D1
:103C8000911111C01092D50224ED32E082E0309300
:103C9000E7022093E6029F819111EBCF9E81981756
:103CA00040F7892FE6CF953029F42093E90224EDDF
:103CB00032E0EDCF963099F49B81913021F4CE0122
:103CC0000E94151D08C09230D1F39330C1F3913298
:103CD000B1F39232A1F390E49093B202C2CF983044
:103CE00079F0993019F42093EB02E1CF9A3061F02A
:103CF0009B30E9F69BE49093D70290930303D7CFD0
:103D00002BEE32E081E0C3CF24ED32E0FBCF809197
:103D1000B20287FF3CCFCE010E94FF1C8F3F21F4EF
:103D20008EE18093150133CF882309F430CF1092B0
:103D300014012DCFECECF2E09C01D9012F5F3F4F35
:103D40005C9151934213F9CF52CFE9E6F0E08081C4
:103D500088608083E99AA6EDB2E08BE411968C939B
:103D60001197E2E0F3E081838AE58C9380830895E4
:103D700097FB072E16F4009407D077FD09D00E9418
:103D8000D21E07FC05D03EF4909581959F4F089573
:103D9000709561957F4F0895EE0FFF1F0590F49188
:103DA000E02D0994AA1BBB1B51E107C0AA1FBB1F32
:103DB000A617B70710F0A61BB70B881F991F5A95B7
:103DC000A9F780959095BC01CD010895F999FECF92
:103DD00092BD81BDF89A992780B50895A8E1B0E019
:103DE00042E050E00C941A1F262FF999FECF92BDA5
:103DF00081BDF89A019700B4021639F01FBA20BDB0
:103E00000FB6F894FA9AF99A0FBE08950396272FE1
:103E10000E94F51E0E94F41E252F0E94F51E242FDD
:103E20000C94F51E0196272F0E94F51E0C94F41E8B
:103E3000DC01CB01FC01F999FECF06C0F2BDE1BD6A
:103E4000F89A319600B40D9241505040B8F7089559
:103E5000F894FFCF4D0853085708650869086D08A6
:103E6000710877087F08830887088B0897089B08E4
:103E70009F08A308A908C708B1085B0861088F0854
:103E800093087B08AD08BD08D008D408870B870BC2
:103E9000E90BE90B3E0C5A0CB70BB70B9E0C510DFE
:103EA000620D620DC30DB70BB70BCC0D671A5E1A0E
:103EB000751A591AAF1AAF1A591AAF1AAF1A911ABE
:103EC000AF1A9C1AAF1AAF1AAF1AAF1AAF1A591A13
:103ED000AF1AAF1A591AAF1A831AAF1A531AAD1A7A
:103EE000AD1AAD1AAD1AAD1AAD1AAD1AAD1AAD1A9A
:103EF000A71AAF1A671A5B1AAF1AAF1AAF1AAF1A1E
:103F0000AF1AAF1AAF1AAF1AAF1AAF1AA71AAF1A71
:103F1000AF1A591AAF1AAB1AAB1AAB1AAB1AAB1AC3
:0A3F2000AB1AAB1AAB1AAB1AA71AC2
:103F2A0003022808641E140A321E211CA61C561CF1
:103F3A00521C4E1CFF5AE200E900EA00B500B60026
:103F4A00B700CD008301CC008A01920194012102BD
:103F5A00230224022502260227022A02B300B40001
:103F6A006F0070003097969532316061626391906C
:103F7A0034353394E200E900EA00B500B600B70030
:103F8A00CD008301CC008A0192019401210223020F
:103F9A0024022502260227022A02B300B4006F0077
:0C3FAA007000010203040506070809006E
:00000001FF
