:100000000C9403020C944A020C9465020C944A026C
:100010000C944A020C944A020C944A020C944A0230
:100020000C944A020C944A020C944A020C942A2022
:100030000C944A020C944A020C94191B0C944A0228
:100040000C944A020C944A020C944A020C944A0200
:100050000C944A020C944A020C944A020C944A02F0
:100060000C944A020C944A02290014001A00080059
:10007000150017001C0018000C00120013002A00C5
:100080002B0004001600070009000A000B000D00F9
:100090000E000F002F00300000571D001B0006004F
:1000A000190005001100100033003400310003571F
:1000B000E000E300E200E60001542C432C4302542C
:1000C000360037000157025729001E001F0020008C
:1000D00021002200230024002500260027002A00FA
:1000E00001003A003B003C003D003E003F000000A4
:1000F00000004B004E0000000100400041004200A3
:100100004300440045004600AC004A004D00035740
:10011000010001000100010000002C002C00000083
:10012000BB00AA00A900AE0029004A0052004D0001
:100130004B00000000000000F0002D002E002A00FF
:100140000100500051004F004E0000000000F2007E
:10015000F100F300F60000000100000000000000C4
:10016000000000000000F400AC00F50000000357A0
:10017000010001000100010000002C002C00000023
:10018000AB00AA00A900AE00015C4A0052004D007D
:100190004B000000000000005F00600061005400A0
:1001A0000100500051004F004E0000000000000010
:1001B0005C005D005E0055000100000000000000D2
:1001C000000000000000000059005A005B005600CB
:1001D000010001000100010000000000000000001B
:1001E000620063005800570000000000000000009B
:1001F0002A2B280000000000000000000000000082
:1002000000000029000000002C1E3420212224348C
:100210002627252E362D3738271E1F20212223245E
:1002200025263333362E37381F0405060708090AFA
:100230000B0C0D0E0F101112131415161718191A96
:100240001B1C1D2F3130232D350405060708090A14
:100250000B0C0D0E0F101112131415161718191A76
:100260001B1C1D2F3130354C000000000000000029
:100270000000000000000000000000007E0F00D41D
:10028000FFFFFFC700000078000000000000000032
:10029000000000010204060A0F17202C3A4A5D7183
:1002A000879DB3C7DAE9F5FCFFFCF5E9DAC7B39D32
:1002B00087715D4A3A2C20170F0A060402010000DC
:1002C000000000000000000009023B00020100A045
:1002D00032090400000103010100092101010001AC
:1002E0002240000705810308000109040100010301
:1002F000000000092101010001228100070583039C
:100300000800011201100100000008C016DB2702DE
:1003100000010203010403300000000C0350006CD4
:10032000006100690064000000160364006D00397C
:10033000007200650063006F0072006400730000CB
:10034000000403090405010902A10185020901A1B4
:10035000000509190129051500250195057501817B
:1003600002950175038103050109300931158125C5
:100370007F95027508810609381581257F950175DD
:10038000088106050C0A38021581257F950175083C
:100390008106C0C005010980A101850319012AB7A2
:1003A00000150126B700950175108100C0050C09E4
:1003B00001A101850419012AA002150126A00295B8
:1003C0000175108100C005010906A101050719E0AA
:1003D00029E7150025019508750181029501750829
:1003E00081030507190029FF150026FF00950675F2
:1003F00008810005081901290595057501910295E7
:100400000175039103C011241FBECFEFD8E0DEBFFA
:10041000CDBF04B603FE27C0809188039091890365
:10042000A0918A03B0918B038730904BA740B04BCB
:10043000D1F4109288031092890310928A031092CB
:100440008B0314BE84B7877F84BF0FB6F894A8953A
:1004500080916000886180936000109260000FBE00
:10046000E0E0F8E3099511E0A0E0B1E0E0E5FEE4AA
:1004700002C005900D92AE3FB107D9F723E0AEEF71
:10048000B1E001C01D92A838B207E1F70E946920CF
:100490000C94BB260C940000A82FB92F80E090E0AC
:1004A00041E050EA609530E009C02D918227979590
:1004B000879510F084279527305EC8F36F5FA8F307
:1004C0000895EADF8D939D930895CF93CFB7CF938F
:1004D000DF93C3954B9BE9F74B9B10C04B9B0EC022
:1004E0004B9B0CC04B9B0AC04B9B08C04B9B06C050
:1004F000C0915F03C395C0935F038EC06F93C0919B
:100500005E03DD27CA59DC4F2F9365E54B9B03C083
:100510002F916F91E1CF0F931F934F9320E040E114
:100520005F9309B10C7003FB27F93F9350E03BE068
:1005300039C01C7040642F77012F5F5F1EC0406878
:1005400019B11C702F7752501FC0406409B12F772A
:100550000C70D1F15F5F00C023C0406219B12F77EA
:100560001C7091F15F5F00C025C00C7010275150C6
:1005700012F45D5F0000115027952C3F19B1C8F6A9
:100580001C700127015027952C3FC8F6422749933C
:1005900009B10C7010274F73115027952C3FA8F606
:1005A0004695469519B11C7079F0012701502795A1
:1005B0002C3F98F66B5A60F3315009B1B0F600C089
:1005C00012E01CBB00271CC03B503195C31BD04020
:1005D00012E01CBB0881033C21F10B3411F1209186
:1005E0005C031981110F1213EDCF4A81441F0936A4
:1005F00069F10D3211F0013E29F74F7009F0042F17
:10060000009364033F915F914F911F910F912F9140
:100610006F91CCB3C1FD5DCFDF91CF91CFBFCF91B3
:10062000189520916403222369F31091620311232A
:10063000E9F53430EAF13093620320935D031091C1
:100640005E033BE0311B30935E0332C000916203D6
:10065000013064F50AE54F7049F43091810134FDB1
:1006600028C000938101C5E4D3E027C0433049F09E
:100670003091500334FD1DC000935003C1E5D3E019
:100680001CC030917C0334FD14C000937C03CDE783
:10069000D3E013C0052710E000C000000BB91AC05A
:1006A000052710E0221F1DC010E021C04AE502C04E
:1006B00032ED432FC4E1D0E032E01AB11C605B9A06
:1006C0000BB11AB95CE020E865E320FF05270BB900
:1006D000279517951C3FF0F66695B8F7B1F720FF00
:1006E00005270BB9279517951C3FD0F62795179529
:1006F00017FF052700001C3F0BB9B0F629913A956A
:1007000019F7037F10916303110FC651D0400BB945
:1007100011F010935C0312E01CBB08601AB1137F48
:10072000402F437F54E05A95F1F70BB91AB94BB9F2
:1007300069CF0C94A1030C940A080C94CE030C947A
:1007400094050E946A0D80FD06C083E50E94A40EF8
:1007500083E50C943A0F08950F931F93CF93DF9383
:100760008B01D82FC92F0E949719823091F028F45D
:1007700081110DC04598449802C0833069F0B801DA
:100780008D2F9C2FDF91CF911F910F910895459A46
:10079000F2CF4598449AF3CF459AFCCFCF93FB0113
:1007A0008A32910561F5C281CC23B1F0E0916C01F0
:1007B000F0916D01808186FF0CC081E08093FE0185
:1007C0008093FF0186EE0E943A0F8CE40E94A40EF3
:1007D000C0E08C2FCF9108958091FE01882311F104
:1007E0001092FE018CE40E943A0F8091FF01882351
:1007F00081F31092FF0186EE0E94A40EEACF863E9E
:10080000910581F4C281C111E4CF8091FE0188235A
:1008100049F01092FE011092FF018CE40E943A0F01
:100820008AE2EACFC1E0D5CFCF93DF939C01FB01F1
:100830009A9581159F4160F5E901CC27D170D901C6
:10084000AA27B270B90166277470A90144275870AD
:1008500034FF10C080E1CD2B09F480E0AB2B09F010
:100860008062672B09F08064452B09F08068DF9176
:10087000CF91099481E0CD2B09F480E0AB2B09F0F6
:100880008260672B09F08460452B89F38860EFCF85
:10089000DF91CF910895CF93DF93EC01805E9109B2
:1008A000089720F069E772E1209711F463EA7FE08E
:1008B000CE010E9414048C2FDF91CF910C94A40ED2
:1008C000CF93DF93EC010E943A0FCE01805E910935
:1008D000089720F060E872E1209711F46AEA7FE05F
:1008E000CE01DF91CF910C941404CF93DF93D82FD6
:1008F000C92F0E944B048D2F9C2FDF91CF910C9418
:10090000600481E0089508950C9483041F93CF93AD
:10091000DF9300D000D00F92CDB7DEB749835A8362
:100920006B8330911C0289819A8131111DC066232D
:10093000B9F02223A9F00E944518182F682F898149
:100940009A810E94EE1769817A81812F0F900F9012
:100950000F900F900F90DF91CF911F910C94010693
:100960000E941C18182FEFCF0E94451869817A81C8
:10097000EDCFFC01262F40815181628173818481FA
:100980000C948604CF93DF93D82FC92F60E00E9488
:10099000B9046D2F7C2FDF91CF910C948404FF92CA
:1009A0000F931F93CF93DF93E82FF0E0E851FE4FB2
:1009B000F490C82FC695C695C695D0E0FE01E858BC
:1009C000FD4F0491877010E0082E02C01595079521
:1009D0000A94E2F701701127C859DD4FFE01C49156
:1009E000D0E002C0D595C7958A95E2F7C170DD27A2
:1009F0000115110519F081EE0E94A40E209719F03F
:100A000086EE0E94A40E8F2D0E94900FCD2B19F020
:100A100086EE0E943A0F012B41F081EEDF91CF91DB
:100A20001F910F91FF900C943A0FDF91CF911F917E
:100A30000F91FF900895EF92FF920F931F93CF9322
:100A4000DF93EC01162F0AE08881882309F456C051
:100A5000813009F050C08981813061F47E0122E04B
:100A6000E20EF11CCA818C2F0E94A40E8C2F0E94D2
:100A70003A0F09C0823099F47E0182E0E80EF11C41
:100A80008A810E94A40EE7012196812F8150E0F215
:100A9000EFE9FFE03197F1F700C00000F7CF8330B6
:100AA00031F47E01E2E0EE0EF11C8A81E0CF843069
:100AB00011F02196E9CF2A81229690E080E0AE01E4
:100AC0004F5F5F4F2053330B2A30310548F00197B9
:100AD000D8F2EFE9FFE03197F1F700C00000F7CF5F
:100AE000089FB001099F700D1124C901860F971F3F
:100AF0002981EA01E4CF0E94CF04C6CFDF91CF91D4
:100B00001F910F91FF90EF90089560E00C941B05EA
:100B10000E94E219811102C00E947F1A0C9499036D
:100B20000E94290C0C949B03089581E008950C9475
:100B30009505CF93C82F0E949F038C2FCF910C94C3
:100B4000970508950E949D120E94A1052FEF84E34E
:100B50009CE0215080409040E1F700C000000C94E0
:100B60003D1B0F931F93CF93DF93EC0161E00E9435
:100B7000B9048C01BE010E94880BBE01C8010E940D
:100B80009D03882389F1BE01C8010E94CF0B8823F1
:100B900059F1BE01C8010E94F40C882329F1BE015D
:100BA000C8010E94B9098823F9F0BE01C8010E945A
:100BB000FD098823C9F0BE01C8010E94D00A88231C
:100BC00099F08A81882339F001158CE5180751F0D6
:100BD0000E3D1C4579F0CE01DF91CF911F910F9111
:100BE0000C9481040E94A20580E0DF91CF911F91B7
:100BF0000F9108950E947F1AF7CF90E080E008954A
:100C00000895972F70E02CE0929F600D711D1124C4
:100C1000FB0190E3899FE00DF11D1124EE0FFF1FF2
:100C2000E859FF4F859194910895FC01EE0FFF1F45
:100C3000E857FD4F859194910895CF93DF930E94DB
:100C400001060E942F07EC01811520E5920708F0AC
:100C50004BC0811530E4930708F0B2C0803E910587
:100C600018F5803C910508F09FC0883A910570F412
:100C7000853A910508F095C08130910529F10497D6
:100C8000813A910508F1D0E0C0E01EC08F3B91058C
:100C9000D1F3C85AD0E0CC0FDD1FCE57DE4F0990FC
:100CA000D881C02DD46410C0811540E2940780F42F
:100CB0008F3F910509F040F4883E910528F0805F50
:100CC0009109D0654097F8F6CE01DF91CF91089554
:100CD000C11580E3D80708F46DC0CE019927D3FD74
:100CE0006CC0EC01D06CF0CFC11595E5D90760F56B
:100CF000C11524E5D20708F094C0C11533E5D30728
:100D000078F4C11542E5D40708F07AC0C11581E531
:100D1000D80708F458C0DC2FCC27C16FD06AD4CFD5
:100D2000CE018370992721E030E002C0220F331FEB
:100D30008A95E2F7C695C69590E2C99FE001112415
:100D4000C22BD32BDA68C0CFC1152AE5D207B0F485
:100D5000C11539E5D30708F074C0C11546E5D407BD
:100D600008F464C0CE0198558F3F910511F008F04A
:100D70008ACFDC2FCC27C06FD06AA6CFCE01905689
:100D80008115904208F07FCF8D2F8F710E94C70789
:100D900090E0982F882788279F719C012C2BE901D0
:100DA0004EC0A497D06490CF805C91090E94150634
:100DB000EC018ACFCE019F70F9CFEC01D86C84CFC3
:100DC000DF70D06A81CFCE0174E0969587957A95D1
:100DD000E1F783702C2F26952695237040E2249FFF
:100DE00090011124382B8C2F8370C1E0D0E002C019
:100DF000CC0FDD1F8A95E2F7C22BD32BDC6864CFC2
:100E0000CE018370992721E030E002C0220F331F0A
:100E10008A95E2F7C695C69580E2C89FE001112445
:100E2000EBCFDC2FCC27C46FD06A4ECF8C2F0E9423
:100E3000C707C82FD0E0DC2FCC27CC27DF71D062CA
:100E400043CF8C2F8F700E94C70734E0D695C7958B
:100E50003A95E1F7CF70DC2FC82FD06935CF803EAF
:100E6000910599F1C8F48133910509F476C048F4ED
:100E70008932910509F46AC08A32910509F474C077
:100E8000089589339105D1F082389105B9F0853301
:100E9000910509F454C00895843E910599F138F400
:100EA000823E9105F9F0833E910509F10895863E51
:100EB000910599F1873E9105B9F108952091430379
:100EC0002370A1F080EE90E008952091430320FD6F
:100ED00052C03091440330FF09C024FF4FC090E05E
:100EE00080E004C02091430322FDF7CF08952091B4
:100EF000430322FD46C03091440330FDE3CF24FF7D
:100F0000F5CFEDCF2091440321FFF0CF8091430333
:100F100084FDE5CF87EE90E008952091430323FF01
:100F2000E5CF24FDDCCFF6CF2091430323FD2CC079
:100F30003091440331FFE3CF84EE90E00895209197
:100F4000430325FFD3CF89E290E008952091430326
:100F500025FFCCCF85E390E008952091430326FF41
:100F6000C5CF8AE290E008952091430326FFBECFCB
:100F700081E390E0089589E390E0089583EE90E0A6
:100F8000089582EE90E0089586EE90E008959091A5
:100F9000430392FF06C0282F28712830F9F4877F79
:100FA000846093FF06C0282F28712831F1F4877ED2
:100FB00084612091440320FF06C0382F38713830F7
:100FC000D9F4877F816021FF06C0282F287128313E
:100FD000D1F4877E816194FD877E0895282F247146
:100FE0002430F9F68B7F8860DCCF282F24712431E0
:100FF00001F78B7E8861DDCF382F3171313019F7E1
:101000008E7F8860E0CF282F2171213121F78E7EDD
:101010008861E1CF0895E82FF0E0EE0FFF1FEB5C51
:10102000FC4F808191810895089580EA8A95F1F7B7
:101030000895CF93DF93ACEBB1E040EC51E0C1E019
:10104000D0E08D91E82FE295EF70F0E061A18F7014
:101050009E0101C0220F8A95EAF7922F9095962360
:1010600091A382A1822B82A34A175B0751F7A0EBC1
:10107000B1E04CEB51E0C1E0D0E08D91E82FE2957A
:10108000EF70F0E061A18F709E0101C0220F8A9580
:10109000EAF7922F9095962391A382A1822B82A3A7
:1010A0004A175B0751F710922E0310922D031092EE
:1010B0003603109235031092300310922F031092D2
:1010C00038031092370310923203109231031092BA
:1010D0003A031092390310923403109233031092A2
:1010E0003C0310923B0384E00E941209DF91CF91F0
:1010F0000C9488054F925F926F927F928F929F928D
:10110000AF92BF92CF92DF92EF92FF920F931F9315
:10111000CF93DF938DE2E82E83E0F82E9CEBA92E8F
:1011200091E0B92E512C88248394912CD7016D9095
:101130007D907D01FD01129212928F01D5018D915A
:101140005D01C82FC295CF70D0E099A18F70640166
:1011500001C0CC0C8A95EAF7892F8C2989A38AA132
:101160004C2C409484218AA30E941508E0EBF1E006
:1011700030E020E06191A62FA295AF70B0E090968C
:101180008C91D8014D915C9190E06F7002C0959563
:1011900087956A95E2F780FD42C0C401022E02C025
:1011A000880F991F0A94E2F7482B592BD801119602
:1011B0005C934E932F5F3F4F2C303105D9F689A1B8
:1011C000482249A28AA1C82ACAA281E02D913C9155
:1011D0002615370509F480E0582AB5E3EB16B3E08D
:1011E000FB0609F0A3CF252D44E065E373E08DE213
:1011F00093E00E9413090E949005852DDF91CF9105
:101200001F910F91FF90EF90DF90CF90BF90AF9024
:101210009F908F907F906F905F904F90089590E097
:1012200080E0C2CF0895FF920F931F93CF93DF9377
:10123000F82E092F162FD72FC42F222349F081E033
:10124000809302020E94FE1A909301028093000292
:10125000809102028823A1F0809100029091010206
:101260000E940A1B069760F0EF2DF02FA12FBD2FD3
:1012700090E080E0D0E08C179D0744F010920202CD
:10128000DF91CF911F910F91FF900895219131919E
:101290002D933D930196EFCF0F931F93CF93DF9341
:1012A000C62FD42F022FFC0182818823C9F06093BE
:1012B00005020E94FE1A909304028093030280E2CA
:1012C0008C0F883008F050C0C77081E001C0880FD3
:1012D000CA95EAF7DF91CF911F910F910C94A30F5C
:1012E00010910502161335C08091030290910402FB
:1012F0000E940A1B883C910560F5C0E2CD0F1D17C6
:10130000B9F080E2810F883040F4177081E001C0AD
:10131000880F1A95EAF70E94AA0FC83048F481E0B6
:101320009D2F977001C0880F9A95EAF70E94A30F2E
:10133000802F0E94900FC830B8F4D77081E001C0B0
:10134000880FDA95EAF7DF91CF911F910F910C94F6
:10135000AA0F80E28C0F883038F4C77081E001C09A
:10136000880FCA95EAF7EFCFDF91CF911F910F91C8
:1013700008959C01CB01233F4CE5340769F190F4BB
:10138000283DFCE53F0721F1293D4CE5340781F17B
:10139000273D3C45B1F0FC018281882361F1109228
:1013A00005020895253FFCE53F07D1F0263F4CE5B7
:1013B0003407D1F0243F3C4571F727E245EE64EE57
:1013C00003C026E241EE61EE0E944C0980E00895E0
:1013D00027E245EE65EEF8CF26E241EE60EEF4CF6F
:1013E00026E241EE62EEF0CF27E245EE66EEECCF6C
:1013F00028E241E0EFCF81E00895CF93DF93EC0145
:10140000FB018281882309F4C9C0C631FCE5DF07EE
:10141000E0F4C2309CE5D907F0F00E94F5199093F2
:10142000440380934303C631ECE5DE0720F5C23068
:10143000FCE5DF0798F480914303909144030E94F8
:10144000031A0E949D1280E006C09E012A5F3C455F
:101450002930310510F3DF91CF910895FE01E3505B
:10146000FC45809143038160E331F10588F4E35446
:10147000F94D0C948923CA5FDC45C930D105D8F6F3
:10148000C053D94DFE010C9489238091430382609F
:1014900080934303D0CF809143038460F9CF809140
:1014A00043038860F5CF80914403816080934403B7
:1014B000C2CF809144038260F9CF80914303806161
:1014C000E7CF809143038062E3CF80914303806440
:1014D000DFCF0E949D12809143038068D9CF809115
:1014E00043038C60D5CF809144038360DFCF80912C
:1014F00043038E7FCDCF809143038D7FC9CF8091F1
:1015000043038B7FC5CF80914303877FC1CF8091F9
:1015100044038E7FCBCF809144038D7FC7CF8091D2
:1015200043038F7EB5CF809143038F7DB1CF8091F0
:1015300043038F7BADCF0E949D12809143038F7731
:10154000A7CF80914303837FA3CF809144038C7FF7
:10155000ADCF8091430382FB992790F921E0922738
:1015600090FB82F990FB83F993CF80914403982FED
:10157000909591708E7F892B90FB81F997CF0E9477
:101580009D1290914303892F97FB87F9805880CF54
:1015900081E00E94811A4FCF80E0FBCF81E05BCFDA
:1015A000CF93DF93EB0186319C4511F50E94E21841
:1015B0009A81992399F08A7A91E009F490E09093C6
:1015C0000602811109C089E20E94BD180E943419E7
:1015D00080E0DF91CF91089585E3F6CF80910602F8
:1015E000811104C089E20E94C418F0CF85E3FBCFCB
:1015F00081E0EFCFCF93DF93EC0181E0898B8F8186
:101600000E94E51888850E94F9180E943419EA8121
:10161000FB81309739F06C897D89CE010696DF9188
:10162000CF910994DF91CF910895CF93DF93EC018F
:10163000FB018881823031F4828193810E944B04C6
:1016400081E08B87DF91CF910895FB01DC018C91C4
:10165000813021F4808191810C944B04823019F403
:1016600082819381F9CF0895FB01DC018C91813057
:1016700021F4808191810C946004823019F482817C
:101680009381F9CF0895EF92FF920F931F93CF9319
:10169000DF93EC018A85811134C0EB80FC8087E503
:1016A000F81A26E12E9DC0012F9D900D1124DC011A
:1016B000A050BF4F1496ED91FC911597309731F0E3
:1016C00054966D917C918A5F9E4F099586E18E9D1F
:1016D00080018F9D100D112400501F4FF80187814C
:1016E0000E94EB18F80180850E94FF180E943419AF
:1016F000188219861B861E821D8210920802109283
:101700000702DF91CF911F910F91FF90EF90089505
:10171000DF92EF92FF920F931F93CF93DF938C0191
:10172000FB018281882391F0809168018F3F71F0E5
:10173000C0E0D1E0F12CE12CDD24D394809168014C
:10174000082E000C990B8E159F0544F4DF91CF9164
:101750001F910F91FF90EF90DF9008958E81882365
:10176000C9F089859A858017910739F4809107021D
:10177000909108028017910769F0DF861C870B871C
:101780008989811103C0CE010E94FA0ACE01069612
:101790000E94430BFFEFEF1AFF0A6696CFCFEF923E
:1017A000FF920F931F93CF93DF938C01FB0197550B
:1017B0008F3F910509F0D0F520916801022E000CB1
:1017C000330B2817390714F480936801228136E11E
:1017D000389F7001399FF00C1124E701C050DF4F92
:1017E000288B92818E81992349F11A8709878F5F0F
:1017F0008E830E94FE1A9E878D870E941B198F83FD
:101800000E94E21888870E94F6189885982B98877E
:10181000E881F981309731F06C897D89C7018A5F51
:101820009E4F0995109308020093070281E0DF9113
:10183000CF911F910F91FF90EF9008958823B1F3FE
:101840008989882399F3C7018A5F9E4F0E94430BC1
:10185000EDCFEF92FF920F931F93CF93DF93809181
:10186000680110E006E18F3FC1F5DF91CF911F9134
:101870000F91FF90EF900895029FF001039FF00DEC
:101880001124E050FF4FE288F388E114F10419F4C9
:1018900088ECE82EF12C029FE001039FD00D11246B
:1018A000C050DF4F8E818823B9F08D859E850E94C0
:1018B0000A1BE816F90680F4109F7001112489892B
:1018C000811105C0C70180509F4F0E94FA0AC701CD
:1018D0008A5F9E4F0E94430B1F5F212F30E0809153
:1018E0006801082E000C990B821793072CF6BDCFC8
:1018F0000F931F93CF93DF93CDB7DEB728970FB623
:10190000F894DEBF0FBECDBF80916A018F938091A6
:1019100069018F9380EC91E09F938F931F9288E0F1
:101920008F938E010F5F1F4F1F930F930E94A3236E
:10193000C8010E9485050FB6F894DEBF0FBECDBF6B
:1019400028960FB6F894DEBF0FBECDBFDF91CF91C2
:101950001F910F910895CF93DF93D82FC92F0E9425
:10196000FE1A90930C0280930B02D0930902C0934D
:101970000A02DF91CF9108958091090290910A02A5
:10198000892BE1F080910B0290910C020E940A1BBE
:101990002091690130916A012817390780F48091FC
:1019A000090290910A0292600E94750410920C0242
:1019B00010920B0210920A0210920902089580916F
:1019C00009020E94900FF2CF10926B010C94BC0C94
:1019D00080916B01882321F010926B010C94BC0C58
:1019E00081E080936B0108951F93CF93DF93EC0107
:1019F000FB011281112309F464C089319C4509F46B
:101A000056C0CA318CE5D807B0F5C731ECE5DE0722
:101A100009F43FC08091690190916A010597C8312E
:101A2000FCE5DF07D9F1C933D10508F5CD32D10581
:101A300030F4C832D105A8F4C430D105A8F00E9412
:101A4000BC0C80916B01882369F10E94E21881111E
:101A500029C0CE010E94AB0C82E00E947F1910E0E9
:101A600021C0CB32D10559F30E94BC0C1BC0C43637
:101A7000D10529F3F9CFCB318CE5D807D9F0CC319A
:101A8000ECE5DE07D9F0CA31DC4571F70E94E80CBD
:101A900009C08091690190916A01059690936A014D
:101AA00080936901812FDF91CF911F9108950E944A
:101AB000780CF8CF81E080936B01F4CF0E94E40CA6
:101AC000F1CF0E94BC0C11E0EDCF909312028093F5
:101AD00011020895E0911102F0911202309721F065
:101AE0000190F081E02D099480E00895E0911102C9
:101AF000F0911202309721F00280F381E02D0994D9
:101B00000895E0911102F0911202309721F00480C3
:101B1000F581E02D0994089520910F023091100273
:101B20002817390771F09093100280930F02E0910B
:101B30001102F0911202309721F00680F781E02D1A
:101B40000994089520910D0230910E02281739074B
:101B500071F090930E0280930D02E0911102F091CA
:101B60001202309721F00084F185E02D0994089548
:101B7000089508950C94B80D08950C94BC0D0E941E
:101B8000B90D0C94BA0D81E008950C94C30D0E9418
:101B9000F51A0E9419080E94521B0C94BD0D9F92C9
:101BA000AF92BF92CF92DF92EF92FF920F931F936B
:101BB000CF93DF9300D000D00F92CDB7DEB70E9455
:101BC0007A080E94C50D882309F46EC054E1A52E41
:101BD00052E0B52E10E000E0902E802F0E940B08FE
:101BE0007C01F501C190D1905F01C816D90609F4B6
:101BF00055C08091880281FD0E94140896012E250F
:101C00003F2580E0CC24C394D12CA9014C215D2137
:101C1000452BF1F189839A82EC20FD2081E0EF28A9
:101C200009F480E08B830E94FE1A8160782F9D83E7
:101C30008C8349815A816B818D810E94760E000FC1
:101C4000111FF801EC5EFD4F80819181C826D926D5
:101C5000D182C0820E94F11C0E946A0D90911302F1
:101C6000891799F10E946A0D809313020F900F90CB
:101C70000F900F900F90DF91CF911F910F91FF90D8
:101C8000EF90DF90CF90BF90AF909F900C9499050C
:101C90008F5FCC0CDD1C8C3009F0B7CF0F5F1F4F6E
:101CA0000430110509F098CF8FEF89838A831B8256
:101CB0000E94FE1A8160782F9D838C8349815A810E
:101CC0006B818D810E94760EC5CF0F900F900F9083
:101CD0000F900F90DF91CF911F910F91FF90EF9098
:101CE000DF90CF90BF90AF909F900895CF93DF93F8
:101CF000CDB7DEB72B970FB6F894DEBF0FBECDBFC2
:101D00004F83588769877A878B871E8285E0FE011B
:101D10003796DE01119601900D928A95E1F749817F
:101D20005A816B817C818D819E812B960FB6F894B0
:101D3000DEBF0FBECDBFDF91CF910C940015FC012B
:101D4000808191810C948718CF93C82F882309F440
:101D50008FC08238C1F40E946A0D81FD89C089E379
:101D60000E94BD180E9434192FEF31EE84E02150FB
:101D700030408040E1F700C0000089E30E94C418B1
:101D8000CF910C9434198338A1F40E946A0D80FD20
:101D90006FC083E50E94BD180E9434199FEF21EEA9
:101DA00034E0915020403040E1F700C0000083E56E
:101DB000E5CF8438A1F40E946A0D82FD59C087E402
:101DC0000E94BD180E9434198FEF91EE24E08150DB
:101DD00090402040E1F700C0000087E4CFCF8CEFB7
:101DE0008C0F813AB8F48C2F0E947D1F811140C066
:101DF0006C2F80916C0190916D010E94981A88233C
:101E000029F08C2F0E94C4180E9434198C2F0E9434
:101E1000BD18B6CF80E28C0F883048F4C77081E0DF
:101E200001C0880FCA95EAF70E94E518A9CF8BE593
:101E30008C0F833038F42C2F2452330BC901CF91EF
:101E40000C948C0DE8E5EC0FE73150F4F0E0EE0F68
:101E5000FF1FEB53FE4F80819181CF910C94A20D17
:101E6000C03F30F08C2F0E94FF1BCF910C94E61CDA
:101E7000CF910895882309F452C0823871F40E94EA
:101E80006A0D81FF4CC089E30E94BD180E9434197D
:101E900089E30E94C4180C943419833859F40E94C1
:101EA0006A0D80FF3CC083E50E94BD180E94341972
:101EB00083E5EFCF843859F40E946A0D82FF2FC06A
:101EC00087E40E94BD180E94341987E4E2CF9CEF9A
:101ED000980F913AF0F290E2980F983050F4877092
:101EE00091E001C0990F8A95EAF7892F0E94EB18BB
:101EF000D2CF9BE5980F933020F490E080E00C94D3
:101F00008C0D98E5980F973120F490E080E00C94C8
:101F1000A20D803F20F00E94671C0C94E61C0895DF
:101F2000CF93C82F0E94A40EC93349F42FEF87EE38
:101F300093E0215080409040E1F700C000008C2FDA
:101F4000CF910C943A0F882321F00E94E5180C944D
:101F500034190895882321F00E94EB180C94341949
:101F60000895AF92BF92CF92DF92EF92FF920F93BC
:101F70001F93CF93DF9300D000D00F92CDB7DEB781
:101F80006C016D837983FC01058102950F701281CC
:101F900011110E9407190E94DB18E82E882371F0A6
:101FA0001123B1F08D81805E883090F082E00E9434
:101FB0007F190E94DB1891E0E82EE926A980A294FF
:101FC0009FE0A922B12CF501E752F94D0C94892329
:101FD000E12CF4CF09810F70F981F07F11F00295A7
:101FE000007F1123B1F0002361F08D81805E883085
:101FF00018F02D81211109C0802F0E94E5180E9440
:1020000034198D810E94A40E15C0802F0E94F918EA
:10201000F6CF8D810E943A0F002361F08D81805EA2
:10202000883018F04D81411133C0802F0E94EB1889
:102030000E94341958E0A51AB10864E0A616B1044C
:1020400020F40E946A0D0E949905EE2009F40EC248
:102050000E94D71880FD0AC2F60112820E94D11890
:102060000E94DE16C6010E945D120E94D1180F90D8
:102070000F900F900F900F90DF91CF911F910F91C4
:10208000FF90EF90DF90CF90BF90AF900C940F1720
:10209000802F0E94FF18CCCF59815F70F52E698187
:1020A000607F603219F0F29480EFF8227D8177230F
:1020B00069F0713049F1112391F1002351F1F601DA
:1020C000858180FF9ECF8F70858323C0112381F08F
:1020D000011106C00E941B198F290E94A30FAACFCD
:1020E0000130C1F70E941B198F290E942119A2CF2C
:1020F000011106C00E942A198F2D0E94AA0F9ACFA3
:10210000013009F497CFF6CF112329F0063008F0FB
:1021100091CF8F2DE2CF053008F08CCFEDCF00238B
:1021200059F3FD81F93349F42FEF47EE53E0215085
:1021300040405040E1F700C000008D810E943A0FFE
:1021400079CF898186958695837069F0813009F011
:1021500071CF8D8199819370111102C090E080E060
:102160000E94A20D67CF8D8199819370111102C0D9
:1021700090E080E00E948C0D5DCF112311F16D8104
:10218000653F99F0663FB9F0643F49F480913D03A3
:1021900090913E03816090933E0380933D038D8137
:1021A0000E94FF1B0E94E61C45CF80913D03909149
:1021B0003E038260F0CF80913D0390913E038460A6
:1021C000EACF7D81753F89F0763FA9F0743F49F4ED
:1021D00080913D0390913E038E7F90933E038093C8
:1021E0003D038D810E94671CDDCF80913D0390915E
:1021F0003E038D7FF2CF80913D0390913E038B7F14
:10220000ECCF8981837009F059C0111113CF4D8132
:10221000429546954770440F440F8D818F7090E032
:10222000B0E0A0E0042E04C0880F991FAA1FBB1FB6
:102230000A94D2F7ED8100E010E09801E4FF0FC0AE
:102240000FE010E020E030E004C0000F111F221F5B
:10225000331F4A95D2F70095109520953095F98156
:10226000F695F695F370FD83B901A801482B592B1B
:102270006A2B7B2B49835A836B837C83F23081F0FA
:10228000F330A9F0F13029F0CB01BA010E945616C3
:10229000D1CE69817A818B819C810E942E16CACE13
:1022A00069817A818B819C810E947E16C3CE69816F
:1022B0007A818B819C810E942C16BCCE869511233D
:1022C00011F089818170882309F4B4CE4D81429543
:1022D00046954770440F440F8D818F7090E0B0E0B9
:1022E000A0E0042E04C0880F991FAA1FBB1F0A94E8
:1022F000D2F75D8100E010E0980154FF0FC00FE0BD
:1023000010E020E030E004C0000F111F221F331F37
:102310004A95D2F70095109520953095698166957C
:10232000669563706D83B901A801482B592B6A2B00
:102330007B2B49835A836B837C835D8169817A819E
:102340008B819C81523051F0533059F0513019F04B
:102350000E949D176FCE0E9475176CCE0E94C51704
:1023600069CE0E94A81666CE69816F7069831123B9
:1023700029F0862F0E94DE168D81AFCE8D810E94BE
:10238000AA0F89810E940F1755CE7D81723FA1F15E
:1023900060F4703FE1F0713F41F1112309F445C051
:1023A00001112FCE89818F7124C08D81833F49F126
:1023B000843F99F7112379F199819F719983892F2E
:1023C0000E94DE1663E089810E946A1933CE1123D0
:1023D00041F0053008F02ECE89818F710E9444179C
:1023E00029CE063008F026CEF7CF89818F711123D0
:1023F00049F20E94DE161ECE89818F711123C9F326
:10240000C1CF112329F089818F710E94B91612CE94
:102410000E94B4160FCE81E00E947F19023008F4AA
:1024200009CE82E00E947F1905CE002361F0ED8184
:10243000E93309F082CEFFEF27EE43E0F150204070
:102440004040E1F778CE89818F719CCF49814F70F0
:102450006D81C6010E94FD050E94A015EBCD49814A
:102460004F706D81C6010E940006E4CD0F900F9061
:102470000F900F900F90DF91CF911F910F91FF90D0
:10248000EF90DF90CF90BF90AF9008950F931F9380
:10249000CF93DF93EC01688179818A810E94931840
:1024A0008C010E94ED170E942B16B801CE01DF911E
:1024B000CF911F910F910C94B10FCF93DF93EC014B
:1024C0008B819C81892B29F08881998189238F3F79
:1024D00019F4DF91CF910895CE010E94B1058823B0
:1024E000C1F3CE010E944612CE01DF91CF910C9430
:1024F000C204882321F00E94F9180C94341908951D
:10250000882321F00E94FF180C94341908950E942A
:1025100007190E9418190E9434190E940A1E0E946D
:10252000E61C90E080E00E948C0D90E080E00C942E
:10253000A20D0E94CB180C9487120E94F3180C94E1
:102540009912282F892F82958F70903C80F48A30C1
:10255000B0F4843020F4823090F480E00895863026
:10256000E1F781E0283E88F0213FB9F70EC08C30BA
:1025700011F08F3091F793FB882780F9089581E05F
:10258000203F39F018F4283E40F70895243F29F7FA
:10259000FCCF08950E9487180C94A112CF93DF936B
:1025A00000D000D00F92CDB7DEB70F900F900F90F4
:1025B0000F900F90DF91CF910895CF93DF9300D0CC
:1025C00000D000D0CDB7DEB726960FB6F894DEBFA8
:1025D0000FBECDBFDF91CF9108951F93CF93DF93AF
:1025E000E0911D0216E080911E028E1304C0DF915F
:1025F000CF911F910895CE2FD0E01E9FF00111249E
:10260000E15EFD4F408151816281738184819581BA
:102610000E94DD12FE013196E770E5CF40914F0236
:102620005091500260915102709152028091530278
:10263000909154020C94DD121F93CF93DF938091FD
:102640005402807FA9F480915102882389F08091FF
:102650001D02C0911E0260914F0270915002A09124
:102660005202B0915302D62FD72316E0C81304C0EC
:10267000DF91CF911F91089590E0109711F0DF3F07
:1026800019F401968770F2CF189F9001199F300DB1
:102690001124F901E15EFD4F41814713F2CF4081E2
:1026A0004613EFCF42814111ECCF438154814A1B45
:1026B0005B0B483C510528F7809154028F70806174
:1026C00080935402F901EC5DFD4F80818F70806131
:1026D00080838FE492E00E945D12DF91CF911F9181
:1026E0000C94ED12AF92BF92CF92DF92EF92FF92D5
:1026F0000F931F93CF93DF93CDB7DEB72B970FB612
:10270000F894DEBF0FBECDBF8C0185E0F801DE017D
:10271000179601900D928A95E1F7F8014081518159
:10272000E2808FE4C82E82E0D82E60915202709130
:1027300053026115710509F444C190914F02209133
:102740005002822F89238F3F09F43BC1A380B480BC
:10275000F0905102F501E61BF70BFF2009F4E0C0F1
:1027600080915402382F307FE83CF10508F0B2C068
:10277000311179C0FE2C251323C0941321C0E11020
:102780001FC08F708061809354020E940E13C60197
:102790000E945D1280915402F80185838F2D2B9643
:1027A0000FB6F894DEBF0FBECDBFDF91CF911F9162
:1027B0000F91FF90EF90DF90CF90BF90AF90089572
:1027C000AB2829F0842F85238F3F09F016C180E0C4
:1027D000F82FF170DF2EE0911D0220911E0236E0ED
:1027E00080FD1CC0EE20D1F2809154028160809364
:1027F0005402F12CD3CF8E2F90E03E9FF001112494
:10280000E15EFD4F6181651306C06081641303C002
:102810006281E612E7CFFC013196E770E213EBCF5D
:102820004F8358878F8198850E948718292F22957A
:102830002F70903260F0225F2F70223078F49F70FA
:1028400051F0F8019581907F31F4D12C0AC09F702E
:1028500011F08823D1F3805E8830B8F3C8010E945C
:102860005D12FD2C9BCF251306C0941304C0F80104
:10287000EE2009F470C04F8358878F8198850E949D
:10288000CA12882319F1EE2009F180915402803296
:1028900070F020914F02309150023A8329831B82BD
:1028A000BD82AC828E83CE0101960E945D1286E0CD
:1028B000F801AFE4B2E001900D928A95E1F70E9431
:1028C0001C130E940E13FF24F39468CFC8010E94CA
:1028D0005D12F9CF311113C07A2DBB86AA866E2DF9
:1028E0008B850E94CE128FE492E00E945D1286E0FA
:1028F000F60111928A95E9F70E940E137ACF2513FB
:10290000BACF9413B8CFE110B6CFF8018583C801D0
:102910000E945D1286E0F60111928A95E9F73ECF9A
:10292000E83CF10508F040C0FE2CEE2079F22513BA
:102930002AC0941328C08091540280FD1BC0982F98
:10294000907FC1F0F8018583903F31F0982F907F00
:10295000905F8F70892B8583C8010E945D1286E08D
:10296000F801AFE4B2E001900D928A95E1F70E9480
:102970000E1314CF86E0F801AFE4B2E001900D929F
:102980008A95E1F70BCF4F8358878F8198850E94F6
:10299000CA1281118CCF80915402816080935402BD
:1029A000C8010E945D12FACE7A2DBB86AA866E2DD2
:1029B0008B850E94CE1286E0F60111928A95E9F786
:1029C000D6CFEE2009F482CF4F8358878F81988528
:1029D0000E94CA12F82E882309F478CF86E0F80105
:1029E000AFE4B2E001900D928A95E1F78FE492E0B6
:1029F0000E949F0E0E941C13BACF81E08E25E8CE64
:102A00001F93CF93DF93CDB7DEB72C970FB6F89413
:102A1000DEBF0FBECDBF4F83588769877A878B870C
:102A20009C87CE0107960E947213882369F08A85DD
:102A30009B85892B39F04F815885842F85238F3FC3
:102A400009F077C016E065C086E0FE013796DE012A
:102A5000119601900D928A95E1F76A857B85611543
:102A6000710581F35F814885842F85238F3F51F362
:102A700020911E0230E0C901019687709927E091EC
:102A80001D02E817190671F40E949D1210921E0291
:102A900010921D0286E0EFE4F2E0DF011D928A95BC
:102AA000E9F7D0CF59834A837D836C8396E0929F68
:102AB000D001939FB00D1124A15EBD4FFE01319650
:102AC00001900D929A95E1F780931E020E94ED12FB
:102AD000B9CF819FC0011124815E9D4F0E94721366
:102AE0008823E9F0E0911D021E9FF0011124E15EB0
:102AF000FD4F4081518162817381848195810E9463
:102B0000DD1280911D0290E00196877099278093D5
:102B10001D0280911D0290911E028913DACF2C961E
:102B20000FB6F894DEBF0FBECDBFDF91CF911F91DE
:102B3000089569857A858B859C850E94DD1282CFF8
:102B4000EF92FF920F931F93CF93DF938C01892B0A
:102B500089F0F12CEE24E394E8012196F8018491A8
:102B6000843709F457C0A0F4823009F43EC048F419
:102B70008130D1F0DF91CF911F910F91FF90EF90B5
:102B800008959CEF980F9037A8F70E94A40E0AC0F2
:102B9000853709F44CC09CE7980F903758F78F772A
:102BA0000E943A0F8E0116C00E5F1F4FFE018491E6
:102BB00090E2980F983060F48770FE2D01C0FF0FEF
:102BC0008A95EAF78F2F0E940A190E94341902C0D1
:102BD0000E94A40E8F2D815008F4BECFEFE9FFE0D4
:102BE0003197F1F700C00000F6CF0E5F1F4FFE01D6
:102BF000849190E2980F983050F48770FE2D01C0B8
:102C0000FF0F8A95EAF78F2F0E941019DECF0E94DE
:102C10003A0FE0CF0E5F1F4FFE01C491C150D0F2BA
:102C20008FE99FE00197F1F700C00000F7CF0E5F3A
:102C30001F4FFE01F490CECF08950C941C160E94F5
:102C40001D166093770270937802809379029093B7
:102C50007A020C94871208950C941F16CF93DF9379
:102C600000D000D0CDB7DEB769837A838B839C8395
:102C70008091770290917802A0917902B0917A02C6
:102C800029813A814B815C81282B392B4A2B5B2B84
:102C900029833A834B835C83CA01B9010F900F905B
:102CA0000F900F90DF91CF910C941F16CF93DF936D
:102CB00000D000D0CDB7DEB769837A838B839C8345
:102CC0008091770290917802A0917902B0917A0276
:102CD00029813A814B815C81282339234A235B2354
:102CE00029833A834B835C83CA01B9010F900F900B
:102CF0000F900F90DF91CF910C941F16CF93DF931D
:102D000000D000D0CDB7DEB769837A838B839C83F4
:102D10008091770290917802A0917902B0917A0225
:102D200029813A814B815C81282739274A275B27F3
:102D300029833A834B835C83CA01B9010F900F90BA
:102D40000F900F90DF91CF910C941F160C94AC0351
:102D50000E94A616609373027093740280937502AA
:102D6000909376020C94871260E070E0CB010C9493
:102D7000A8160F931F93CF93DF9300D000D0CDB749
:102D8000DEB741E050E060E070E08A019B0104C0E2
:102D9000000F111F221F331F8A95D2F709831A8350
:102DA0002B833C83C901B8010F900F900F900F90B7
:102DB000DF91CF911F910F910C94A8160F931F9341
:102DC000CF93DF9300D000D0CDB7DEB741E050E025
:102DD00060E070E004C0440F551F661F771F8A959E
:102DE000D2F78091730290917402A0917502B09114
:102DF00076028A019B01082B192B2A2B3B2B098376
:102E00001A832B833C83C901B8010F900F900F9058
:102E10000F90DF91CF911F910F910C94A8160F93F3
:102E20001F93CF93DF9300D000D0CDB7DEB741E042
:102E300050E060E070E004C0440F551F661F771F2C
:102E40008A95D2F740955095609570958091730260
:102E500090917402A0917502B09176028A019B0153
:102E6000082319232A233B2309831A832B833C83BA
:102E7000C901B8010F900F900F900F90DF91CF9183
:102E80001F910F910C94A8160F931F93CF93DF936C
:102E900000D000D0CDB7DEB741E050E060E070E098
:102EA00004C0440F551F661F771F8A95D2F7809183
:102EB000730290917402A0917502B09176028A011A
:102EC0009B01082719272A273B2709831A832B836D
:102ED0003C83C901B8010F900F900F900F90DF91C4
:102EE000CF911F910F910C94A816CF93DF9300D030
:102EF00000D0CDB7DEB769837A838B839C838091C2
:102F0000730290917402A0917502B09176022981AA
:102F10003A814B815C81282B392B4A2B5B2B2983EF
:102F20003A834B835C83CA01B9010F900F900F90D5
:102F30000F90DF91CF910C94A816CF93DF9300D020
:102F400000D0CDB7DEB769837A838B839C83809171
:102F5000730290917402A0917502B091760229815A
:102F60003A814B815C81282339234A235B232983BF
:102F70003A834B835C83CA01B9010F900F900F9085
:102F80000F90DF91CF910C94A816CF93DF9300D0D0
:102F900000D0CDB7DEB769837A838B839C83809121
:102FA000730290917402A0917502B091760229810A
:102FB0003A814B815C81282739274A275B2729835F
:102FC0003A834B835C83CA01B9010F900F900F9035
:102FD0000F90DF91CF910C94A8160895E82F2CE064
:102FE000929FE00D11248E2F877041E001C0440FA5
:102FF0008A95EAF7E695E695E69585E0E89FF00183
:103000001124EB5AFD4F30E020E070E05191DF01D8
:103010001197CB01022E02C0969587950A94E2F78C
:10302000817081958527842385278C932F5F3F4F5F
:103030002530310559F70895E82F2CE0929FE00DD7
:1030400011249E2F9770E695E695E69585E0E89F1A
:10305000F0011124EB5AFD4F50E040E080E0219157
:1030600030E0092E02C0369527950A94E2F72170C8
:103070003327042E01C0220F0A94EAF7822B4F5FF8
:103080005F4F4530510559F70895BF92CF92DF92B7
:10309000EF92FF920F931F93CF93DF938C01C09019
:1030A0007302D0907402E0907502F09076028091E5
:1030B000770290917802A0917902B0917A02C82AA1
:1030C000D92AEA2AFB2ACFE1D0E0BC2ED701C601DB
:1030D0000C2E04C0B695A795979587950A94D2F7BC
:1030E00080FD0EC0219788F7B12C8B2DDF91CF91F9
:1030F0001F910F91FF90EF90DF90CF90BF900895B8
:10310000B8018C2F0E941D06019761F3EECFCF937B
:10311000DF93D82FC92F0E9445186D2F7C2FDF9188
:10312000CF910C941D061F93CF93DF93162FD72FAB
:1031300090911C02992339F0862F972FDF91CF9120
:103140001F910C948718882391F0862F972F0E9447
:103150004518C82F682F812F9D2F0E94EE17612FD1
:103160007D2F8C2FDF91CF911F910C941D06862F00
:10317000972F0E941C18C82FF2CF682F80916C01E6
:1031800090916D010C94D21A682F80916C019091EE
:103190006D010C94D41A80916C0190916D010C9486
:1031A000D61A80917B0285958595859508958091A5
:1031B0007B028770089590917B02977081E009F4FB
:1031C00080E0089580918702089590918702982B5E
:1031D000909387020895982F909580918702892374
:1031E0008093870208951092870208958091860245
:1031F000089590918602982B909386020895982FB7
:10320000909580918602892380938602089510927A
:103210008602089590918502982B909385020895D7
:10322000982F909580918502892380938502089537
:1032300010928502089580917C02089508950C945F
:103240001E1990917C02981721F080937C020C94B7
:103250001F19089580917C02882329F010927C0226
:1032600080E00C941F190895E0916C01F0916D01BC
:10327000809187028083E0916C01F0916D018081E3
:1032800090918602892B8083E0916C01F0916D0111
:10329000808190918502892B808390917C02992373
:1032A00081F0E0916C01F0916D018081892B808328
:1032B00080916C0190916D010E94861A81110E948B
:1032C0002A1980916C0190916D010C94760D0895EE
:1032D0000C94671998E0899F90011124622B6093E8
:1032E0007B020E94DE1680917B02859585958595EF
:1032F0000C94681910927B0280E00C9468199091EC
:103300007B028095892380937B02282F277071F49C
:10331000282F082E000C330B9217130639F08595D1
:10332000859585950E940F170C947A1908950F932F
:103330001F93462F572FBC01CB01AA27BB2700970D
:10334000A105B105E9F1AC01BD0180E1052F162F02
:10335000272F3327011511052105310519F0885F45
:10336000B901A8018A019B01F4E0369527951795CC
:103370000795FA95D1F7011511052105310519F0C9
:103380008C5FB901A8018A019B01E2E0369527957F
:1033900017950795EA95D1F7011511052105310516
:1033A00019F08E5FB901A8017695679557954795F5
:1033B000452B462B472B09F08F5F1F910F910895E6
:1033C00080E0C4CF90E080E00E944A269C0181E02A
:1033D0002C3E3E4F09F080E0089582E090E00C948E
:1033E000422683E090E00C944226CF9384E090E064
:1033F0000E944226C82F81E290E00E944226982F28
:103400008C2FCF910895CF93682FC92F84E090E03F
:103410000E9450266C2F81E290E0CF910C945026B0
:10342000AB01BC018FE090E00C946226AB01BC01C3
:1034300083E190E00C94622660E070E0CB010C9494
:10344000161A60E070E0CB010E94101A0C941C1A4E
:103450006CEE7EEF90E080E00E946E2660E082E0FD
:1034600090E00E94502660E083E090E00E945026A9
:1034700010927702109278021092790210927A02DA
:1034800060E084E090E00E94502660E081E290E0FD
:103490000E94502660E085E090E00E94502660E0A7
:1034A00086E090E00E9450266FEF87E090E00E9457
:1034B000502640E050E0BA0188E090E00E94622689
:1034C00060E08DE090E00E94502640E050E0BA01BC
:1034D00088E190E00E94622660E087E190E00E942F
:1034E000502640E050E0BA018CE190E00E94622654
:1034F00060E080E290E00E9450260C94211A0C9427
:10350000281A682F8EE090E00C945026AC019C01A4
:103510002E5F3F4F485F5F4F80E02417350709F467
:103520000895F90191919F019923B9F38F5FF5CF28
:103530009C01662351F0FC013296285F3F4F819138
:10354000861729F0E217F307D1F780E0089581E0AC
:1035500008959C01FC0132968FEF90E0419146174F
:1035600051F08F3F19F4411101C0892F9F5F9630B0
:10357000A9F78F3F09F40895280F311D87FD3A956B
:10358000F901628308959C01FC013296285F3F4F48
:103590008191861303C0DF0111971C92E217F30794
:1035A000B9F708950C94A91A0C94C31AFC01329629
:1035B00086E0DF011D928A95E9F708950895089540
:1035C000CF930E94DE1A0E947A080E94DF1AC0E0A0
:1035D0008C2F0E940B08892B31F4CF5FC430C1F7C8
:1035E00080E0CF91089581E0FCCF82E084BD93E03C
:1035F00095BD9AEF97BD80936E0008952FB7F8940C
:1036000080913F0390914003A0914103B091420308
:103610002FBF08959C014FB7F89480913F0390917C
:103620004003A0914103B09142034FBF821B930B13
:10363000089578941F921FB61F9211248F939F9321
:10364000AF93BF9380913F0390914003A0914103BA
:10365000B09142030196A11DB11D80933F03909349
:103660004003A0934103B0934203BF91AF919F9158
:103670008F911F901FBE1F90189588E198E00FB69C
:10368000F894A895809360000FBE90936000A89571
:10369000F894D8E0CEEF28E3299320E0299314BED4
:1036A000FFCF0895CF93DF9300D000D0CDB7DEB722
:1036B0000E94E219811102C00E947F1A0E94ED1936
:1036C000809388020E94F5199093440380934303EA
:1036D0000E94F119282F30E050E040E029833A831E
:1036E0004B835C83CA01B9010F900F900F900F902C
:1036F000DF91CF910C942C168091900280FF12C024
:103700006091730185E0689FB001112475956795FC
:103710007595679560387105A8F561157105A1F17A
:10372000862F089581FF09C06091730185E0689F2D
:10373000B001112475956795EDCF6091730182FDFD
:103740000AC080918F028823D1F09091720160911C
:103750007301891728F085E0689FB0011124DACF42
:10376000869FB001112485E0869F9001879F300DD0
:103770001124692F70E0C9010E947523CBCF65E049
:1037800070E0CECF8FE7089581E008958091900298
:1037900080FF0CC060916F0170E07595679575951D
:1037A00067956115710549F1862F089581FF06C05F
:1037B00060916F0170E075956795F3CF60916F012F
:1037C00082FD0BC090918F029923A1F060916E0150
:1037D00080916F01961738F0682F70E0603871059E
:1037E00000F38FE70895899FC001112470E00E94C3
:1037F0007523F4CF61E070E0D7CF81E00895803F7A
:1038000031F40E947C1B8195809393020895813F3F
:1038100019F40E947C1BF8CF823F31F40E947C1B7C
:103820008195809392020895833F19F40E947C1B36
:10383000F8CF893F29F40E94C61B80939402089513
:103840008A3F21F40E94C61B8195F7CF8B3F31F44C
:103850000E94C61B81958093950208958C3F19F4B0
:103860000E94C61BF8CF843F31F4809191028160A1
:10387000809391020895853F21F4809191028260A6
:10388000F7CF863F21F4809191028460F1CF873F8A
:1038900021F4809191028860EBCF883F21F48091E0
:1038A00091028061E5CF8D3F31F48091900281607B
:1038B0008093900208958E3F21F48091900282605F
:1038C000F7CF8F3FB9F7809190028460F1CF90914C
:1038D0009202803F41F48091930287FD10929302FF
:1038E000992371F00895813F29F48091930218166D
:1038F000ACF3F6CF823F81F497FFF2CF10929202A1
:103900008091930290919402892B90919502892B3A
:1039100049F710928F020895833F19F4191674F332
:10392000DFCF893F39F4809194021816CCF61092BB
:103930009402D6CF8A3F29F48091940287FFD0CF9A
:10394000F6CF8B3F39F48091950287FFC9CF109253
:103950009502C6CF8C3F29F4809195021816BCF3CE
:10396000BFCF843F31F4809191028E7F809391028A
:10397000B7CF853F21F4809191028D7FF7CF863FAD
:1039800021F4809191028B7FF1CF873F21F48091C8
:103990009102877FEBCF883F21F4809191028F7E47
:1039A000E5CF8D3F31F4809190028E7F809390021D
:1039B00097CF8E3F21F4809190028D7FF7CF8F3F7C
:1039C00009F08ECF809190028B7FF0CF81E992E059
:1039D0000E94810D0E94FE1A90938E0280938D02A8
:1039E0000895CF93DF9300D000D00F92CDB7DEB70C
:1039F00085E0E1E9F2E0DE01119601900D928A95F1
:103A0000E1F78091920290919302892B81F080914D
:103A10008B0290918C020E940A1B9C0180918F0264
:103A2000882329F1909174019217130668F180910F
:103A3000940290919502892B91F080918902909146
:103A40008A020E940A1B9C0180918F02882309F43C
:103A500077C0909170019217130608F47FC00F9001
:103A60000F900F900F900F90DF91CF91089540919C
:103A700075019AE0499FA001112442175307B8F637
:103A80008F5F80938F0202C08F3FD1F71092940214
:103A90001092950280919202181624F40E947C1BC9
:103AA000809392028091920287FF05C00E947C1B46
:103AB00081958093920280919302181624F40E94BB
:103AC0007C1B809393028091930287FF05C00E9424
:103AD0007C1B819580939302309192023323A1F055
:103AE00020919302222381F045EB3403C00111247D
:103AF0009923F1F09093920245EB24039001112455
:103B00003323D1F0309393020E94E61C80918D0202
:103B100090918E0290938C0280938B0285E0FE013F
:103B20003196A1E9B2E001900D928A95E1F77FCF3D
:103B300081E080939202E0CF81E080939302E4CF12
:103B4000409171019AE0499FA00111244217530747
:103B500008F085CF8F5F80938F0202C08F3FD1F72F
:103B6000109292021092930280919402181624F4FB
:103B70000E94C61B809394028091940287FF05C027
:103B80000E94C61B8195809394028091950218161D
:103B900024F40E94C61B809395028091950287FFB2
:103BA00005C00E94C61B81958093950230919402B6
:103BB0003323A1F020919502222381F045EB3403B9
:103BC000C00111249923F1F09093940245EB240352
:103BD000900111243323D1F0309395020E94E61C0A
:103BE00080918D0290918E0290938A028093890237
:103BF00085E0FE013196A1E9B2E001900D928A952F
:103C0000E1F72DCF81E080939402E0CF81E08093B3
:103C10009502E4CF85E0E1E9F2E0DF011D928A95AB
:103C2000E9F710928F02109290020895843009F4FF
:103C300042C038F48230E9F0833061F1813041F0E4
:103C40000895853009F448C0863009F456C00895B7
:103C500080917501482F460F5527551F4F3F51053D
:103C600024F4680F6093750108958FEF80937501B8
:103C7000089580917401482F460F5527551F4F3FD7
:103C8000510524F4680F6093740108958FEF8093B9
:103C90007401089580917301482F460F5527551FD1
:103CA0004F3F510524F4680F6093730108958FEF1F
:103CB00080937301089580917201482F460F552714
:103CC000551F4F3F510524F4680F6093720108950A
:103CD0008FEF80937201089580916F01482F460FF6
:103CE0005527551F4F3F510524F4680F60936F010E
:103CF00008958FEF80936F01089580916E01482F92
:103D0000460F5527551F4F3F510524F4680F609308
:103D10006E0108958FEF80936E010895843071F1E4
:103D200038F48230A9F08330F1F0813031F0089519
:103D3000853079F18630C1F1089580917501681759
:103D400020F4861B809375010895109275010895E3
:103D500080917401681720F4861B80937401089584
:103D600010927401089580917301681720F4861BE6
:103D700080937301089510927301089580917201E8
:103D8000681720F4861B80937201089510927201C7
:103D9000089580916F01681720F4861B80936F014E
:103DA000089510926F01089580916E01681720F4B4
:103DB000861B80936E01089510926E0108950F93F3
:103DC0001F93CF93DF9300D000D0CDB7DEB741E093
:103DD00050E060E070E08A019B0104C0000F111FF9
:103DE000221F331F8A95D2F709831A832B833C83C2
:103DF000C901B8010E942C160F900F900F900F90E0
:103E0000DF91CF911F910F910C949D12EBEFE80F72
:103E1000EF3308F061C0F0E0E751F94D0C948923CD
:103E20000E9423200E946A0D0E94990581E0089556
:103E30000E947F1AFBCF80918802807F8093880246
:103E400081E08093970208950E949D122FEF83EDE9
:103E500090E3215080409040E1F700C000000E94B4
:103E60003D1BE4CF90918802892F8E7F90FF816067
:103E70008093880280FDDACF817F80938802D6CF3D
:103E800090918802892F8D7F91FF826080938802B4
:103E900081FFCCCF809188028160EFCF9091880222
:103EA000892F8B7F92FF84608093880282FDF2CFFE
:103EB000BDCF90918802892F877F93FF8860809380
:103EC000880283FDE7CFB2CF80E00E94DF1EAECF35
:103ED0008953FBCF8D51F9CF80E0089580E008959C
:103EE0000C946E1F8E518A3030F4E82FF0E0ED50C4
:103EF000FE4F8081089580E00895CF93C82F809170
:103F000097028130A1F08230A1F181117AC00E9424
:103F1000E218823209F077C08C2F0E946E1F811147
:103F20001BC08C2F0E94061F8170CF9108950E94A4
:103F3000E218823289F38C2F0E94701F81110AC00F
:103F4000C431A1F060F4CB3029F0C03169F782E0D0
:103F50008093970281E0E8CF81E090E0E5CFC9321D
:103F600029F081E0C83301F380E0DECF10929702A0
:103F7000FBCFCB3469F198F4C43240F4CE3100F574
:103F8000C73061F1C43121F081E0CFCFC932E1F710
:103F900080919602882381F010929602F5CFC13568
:103FA000A9F061E0C235A9F06AE0CE3469F78091EA
:103FB00096020E948E1EE8CF81E080939702B5CFD3
:103FC0008C2F0E94721F80939602DECF61E0EFCFAC
:103FD0006AE0809196020E94161ED6CF8EE18093F1
:103FE000750182E3809374018AE08093730184E118
:103FF0008093720188E080936F0188E280936E0164
:10400000C3CF1092970280E090CFE1E8F0E080818A
:10401000886080838081816080838FB7F89420EDF1
:1040200033E030938900209388008FBF0895EFE636
:10403000F0E08081826080830895EFE6F0E0808187
:104040008D7F80830895EFE6F0E0808192E08927FC
:10405000808308951F920F920FB60F9211242F9311
:104060003F934F935F936F937F938F939F93AF9300
:10407000BF93EF93FF9380919802909199020196DC
:104080009093990280939802811103C082E00E946C
:104090009905E0919902E695E695F0E0E857FD4F25
:1040A000E491809198028E1303C080E00E949905EC
:1040B000FF91EF91BF91AF919F918F917F916F9100
:1040C0005F914F913F912F910F900FBE0F901F90D6
:1040D00018950E94FE1AD82F192F80E8809361004E
:1040E000109261000E94BF0D0E9482210E94650D06
:1040F0000E946223539A80E0815061F5539878942E
:10410000FFEF20E732E0F15020403040E1F700C0FF
:1041100000000E94C70D0E940520C0E00CE08091C5
:104120005F03882309F110925F030E94FE1AD82FC3
:10413000192F0E941D200E946D2280916503882303
:1041400029F08091500384FD0E94CF0D0E943621FA
:10415000C0E0E5CFA895EFE9FFE03197F1F700C0A7
:104160000000CACFC1E0DBCF8D2F912F0E940A1B28
:10417000069700F10E9417200E94E01AC82F88239A
:1041800089F3F8949AB15B9A892F8C608AB98BB1C4
:1041900080278BB98FE7E8E3F1E08150E040F04001
:1041A000E1F700C000008BB180278BB99AB95B980A
:1041B0007894B5CFCC2309F4BECFDECF80912B030A
:1041C0000895CF93DF9300D00F92CDB7DEB79B0158
:1041D00090919C02981307C040919A0250919B02C3
:1041E0004617570791F080939C0230939B022093CF
:1041F0009A0289833B832A8380917C0384FF05C0D4
:1042000063E0CE0101960E9469220F900F900F90FB
:10421000DF91CF910895BC0184E00C94E120BC01B2
:1042200083E00C94E120CF93DF9300D000D000D046
:10423000CDB7DEB7FC0182E0898385E0DE0112960E
:1042400001900D928A95E1F780917C0384FF05C06F
:1042500066E0CE0101960E94692226960FB6F89478
:10426000DEBF0FBECDBFDF91CF910895CF93DF9317
:10427000CAE0D0E08091500384FF1AC08091A80268
:104280009091A902981789F028E0829FC00111241B
:1042900068E086559D4F0E9465228091A80290E0BB
:1042A00001968F7099278093A802DF91CF9108958E
:1042B0000E946D228FE99FE00197F1F700C0000096
:1042C0002197C1F6F2CFFC01A091A902B0E09D01B7
:1042D0002F5F3F4F2F7033278091A802821771F014
:1042E00083E0AA0FBB1F8A95E1F7A655BD4F88E072
:1042F00001900D928A95E1F72093A9020E946D2208
:104300000C94362186E791E00895FC018081807647
:104310008032D1F48181813041F480EA92E090933F
:1043200061038093600388E00895823041F48AE25B
:1043300093E0909361038093600381E008958A3055
:1043400029F4838180932A0380E008958930E1F77E
:10435000828193818115924069F484819581892BB2
:1043600049F481E080939F028681978190939E0219
:1043700080939D028FEF0895FC0180919D029091A2
:104380009E02892B61F080919F02813041F49081DF
:1043900090932B0310929E0210929D0208958FEF2E
:1043A00008950895FC018381833059F130F4813000
:1043B000C1F08230F1F080E00895813209F444C008
:1043C0008232C9F784819581009709F44EC0019724
:1043D00091F785E493E0909361038093600381E813
:1043E000089583E093E0909361038093600382E1FA
:1043F000089588EC92E090936103809360038BE3CF
:10440000089582818230C1F050F481110DC081E4A1
:1044100093E0909361038093600384E00895833078
:1044200051F685E193E0F5CF89E293E09093610343
:104430008093600386E108958BE193E0909361039C
:10444000809360038CE008958281882331F081306D
:1044500009F0B1CF83EF92E002C08AED92E0909331
:1044600061038093600389E0089586EC93E0909364
:1044700061038093600380E408951F93CF93DF93DB
:10448000782F162FEA01888184FF1CC0898128E8D3
:1044900082278983AE014E5F5F4FFA01272F392FA4
:1044A000710FD9012F5F3F4F8C9181937213F9CF18
:1044B000612FCA010E9461021C5F1883DF91CF91B6
:1044C0001F9108958AE58883E5CF40E553E00C9479
:1044D0003D224CE753E00C943D22CF93DF93609153
:1044E0006203635067FD12C080915E03CCE0D0E0B0
:1044F000C81BD109CA59DC4F80915D03803108F097
:1045000059C0CE010E94D121109262038091810195
:1045100084FF43C0809180018F3F09F43EC0C82FC3
:10452000893008F0C8E0982F9C1B909380019091EF
:10453000450328E8922790934503882301F1809151
:1045400060039091610320912C034C2F480F26FFAC
:10455000AEC0FC0126E433E05491D9015C932F5F97
:104560003F4F31964E13F8CF2FEF2C0F30E02F5FD7
:104570003F4F820F931F90936103809360036C2FD2
:1045800086E493E00E94610284E08C0FC83019F049
:104590009FEF909380018093810184E199B19C7099
:1045A00031F48150D9F71092630310925C03DF91CC
:1045B000CF9108958D3209F067C0683009F0A4CF1B
:1045C00083EC809345038AE58093810110922C034C
:1045D0008881807671F0CE010E9485218F3FC1F4E1
:1045E000988197FD8E8190E890932C0380938001B1
:1045F0008BCF2A8110924E039981911111C0109294
:104600004F032EE433E082E0309361032093600394
:104610009F819111EBCF9E81981740F7892FE6CFAC
:10462000953029F4209363032EE433E0EDCF9630E8
:1046300099F49B81913021F4CE010E94D22108C0CF
:104640009230D1F39330C1F39132B1F39232A1F3AE
:1046500090E490932C03C2CF983079F0993019F4FC
:1046600020936503E1CF9A3061F09B30E9F69BE43B
:104670009093510390937D03D7CF25E633E081E0FB
:10468000C3CF2EE433E0FBCF80912C0387FF3CCFD8
:10469000CE010E94BC218F3F21F48EE180938101E5
:1046A00033CF882309F430CF109280012DCFE6E478
:1046B000F3E09C01D9012F5F3F4F5C91519342136E
:1046C000F9CF52CFE9E6F0E0808188608083E99AF3
:1046D000A0E5B3E08BE411968C931197ECE7F3E03F
:1046E00081838AE58C938083089597FB072E16F4C7
:1046F000009407D077FD09D00E948F2307FC05D0D6
:104700003EF4909581959F4F0895709561957F4FE8
:104710000895EE0FFF1F0590F491E02D0994AA1B58
:10472000BB1B51E107C0AA1FBB1FA617B70710F09C
:10473000A61BB70B881F991F5A95A9F780959095CE
:10474000BC01CD010895AEE0B0E0E9EAF3E20C94DB
:1047500092260D891E898F89988D26E02C831A83D5
:10476000098397FF02C080E090E801979E838D83C4
:10477000AE01455E5F4F698D7A8DCE0101960E9434
:10478000D3234D815E8157FD0AC02F8138854217A2
:1047900053070CF49A01020F131FF80110822E9692
:1047A000E4E00C94AE26ABE0B0E0E9EDF3E20C946B
:1047B00084267C013B018A01FC01178216828381D9
:1047C00081FFB9C19AE0292ECE0101965C01F70163
:1047D0009381F30193FD859193FF81913F0188239C
:1047E00009F446C1853239F493FD859193FF819197
:1047F0003F01853229F4B70190E00E94B425E7CF4C
:10480000912C412C512CFFE1F51538F08B3209F138
:1048100088F4803201F1833221F157FC3AC020ED57
:10482000280F2A3040F556FE1FC0929C200D1124FF
:10483000922E06C08D3291F0803379F7689450F84B
:10484000F30193FD859193FF81913F018111DBCFAE
:1048500020C0689451F8689452F8F2CF689453F8E5
:10486000EFCF689454F8ECCF429C200D1124422ED7
:10487000689455F8E5CF8E3229F456FCF9C0689457
:1048800056F8DECF8C3619F4689457F8D9CF8836AD
:10489000B9F2982F9F7D95549330C0F08336A1F1E3
:1048A0008337C1F1833509F05BC0F801C190D19025
:1048B0008F01692D70E056FC02C06FEF7FEFC601DB
:1048C0000E949E254C01689457F80AC00C5F1F4F48
:1048D0002FE3298388248394912C6501E89457F869
:1048E00053FC04C04814190409F018F5342C811441
:1048F000910431F5332009F46ACFB70180E290E0EA
:104900000E94B4253A94F6CFF801808189830E5F26
:104910001F4FE0CFF801C190D1908F01692D70E059
:1049200056FC02C06FEF7FEFC6010E94A9254C0123
:10493000D5CFB70180E290E00E94B4254A94D2CF4F
:10494000F60157FC859157FE81916F01B70190E008
:104950000E94B42531103A94F1E08F1A9108C7CF24
:10496000843619F0893609F074C0F80157FE6AC020
:1049700061917191819191918F01252D2F76D22E88
:1049800097FF09C090958095709561957F4F8F4FE7
:104990009F4F6894D7F82AE030E0A5010E94E425F3
:1049A000C82ECA188C2C5D2CD6FE0CC0E89450F88A
:1049B000C91440F4D4FE05C0D2FC03C0FD2DFE7E18
:1049C0005F2E892C54FE8FC0FE01EC0DF11D8081FD
:1049D000803309F081C0252D297E522E852D8870C7
:1049E000382E53FC8FC050FE89C09C2C841418F4C0
:1049F0004C0C942C981854FE8BC0B70180E390E0C7
:104A00000E94B42552FE09C088E790E051FE02C022
:104A100088E590E0B7010E94B425C91408F484C069
:104A2000CA94D12C9FEFC91AD90ACA0CDB1CF60113
:104A300082916F01B70190E00E94B425AC14BD04CF
:104A4000B1F758CF61917191072E000C880B990B2B
:104A500093CFD52CE894D4F82AE030E0853739F1AB
:104A6000952D997FD92E8F3601F148F48835A9F01C
:104A7000F701868197812B96E2E10C94A02680377E
:104A800049F08837A9F7D4FE02C06894D2F820E133
:104A900030E00DC06894D4F8F6CF54FE03C0E92F7F
:104AA000E660DE2E20E132E002C028E030E0F801CE
:104AB000D7FE0DC061917191819191918F01A501F6
:104AC0000E94E425C82ECA18E894D7F86BCF6191EC
:104AD000719190E080E0F2CF52FC02C083947ECFCF
:104AE000839483947BCF852D867809F477CFF6CF96
:104AF000B70180E290E00E94B42583948414C0F34F
:104B0000312C79CF342C3818841408F474CFF8CFB2
:104B1000852D867809F481CF8BE251FE80E257FC27
:104B20008DE2B70190E077CFB70180E390E00E947B
:104B3000B4259A9472CF8FEF9FEF9DCFFC01059023
:104B4000615070400110D8F7809590958E0F9F1F8F
:104B50000895FC016150704001900110D8F78095D4
:104B600090958E0F9F1F08950F931F93CF93DF9300
:104B7000182F092FEB018B8181FD09C01FEF0FEF6B
:104B8000812F902FDF91CF911F910F91089582FF78
:104B900014C02E813F818C819D81281739073CF4F8
:104BA000E881F981CF0101969983888310838E81F2
:104BB0009F8101969F838E83E3CFE885F985812FBE
:104BC0000995892BA1F3DACFFA01AA27283051F1F0
:104BD000203181F1E8946F936E7F6E5F7F4F8F4F2E
:104BE0009F4FAF4FB1E03ED0B4E03CD0670F781F8D
:104BF000891F9A1FA11D680F791F8A1F911DA11D72
:104C00006A0F711D811D911DA11D20D009F46894AA
:104C10003F912AE0269F11243019305D3193DEF652
:104C2000CF010895462F4770405D4193B3E00FD008
:104C3000C9F7F6CF462F4F70405D4A3318F0495DF3
:104C400031FD4052419302D0A9F7EACFB4E0A695D6
:104C50009795879577956795BA95C9F700976105F8
:104C6000710508959B01AC010A2E0694579547954E
:104C700037952795BA95C9F7620F731F841F951F43
:104C8000A01D0895F999FECF92BD81BDF89A99278C
:104C900080B50895A8E1B0E042E050E00C9476269B
:104CA000262FF999FECF92BD81BDF89A019700B4E5
:104CB000021639F01FBA20BD0FB6F894FA9AF99A85
:104CC0000FBE08950396272F0E9451260E9450265A
:104CD000252F0E945126242F0C9451260196272F10
:104CE0000E9451260C945026DC01CB01FC01F9995D
:104CF000FECF06C0F2BDE1BDF89A319600B40D9228
:104D000041505040B8F708952F923F924F925F92D2
:104D10006F927F928F929F92AF92BF92CF92DF92CB
:104D2000EF92FF920F931F93CF93DF93CDB7DEB730
:104D3000CA1BDB0B0FB6F894DEBF0FBECDBF0994C4
:104D40002A88398848885F846E847D848C849B841B
:104D5000AA84B984C884DF80EE80FD800C811B8129
:104D6000AA81B981CE0FD11D0FB6F894DEBF0FBE58
:104D7000CDBFED010895F894FFCF450A4B0A4F0AC5
:104D80005D0A610A650A690A6F0A770A7B0A7F0A67
:104D9000830A8F0A930A970A9B0AA10ABF0AA90AE3
:104DA000530A590A870A8B0A730AA50AB50AC80A60
:104DB000CC0AEA0FEA0F4C104C10A110BD101A10CB
:104DC0001A100111B411C511C51126121A101A10AA
:104DD0002F12241F1B1F321F161F6C1F6C1F161F44
:104DE0006C1F6C1F4E1F6C1F591F6C1F6C1F6C1F9C
:104DF0006C1F6C1F161F6C1F6C1F161F6C1F401F33
:104E00006C1F101F6A1F6A1F6A1F6A1F6A1F6A1FB2
:104E10006A1F6A1F6A1F641F6C1F241F181F6C1FE4
:104E20006C1F6C1F6C1F6C1F6C1F6C1F6C1F6C1F2A
:104E30006C1F641F6C1F6C1F161F6C1F681F681F80
:104E4000681F681F681F681F681F681F681F641F2E
:104E5000150B250B340B00000000000000000000C3
:104E6000000000006401150B250B340B000000004E
:104E7000000000000000000000006001150B250B81
:104E8000340B0000000000000000000000000000E3
:104E90005C01150B250B340B000000000000000026
:104EA000000000000000580128002B0064004500AD
:104EB00038003E00E1003900FFAF00017D02280804
:104EC000641E140A321EDE20632113210F210B21E0
:104ED000FF5AE200E900EA00B500B600B700CD00D5
:104EE0008301CC008A019201940121022302240251
:104EF0002502260227022A02B300B4006F007000C8
:104F00003097969532316061626391903435339475
:104F10000A25640A00E200E900EA00B500B600B71D
:104F200000CD008301CC008A01920194012102236B
:104F30000224022502260227022A02B300B4006FCF
:0E4F40000070000102030405060708090000C6
:00000001FF
