:100000000C9403020C944A020C9465020C944A026C
:100010000C944A020C944A020C944A020C944A0230
:100020000C944A020C944A020C944A020C94492003
:100030000C944A020C944A020C94331B0C944A020E
:100040000C944A020C944A020C944A020C944A0200
:100050000C944A020C944A020C944A020C944A02F0
:100060000C944A020C944A02290014001A00080059
:10007000150017001C0018000C00120013002A00C5
:100080002B0004001600070009000A000B000D00F9
:100090000E000F002F00300000571D001B0006004F
:1000A0001900050011001000330034003100280051
:1000B0000157E300E200E60001542C432C430254B4
:1000C000360037003800025729001E001F002000AC
:1000D00021002200230024002500260027002A00FA
:1000E00001003A003B003C003D003E003F000000A4
:1000F0004B0052004E000000010040004100420051
:100100004300440045004600500051004F002800C5
:10011000010001000100010000002C002C00000083
:10012000BB00AA00A900AE0029004A0052004D0001
:100130004B00000000000000F0002D002E002A00FF
:100140000100500051004F004E0000000000F2007E
:10015000F100F300F60000000100000000000000C4
:10016000000000000000F400AC00F50000002800D2
:10017000010001000100010000002C002C00000023
:10018000AB00AA00A900AE001A5C4A0052004D0064
:100190004B000000000000005F00600061005400A0
:1001A0002E00500051004F004E00000000000000E3
:1001B0005C005D005E0055003100000000000000A2
:1001C000000000000000000059005A005B005600CB
:1001D000010001000100010000000000000000001B
:1001E000620063005800570000000000000000009B
:1001F0002A2B280000000000000000000000000082
:1002000000000029000000002C1E3420212224348C
:100210002627252E362D3738271E1F20212223245E
:1002200025263333362E37381F0405060708090AFA
:100230000B0C0D0E0F101112131415161718191A96
:100240001B1C1D2F3130232D350405060708090A14
:100250000B0C0D0E0F101112131415161718191A76
:100260001B1C1D2F3130354C000000000000000029
:100270000000000000000000000000007E0F00D41D
:10028000FFFFFFC700000078000000000000000032
:10029000000000010204060A0F17202C3A4A5D7183
:1002A000879DB3C7DAE9F5FCFFFCF5E9DAC7B39D32
:1002B00087715D4A3A2C20170F0A060402010000DC
:1002C000000000000000000009023B00020100A045
:1002D00032090400000103010100092101010001AC
:1002E0002240000705810308000109040100010301
:1002F000000000092101010001228100070583039C
:100300000800011201100100000008C016DB2702DE
:1003100000010203010403300000000C0350006CD4
:10032000006100690064000000160364006D00397C
:10033000007200650063006F0072006400730000CB
:10034000000403090405010902A10185020901A1B4
:10035000000509190129051500250195057501817B
:1003600002950175038103050109300931158125C5
:100370007F95027508810609381581257F950175DD
:10038000088106050C0A38021581257F950175083C
:100390008106C0C005010980A101850319012AB7A2
:1003A00000150126B700950175108100C0050C09E4
:1003B00001A101850419012AA002150126A00295B8
:1003C0000175108100C005010906A101050719E0AA
:1003D00029E7150025019508750181029501750829
:1003E00081030507190029FF150026FF00950675F2
:1003F00008810005081901290595057501910295E7
:100400000175039103C011241FBECFEFD8E0DEBFFA
:10041000CDBF04B603FE27C0809188039091890365
:10042000A0918A03B0918B038730904BA740B04BCB
:10043000D1F4109288031092890310928A031092CB
:100440008B0314BE84B7877F84BF0FB6F894A8953A
:1004500080916000886180936000109260000FBE00
:10046000E0E0F8E3099511E0A0E0B1E0EEE8FEE499
:1004700002C005900D92AE3FB107D9F723E0AEEF71
:10048000B1E001C01D92A838B207E1F70E948820B0
:100490000C94DA260C940000A82FB92F80E090E08D
:1004A00041E050EA609530E009C02D918227979590
:1004B000879510F084279527305EC8F36F5FA8F307
:1004C0000895EADF8D939D930895CF93CFB7CF938F
:1004D000DF93C3954B9BE9F74B9B10C04B9B0EC022
:1004E0004B9B0CC04B9B0AC04B9B08C04B9B06C050
:1004F000C0915F03C395C0935F038EC06F93C0919B
:100500007103DD27CE58DC4F2F9365E54B9B03C06D
:100510002F916F91E1CF0F931F934F9320E040E114
:100520005F9309B10C7003FB27F93F9350E03BE068
:1005300039C01C7040642F77012F5F5F1EC0406878
:1005400019B11C702F7752501FC0406409B12F772A
:100550000C70D1F15F5F00C023C0406219B12F77EA
:100560001C7091F15F5F00C025C00C7010275150C6
:1005700012F45D5F0000115027952C3F19B1C8F6A9
:100580001C700127015027952C3FC8F6422749933C
:1005900009B10C7010274F73115027952C3FA8F606
:1005A0004695469519B11C7079F0012701502795A1
:1005B0002C3F98F66B5A60F3315009B1B0F600C089
:1005C00012E01CBB00271CC03B503195C31BD04020
:1005D00012E01CBB0881033C21F10B3411F1209186
:1005E00070031981110F1213EDCF4A81441F093690
:1005F00069F10D3211F0013E29F74F7009F0042F17
:1006000000936C033F915F914F911F910F912F9138
:100610006F91CCB3C1FD5DCFDF91CF91CFBFCF91B3
:10062000189520916C03222369F310916D03112317
:10063000E9F53430EAF130936D0320936B031091A8
:1006400071033BE0311B3093710332C000916D03A5
:10065000013064F50AE54F7049F43091810134FDB1
:1006600028C000938101C0E6D3E027C0433049F0A1
:100670003091530334FD1DC000935303C4E5D3E010
:100680001CC03091470334FD14C000934703C8E4F5
:10069000D3E013C0052710E000C000000BB91AC05A
:1006A000052710E0221F1DC010E021C04AE502C04E
:1006B00032ED432FC4E1D0E032E01AB11C605B9A06
:1006C0000BB11AB95CE020E865E320FF05270BB900
:1006D000279517951C3FF0F66695B8F7B1F720FF00
:1006E00005270BB9279517951C3FD0F62795179529
:1006F00017FF052700001C3F0BB9B0F629913A956A
:1007000019F7037F10916F03110FC651D0400BB939
:1007100011F01093700312E01CBB08601AB1137F34
:10072000402F437F54E05A95F1F70BB91AB94BB9F2
:1007300069CF0C94A1030C940C080C94CE030C9478
:1007400096050E947F0D80FD06C083E50E94B90ECC
:1007500083E50C944F0F08950F931F93CF93DF936E
:100760008B01D82FC92F0E94B119823091F028F443
:1007700081110DC04598449802C0833069F0B801DA
:100780008D2F9C2FDF91CF911F910F910895459A46
:10079000F2CF4598449AF3CF459AFCCFCF93FB0113
:1007A0008A32910561F5C281CC23B1F0E0916C01F0
:1007B000F0916D01808186FF0CC081E08093FE0185
:1007C0008093FF0186EE0E944F0F8CE40E94B90EC9
:1007D000C0E08C2FCF9108958091FE01882311F104
:1007E0001092FE018CE40E944F0F8091FF0188233C
:1007F00081F31092FF0186EE0E94B90EEACF863E89
:10080000910581F4C281C111E4CF8091FE0188235A
:1008100049F01092FE011092FF018CE40E944F0FEC
:100820008AE2EACFC1E0D5CFCF93DF939C01FB01F1
:100830009A9581159F4160F5E901CC27D170D901C6
:10084000AA27B270B90166277470A90144275870AD
:1008500034FF10C080E1CD2B09F480E0AB2B09F010
:100860008062672B09F08064452B09F08068DF9176
:10087000CF91099481E0CD2B09F480E0AB2B09F0F6
:100880008260672B09F08460452B89F38860EFCF85
:10089000DF91CF910895CF93DF93EC01805E9109B2
:1008A000089720F068E972E1209711F468EB7FE087
:1008B000CE010E9414048C2FDF91CF910C94B90EBD
:1008C000CF93DF93EC010E944F0FCE01805E910920
:1008D000089720F06FE972E1209711F46FEB7FE049
:1008E000CE01DF91CF910C941404CF93DF93D82FD6
:1008F000C92F0E944B048D2F9C2FDF91CF910C9418
:10090000600481E0089508950C9483041F93CF93AD
:10091000DF9300D000D00F92CDB7DEB749835A8362
:100920006B8330912C0289819A8131111DC066231D
:10093000B9F02223A9F00E945F18182F682F89812F
:100940009A810E94081869817A81812F0F900F90F7
:100950000F900F900F90DF91CF911F910C94030691
:100960000E943618182FEFCF0E945F1869817A8194
:10097000EDCFFC01262F40815181628173818481FA
:100980000C948604CF93DF93D82FC92F60E00E9488
:10099000B9046D2F7C2FDF91CF910C948404FF92CA
:1009A0000F931F93CF93DF93E82FF0E0E851FE4FB2
:1009B000F490C82FC695C695C695D0E0FE01E858BC
:1009C000FD4F0491877010E0082E02C01595079521
:1009D0000A94E2F701701127C859DD4FFE01C49156
:1009E000D0E002C0D595C7958A95E2F7C170DD27A2
:1009F0000115110519F081EE0E94B90E209719F02A
:100A000086EE0E94B90E8F2D0E94A50FCD2B19F0F6
:100A100086EE0E944F0F012B41F081EEDF91CF91C6
:100A20001F910F91FF900C944F0FDF91CF911F9169
:100A30000F91FF900895EF92FF920F931F93CF9322
:100A4000DF93EC01162F0AE08881882309F458C04F
:100A5000813009F052C08981813061F47E0182E0E9
:100A6000E80EF11CCA818C2F0E94B90E8C2F0E94B7
:100A70004F0F09C08230A1F47E01E2E0EE0EF11CBE
:100A80008A810E94B90EE7012196812F8823E1F225
:100A9000EFE9FFE03197F1F700C000008150F6CF99
:100AA000833031F47E01F2E0EF0EF11C8A81DFCF5A
:100AB000843011F02196E8CF2A81229680E090E0E0
:100AC000AE014F5F5F4F2053330B2A30310550F09A
:100AD0000097D1F2EFE9FFE03197F1F700C0000095
:100AE0000197F6CF089FB001099F700D1124C9012D
:100AF000860F971F2981EA01E3CF0E94CF04C4CF5C
:100B0000DF91CF911F910F91FF90EF90089560E0DA
:100B10000C941B050E94FC19811102C00E94991AB5
:100B20000C9499030E943C0C0C949B03089581E063
:100B300008950C949705CF93C82F0E949F038C2F84
:100B4000CF910C94990508950E94BC120E94A305B0
:100B50002FEF84E39CE0215080409040E1F700C0FB
:100B600000000C94571B0F931F93CF93DF93EC015E
:100B700061E00E94B9048C01BE010E949B0BBE0182
:100B8000C8010E949D03882389F1BE01C8010E940B
:100B9000E20B882359F1BE01C8010E94090D882388
:100BA00029F1BE01C8010E94CC098823F9F0BE01D9
:100BB000C8010E94100A8823C9F0BE01C8010E9422
:100BC000E30A882399F08A81882339F001158CE59E
:100BD000180751F00E3D1C4579F0CE01DF91CF9101
:100BE0001F910F910C9481040E94A40580E0DF9175
:100BF000CF911F910F9108950E94991AF7CF90E01D
:100C000080E008950895972F70E02CE0929F600D8A
:100C1000711D1124FB0190E3899FE00DF11D11244A
:100C2000EE0FFF1FE859FF4F859194910895FC0145
:100C3000EE0FFF1FE857FD4F859194910895CF93D4
:100C4000DF930E9403060E943107EC01811520E525
:100C5000920708F04BC0811530E4930708F0B2C04A
:100C6000803E910518F5803C910508F09FC0883AB8
:100C7000910570F4853A910508F095C08130910591
:100C800029F10497813A910508F1D0E0C0E01EC037
:100C90008F3B9105D1F3C85AD0E0CC0FDD1FCE5762
:100CA000DE4F0990D881C02DD46410C0811540E278
:100CB000940780F48F3F910509F040F4883E910538
:100CC00028F0805F9109D0654097F8F6CE01DF915A
:100CD000CF910895C11580E3D80708F46DC0CE0107
:100CE0009927D3FD6CC0EC01D06CF0CFC11595E510
:100CF000D90760F5C11524E5D20708F094C0C115E5
:100D000033E5D30778F4C11542E5D40708F07AC07B
:100D1000C11581E5D80708F458C0DC2FCC27C16F76
:100D2000D06AD4CFCE018370992721E030E002C091
:100D3000220F331F8A95E2F7C695C69590E2C99FA8
:100D4000E0011124C22BD32BDA68C0CFC1152AE5EC
:100D5000D207B0F4C11539E5D30708F074C0C11546
:100D600046E5D40708F464C0CE0198558F3F91053D
:100D700011F008F08ACFDC2FCC27C06FD06AA6CF45
:100D8000CE0190568115904208F07FCF8D2F8F7144
:100D90000E94C90790E0982F882788279F719C019F
:100DA0002C2BE9014EC0A497D06490CF805C9109B0
:100DB0000E941706EC018ACFCE019F70F9CFEC019B
:100DC000D86C84CFDF70D06A81CFCE0174E0969565
:100DD00087957A95E1F783702C2F269526952370B9
:100DE00040E2249F90011124382B8C2F8370C1E0A6
:100DF000D0E002C0CC0FDD1F8A95E2F7C22BD32BC7
:100E0000DC6864CFCE018370992721E030E002C016
:100E1000220F331F8A95E2F7C695C69580E2C89FD8
:100E2000E0011124EBCFDC2FCC27C46FD06A4ECF6A
:100E30008C2F0E94C907C82FD0E0DC2FCC27CC27ED
:100E4000DF71D06243CF8C2F8F700E94C90734E0CE
:100E5000D695C7953A95E1F7CF70DC2FC82FD069AA
:100E600035CF803E910599F1C8F48133910509F49D
:100E700076C048F48932910509F46AC08A32910536
:100E800009F474C0089589339105D1F08238910531
:100E9000B9F08533910509F454C00895843E910555
:100EA00099F138F4823E9105F9F0833E910509F1FC
:100EB0000895863E910599F1873E9105B9F108950F
:100EC00020919F022370A1F080EE90E00895209180
:100ED0009F0220FD52C03091A00230FF09C024FFC4
:100EE0004FC090E080E004C020919F0222FDF7CF28
:100EF000089520919F0222FD46C03091A00230FD4E
:100F0000E3CF24FFF5CFEDCF2091A00221FFF0CF5A
:100F100080919F0284FDE5CF87EE90E008952091B7
:100F20009F0223FFE5CF24FDDCCFF6CF20919F0267
:100F300023FD2CC03091A00231FFE3CF84EE90E07E
:100F4000089520919F0225FFD3CF89E290E0089574
:100F500020919F0225FFCCCF85E390E0089520915A
:100F60009F0226FFC5CF8AE290E0089520919F025C
:100F700026FFBECF81E390E0089589E390E00895D5
:100F800083EE90E0089582EE90E0089586EE90E082
:100F9000089590919F0292FF06C0282F2871283053
:100FA000F9F4877F846093FF06C0282F28712831C9
:100FB000F1F4877E84612091A00220FF06C0382FC3
:100FC00038713830D9F4877F816021FF06C0282F1F
:100FD00028712831D1F4877E816194FD877E089540
:100FE000282F24712430F9F68B7F8860DCCF282FDE
:100FF0002471243101F78B7E8861DDCF382F317168
:10100000313019F78E7F8860E0CF282F2171213190
:1010100021F78E7E8861E1CF0895E82FF0E0EE0F92
:10102000FF1FE050FE4F808191810895089580EA6E
:101030008A95F1F70895CF93DF93CCEBD1E020ECC4
:1010400031E041E050E08991E82FE295EF70A1E2B4
:10105000AE0FB0E0FC918F70BA0101C0660F8A95A7
:10106000EAF7962F90959F239C93EE5DF0E08081A8
:10107000862B80832C173D0731F7C0EBD1E02CEB9A
:1010800031E041E050E08991E82FE295EF70A1E274
:10109000AE0FB0E0FC918F70BA0101C0660F8A9567
:1010A000EAF7962F90959F239C93EE5DF0E0808168
:1010B000862B80832C173D0731F71092090210927E
:1010C0000802109201021092000210920B0210927C
:1010D0000A02109203021092020210920D02109264
:1010E0000C02109205021092040210920F0210924C
:1010F0000E02109207021092060284E00E94250957
:10110000DF91CF910C948A052F923F924F925F927C
:101110006F927F928F929F92AF92BF92CF92DF9207
:10112000EF92FF920F931F93CF93DF9388E0C82E27
:1011300082E0D82E9CEBA92E91E0B92E312C882488
:101140008394912CF601419051906F01129212926A
:101150007F01F50181915F01C82FC295CF7001E237
:101160000C0F10E0F80190818F70340101C0660C03
:101170008A95EAF7892F86298083CE5DD0E0888121
:10118000262C2094822188830E941708A0EBB1E0CE
:1011900030E020E06D91E62FE295EF70E05EF0E048
:1011A0008081F7014081518190E06F7002C0959578
:1011B00087956A95E2F780FD45C0C401022E02C002
:1011C000880F991F0A94E2F7842B952BF7019183DE
:1011D00080832F5F3F4F2C303105E1F6F80180818D
:1011E000282220828881682A688281E0F701208194
:1011F00031812415350509F480E0382AF0E1CF1655
:10120000F2E0DF0609F09ECF232D44E060E072E0BB
:1012100088E092E00E9426090E949205832DDF91CA
:10122000CF911F910F91FF90EF90DF90CF90BF90E3
:10123000AF909F908F907F906F905F904F903F9076
:101240002F90089580E090E0BFCF0895FF920F9314
:101250001F93CF93DF93F82E092F162FD72FC42F6C
:10126000222349F081E0809312020E94181B909380
:10127000110280931002809112028823A1F08091C4
:101280001002909111020E94241B069760F0EF2D2E
:10129000F02FA12FBD2F90E080E0D0E08C179D07AC
:1012A00044F010921202DF91CF911F910F91FF90A5
:1012B0000895219131912D933D930196EFCF0F9396
:1012C0001F93CF93DF93C62FD42F022FFC0182816F
:1012D0008823C9F0609315020E94181B9093140292
:1012E0008093130280E28C0F883008F050C0C770E2
:1012F00081E001C0880FCA95EAF7DF91CF911F9175
:101300000F910C94B80F10911502161335C08091EF
:101310001302909114020E94241B883C910560F5F1
:10132000C0E2CD0F1D17B9F080E2810F883040F484
:10133000177081E001C0880F1A95EAF70E94BF0F6D
:10134000C83048F481E09D2F977001C0880F9A95AE
:10135000EAF70E94B80F802F0E94A50FC830B8F49A
:10136000D77081E001C0880FDA95EAF7DF91CF915D
:101370001F910F910C94BF0F80E28C0F883038F4CE
:10138000C77081E001C0880FCA95EAF7EFCFDF91FF
:10139000CF911F910F9108959C01CB01233F4CE504
:1013A000340769F190F4283DFCE53F0721F1293D20
:1013B0004CE5340781F1273D3C45B1F0FC018281C9
:1013C000882361F1109215020895253FFCE53F073F
:1013D000D1F0263F4CE53407D1F0243F3C4571F76E
:1013E00027E245EE64EE03C026E241EE61EE0E9484
:1013F0005F0980E0089527E245EE65EEF8CF26E22A
:1014000041EE60EEF4CF26E241EE62EEF0CF27E24D
:1014100045EE66EEECCF28E241E0EFCF81E00895A3
:10142000CF93DF93EC01FB018281882309F4C9C0CB
:10143000C631FCE5DF07E0F4C2309CE5D907F0F0E7
:101440000E940F1A9093A00280939F02C631ECE590
:10145000DE0720F5C230FCE5DF0798F480919F029B
:101460009091A0020E941D1A0E94BC1280E006C04A
:101470009E012A5F3C452930310510F3DF91CF9161
:101480000895FE01E350FC4580919F028160E331A5
:10149000F10588F4E452F94D0C94A823CA5FDC45A9
:1014A000C930D105D8F6C151D94DFE010C94A823FD
:1014B00080919F02826080939F02D0CF80919F0293
:1014C0008460F9CF80919F028860F5CF8091A0025F
:1014D00081608093A002C2CF8091A0028260F9CF88
:1014E00080919F028061E7CF80919F028062E3CF6D
:1014F00080919F028064DFCF0E94BC1280919F0286
:101500008068D9CF80919F028C60D5CF8091A00256
:101510008360DFCF80919F028E7FCDCF80919F022D
:101520008D7FC9CF80919F028B7FC5CF80919F0215
:10153000877FC1CF8091A0028E7FCBCF8091A00208
:101540008D7FC7CF80919F028F7EB5CF80919F0204
:101550008F7DB1CF80919F028F7BADCF0E94BC1257
:1015600080919F028F77A7CF80919F02837FA3CF27
:101570008091A0028C7FADCF80919F0282FB992742
:1015800090F921E0922790FB82F990FB83F993CFA9
:101590008091A002982F909591708E7F892B90FB5F
:1015A00081F997CF0E94BC1290919F02892F97FBDF
:1015B00087F9805880CF81E00E949B1A4FCF80E04E
:1015C000FBCF81E05BCFCF93DF93EB0186319C456E
:1015D00011F50E94FC189A81992399F08A7A91E07A
:1015E00009F490E090931602811109C089E20E94EB
:1015F000D7180E944E1980E0DF91CF91089585E3BE
:10160000F6CF80911602811104C089E20E94DE1893
:10161000F0CF85E3FBCF81E0EFCFCF93DF93EC01F9
:1016200081E0898B8F810E94FF1888850E941319A1
:101630000E944E19EA81FB81309739F06C897D89CF
:10164000CE010696DF91CF910994DF91CF91089555
:10165000CF93DF93EC01FB018881823031F48281EA
:1016600093810E944B0481E08B87DF91CF91089595
:10167000FB01DC018C91813021F4808191810C94FB
:101680004B04823019F482819381F9CF0895FB01D4
:10169000DC018C91813021F4808191810C94600473
:1016A000823019F482819381F9CF0895EF92FF92ED
:1016B0000F931F93CF93DF93EC018A85811134C080
:1016C000EB80FC8087E5F81A26E12E9DC0012F9D56
:1016D000900D1124DC01A050BF4F1496ED91FC91A8
:1016E0001597309731F054966D917C918A5F9E4F9B
:1016F000099586E18E9D80018F9D100D112400506B
:101700001F4FF80187810E940519F80180850E940A
:1017100019190E944E19188219861B861E821D8275
:101720001092180210921702DF91CF911F910F9122
:10173000FF90EF900895DF92EF92FF920F931F9327
:10174000CF93DF938C01FB018281882391F08091FC
:1017500068018F3F71F0C0E0D1E0F12CE12CDD2475
:10176000D39480916801082E000C990B8E159F056B
:1017700044F4DF91CF911F910F91FF90EF90DF9094
:1017800008958E818823C9F089859A8580179107ED
:1017900039F480911702909118028017910769F02F
:1017A000DF861C870B878989811103C0CE010E94C7
:1017B0000D0BCE0106960E94560BFFEFEF1AFF0AA3
:1017C0006696CFCFEF92FF920F931F93CF93DF9345
:1017D0008C01FB0197558F3F910509F0D0F52091C1
:1017E0006801022E000C330B2817390714F480937C
:1017F0006801228136E1389F7001399FF00C112475
:10180000E701C050DF4F288B92818E81992349F1E7
:101810001A8709878F5F8E830E94181B9E878D878A
:101820000E9435198F830E94FC1888870E94101926
:101830009885982B9887E881F981309731F06C89E9
:101840007D89C7018A5F9E4F099510931802009306
:10185000170281E0DF91CF911F910F91FF90EF90E0
:1018600008958823B1F38989882399F3C7018A5F92
:101870009E4F0E94560BEDCFEF92FF920F931F9356
:10188000CF93DF93809168018F3F09F042C0DF91D1
:10189000CF911F910F91FF90EF900895E29EF0017C
:1018A000E39EF00D1124E050FF4F028913890115CA
:1018B000110511F408EC10E0E29EE001E39ED00D6A
:1018C0001124C050DF4F8E818823B9F08D859E850D
:1018D0000E94241B0817190780F4FE9C8001112424
:1018E0008989811105C0C80180509F4F0E940D0B4E
:1018F000C8018A5F9E4F0E94560BF3942F2D30E053
:1019000080916801082E000C990B8217930734F61A
:10191000BECFF12C86E1E82EF1CF0F931F93CF932A
:10192000DF93CDB7DEB728970FB6F894DEBF0FBEB2
:10193000CDBF80916A018F93809169018F9380EC74
:1019400091E09F938F931F9288E08F938E010F5F9A
:101950001F4F1F930F930E94C223C8010E94870547
:101960000FB6F894DEBF0FBECDBF28960FB6F89421
:10197000DEBF0FBECDBFDF91CF911F910F910895B4
:10198000CF93DF93D82FC92F0E94181B90931C026E
:1019900080931B02D0931902C0931A02DF91CF915A
:1019A00008958091190290911A02892BE1F080919B
:1019B0001B0290911C020E94241B2091690130910E
:1019C0006A012817390780F48091190290911A0250
:1019D00092600E94750410921C0210921B021092D9
:1019E0001A02109219020895809119020E94A50FFF
:1019F000F2CF10926B010C94D10C80916B01882373
:101A000021F010926B010C94D10C81E080936B015A
:101A100008951F93CF93DF93EC01FB0112811123F3
:101A200009F464C089319C4509F456C0CA318CE57B
:101A3000D807B0F5C731ECE5DE0709F43FC0809167
:101A4000690190916A010597C831FCE5DF07D9F17A
:101A5000C933D10508F5CD32D10530F4C832D105EE
:101A6000A8F4C430D105A8F00E94D10C80916B017C
:101A7000882369F10E94FC18811129C0CE010E94BF
:101A8000C00C82E00E94991910E021C0CB32D10530
:101A900059F30E94D10C1BC0C436D10529F3F9CFEC
:101AA000CB318CE5D807D9F0CC31ECE5DE07D9F0A5
:101AB000CA31DC4571F70E94FD0C09C080916901B3
:101AC00090916A01059690936A0180936901812F34
:101AD000DF91CF911F9108950E948D0CF8CF81E086
:101AE00080936B01F4CF0E94F90CF1CF0E94D10CCE
:101AF00011E0EDCF90932202809321020895E091AE
:101B00002102F0912202309721F00190F081E02D26
:101B1000099480E00895E0912102F091220230972B
:101B200021F00280F381E02D09940895E0912102D3
:101B3000F0912202309721F00480F581E02D099484
:101B4000089520911F02309120022817390771F063
:101B50009093200280931F02E0912102F0912202D3
:101B6000309721F00680F781E02D099408952091A7
:101B70001D0230911E022817390771F090931E0242
:101B800080931D02E0912102F0912202309721F012
:101B90000084F185E02D09940895089508950C942A
:101BA000CD0D08950C94D10D0E94CE0D0C94CF0D47
:101BB00081E008950C94D80D0E940F1B0E941B0811
:101BC0000E946C1B0C94D20D9F92AF92BF92CF9249
:101BD000DF92EF92FF920F931F93CF93DF9300D08A
:101BE00000D00F92CDB7DEB70E9484080E94DA0DB4
:101BF000882309F46EC054E2A52E52E0B52E10E001
:101C000000E0902E802F0E940D087C01F501C1900C
:101C1000D1905F01C816D90609F455C080919A0287
:101C200081FD0E94160896012E253F2580E0CC24D8
:101C3000C394D12CA9014C215D21452BF1F189835D
:101C40009A82EC20FD2081E0EF2809F480E08B836C
:101C50000E94181B8160782F9D838C8349815A8153
:101C60006B818D810E948B0E000F111FF801EC5DBE
:101C7000FD4F80819181C826D926D182C0820E94E1
:101C80000B1D0E947F0D90912302891799F10E94EC
:101C90007F0D809323020F900F900F900F900F9065
:101CA000DF91CF911F910F91FF90EF90DF90CF9038
:101CB000BF90AF909F900C949B058F5FCC0CDD1C68
:101CC0008C3009F0B7CF0F5F1F4F0430110509F0BA
:101CD00098CF8FEF89838A831B820E94181B8160B3
:101CE000782F9D838C8349815A816B818D810E94DD
:101CF0008B0EC5CF0F900F900F900F900F90DF912C
:101D0000CF911F910F91FF90EF90DF90CF90BF90F8
:101D1000AF909F900895CF93DF93CDB7DEB72B9709
:101D20000FB6F894DEBF0FBECDBF4F8358876987CB
:101D30007A878B871E8285E0FE013796DE01119639
:101D400001900D928A95E1F749815A816B817C81DE
:101D50008D819E812B960FB6F894DEBF0FBECDBF4E
:101D6000DF91CF910C941E15FC01808191810C9420
:101D7000A118CF93C82F882309F48FC08238C1F4EB
:101D80000E947F0D81FD89C089E30E94D7180E94BF
:101D90004E192FEF31EE84E0215030408040E1F7C2
:101DA00000C0000089E30E94DE18CF910C944E1908
:101DB0008338A1F40E947F0D80FD6FC083E50E94EF
:101DC000D7180E944E199FEF21EE34E09150204029
:101DD0003040E1F700C0000083E5E5CF8438A1F48E
:101DE0000E947F0D82FD59C087E40E94D7180E948F
:101DF0004E198FEF91EE24E0815090402040E1F7A2
:101E000000C0000087E4CFCF8CEF8C0F813AB8F48C
:101E10008C2F0E949C1F811140C06C2F80916C01FF
:101E200090916D010E94B21A882329F08C2F0E9494
:101E3000DE180E944E198C2F0E94D718B6CF80E270
:101E40008C0F883048F4C77081E001C0880FCA95B4
:101E5000EAF70E94FF18A9CF8BE58C0F833038F486
:101E60002C2F2452330BC901CF910C94A10DE8E51E
:101E7000EC0FE73150F4F0E0EE0FFF1FEB53FE4F95
:101E800080819181CF910C94B70DC03F30F08C2FA1
:101E90000E94191CCF910C94001DCF9108958823A6
:101EA00009F452C0823871F40E947F0D81FF4CC04A
:101EB00089E30E94D7180E944E1989E30E94DE1818
:101EC0000C944E19833859F40E947F0D80FF3CC05A
:101ED00083E50E94D7180E944E1983E5EFCF84381E
:101EE00059F40E947F0D82FF2FC087E40E94D7180B
:101EF0000E944E1987E4E2CF9CEF980F913AF0F2DE
:101F000090E2980F983050F4877091E001C0990FDB
:101F10008A95EAF7892F0E940519D2CF9BE5980F81
:101F2000933020F490E080E00C94A10D98E5980F98
:101F3000973120F490E080E00C94B70D803F20F0C2
:101F40000E94811C0C94001D0895CF93C82F0E94FD
:101F5000B90EC93349F42FEF87EE93E0215080404A
:101F60009040E1F700C000008C2FCF910C944F0FF0
:101F7000882321F00E94FF180C944E19089588239D
:101F800021F00E9405190C944E190895AF92BF924A
:101F9000CF92DF92EF92FF920F931F93CF93DF9335
:101FA00000D000D00F92CDB7DEB76C016D8379837E
:101FB000FC01058102950F70128111110E942119F7
:101FC0000E94F518E82E882371F01123B1F08D815D
:101FD000805E883090F082E00E9499190E94F51886
:101FE00091E0E82EE926A980A2949FE0A922B12CD5
:101FF000F501E850F94D0C94A823E12CF4CF0981A8
:102000000F70F981F07F11F00295007F1123B1F07C
:10201000002361F08D81805E883018F02D812111C0
:1020200009C0802F0E94FF180E944E198D810E94C6
:10203000B90E15C0802F0E941319F6CF8D810E9412
:102040004F0F002361F08D81805E883018F04D8144
:10205000411133C0802F0E9405190E944E1948E09B
:10206000A41AB10854E0A516B10420F40E947F0D13
:102070000E949B05EE2009F418C20E94F11880FD11
:1020800014C2F60112820E94EB180E94F816C601D3
:102090000E947C120E94EB180F900F900F900F90EF
:1020A0000F90DF91CF911F910F91FF90EF90DF90F4
:1020B000CF90BF90AF900C942917802F0E941919D0
:1020C000CCCF59815F70F52E6981607F603219F045
:1020D000F29480EFF8227D81772369F0713049F125
:1020E000112391F1002351F1F601858180FF9ECFEC
:1020F0008F70858323C0112381F0011106C00E94D7
:1021000035198F290E94B80FAACF0130C1F70E945C
:1021100035198F290E943B19A2CF011106C00E94D8
:1021200044198F2D0E94BF0F9ACF013009F497CF29
:10213000F6CF112329F0063008F091CF8F2DE2CF92
:10214000053008F08CCFEDCF002359F3FD81F93332
:1021500049F42FEF47EE53E0215040405040E1F763
:1021600000C000008D810E944F0F79CF8981869534
:102170008695837069F0813009F071CF8D819981E6
:102180009370111102C090E080E00E94B70D67CFFC
:102190008D8199819370111102C090E080E00E94BE
:1021A000A10D5DCF112311F16D81653F99F0663F5F
:1021B000B9F0643F49F480912D0290912E02816024
:1021C00090932E0280932D028D810E94191C0E94F3
:1021D000001D45CF80912D0290912E028260F0CF9C
:1021E00080912D0290912E028460EACF7D81753F0F
:1021F00089F0763FA9F0743F49F480912D029091C7
:102200002E028E7F90932E0280932D028D810E944C
:10221000811CDDCF80912D0290912E028D7FF2CF17
:1022200080912D0290912E028B7FECCF898183705B
:1022300009F059C0111113CF4D8142954695477051
:10224000440F440F8D818F7090E0B0E0A0E0042E29
:1022500004C0880F991FAA1FBB1F0A94D2F7ED81F3
:1022600000E010E09801E4FF0FC00FE010E020E074
:1022700030E004C0000F111F221F331F4A95D2F710
:102280000095109520953095F981F695F695F370A7
:10229000FD83B901A801482B592B6A2B7B2B49835D
:1022A0005A836B837C83F23081F0F330A9F0F130F4
:1022B00029F0CB01BA010E947016D1CE69817A81D2
:1022C0008B819C810E944816CACE69817A818B815C
:1022D0009C810E949816C3CE69817A818B819C81F2
:1022E0000E944616BCCE112309F445C0598150FF07
:1022F000B6CE4D81429546954770440F440F8D816F
:102300008F7090E0B0E0A0E0042E04C0880F991F09
:10231000AA1FBB1F0A94D2F77D8100E010E098014C
:1023200074FF0FC00FE010E020E030E004C0000FA9
:10233000111F221F331F4A95D2F700951095209543
:102340003095E981E695E695E370ED83B901A80142
:10235000482B592B6A2B7B2B49835A836B837C83B5
:10236000E230A1F0E330C9F0E13049F0CB01BA012D
:102370000E94B71774CE698161FF71CEBACF6981AF
:102380007A818B819C810E948F1769CE69817A81C5
:102390008B819C810E94DF1762CE69817A818B815B
:1023A0009C810E94C2165BCE59815F7059831123B4
:1023B00029F0852F0E94F8168D81A4CE8D810E9470
:1023C000BF0F89810E9429174ACE6D81623F99F122
:1023D00060F4603FD9F0613F39F1112309F444C042
:1023E000011124CE89818F7123C07D81733F41F11A
:1023F000743F99F7112371F189818F7189830E944C
:10240000F81663E089810E94841929CE112341F0D6
:10241000053008F024CE89818F710E945E171FCE8F
:10242000063008F01CCEF7CF89818F71112351F24D
:102430000E94F81614CE89818F711123C9F3C2CF7F
:10244000112329F089818F710E94D31608CE0E9432
:10245000CE1605CE81E00E949919023008F4FFCD16
:1024600082E00E949919FBCD002361F09D81993390
:1024700009F078CEEFEFF7EE23E0E150F040204096
:10248000E1F76ECE89818F719DCF49814F706D814B
:10249000C6010E94FF050E94B815E1CD49814F7029
:1024A0006D81C6010E940206DACD0F900F900F9049
:1024B0000F900F90DF91CF911F910F91FF90EF90B0
:1024C000DF90CF90BF90AF9008950F931F93CF935D
:1024D000DF93EC01688179818A810E94AD188C01BB
:1024E0000E9407180E944516B801CE01DF91CF91D6
:1024F0001F910F910C94C60FCF93DF93EC018B814A
:102500009C81892B29F08981988189238F3F19F437
:10251000DF91CF910895CE010E94B3058823C1F3C6
:10252000CE010E946512CE01DF91CF910C94C204BE
:10253000882321F00E9413190C944E1908958823C2
:1025400021F00E9419190C944E1908950E94211926
:102550000E9432190E944E190E94291E0E94001DDD
:1025600090E080E00E94A10D90E080E00C94B70D17
:102570000E94E5180C94A6120E940D190C94B81232
:10258000282F892F82958F70903C80F48A30B0F488
:10259000843020F4823090F480E008958630E1F7B2
:1025A00081E0283E88F0213FB9F70EC08C3011F051
:1025B0008F3091F793FB882780F9089581E0203FC1
:1025C00039F018F4283E40F70895243F29F7FCCF4E
:1025D00008950E94A1180C94C012CF93DF9300D0ED
:1025E00000D00F92CDB7DEB70F900F900F900F90E5
:1025F0000F90DF91CF910895CF93DF9300D000D05B
:1026000000D0CDB7DEB726960FB6F894DEBF0FBE6A
:10261000CDBFDF91CF9108951F93CF93DF93E091CA
:102620002F0216E0809130028E1304C0DF91CF910B
:102630001F910895CE2FD0E01E9FF0011124EF5C72
:10264000FD4F4081518162817381848195810E9417
:10265000FC12FE013196E770E5CF40916102509186
:1026600062026091630270916402809165029091B0
:1026700066020C94FC121F93CF93DF938091660245
:10268000807FA9F480916302882389F080912F02D2
:10269000C09130027091610260916202A091640267
:1026A000B0916502D62FD72316E0C81304C0DF917E
:1026B000CF911F91089590E0109711F0DF3F19F42A
:1026C00001968770F2CF189F9001199F300D112449
:1026D000F901EF5CFD4F41816413F2CF4081471354
:1026E000EFCF42814111ECCF438154814A1B5B0BF8
:1026F000483C510528F7809166028F708061809375
:102700006602F901EA5CFD4F80818F7080618083F1
:1027100081E692E00E947C12DF91CF911F910C9490
:102720000C13AF92BF92CF92DF92EF92FF920F9372
:102730001F93CF93DF93CDB7DEB72B970FB6F894E7
:10274000DEBF0FBECDBF8C0185E0F801DE0117961C
:1027500001900D928A95E1F7F80140815181E28064
:1027600081E6A82E82E0B82E609164027091650225
:102770006115710549F09091610220916202892FE3
:1027800082238F3F09F045C1EE2009F453C14F83E6
:1027900058878F8198850E94E912F82E882309F4C2
:1027A00049C186E0F801A1E6B2E001900D928A9558
:1027B000E1F781E692E00E94B40E0E943B1326C12D
:1027C00080916602382F307F683C710508F07CC02C
:1027D0003111B5C0FE2C251324C0941322C0E11082
:1027E00020C08F708061809366020E942D1381E665
:1027F00092E00E947C1280916602F80185838F2D01
:102800002B960FB6F894DEBF0FBECDBFDF91CF91F0
:102810001F910F91FF90EF90DF90CF90BF90AF90FE
:102820000895CD2829F0842F85238F3F09F084C097
:1028300080E0F82FF170DF2EE0912F02209130021E
:1028400036E080FD1CC0EE20D1F2809166028160EE
:1028500080936602F12CD3CF8E2F90E03E9FF00143
:102860001124EF5CFD4F6181651306C06081641324
:1028700003C062816E11E7CFFC013196E770E2136D
:10288000EBCF4F8358878F8198850E94A118292FFD
:1028900022952F70903260F0225F2F70223078F4F2
:1028A0009F7051F0F8019581907F31F4D12C0AC0CE
:1028B0009F7011F08823D1F3805E8830B8F3C8018F
:1028C0000E947C12FD2C9BCF31116EC06E2D7A853B
:1028D0008B850E94ED1281E692E00E947C1286E0D8
:1028E000F50111928A95E9F70E942D13B3CF86E086
:1028F000F801A1E6B2E001900D928A95E1F77FCF51
:102900004F8358878F8198850E94E91281113DC0BD
:1029100080916602816080936602C8010E947C12E9
:102920006ECF6E2D7A858B850E94ED1286E0F501C3
:1029300011928A95E9F76AC081E08E257ACF251336
:1029400006C0941304C0F801EE2009F453C04F836D
:1029500058878F8198850E94E912882309F46AC0FC
:10296000EE2009F467C080916602803270F02091F9
:102970006102309162023A8329831B82DD82CC821C
:102980008E83CE0101960E947C1286E0F801A1E6BA
:10299000B2E001900D928A95E1F70E943B130E94EC
:1029A0002D13FF24F3942BCF2513D1CF9413CFCF26
:1029B000E110CDCFF8018583C8010E947C1286E02A
:1029C000F50111928A95E9F71ACF251399CF94133F
:1029D00097CF8091660280FD8ACF982F907F09F46F
:1029E00086CFF8018583903F31F0982F907F905FDC
:1029F0008F70892B8583C8010E947C1286E0F801C4
:102A0000A1E6B2E001900D928A95E1F70E942D13A4
:102A1000F6CEC380D480F0906302F601E61BF70B7C
:102A2000BF01F110CDCE683C710508F07ACFFE2CC5
:102A3000E110CBCFC8010E947C12B3CF1F93CF937C
:102A4000DF93CDB7DEB72C970FB6F894DEBF0FBE7D
:102A5000CDBF4F83588769877A878B879C87CE0144
:102A600007960E949113882369F08A859B85892B9C
:102A700039F058854F81852F84238F3F09F071C02D
:102A800016E05FC086E0FE013796DE0111960190E8
:102A90000D928A95E1F78A859B85892B89F38F8131
:102AA000988589238F3F61F32091300230E0C9017E
:102AB00001968770992740912F024817190671F4E3
:102AC0000E94BC121092300210922F0286E0E1E6C2
:102AD000F2E0DF011D928A95E9F7D2CF96E0929F4E
:102AE000D001939FB00D1124AF5CBD4FFE01319614
:102AF00001900D929A95E1F7809330020E940C1399
:102B0000BFCF819FC00111248F5C9D4F0E94911304
:102B10008823E9F0E0912F021E9FF0011124EF5C61
:102B2000FD4F4081518162817381848195810E9432
:102B3000FC1280912F0290E0019687709927809374
:102B40002F0280912F02909130028913DACF2C96B8
:102B50000FB6F894DEBF0FBECDBFDF91CF911F91AE
:102B6000089569857A858B859C850E94FC1288CFA3
:102B7000EF92FF920F931F93CF93DF938C01892BDA
:102B800089F0F12CEE24E394E8012196F801849178
:102B9000843709F458C0A0F4823009F43FC048F4E7
:102BA0008130D1F0DF91CF911F910F91FF90EF9085
:102BB00008959CEF980F9037A8F70E94B90E0AC0AD
:102BC000853709F44EC09CE7980F903758F78F77F8
:102BD0000E944F0F8E0116C00E5F1F4FFE018491A1
:102BE00090E2980F983060F48770FE2D01C0FF0FBF
:102BF0008A95EAF78F2F0E9424190E944E1902C06D
:102C00000E94B90E8F2D882309F4BECFEFE9FFE0B3
:102C10003197F1F700C000008150F5CF0E5F1F4FD4
:102C2000FE01849190E2980F983050F48770FE2D49
:102C300001C0FF0F8A95EAF78F2F0E942A19DDCF76
:102C40000E944F0FDFCF0E5F1F4FFE01C491CC23B8
:102C5000C9F28FE99FE00197F1F700C00000C15071
:102C6000F6CF0E5F1F4FFE01F490CCCF08950C9469
:102C700036160E9437166093890270938A028093F9
:102C80008B0290938C020C94A61208950C94391622
:102C9000CF93DF9300D000D0CDB7DEB769837A83BE
:102CA0008B839C838091890290918A02A0918B02F0
:102CB000B0918C0229813A814B815C81282B392B80
:102CC0004A2B5B2B29833A834B835C83CA01B9016E
:102CD0000F900F900F900F90DF91CF910C943916B9
:102CE000CF93DF9300D000D0CDB7DEB769837A836E
:102CF0008B839C838091890290918A02A0918B02A0
:102D0000B0918C0229813A814B815C81282339233F
:102D10004A235B2329833A834B835C83CA01B9012D
:102D20000F900F900F900F90DF91CF910C94391668
:102D3000CF93DF9300D000D0CDB7DEB769837A831D
:102D40008B839C838091890290918A02A0918B024F
:102D5000B0918C0229813A814B815C8128273927E7
:102D60004A275B2729833A834B835C83CA01B901D5
:102D70000F900F900F900F90DF91CF910C94391618
:102D80000C94AC030E94C016609385027093860277
:102D900080938702909388020C94A61260E070E002
:102DA000CB010C94C2160F931F93CF93DF9300D0E7
:102DB00000D0CDB7DEB741E050E060E070E08A01BE
:102DC0009B0104C0000F111F221F331F8A95D2F7E9
:102DD00009831A832B833C83C901B8010F900F909C
:102DE0000F900F90DF91CF911F910F910C94C2160D
:102DF0000F931F93CF93DF9300D000D0CDB7DEB7F2
:102E000041E050E060E070E004C0440F551F661FD1
:102E1000771F8A95D2F78091850290918602A091C2
:102E20008702B09188028A019B01082B192B2A2B5B
:102E30003B2B09831A832B833C83C901B8010F9074
:102E40000F900F900F90DF91CF911F910F910C94E5
:102E5000C2160F931F93CF93DF9300D000D0CDB74E
:102E6000DEB741E050E060E070E004C0440F551F61
:102E7000661F771F8A95D2F740955095609570959B
:102E80008091850290918602A0918702B09188027C
:102E90008A019B01082319232A233B2309831A83D0
:102EA0002B833C83C901B8010F900F900F900F90B6
:102EB000DF91CF911F910F910C94C2160F931F9326
:102EC000CF93DF9300D000D0CDB7DEB741E050E024
:102ED00060E070E004C0440F551F661F771F8A959D
:102EE000D2F78091850290918602A0918702B091DD
:102EF00088028A019B01082719272A273B27098373
:102F00001A832B833C83C901B8010F900F900F9057
:102F10000F90DF91CF911F910F910C94C216CF9318
:102F2000DF9300D000D0CDB7DEB769837A838B837F
:102F30009C838091850290918602A0918702B09136
:102F4000880229813A814B815C81282B392B4A2BBD
:102F50005B2B29833A834B835C83CA01B9010F90B1
:102F60000F900F900F90DF91CF910C94C216CF93DA
:102F7000DF9300D000D0CDB7DEB769837A838B832F
:102F80009C838091850290918602A0918702B091E6
:102F9000880229813A814B815C81282339234A2385
:102FA0005B2329833A834B835C83CA01B9010F9069
:102FB0000F900F900F90DF91CF910C94C216CF938A
:102FC000DF9300D000D0CDB7DEB769837A838B83DF
:102FD0009C838091850290918602A0918702B09196
:102FE000880229813A814B815C81282739274A2729
:102FF0005B2729833A834B835C83CA01B9010F9015
:103000000F900F900F90DF91CF910C94C2160895FE
:10301000E82F2CE0929FE00D11248E2F877041E065
:1030200001C0440F8A95EAF7E695E695E69585E0B6
:10303000E89FF0011124E959FD4F30E020E070E0F5
:103040005191DF011197CB01022E02C09695879511
:103050000A94E2F7817081958527842385278C93D4
:103060002F5F3F4F2530310559F70895E82F2CE0A9
:10307000929FE00D11249E2F9770E695E695E695B8
:1030800085E0E89FF0011124E959FD4F50E040E050
:1030900080E0219130E0092E02C0369527950A94F0
:1030A000E2F721703327042E01C0220F0A94EAF7B9
:1030B000822B4F5F5F4F4530510559F70895BF92FE
:1030C000CF92DF92EF92FF920F931F93CF93DF93F4
:1030D0008C01C0908502D0908602E0908702F0902B
:1030E00088028091890290918A02A0918B02B0910E
:1030F0008C02C82AD92AEA2AFB2ACFE1D0E0BC2ECA
:10310000D701C6010C2E04C0B695A7959795879553
:103110000A94D2F780FD0EC0219788F7B12C8B2D31
:10312000DF91CF911F910F91FF90EF90DF90CF90A3
:10313000BF900895B8018C2F0E941F06019761F37C
:10314000EECFCF93DF93D82FC92F0E945F186D2F3A
:103150007C2FDF91CF910C941F061F93CF93DF93A9
:10316000162FD72F90912C02992339F0862F972F65
:10317000DF91CF911F910C94A118882391F0862F95
:10318000972F0E945F18C82F682F812F9D2F0E94B4
:103190000818612F7D2F8C2FDF91CF911F910C94F8
:1031A0001F06862F972F0E943618C82FF2CF682F40
:1031B00080916C0190916D010C94EC1A682F8091B4
:1031C0006C0190916D010C94EE1A80916C019091BC
:1031D0006D010C94F01A80918D02859585958595E9
:1031E000089580918D028770089590918D02977057
:1031F00081E009F480E0089580919902089590910A
:103200009902982B909399020895982F9095809108
:103210009902892380939902089510929902089542
:1032200080919802089590919802982B909398021B
:103230000895982F90958091980289238093980201
:10324000089510929802089590919702982B909368
:1032500097020895982F90958091970289238093E3
:103260009702089510929702089580918E02089512
:1032700008950C94381990918E02981721F080933C
:103280008E020C943919089580918E02882329F0BA
:1032900010928E0280E00C9439190895E0916C012F
:1032A000F0916D01809199028083E0916C01F09121
:1032B0006D01808190919802892B8083E0916C014F
:1032C000F0916D01808190919702892B808390917C
:1032D0008E02992381F0E0916C01F0916D01808163
:1032E000892B808380916C0190916D010E94A01ABE
:1032F00081110E94441980916C0190916D010C9490
:103300008B0D08950C94811998E0899F90011124E8
:10331000622B60938D020E94F81680918D02859534
:10332000859585950C94821910928D0280E00C94FD
:10333000821990918D028095892380938D02282F88
:10334000277071F4282F082E000C330B92171306E8
:1033500039F08595859585950E9429170C949419C7
:1033600008950F931F93462F572FBC01CB01AA2717
:10337000BB270097A105B105E9F1AC01BD0180E1D2
:10338000052F162F272F332701151105210531058C
:1033900019F0885FB901A8018A019B01F4E0369514
:1033A000279517950795FA95D1F701151105210570
:1033B000310519F08C5FB901A8018A019B01E2E097
:1033C0003695279517950795EA95D1F701151105BB
:1033D0002105310519F08E5FB901A8017695679531
:1033E00057954795452B462B472B09F08F5F1F912B
:1033F0000F91089580E0C4CF90E080E00E9469269C
:103400009C0181E02C3E3E4F09F080E0089582E06F
:1034100090E00C94612683E090E00C946126CF93B9
:1034200084E090E00E946126C82F81E290E00E9433
:103430006126982F8C2FCF910895CF93682FC92F95
:1034400084E090E00E946F266C2F81E290E0CF91A3
:103450000C946F26AB01BC018FE090E00C948126A8
:10346000AB01BC0183E190E00C94812660E070E048
:10347000CB010C94301A60E070E0CB010E942A1A54
:103480000C94361A6CEE7EEF90E080E00E948D2660
:1034900060E082E090E00E946F2660E083E090E0D0
:1034A0000E946F261092890210928A0210928B025B
:1034B00010928C0260E084E090E00E946F2660E051
:1034C00081E290E00E946F2660E085E090E00E943B
:1034D0006F2660E086E090E00E946F266FEF87E045
:1034E00090E00E946F2640E050E0BA0188E090E052
:1034F0000E94812660E08DE090E00E946F2640E00F
:1035000050E0BA0188E190E00E94812660E087E106
:1035100090E00E946F2640E050E0BA018CE190E01C
:103520000E94812660E080E290E00E946F260C9469
:103530003B1A0C94421A682F8EE090E00C946F2690
:10354000AC019C012E5F3F4F485F5F4F80E0241726
:10355000350709F40895F90191919F019923B9F371
:103560008F5FF5CF9C01662351F0FC013296285FF6
:103570003F4F8191861729F0E217F307D1F780E0DA
:10358000089581E008959C01FC0132968FEF90E050
:103590004191461751F08F3F19F4411101C0892F15
:1035A0009F5F9630A9F78F3F09F40895280F311DCA
:1035B00087FD3A95F901628308959C01FC013296DA
:1035C000285F3F4F8191861303C0DF0111971C9242
:1035D000E217F307B9F708950C94C31A0C94DD1A97
:1035E000FC01329686E0DF011D928A95E9F7089585
:1035F00008950895CF930E94F81A0E9484080E94AB
:10360000F91AC0E08C2F0E940D08892B31F4CF5F8E
:10361000C430C1F780E0CF91089581E0FCCF82E013
:1036200084BD93E095BD9AEF97BD80936E00089599
:103630002FB7F89480919B0290919C02A0919D02DB
:10364000B0919E022FBF08959C014FB7F8948091CE
:103650009B0290919C02A0919D02B0919E024FBF4F
:10366000821B930B089578941F921FB61F9211240A
:103670008F939F93AF93BF9380919B0290919C02F5
:10368000A0919D02B0919E020196A11DB11D809353
:103690009B0290939C02A0939D02B0939E02BF91C7
:1036A000AF919F918F911F901FBE1F90189588E139
:1036B00098E00FB6F894A895809360000FBE9093A1
:1036C0006000A895F894D8E0CEEF28E3299320E095
:1036D000299314BEFFCF0895CF93DF9300D000D07D
:1036E000CDB7DEB70E94FC19811102C00E94991A61
:1036F0000E94071A80939A020E940F1A9093A002C8
:1037000080939F020E940B1A282F30E050E040E087
:1037100029833A834B835C83CA01B9010F900F90D0
:103720000F900F90DF91CF910C9446168091A802D4
:1037300080FF12C06091730185E0689FB001112481
:10374000759567957595679560387105A8F561154C
:103750007105A1F1862F089581FF09C06091730161
:1037600085E0689FB001112475956795EDCF609154
:10377000730182FD0AC08091A7028823D1F0909145
:10378000720160917301891728F085E0689FB0018C
:103790001124DACF869FB001112485E0869F900125
:1037A000879F300D1124692F70E0C9010E94942376
:1037B000CBCF65E070E0CECF8FE7089581E008952C
:1037C0008091A80280FF0CC060916F0170E0759538
:1037D0006795759567956115710549F1862F08956F
:1037E00081FF06C060916F0170E075956795F3CF1A
:1037F00060916F0182FD0BC09091A7029923A1F007
:1038000060916E0180916F01961738F0682F70E01B
:103810006038710500F38FE70895899FC001112476
:1038200070E00E949423F4CF61E070E0D7CF81E094
:103830000895803F31F40E94961B81958093AB02DE
:103840000895813F19F40E94961BF8CF823F31F40E
:103850000E94961B81958093AA020895833F19F4D4
:103860000E94961BF8CF893F29F40E94E01B8093A9
:10387000AC0208958A3F21F40E94E01B8195F7CFA6
:103880008B3F31F40E94E01B81958093AD02089537
:103890008C3F19F40E94E01BF8CF843F31F48091F3
:1038A000A90281608093A9020895853F21F4809147
:1038B000A9028260F7CF863F21F48091A90284603B
:1038C000F1CF873F21F48091A9028860EBCF883F38
:1038D00021F48091A9028061E5CF8D3F31F4809180
:1038E000A80281608093A80208958E3F21F4809100
:1038F000A8028260F7CF8F3FB9F78091A802846059
:10390000F1CF9091AA02803F41F48091AB0287FDF4
:103910001092AB02992371F00895813F29F48091B0
:10392000AB021816ACF3F6CF823F81F497FFF2CFCB
:103930001092AA028091AB029091AC02892B9091D7
:10394000AD02892B49F71092A7020895833F19F41D
:10395000191674F3DFCF893F39F48091AC02181641
:10396000CCF61092AC02D6CF8A3F29F48091AC02FB
:1039700087FFD0CFF6CF8B3F39F48091AD0287FF20
:10398000C9CF1092AD02C6CF8C3F29F48091AD0211
:103990001816BCF3BFCF843F31F48091A9028E7F0B
:1039A0008093A902B7CF853F21F48091A9028D7F32
:1039B000F7CF863F21F48091A9028B7FF1CF873F1B
:1039C00021F48091A902877FEBCF883F21F4809179
:1039D000A9028F7EE5CF8D3F31F48091A8028E7FC2
:1039E0008093A80297CF8E3F21F48091A8028D7F0B
:1039F000F7CF8F3F09F08ECF8091A8028B7FF0CF59
:103A000089EA92E00E94960D0E94181B9093A602EC
:103A10008093A50208950F931F93CF93DF9300D057
:103A200000D00F92CDB7DEB785E0E9EAF2E09E0163
:103A30002F5F3F4FD90101900D928A95E1F7809158
:103A4000AA029091AB02892B890181F08091A30297
:103A50009091A4020E94241B9C018091A7028823BC
:103A600039F1909174019217130678F18091AC02AC
:103A70009091AD02892B91F08091A1029091A202C8
:103A80000E94241B9C018091A702882309F478C01E
:103A9000909170019217130608F480C00F900F9058
:103AA0000F900F900F90DF91CF911F910F9108957C
:103AB000409175019AE0499FA001112442175307D4
:103AC000A8F68F5F8093A70202C08F3FD1F71092B4
:103AD000AC021092AD028091AA02181624F40E9442
:103AE000961B8093AA028091AA0287FF05C00E94BC
:103AF000961B81958093AA028091AB02181624F43C
:103B00000E94961B8093AB028091AB0287FF05C099
:103B10000E94961B81958093AB023091AA023323B9
:103B2000A1F02091AB02222381F045EB3403C001C8
:103B300011249923E9F09093AA0245EB2403900104
:103B400011243323C9F03093AB020E94001D8091F1
:103B5000A5029091A6029093A4028093A30285E00F
:103B6000F801A9EAB2E001900D928A95E1F77ECFC3
:103B700081E08093AA02E1CF81E08093AB02E5CFA0
:103B8000409171019AE0499FA00111244217530707
:103B900008F084CF8F5F8093A70202C08F3FD1F7D8
:103BA0001092AA021092AB028091AC02181624F473
:103BB0000E94E01B8093AC028091AC0287FF05C09D
:103BC0000E94E01B81958093AC028091AD02181693
:103BD00024F40E94E01B8093AD028091AD0287FF28
:103BE00005C00E94E01B81958093AD023091AC022C
:103BF0003323A1F02091AD02222381F045EB340361
:103C0000C00111249923E9F09093AC0245EB240301
:103C1000900111243323C9F03093AD020E94001D9E
:103C20008091A5029091A6029093A2028093A10296
:103C300085E0F801A9EAB2E001900D928A95E1F7DA
:103C40002DCF81E08093AC02E1CF81E08093AD0283
:103C5000E5CF85E0E9EAF2E0DF011D928A95E9F718
:103C60001092A7021092A8020895843009F442C06D
:103C700038F48230E9F0833061F1813041F0089509
:103C8000853009F448C0863009F456C00895809103
:103C90007501482F460F5527551F4F3F510524F4F6
:103CA000680F6093750108958FEF809375010895F3
:103CB00080917401482F460F5527551F4F3F5105DE
:103CC00024F4680F6093740108958FEF809374015A
:103CD000089580917301482F460F5527551F4F3F78
:103CE000510524F4680F6093730108958FEF80935A
:103CF0007301089580917201482F460F5527551F73
:103D00004F3F510524F4680F6093720108958FEFBF
:103D100080937201089580916F01482F460F5527B7
:103D2000551F4F3F510524F4680F60936F010895AC
:103D30008FEF80936F01089580916E01482F460F99
:103D40005527551F4F3F510524F4680F60936E01AE
:103D500008958FEF80936E010895843071F138F4E7
:103D60008230A9F08330F1F0813031F00895853050
:103D700079F18630C1F1089580917501681720F4BA
:103D8000861B8093750108951092750108958091A6
:103D90007401681720F4861B8093740108951092B3
:103DA0007401089580917301681720F4861B809335
:103DB000730108951092730108958091720168173C
:103DC00020F4861B80937201089510927201089569
:103DD00080916F01681720F4861B80936F0108950E
:103DE00010926F01089580916E01681720F4861B70
:103DF00080936E01089510926E0108950F931F93A2
:103E0000CF93DF9300D000D0CDB7DEB741E050E0D4
:103E100060E070E08A019B0104C0000F111F221FA7
:103E2000331F8A95D2F709831A832B833C83C901F8
:103E3000B8010E9446160F900F900F900F90DF91DF
:103E4000CF911F910F910C94BC12EBEFE80FEF3361
:103E500008F061C0F0E0E85FF84D0C94A8230E94E0
:103E600042200E947F0D0E949B0581E008950E94E0
:103E7000991AFBCF80919A02807F80939A0281E009
:103E80008093AF0208950E94BC122FEF83ED90E360
:103E9000215080409040E1F700C000000E94571B75
:103EA000E4CF90919A02892F8E7F90FF816080935A
:103EB0009A0280FDDACF817F80939A02D6CF9091CB
:103EC0009A02892F8D7F91FF826080939A0281FFF1
:103ED000CCCF80919A028160EFCF90919A02892F86
:103EE0008B7F92FF846080939A0282FDF2CFBDCFD8
:103EF00090919A02892F877F93FF886080939A021E
:103F000083FDE7CFB2CF80E00E94FE1EAECF895383
:103F1000FBCF8D51F9CF80E0089580E008950C9497
:103F20008D1F8E518A3030F4E82FF0E0ED50FE4FB7
:103F30008081089580E00895CF93C82F8091AF02CB
:103F40008130A1F08230A1F181117AC00E94FC1869
:103F5000823209F077C08C2F0E948D1F81111BC007
:103F60008C2F0E94251F8170CF9108950E94FC180C
:103F7000823289F38C2F0E948F1F81110AC0C431B5
:103F8000A1F060F4CB3029F0C03169F782E0809372
:103F9000AF0281E0E8CF81E090E0E5CFC93229F0BF
:103FA00081E0C83301F380E0DECF1092AF02FBCF97
:103FB000CB3469F198F4C43240F4CE3100F5C73007
:103FC00061F1C43121F081E0CFCFC932E1F78091B6
:103FD000AE02882381F01092AE02F5CFC135A9F070
:103FE00061E0C235A9F06AE0CE3469F78091AE0293
:103FF0000E94AD1EE8CF81E08093AF02B5CF8C2F39
:104000000E94911F8093AE02DECF61E0EFCF6AE0A5
:104010008091AE020E94351ED6CF8EE1809375014D
:1040200082E3809374018AE08093730184E180933A
:10403000720188E080936F0188E280936E01C3CFA4
:104040001092AF0280E090CFE1E8F0E080818860DC
:1040500080838081816080838FB7F89420ED33E086
:1040600030938900209388008FBF0895EFE6F0E039
:104070008081826080830895EFE6F0E080818D7F0B
:1040800080830895EFE6F0E0808192E089278083C5
:1040900008951F920F920FB60F9211242F933F9302
:1040A0004F935F936F937F938F939F93AF93BF9340
:1040B000EF93FF938091B0029091B102019690939B
:1040C000B1028093B002811103C082E00E949B057F
:1040D000E091B102E695E695F0E0E857FD4FE491F6
:1040E0008091B0028E1303C080E00E949B05FF9177
:1040F000EF91BF91AF919F918F917F916F915F9160
:104100004F913F912F910F900FBE0F901F901895D8
:104110000E94181BD82F192F80E8809361001092FD
:1041200061000E94D40D0E94A1210E947A0D0E947C
:104130008123539A80E0815061F553987894FFEF82
:1041400020E732E0F15020403040E1F700C00000AD
:104150000E94DC0D0E942420C0E00CE080915F03EF
:10416000882309F110925F030E94181BD82F192F82
:104170000E943C200E948C2280916E03882329F0AB
:104180008091530384FD0E94E40D0E945521C0E0FC
:10419000E5CFA895EFE9FFE03197F1F700C0000007
:1041A000CACFC1E0DBCF8D2F912F0E94241B069731
:1041B00000F10E9436200E94FA1AC82F882389F342
:1041C000F8949AB15B9A892F8C608AB98BB1802759
:1041D0008BB98FE7E8E3F1E08150E040F040E1F790
:1041E00000C000008BB180278BB99AB95B98789496
:1041F000B5CFCC2309F4BECFDECF80914303089521
:10420000CF93DF9300D00F92CDB7DEB79B01909193
:10421000B402981307C04091B2025091B3024617FE
:10422000570791F08093B4023093B3022093B20207
:1042300089833B832A838091470384FF05C063E021
:10424000CE0101960E9488220F900F900F90DF916F
:10425000CF910895BC0184E00C940021BC0183E05F
:104260000C940021CF93DF9300D000D000D0CDB7C5
:10427000DEB7FC0182E0898385E0DE0112960190C1
:104280000D928A95E1F78091470384FF05C066E0AF
:10429000CE0101960E94882226960FB6F894DEBFC2
:1042A0000FBECDBFDF91CF910895CF93DF93CAE0CA
:1042B000D0E08091530384FF1AC08091C002909196
:1042C000C102981789F028E0829FC001112468E09C
:1042D0008E539D4F0E9484228091C00290E00196EF
:1042E0008F7099278093C002DF91CF9108950E942B
:1042F0008C228FE99FE00197F1F700C00000219721
:10430000C1F6F2CFFC01A091C102B0E09D012F5F88
:104310003F4F2F7033278091C002821771F083E0E6
:10432000AA0FBB1F8A95E1F7AE53BD4F88E00190FD
:104330000D928A95E1F72093C1020E948C220C9481
:10434000552186E791E00895FC01808180768032D6
:10435000D1F48181813041F488EB92E0909346035F
:104360008093450388E00895823041F482E493E02D
:10437000909346038093450381E008958A3029F4A1
:1043800083818093420380E008958930E1F7828140
:1043900093818115924069F484819581892B49F438
:1043A00081E08093B702868197819093B6028093D3
:1043B000B5028FEF0895FC018091B5029091B6028D
:1043C000892B61F08091B702813041F49081909304
:1043D00043031092B6021092B50208958FEF08952C
:1043E0000895FC018381833059F130F48130C1F0AC
:1043F0008230F1F080E00895813209F444C08232C5
:10440000C9F784819581009709F44EC0019791F70F
:1044100085E493E0909346038093450381E80895F3
:1044200083E093E0909346038093450382E10895EF
:1044300088EC92E090934603809345038BE30895C4
:1044400082818230C1F050F481110DC081E493E08B
:10445000909346038093450384E00895833051F69A
:1044600085E193E0F5CF89E293E090934603809352
:10447000450386E108958BE193E090934603809392
:1044800045038CE008958281882331F0813009F062
:10449000B1CF83EF92E002C08AED92E090934603A1
:1044A0008093450389E0089586EC93E0909346035A
:1044B0008093450380E408951F93CF93DF93782F73
:1044C000162FEA01888184FF1CC0898128E8822791
:1044D0008983AE014E5F5F4FFA01272F392F710F8D
:1044E000D9012F5F3F4F8C9181937213F9CF612FC8
:1044F000CA010E9461021C5F1883DF91CF911F9156
:1045000008958AE58883E5CF43E553E00C945C2267
:1045100047E453E00C945C22CF93DF9360916D03EA
:10452000635067FD12C080917103CCE0D0E0C81BDE
:10453000D109CE58DC4F80916B03803108F059C00F
:10454000CE010E94F02110926D038091810184FFC1
:1045500043C0809180018F3F09F43EC0C82F89304D
:1045600008F0C8E0982F9C1B909380019091600305
:1045700028E8922790936003882301F180914503F6
:1045800090914603209144034C2F480F26FFAEC064
:10459000FC0121E633E05491D9015C932F5F3F4F3A
:1045A00031964E13F8CF2FEF2C0F30E02F5F3F4F97
:1045B000820F931F90934603809345036C2F81E6EF
:1045C00093E00E94610284E08C0FC83019F09FEFE5
:1045D000909380018093810184E199B19C7031F4C2
:1045E0008150D9F710926F0310927003DF91CF9131
:1045F00008958D3209F067C0683009F0A4CF83ECCC
:10460000809360038AE5809381011092440388813E
:10461000807671F0CE010E94A4218F3FC1F4988171
:1046200097FD8E8190E890934403809380018BCF17
:104630002A81109269039981911111C010926A0325
:1046400029E633E082E030934603209345039F81BF
:104650009111EBCF9E81981740F7892FE6CF9530C7
:1046600029F420936F0329E633E0EDCF963099F4D7
:104670009B81913021F4CE010E94F12108C092303B
:10468000D1F39330C1F39132B1F39232A1F390E4BC
:1046900090934403C2CF983079F0993019F4209365
:1046A0006E03E1CF9A3061F09B30E9F69BE4909382
:1046B000540390934803D7CF2EE633E081E0C3CF75
:1046C00029E633E0FBCF8091440387FF3CCFCE0146
:1046D0000E94DB218F3F21F48EE18093810133CF53
:1046E000882309F430CF109280012DCFE1E6F3E06A
:1046F0009C01D9012F5F3F4F5C9151934213F9CF39
:1047000052CFE9E6F0E0808188608083E99AA3E5F2
:10471000B3E08BE411968C931197E7E4F3E0818387
:104720008AE58C938083089597FB072E16F40094F6
:1047300007D077FD09D00E94AE2307FC05D03EF4D8
:10474000909581959F4F0895709561957F4F08953D
:10475000EE0FFF1F0590F491E02D0994AA1BBB1BDF
:1047600051E107C0AA1FBB1FA617B70710F0A61B71
:10477000B70B881F991F5A95A9F780959095BC0192
:10478000CD010895AEE0B0E0E8ECF3E20C94B12680
:104790000D891E898F89988D26E02C831A830983C1
:1047A00097FF02C080E090E801979E838D83AE0161
:1047B000455E5F4F698D7A8DCE0101960E94F2238E
:1047C0004D815E8157FD0AC02F81388542175307FE
:1047D0000CF49A01020F131FF80110822E96E4E0E8
:1047E0000C94CD26ABE0B0E0E8EFF3E20C94A32606
:1047F0007C013B018A01FC0117821682838181FFC3
:10480000B9C19AE0292ECE0101965C01F70193818E
:10481000F30193FD859193FF81913F01882309F472
:1048200046C1853239F493FD859193FF81913F0113
:10483000853229F4B70190E00E94D325E7CF912C6F
:10484000412C512CFFE1F51538F08B3209F188F439
:10485000803201F1833221F157FC3AC020ED280F5C
:104860002A3040F556FE1FC0929C200D1124922E36
:1048700006C08D3291F0803379F7689450F8F301D7
:1048800093FD859193FF81913F018111DBCF20C082
:10489000689451F8689452F8F2CF689453F8EFCFC7
:1048A000689454F8ECCF429C200D1124422E689459
:1048B00055F8E5CF8E3229F456FCF9C0689456F8C5
:1048C000DECF8C3619F4689457F8D9CF8836B9F210
:1048D000982F9F7D95549330C0F08336A1F1833794
:1048E000C1F1833509F05BC0F801C190D1908F010F
:1048F000692D70E056FC02C06FEF7FEFC6010E9489
:10490000BD254C01689457F80AC00C5F1F4F2FE378
:10491000298388248394912C6501E89457F853FCEB
:1049200004C04814190409F018F5342C81149104BA
:1049300031F5332009F46ACFB70180E290E00E949C
:10494000D3253A94F6CFF801808189830E5F1F4FFB
:10495000E0CFF801C190D1908F01692D70E056FC35
:1049600002C06FEF7FEFC6010E94C8254C01D5CF72
:10497000B70180E290E00E94D3254A94D2CFF6019D
:1049800057FC859157FE81916F01B70190E00E941D
:10499000D32531103A94F1E08F1A9108C7CF8436AD
:1049A00019F0893609F074C0F80157FE6AC06191A8
:1049B0007191819191918F01252D2F76D22E97FFA4
:1049C00009C090958095709561957F4F8F4F9F4F4F
:1049D0006894D7F82AE030E0A5010E940326C82E8B
:1049E000CA188C2C5D2CD6FE0CC0E89450F8C91463
:1049F00040F4D4FE05C0D2FC03C0FD2DFE7E5F2E28
:104A0000892C54FE8FC0FE01EC0DF11D8081803396
:104A100009F081C0252D297E522E852D8870382ED3
:104A200053FC8FC050FE89C09C2C841418F44C0C8D
:104A3000942C981854FE8BC0B70180E390E00E943C
:104A4000D32552FE09C088E790E051FE02C088E5F8
:104A500090E0B7010E94D325C91408F484C0CA9419
:104A6000D12C9FEFC91AD90ACA0CDB1CF60182911E
:104A70006F01B70190E00E94D325AC14BD04B1F7DB
:104A800058CF61917191072E000C880B990B93CF31
:104A9000D52CE894D4F82AE030E0853739F1952D0B
:104AA000997FD92E8F3601F148F48835A9F0F701A6
:104AB000868197812B96E2E10C94BF26803749F0DE
:104AC0008837A9F7D4FE02C06894D2F820E130E01C
:104AD0000DC06894D4F8F6CF54FE03C0E92FE66009
:104AE000DE2E20E132E002C028E030E0F801D7FEFF
:104AF0000DC061917191819191918F01A5010E94E9
:104B00000326C82ECA18E894D7F86BCF619171912B
:104B100090E080E0F2CF52FC02C083947ECF839479
:104B200083947BCF852D867809F477CFF6CFB701B4
:104B300080E290E00E94D32583948414C0F3312C4A
:104B400079CF342C3818841408F474CFF8CF852D1D
:104B5000867809F481CF8BE251FE80E257FC8DE22A
:104B6000B70190E077CFB70180E390E00E94D325B2
:104B70009A9472CF8FEF9FEF9DCFFC01059061500B
:104B800070400110D8F7809590958E0F9F1F089563
:104B9000FC016150704001900110D8F7809590950C
:104BA0008E0F9F1F08950F931F93CF93DF93182F9E
:104BB000092FEB018B8181FD09C01FEF0FEF812FC2
:104BC000902FDF91CF911F910F91089582FF14C014
:104BD0002E813F818C819D81281739073CF4E88123
:104BE000F981CF0101969983888310838E819F81FB
:104BF00001969F838E83E3CFE885F985812F099500
:104C0000892BA1F3DACFFA01AA27283051F12031FC
:104C100081F1E8946F936E7F6E5F7F4F8F4F9F4F50
:104C2000AF4FB1E03ED0B4E03CD0670F781F891F92
:104C30009A1FA11D680F791F8A1F911DA11D6A0F60
:104C4000711D811D911DA11D20D009F468943F9113
:104C50002AE0269F11243019305D3193DEF6CF0112
:104C60000895462F4770405D4193B3E00FD0C9F7D8
:104C7000F6CF462F4F70405D4A3318F0495D31FD45
:104C80004052419302D0A9F7EACFB4E0A695979598
:104C9000879577956795BA95C9F70097610571056E
:104CA00008959B01AC010A2E0694579547953795B8
:104CB0002795BA95C9F7620F731F841F951FA01D12
:104CC0000895F999FECF92BD81BDF89A992780B5D4
:104CD0000895A8E1B0E042E050E00C949526262F1C
:104CE000F999FECF92BD81BDF89A019700B40216E2
:104CF00039F01FBA20BD0FB6F894FA9AF99A0FBE90
:104D000008950396272F0E9470260E946F26252F54
:104D10000E947026242F0C9470260196272F0E9443
:104D200070260C946F26DC01CB01FC01F999FECFB3
:104D300006C0F2BDE1BDF89A319600B40D92415023
:104D40005040B8F708952F923F924F925F926F9222
:104D50007F928F929F92AF92BF92CF92DF92EF920B
:104D6000FF920F931F93CF93DF93CDB7DEB7CA1B8C
:104D7000DB0B0FB6F894DEBF0FBECDBF09942A88B7
:104D8000398848885F846E847D848C849B84AA845F
:104D9000B984C884DF80EE80FD800C811B81AA81EC
:104DA000B981CE0FD11D0FB6F894DEBF0FBECDBFB7
:104DB000ED010895F894FFCF580A5E0A620A700A5E
:104DC000740A780A7C0A820A8A0A8E0A920A960A69
:104DD000A20AA60AAA0AAE0AB40AD20ABC0A660A3B
:104DE0006C0A9A0A9E0A860AB80AC80ADB0ADF0A0F
:104DF000FF0FFF0F61106110B610D2102F102F108F
:104E00001611D411E511E51145122F102F104E1275
:104E1000431F3A1F511F351F8B1F8B1F351F8B1FC1
:104E20008B1F6D1F8B1F781F8B1F8B1F8B1F8B1F63
:104E30008B1F351F8B1F8B1F351F8B1F5F1F8B1FFA
:104E40002F1F891F891F891F891F891F891F891F7C
:104E5000891F891F831F8B1F431F371F8B1F8B1FAA
:104E60008B1F8B1F8B1F8B1F8B1F8B1F8B1F8B1FF2
:104E7000831F8B1F8B1F351F8B1F871F871F871F4C
:0E4E8000871F871F871F871F871F871F831F9E
:104E8E00280B380B470B000000000000000000004C
:104E9E00000000006401280B380B470B00000000D7
:104EAE00000000000000000000006001280B380B1D
:104EBE00470B000000000000000000000000000092
:104ECE005C01280B380B470B0000000000000000AF
:104EDE00000000000000580128002B00640045006F
:104EEE00E0003E00E1003900FFAF00018F0228080C
:104EFE00641E140A321EFD20822132212E212A2107
:104F0E00FF5AE200E900EA00B500B600B700CD0096
:104F1E008301CC008A019201940121022302240212
:104F2E002502260227022A02B300B4006F00700089
:104F3E003097969532316061626391903435339437
:104F4E000A25640A00E200E900EA00B500B600B7DF
:104F5E0000CD008301CC008A01920194012102232D
:104F6E000224022502260227022A02B300B4006F91
:0E4F7E00007000010203040506070809000088
:00000001FF
