:100000000C9403020C944A020C9465020C944A026C
:100010000C944A020C944A020C944A020C944A0230
:100020000C944A020C944A020C944A020C94E61F67
:100030000C944A020C944A020C94D51A0C944A026D
:100040000C944A020C944A020C944A020C944A0200
:100050000C944A020C944A020C944A020C944A02F0
:100060000C944A020C944A02290014001A00080059
:10007000150017001C0018000C00120013002A00C5
:100080002B0004001600070009000A000B000D00F9
:100090000E000F002F00300000571D001B0006004F
:1000A0001900050011001000330034003100D95C44
:1000B000E000E2000157E60001542C432C430254B7
:1000C000360037003800640029001E001F002000A1
:1000D00021002200230024002500260027002A00FA
:1000E00001003A003B003C003D003E003F000000A4
:1000F00000004B004E004C00010040004100420057
:100100004300440045004600AC004A004D00280072
:10011000010001000100010000002C002C00000083
:10012000BB00AA00A900AE0029004A0052004D0001
:100130004B00000000000000F0002D002E002A00FF
:100140000100500051004F004E0000000000F2007E
:10015000F100F300F6004C00010000000000000078
:10016000000000000000F400AC00F50000002800D2
:10017000010001000100010000002C002C00000023
:10018000AB00AA00A900AE00015C4A0052004D007D
:100190004B000000000000005F00600061005400A0
:1001A0000100500051004F004E0000000000000010
:1001B0005C005D005E0055000100000000000000D2
:1001C000000000000000000059005A005B005600CB
:1001D000010001000100010000000000000000001B
:1001E000620063005800570000000000000000009B
:1001F0002A2B280000000000000000000000000082
:1002000000000029000000002C1E3420212224348C
:100210002627252E362D3738271E1F20212223245E
:1002200025263333362E37381F0405060708090AFA
:100230000B0C0D0E0F101112131415161718191A96
:100240001B1C1D2F3130232D350405060708090A14
:100250000B0C0D0E0F101112131415161718191A76
:100260001B1C1D2F3130354C000000000000000029
:100270000000000000000000000000007E0F00D41D
:10028000FFFFFFC700000078000000000000000032
:10029000000000010204060A0F17202C3A4A5D7183
:1002A000879DB3C7DAE9F5FCFFFCF5E9DAC7B39D32
:1002B00087715D4A3A2C20170F0A060402010000DC
:1002C000000000000000000009023B00020100A045
:1002D00032090400000103010100092101010001AC
:1002E0002240000705810308000109040100010301
:1002F000000000092101010001228100070583039C
:100300000800011201100100000008C016DB2702DE
:1003100000010203010403300000000C0350006CD4
:10032000006100690064000000160364006D00397C
:10033000007200650063006F0072006400730000CB
:10034000000403090405010902A10185020901A1B4
:10035000000509190129051500250195057501817B
:1003600002950175038103050109300931158125C5
:100370007F95027508810609381581257F950175DD
:10038000088106050C0A38021581257F950175083C
:100390008106C0C005010980A101850319012AB7A2
:1003A00000150126B700950175108100C0050C09E4
:1003B00001A101850419012AA002150126A00295B8
:1003C0000175108100C005010906A101050719E0AA
:1003D00029E7150025019508750181029501750829
:1003E00081030507190029FF150026FF00950675F2
:1003F00008810005081901290595057501910295E7
:100400000175039103C011241FBECFEFD8E0DEBFFA
:10041000CDBF04B603FE27C08091520390915303D1
:10042000A0915403B09155038730904BA740B04B37
:10043000D1F410925203109253031092540310926D
:10044000550314BE84B7877F84BF0FB6F894A89570
:1004500080916000886180936000109260000FBE00
:10046000E0E0F8E3099511E0A0E0B1E0E8ECFDE49C
:1004700002C005900D92AA3CB107D9F723E0AAEC7F
:10048000B1E001C01D92A235B207E1F70E9425201C
:100490000C9477260C940000A82FB92F80E090E0F0
:1004A00041E050EA609530E009C02D918227979590
:1004B000879510F084279527305EC8F36F5FA8F307
:1004C0000895EADF8D939D930895CF93CFB7CF938F
:1004D000DF93C3954B9BE9F74B9B10C04B9B0EC022
:1004E0004B9B0CC04B9B0AC04B9B08C04B9B06C050
:1004F000C0912903C395C09329038EC06F93C09107
:100500002803DD27C05DDC4F2F9365E54B9B03C0BF
:100510002F916F91E1CF0F931F934F9320E040E114
:100520005F9309B10C7003FB27F93F9350E03BE068
:1005300039C01C7040642F77012F5F5F1EC0406878
:1005400019B11C702F7752501FC0406409B12F772A
:100550000C70D1F15F5F00C023C0406219B12F77EA
:100560001C7091F15F5F00C025C00C7010275150C6
:1005700012F45D5F0000115027952C3F19B1C8F6A9
:100580001C700127015027952C3FC8F6422749933C
:1005900009B10C7010274F73115027952C3FA8F606
:1005A0004695469519B11C7079F0012701502795A1
:1005B0002C3F98F66B5A60F3315009B1B0F600C089
:1005C00012E01CBB00271CC03B503195C31BD04020
:1005D00012E01CBB0881033C21F10B3411F1209186
:1005E00026031981110F1213EDCF4A81441F0936DA
:1005F00069F10D3211F0013E29F74F7009F0042F17
:1006000000932E033F915F914F911F910F912F9176
:100610006F91CCB3C1FD5DCFDF91CF91CFBFCF91B3
:10062000189520912E03222369F310912C03112396
:10063000E9F53430EAF130932C032093270310912D
:1006400028033BE0311B3093280332C000912C0378
:10065000013064F50AE54F7049F430914D0134FDE5
:1006600028C000934D01CFE0D3E027C0433049F0CC
:1006700030911A0334FD1DC000931A03CBE1D3E07F
:100680001CC03091460334FD14C000934603C7E4F8
:10069000D3E013C0052710E000C000000BB91AC05A
:1006A000052710E0221F1DC010E021C04AE502C04E
:1006B00032ED432FC4E1D0E032E01AB11C605B9A06
:1006C0000BB11AB95CE020E865E320FF05270BB900
:1006D000279517951C3FF0F66695B8F7B1F720FF00
:1006E00005270BB9279517951C3FD0F62795179529
:1006F00017FF052700001C3F0BB9B0F629913A956A
:1007000019F7037F10912D03110FC651D0400BB97B
:1007100011F01093260312E01CBB08601AB1137F7E
:10072000402F437F54E05A95F1F70BB91AB94BB9F2
:1007300069CF0C94A1030C94C6070C943D040C944F
:1007400050050E94260D80FD06C083E50E94600EC4
:1007500083E50C94F60E08950F931F93CF93DF93C8
:100760008B01D82FC92F0E945319823091F028F4A1
:1007700081110DC04598449802C0833069F0B801DA
:100780008D2F9C2FDF91CF911F910F910895459A46
:10079000F2CF4598449AF3CF459AFCCFCF93DF939D
:1007A0009C01FB019A9581159F4160F5E901CC27D9
:1007B000D170D901AA27B270B90166277470A90156
:1007C0004427587034FF10C080E1CD2B09F480E03D
:1007D000AB2B09F08062672B09F08064452B09F090
:1007E0008068DF91CF91099481E0CD2B09F480E0FE
:1007F000AB2B09F08260672B09F08460452B89F3ED
:100800008860EFCFDF91CF910895CF93DF93EC0114
:10081000805E9109089720F065E372E1209711F45A
:100820006FE57FE0CE010E94CE038C2FDF91CF9148
:100830000C94600ECF93DF93EC010E94F60ECE0174
:10084000805E9109089720F06CE372E1209711F423
:1008500066E67FE0CE01DF91CF910C94CE03CF937B
:10086000DF93D82FC92F0E9405048D2F9C2FDF9175
:10087000CF910C941A0481E0089581E008950895C1
:100880000C943F041F93CF93DF9300D000D00F92BE
:10089000CDB7DEB749835A836B833091E6018981F6
:1008A0009A8131111DC06623B9F02223A9F00E945C
:1008B0000118182F682F89819A810E94AA176981CF
:1008C0007A81812F0F900F900F900F900F90DF91F2
:1008D000CF911F910C94BD050E94D817182FEFCF10
:1008E0000E94011869817A81EDCFFC01262F408199
:1008F00051816281738184810C944204CF93DF9390
:10090000D82FC92F60E00E9475046D2F7C2FDF91D6
:10091000CF910C944004FF920F931F93CF93DF93DA
:10092000E82FF0E0E851FE4FF490C82FC695C69529
:10093000C695D0E0FE01E858FD4F0491877010E0A5
:10094000082E02C0159507950A94E2F70170112749
:10095000C859DD4FFE01C491D0E002C0D595C795BE
:100960008A95E2F7C170DD270115110519F081EEB6
:100970000E94600E209719F086EE0E94600E8F2D67
:100980000E944C0FCD2B19F086EE0E94F60E012B23
:1009900041F081EEDF91CF911F910F91FF900C9468
:1009A000F60EDF91CF911F910F91FF900895EF9276
:1009B000FF920F931F93CF93DF93EC01162F0AE062
:1009C0008881882309F456C0813009F050C089819C
:1009D000813061F47E0122E0E20EF11CCA818C2F8D
:1009E0000E94600E8C2F0E94F60E09C0823099F48E
:1009F0007E0182E0E80EF11C8A810E94600EE70110
:100A00002196812F8150E0F2EFE9FFE03197F1F775
:100A100000C00000F7CF833031F47E01E2E0EE0E3B
:100A2000F11C8A81E0CF843011F02196E9CF2A8130
:100A3000229690E080E0AE014F5F5F4F2053330B72
:100A40002A30310548F00197D8F2EFE9FFE03197FD
:100A5000F1F700C00000F7CF089FB001099F700DAB
:100A60001124C901860F971F2981EA01E4CF0E9452
:100A70008B04C6CFDF91CF911F910F91FF90EF9024
:100A8000089560E00C94D7040E949E19811102C061
:100A90000E943B1A0C9499030E94E50B0C949B0353
:100AA000089581E008950C945105CF93C82F0E94BA
:100AB0009F038C2FCF910C94530508950E945912D7
:100AC0000E945D052FEF84E39CE021508040904020
:100AD000E1F700C000000C94F91A0F931F93CF9315
:100AE000DF93EC0161E00E9475048C01BE010E945D
:100AF000440BBE01C8010E949D03882389F1BE01F9
:100B0000C8010E948B0B882359F1BE01C8010E94C5
:100B1000B00C882329F1BE01C8010E947509882301
:100B2000F9F0BE01C8010E94B9098823C9F0BE01CD
:100B3000C8010E948C0A882399F08A81882339F0A1
:100B400001158CE5180751F00E3D1C4579F0CE01DA
:100B5000DF91CF911F910F910C943B040E945E0591
:100B600080E0DF91CF911F910F9108950E943B1A71
:100B7000F7CF90E080E008950895972F70E02CE083
:100B8000929F600D711D1124FB0190E3899FE00D80
:100B9000F11D1124EE0FFF1FE859FF4F859194912D
:100BA0000895FC01EE0FFF1FE857FD4F85919491CA
:100BB0000895CF93DF930E94BD050E94EB06EC01E0
:100BC000811520E5920708F04BC0811530E49307AA
:100BD00008F0B2C0803E910518F5803C910508F000
:100BE0009FC0883A910570F4853A910508F095C048
:100BF0008130910529F10497813A910508F1D0E0FF
:100C0000C0E01EC08F3B9105D1F3C85AD0E0CC0F95
:100C1000DD1FC25BDE4F0990D881C02DD46410C0A7
:100C2000811540E2940780F48F3F910509F040F46C
:100C3000883E910528F0805F9109D0654097F8F6CD
:100C4000CE01DF91CF910895C11580E3D80708F454
:100C50006DC0CE019927D3FD6CC0EC01D06CF0CFF4
:100C6000C11595E5D90760F5C11524E5D20708F04F
:100C700094C0C11533E5D30778F4C11542E5D40714
:100C800008F07AC0C11581E5D80708F458C0DC2FF8
:100C9000CC27C16FD06AD4CFCE018370992721E0D1
:100CA00030E002C0220F331F8A95E2F7C695C69541
:100CB00090E2C99FE0011124C22BD32BDA68C0CF88
:100CC000C1152AE5D207B0F4C11539E5D30708F0FC
:100CD00074C0C11546E5D40708F464C0CE01985528
:100CE0008F3F910511F008F08ACFDC2FCC27C06F21
:100CF000D06AA6CFCE0190568115904208F07FCFE2
:100D00008D2F8F710E94830790E0982F8827882766
:100D10009F719C012C2BE9014EC0A497D06490CF09
:100D2000805C91090E94D105EC018ACFCE019F70B1
:100D3000F9CFEC01D86C84CFDF70D06A81CFCE01BF
:100D400074E0969587957A95E1F783702C2F269518
:100D50002695237040E2249F90011124382B8C2F7C
:100D60008370C1E0D0E002C0CC0FDD1F8A95E2F7AE
:100D7000C22BD32BDC6864CFCE018370992721E08E
:100D800030E002C0220F331F8A95E2F7C695C69560
:100D900080E2C89FE0011124EBCFDC2FCC27C46F89
:100DA000D06A4ECF8C2F0E948307C82FD0E0DC2F53
:100DB000CC27CC27DF71D06243CF8C2F8F700E945D
:100DC000830734E0D695C7953A95E1F7CF70DC2FCD
:100DD000C82FD06935CF803E910599F1C8F4813391
:100DE000910509F476C048F48932910509F46AC086
:100DF0008A32910509F474C0089589339105D1F0C0
:100E000082389105B9F08533910509F454C00895ED
:100E1000843E910599F138F4823E9105F9F0833EC4
:100E2000910509F10895863E910599F1873E910556
:100E3000B9F1089520910D032370A1F080EE90E0A8
:100E4000089520910D0320FD52C030910E0330FF14
:100E500009C024FF4FC090E080E004C020910D0342
:100E600022FDF7CF089520910D0322FD46C0309159
:100E70000E0330FDE3CF24FFF5CFEDCF20910E031D
:100E800021FFF0CF80910D0384FDE5CF87EE90E048
:100E9000089520910D0323FFE5CF24FDDCCFF6CF8D
:100EA00020910D0323FD2CC030910E0331FFE3CFC1
:100EB00084EE90E0089520910D0325FFD3CF89E2C1
:100EC00090E0089520910D0325FFCCCF85E390E0BD
:100ED000089520910D0326FFC5CF8AE290E0089582
:100EE00020910D0326FFBECF81E390E0089589E3B2
:100EF00090E0089583EE90E0089582EE90E00895EA
:100F000086EE90E0089590910D0392FF06C0282F81
:100F100028712830F9F4877F846093FF06C0282F5A
:100F200028712831F1F4877E846120910E0320FF1F
:100F300006C0382F38713830D9F4877F816021FF9F
:100F400006C0282F28712831D1F4877E816194FD55
:100F5000877E0895282F24712430F9F68B7F8860CE
:100F6000DCCF282F2471243101F78B7E8861DDCFFF
:100F7000382F3171313019F78E7F8860E0CF282FFC
:100F80002171213121F78E7E8861E1CF0895E82F0C
:100F9000F0E0EE0FFF1FE150FD4F80819181089539
:100FA000089580EA8A95F1F70895CF93DF93A8E832
:100FB000B1E04CE851E0C1E0D0E08D91E82FE2953E
:100FC000EF70F0E061A18F709E0101C0220F8A9541
:100FD000EAF7922F9095962391A382A1822B82A368
:100FE0004A175B0751F7ACE7B1E048E851E0C1E0D0
:100FF000D0E08D91E82FE295EF70F0E061A18F7065
:101000009E0101C0220F8A95EAF7922F90959623B0
:1010100091A382A1822B82A34A175B0751F71092FA
:10102000F8021092F702109200031092FF02109241
:10103000FA021092F9021092020310920103109228
:10104000FC021092FB021092040310920303109210
:10105000FE021092FD02109206031092050384E036
:101060000E94CE08DF91CF910C9444054F925F927D
:101070006F927F928F929F92AF92BF92CF92DF92A8
:10108000EF92FF920F931F93CF93DF9387EFE82E9A
:1010900082E0F82E98E8A92E91E0B92E512C8824F0
:1010A0008394912CD7016D907D907D01FD0112926A
:1010B00012928F01D5018D915D01C82FC295CF701D
:1010C000D0E099A18F70640101C0CC0C8A95EAF739
:1010D000892F8C2989A38AA14C2C409484218AA32E
:1010E0000E94D107ECE7F1E030E020E06191A62F0B
:1010F000A295AF70B0E090968C91D8014D915C9123
:1011000090E06F7002C0959587956A95E2F780FD33
:1011100042C0C401022E02C0880F991F0A94E2F750
:10112000482B592BD80111965C934E932F5F3F4F5C
:101130002C303105D9F689A1482249A28AA1C82AB2
:10114000CAA281E02D913C912615370509F480E073
:10115000582ABFEFEB16B2E0FB0609F0A3CF252D0E
:1011600044E06FEF72E087EF92E00E94CF080E94A8
:101170004C05852DDF91CF911F910F91FF90EF903E
:10118000DF90CF90BF90AF909F908F907F906F90A7
:101190005F904F90089590E080E0C2CF0895FF9255
:1011A0000F931F93CF93DF93F82E092F162FD72F6E
:1011B000C42F222349F081E08093CC010E94BA1A07
:1011C0009093CB018093CA018091CC018823A1F038
:1011D0008091CA019091CB010E94C61A069760F0D7
:1011E000EF2DF02FA12FBD2F90E080E0D0E08C17E5
:1011F0009D0744F01092CC01DF91CF911F910F9188
:10120000FF900895219131912D933D930196EFCF59
:101210000F931F93CF93DF93C62FD42F022FFC0180
:1012200082818823C9F06093CF010E94BA1A9093FB
:10123000CE018093CD0180E28C0F883008F050C041
:10124000C77081E001C0880FCA95EAF7DF91CF919E
:101250001F910F910C945F0F1091CF01161335C0A1
:101260008091CD019091CE010E94C61A883C9105D3
:1012700060F5C0E2CD0F1D17B9F080E2810F883014
:1012800040F4177081E001C0880F1A95EAF70E94B8
:10129000660FC83048F481E09D2F977001C0880F19
:1012A0009A95EAF70E945F0F802F0E944C0FC8307A
:1012B000B8F4D77081E001C0880FDA95EAF7DF91C2
:1012C000CF911F910F910C94660F80E28C0F8830A4
:1012D00038F4C77081E001C0880FCA95EAF7EFCFF4
:1012E000DF91CF911F910F9108959C01CB01233F76
:1012F0004CE5340769F190F4283DFCE53F0721F106
:10130000293D4CE5340781F1273D3C45B1F0FC0116
:101310008281882361F11092CF010895253FFCE579
:101320003F07D1F0263F4CE53407D1F0243F3C4540
:1013300071F727E245EE64EE03C026E241EE61EE6E
:101340000E94080980E0089527E245EE65EEF8CF97
:1013500026E241EE60EEF4CF26E241EE62EEF0CFFF
:1013600027E245EE66EEECCF28E241E0EFCF81E0E8
:101370000895CF93DF93EC01FB018281882309F468
:10138000C9C0C631FCE5DF07E0F4C2309CE5D907EF
:10139000F0F00E94B11990930E0380930D03C631B3
:1013A000ECE5DE0720F5C230FCE5DF0798F480911C
:1013B0000D0390910E030E94BF190E94591280E004
:1013C00006C09E012A5F3C452930310510F3DF91AC
:1013D000CF910895FE01E350FC4580910D0381609B
:1013E000E331F10588F4E758F94D0C944523CA5FC1
:1013F000DC45C930D105D8F6C457D94DFE010C944F
:10140000452380910D03826080930D03D0CF80919E
:101410000D038460F9CF80910D038860F5CF809132
:101420000E03816080930E03C2CF80910E03826011
:10143000F9CF80910D038061E7CF80910D03806229
:10144000E3CF80910D038064DFCF0E945912809119
:101450000D038068D9CF80910D038C60D5CF80912A
:101460000E038360DFCF80910D038E7FCDCF8091FF
:101470000D038D7FC9CF80910D038B7FC5CF8091E8
:101480000D03877FC1CF80910E038E7FCBCF8091DC
:101490000E038D7FC7CF80910D038F7EB5CF8091D6
:1014A0000D038F7DB1CF80910D038F7BADCF0E9457
:1014B000591280910D038F77A7CF80910D03837F01
:1014C000A3CF80910E038C7FADCF80910D0382FB63
:1014D000992790F921E0922790FB82F990FB83F9FC
:1014E00093CF80910E03982F909591708E7F892BCA
:1014F00090FB81F997CF0E94591290910D03892F8B
:1015000097FB87F9805880CF81E00E943D1A4FCF2A
:1015100080E0FBCF81E05BCFCF93DF93EB0186319F
:101520009C4511F50E949E189A81992399F08A7A18
:1015300091E009F490E09093D001811109C089E213
:101540000E9479180E94F01880E0DF91CF910895F1
:1015500085E3F6CF8091D001811104C089E20E9419
:101560008018F0CF85E3FBCF81E0EFCFCF93DF93FF
:10157000EC0181E0898B8F810E94A11888850E94EF
:10158000B5180E94F018EA81FB81309739F06C8918
:101590007D89CE010696DF91CF910994DF91CF919D
:1015A0000895CF93DF93EC01FB018881823031F401
:1015B000828193810E94050481E08B87DF91CF9126
:1015C0000895FB01DC018C91813021F480819181AF
:1015D0000C940504823019F482819381F9CF089527
:1015E000FB01DC018C91813021F4808191810C948C
:1015F0001A04823019F482819381F9CF0895EF9211
:10160000FF920F931F93CF93DF93EC018A85811193
:1016100034C0EB80FC8087E5F81A26E12E9DC001DE
:101620002F9D900D1124DC01A050BF4F1496ED9119
:10163000FC911597309731F054966D917C918A5FAB
:101640009E4F099586E18E9D80018F9D100D11247E
:1016500000501F4FF80187810E94A718F80180856C
:101660000E94BB180E94F018188219861B861E82E1
:101670001D821092D2011092D101DF91CF911F9162
:101680000F91FF90EF900895DF92EF92FF920F93EA
:101690001F93CF93DF938C01FB018281882391F00C
:1016A000809134018F3F71F0C0E0D1E0F12CE12C4A
:1016B000DD24D39480913401082E000C990B8E15F3
:1016C0009F0544F4DF91CF911F910F91FF90EF9010
:1016D000DF9008958E818823C9F089859A858017C7
:1016E000910739F48091D1019091D201801791072F
:1016F00069F0DF861C870B878989811103C0CE01C1
:101700000E94B60ACE0106960E94FF0AFFEFEF1A6A
:10171000FF0A6696CFCFEF92FF920F931F93CF935E
:10172000DF938C01FB0197558F3F910509F0D0F5B0
:1017300020913401022E000C330B2817390714F4C2
:1017400080933401228136E1389F7001399FF00C7B
:101750001124E701C050DF4F288B92818E8199239D
:1017600049F11A8709878F5F8E830E94BA1A9E8774
:101770008D870E94D7188F830E949E1888870E94A9
:10178000B2189885982B9887E881F981309731F0C5
:101790006C897D89C7018A5F9E4F09951093D2019C
:1017A0000093D10181E0DF91CF911F910F91FF90C4
:1017B000EF9008958823B1F38989882399F3C701AD
:1017C0008A5F9E4F0E94FF0AEDCFEF92FF920F9328
:1017D0001F93CF93DF938091340110E006E18F3F98
:1017E000C1F5DF91CF911F910F91FF90EF90089578
:1017F000029FF001039FF00D1124E050FF4FE2889B
:10180000F388E114F10419F488ECE82EF12C029F1E
:10181000E001039FD00D1124C050DF4F8E8188233B
:10182000B9F08D859E850E94C61AE816F90680F4E7
:10183000109F700111248989811105C0C701805052
:101840009F4F0E94B60AC7018A5F9E4F0E94FF0AFF
:101850001F5F212F30E080913401082E000C990B7E
:10186000821793072CF6BDCF0F931F93CF93DF936F
:10187000CDB7DEB728970FB6F894DEBF0FBECDBF49
:10188000809136018F93809135018F938CE891E0A0
:101890009F938F931F9288E08F938E010F5F1F4F4E
:1018A0001F930F930E945F23C8010E9441050FB64A
:1018B000F894DEBF0FBECDBF28960FB6F894DEBFFA
:1018C0000FBECDBFDF91CF911F910F910895CF93A0
:1018D000DF93D82FC92F0E94BA1A9093D601809314
:1018E000D501D093D301C093D401DF91CF91089556
:1018F0008091D3019091D401892BE1F08091D501A1
:101900009091D6010E94C61A20913501309136017E
:101910002817390780F48091D3019091D401926007
:101920000E942F041092D6011092D5011092D4017A
:101930001092D30108958091D3010E944C0FF2CFF1
:10194000109237010C94780C80913701882321F094
:10195000109237010C94780C81E080933701089540
:101960001F93CF93DF93EC01FB011281112309F444
:1019700064C089319C4509F456C0CA318CE5D8074A
:10198000B0F5C731ECE5DE0709F43FC080913501C1
:10199000909136010597C831FCE5DF07D9F1C933CD
:1019A000D10508F5CD32D10530F4C832D105A8F4FF
:1019B000C430D105A8F00E94780C809137018823AB
:1019C00069F10E949E18811129C0CE010E94670C06
:1019D00082E00E943B1910E021C0CB32D10559F3BF
:1019E0000E94780C1BC0C436D10529F3F9CFCB3146
:1019F0008CE5D807D9F0CC31ECE5DE07D9F0CA3157
:101A0000DC4571F70E94A40C09C0809135019091CA
:101A1000360105969093360180933501812FDF9131
:101A2000CF911F9108950E94340CF8CF81E08093EC
:101A30003701F4CF0E94A00CF1CF0E94780C11E086
:101A4000EDCF9093DC018093DB010895E091DB0101
:101A5000F091DC01309721F00190F081E02D0994A4
:101A600080E00895E091DB01F091DC01309721F0F6
:101A70000280F381E02D09940895E091DB01F0915B
:101A8000DC01309721F00480F581E02D0994089560
:101A90002091D9013091DA012817390771F090931C
:101AA000DA018093D901E091DB01F091DC013097FC
:101AB00021F00680F781E02D099408952091D70147
:101AC0003091D8012817390771F09093D80180938D
:101AD000D701E091DB01F091DC01309721F0008427
:101AE000F185E02D09940895089508950C94740DDE
:101AF00008950C94780D0E94750D0C94760D81E07C
:101B000008950C947F0D0E94B11A0E94D5070E947F
:101B10000E1B0C94790D9F92AF92BF92CF92DF92E1
:101B2000EF92FF920F931F93CF93DF9300D000D0DB
:101B30000F92CDB7DEB70E9436080E94810D882330
:101B400009F46EC05EEDA52E51E0B52E10E000E068
:101B5000902E802F0E94C7077C01F501C190D19083
:101B60005F01C816D90609F455C08091520281FD63
:101B70000E94D00796012E253F2580E0CC24C394F7
:101B8000D12CA9014C215D21452BF1F189839A8249
:101B9000EC20FD2081E0EF2809F480E08B830E9497
:101BA000BA1A8160782F9D838C8349815A816B8119
:101BB0008D810E94320E000F111FF801E252FE4F7C
:101BC00080819181C826D926D182C0820E94AD1C15
:101BD0000E94260D9091DD01891799F10E94260D32
:101BE0008093DD010F900F900F900F900F90DF9179
:101BF000CF911F910F91FF90EF90DF90CF90BF900A
:101C0000AF909F900C9455058F5FCC0CDD1C8C30F1
:101C100009F0B7CF0F5F1F4F0430110509F098CFBF
:101C20008FEF89838A831B820E94BA1A8160782F82
:101C30009D838C8349815A816B818D810E94320EF4
:101C4000C5CF0F900F900F900F900F90DF91CF9115
:101C50001F910F91FF90EF90DF90CF90BF90AF90CA
:101C60009F900895CF93DF93CDB7DEB72B970FB634
:101C7000F894DEBF0FBECDBF4F83588769877A8740
:101C80008B871E8285E0FE013796DE01119601905A
:101C90000D928A95E1F749815A816B817C818D8112
:101CA0009E812B960FB6F894DEBF0FBECDBFDF919D
:101CB000CF910C94BC14FC01808191810C94431849
:101CC000CF93C82F882309F48FC08238C1F40E94B3
:101CD000260D81FD89C089E30E9479180E94F018C1
:101CE0002FEF31EE84E0215030408040E1F700C01A
:101CF000000089E30E948018CF910C94F01883387B
:101D0000A1F40E94260D80FD6FC083E50E94791822
:101D10000E94F0189FEF21EE34E0915020403040B7
:101D2000E1F700C0000083E5E5CF8438A1F40E940C
:101D3000260D82FD59C087E40E9479180E94F01890
:101D40008FEF91EE24E0815090402040E1F700C0F9
:101D5000000087E4CFCF8CEF8C0F813AB8F48C2F42
:101D60000E94391F811140C06C2F809138019091E1
:101D700039010E94541A882329F08C2F0E94801860
:101D80000E94F0188C2F0E947918B6CF80E28C0F39
:101D9000883048F4C77081E001C0880FCA95EAF71F
:101DA0000E94A118A9CF8BE58C0F833038F42C2F1B
:101DB0002452330BC901CF910C94480DE8E5EC0F88
:101DC000E73150F4F0E0EE0FFF1FEF56FE4F808139
:101DD0009181CF910C945E0DC03F30F08C2F0E940A
:101DE000BB1BCF910C94A21CCF910895882309F4BA
:101DF00052C0823871F40E94260D81FF4CC089E3E5
:101E00000E9479180E94F01889E30E9480180C94AF
:101E1000F018833859F40E94260D80FF3CC083E5FA
:101E20000E9479180E94F01883E5EFCF843859F4A6
:101E30000E94260D82FF2FC087E40E9479180E941D
:101E4000F01887E4E2CF9CEF980F913AF0F290E21D
:101E5000980F983050F4877091E001C0990F8A95DF
:101E6000EAF7892F0E94A718D2CF9BE5980F9330ED
:101E700020F490E080E00C94480D98E5980F97319D
:101E800020F490E080E00C945E0D803F20F00E94F2
:101E9000231C0C94A21C0895CF93C82F0E94600E9F
:101EA000C93349F42FEF87EE93E0215080409040F2
:101EB000E1F700C000008C2FCF910C94F60E882320
:101EC00021F00E94A1180C94F0180895882321F0A5
:101ED0000E94A7180C94F0180895AF92BF92CF9269
:101EE000DF92EF92FF920F931F93CF93DF9300D077
:101EF00000D00F92CDB7DEB76C016D837983FC0102
:101F0000058102950F70128111110E94C3180E9461
:101F10009718E82E882371F01123B1F08D81805E2F
:101F2000883090F082E00E943B190E94971891E05F
:101F3000E82EE926A980A2949FE0A922B12CF50100
:101F4000EB56F94D0C944523E12CF4CF09810F7029
:101F5000F981F07F11F00295007F1123B1F0002389
:101F600061F08D81805E883018F02D81211109C0CB
:101F7000802F0E94A1180E94F0188D810E94600E8F
:101F800015C0802F0E94B518F6CF8D810E94F60EE5
:101F9000002361F08D81805E883018F04D81411101
:101FA00033C0802F0E94A7180E94F01858E0A51A8D
:101FB000B10864E0A616B10420F40E94260D0E9428
:101FC0005505EE2009F40EC20E94931880FD0AC246
:101FD000F60112820E948D180E949A16C6010E9474
:101FE00019120E948D180F900F900F900F900F9064
:101FF000DF91CF911F910F91FF90EF90DF90CF90E5
:10200000BF90AF900C94CB16802F0E94BB18CCCF02
:1020100059815F70F52E6981607F603219F0F2940A
:1020200080EFF8227D81772369F0713049F1112327
:1020300091F1002351F1F601858180FF9ECF8F70D1
:10204000858323C0112381F0011106C00E94D71897
:102050008F290E945F0FAACF0130C1F70E94D718C5
:102060008F290E94DD18A2CF011106C00E94E61838
:102070008F2D0E94660F9ACF013009F497CFF6CFCB
:10208000112329F0063008F091CF8F2DE2CF0530D3
:1020900008F08CCFEDCF002359F3FD81F93349F4DB
:1020A0002FEF47EE53E0215040405040E1F700C091
:1020B00000008D810E94F60E79CF898186958695E4
:1020C000837069F0813009F071CF8D8199819370AF
:1020D000111102C090E080E00E945E0D67CF8D81FB
:1020E00099819370111102C090E080E00E94480D28
:1020F0005DCF112311F16D81653F99F0663FB9F015
:10210000643F49F4809107039091080381609093A4
:102110000803809307038D810E94BB1B0E94A21CB1
:1021200045CF80910703909108038260F0CF8091A2
:102130000703909108038460EACF7D81753F89F0A1
:10214000763FA9F0743F49F480910703909108030A
:102150008E7F90930803809307038D810E94231C38
:10216000DDCF80910703909108038D7FF2CF80919E
:102170000703909108038B7FECCF8981837009F06E
:1021800059C0111113CF4D81429546954770440FA8
:10219000440F8D818F7090E0B0E0A0E0042E04C069
:1021A000880F991FAA1FBB1F0A94D2F7ED8100E088
:1021B00010E09801E4FF0FC00FE010E020E030E0F5
:1021C00004C0000F111F221F331F4A95D2F700953C
:1021D000109520953095F981F695F695F370FD836D
:1021E000B901A801482B592B6A2B7B2B49835A83B1
:1021F0006B837C83F23081F0F330A9F0F13029F069
:10220000CB01BA010E941216D1CE69817A818B81ED
:102210009C810E94EA15CACE69817A818B819C815A
:102220000E943A16C3CE69817A818B819C810E947B
:10223000E815BCCE8695112311F089818170882321
:1022400009F4B4CE4D81429546954770440F440F32
:102250008D818F7090E0B0E0A0E0042E04C0880F64
:10226000991FAA1FBB1F0A94D2F75D8100E010E0FE
:10227000980154FF0FC00FE010E020E030E004C0F0
:10228000000F111F221F331F4A95D2F7009510959A
:102290002095309569816695669563706D83B90167
:1022A000A801482B592B6A2B7B2B49835A836B83BC
:1022B0007C835D8169817A818B819C81523051F070
:1022C000533059F0513019F00E9459176FCE0E94C7
:1022D00031176CCE0E94811769CE0E94641666CEBB
:1022E00069816F706983112329F0862F0E949A16E5
:1022F0008D81AFCE8D810E94660F89810E94CB16A1
:1023000055CE7D81723FA1F160F4703FE1F0713FE5
:1023100041F1112309F445C001112FCE89818F713C
:1023200024C08D81833F49F1843F99F7112379F1CE
:1023300099819F719983892F0E949A1663E0898100
:102340000E94261933CE112341F0053008F02ECE1D
:1023500089818F710E94001729CE063008F026CEA1
:10236000F7CF89818F71112349F20E949A161ECEF0
:1023700089818F711123C9F3C1CF112329F089817C
:102380008F710E94751612CE0E9470160FCE81E0DA
:102390000E943B19023008F409CE82E00E943B19EA
:1023A00005CE002361F0ED81E93309F082CEFFEF25
:1023B00027EE43E0F15020404040E1F778CE89819C
:1023C0008F719CCF49814F706D81C6010E94B90504
:1023D0000E945C15EBCD49814F706D81C6010E9452
:1023E000BC05E4CD0F900F900F900F900F90DF91F0
:1023F000CF911F910F91FF90EF90DF90CF90BF9002
:10240000AF9008950F931F93CF93DF93EC016881F2
:1024100079818A810E944F188C010E94A9170E941D
:10242000E715B801CE01DF91CF911F910F910C9468
:102430006D0FCF93DF93EC018B819C81892B29F069
:102440008881998189238F3F19F4DF91CF91089575
:10245000CE010E946D058823C1F3CE010E940212B5
:10246000CE01DF91CF910C947E04882321F00E944D
:10247000B5180C94F0180895882321F00E94BB1819
:102480000C94F01808950E94C3180E94D4180E945A
:10249000F0180E94C61D0E94A21C90E080E00E94DD
:1024A000480D90E080E00C945E0D0E9487180C941B
:1024B00043120E94AF180C945512282F892F829531
:1024C0008F70903C80F48A30B0F4843020F48230F5
:1024D00090F480E008958630E1F781E0283E88F0AE
:1024E000213FB9F70EC08C3011F08F3091F793FB7C
:1024F000882780F9089581E0203F39F018F4283EBC
:1025000040F70895243F29F7FCCF08950E9443180F
:102510000C945D12CF93DF9300D000D00F92CDB713
:10252000DEB70F900F900F900F900F90DF91CF912B
:102530000895CF93DF9300D000D000D0CDB7DEB7A1
:1025400026960FB6F894DEBF0FBECDBFDF91CF91B8
:1025500008951F93CF93DF93E091E70116E08091F8
:10256000E8018E1304C0DF91CF911F910895CE2F03
:10257000D0E01E9FF0011124E751FE4F40815181B0
:1025800062817381848195810E949912FE01319646
:10259000E770E5CF4091190250911A0260911B0239
:1025A00070911C0280911D0290911E020C94991250
:1025B0001F93CF93DF9380911E02807FA9F48091B7
:1025C0001B02882389F08091E701C091E8016091A6
:1025D000190270911A02A0911C02B0911D02D62F0F
:1025E000D72316E0C81304C0DF91CF911F9108953F
:1025F00090E0109711F0DF3F19F401968770F2CF49
:10260000189F9001199F300D1124F901E751FE4FD9
:1026100041814713F2CF40814613EFCF42814111F0
:10262000ECCF438154814A1B5B0B483C510528F792
:1026300080911E028F70806180931E02F901E25129
:10264000FE4F80818F708061808389E192E00E94DB
:102650001912DF91CF911F910C94A912AF92BF92E2
:10266000CF92DF92EF92FF920F931F93CF93DF935E
:10267000CDB7DEB72B970FB6F894DEBF0FBECDBF38
:102680008C0185E0F801DE01179601900D928A9584
:10269000E1F7F80140815181E28089E1C82E82E0B2
:1026A000D82E60911C0270911D026115710509F40C
:1026B00044C19091190220911A02822F89238F3FE1
:1026C00009F43BC1A380B480F0901B02F501E61B26
:1026D000F70BFF2009F4E0C080911E02382F307FF5
:1026E000E83CF10508F0B2C0311179C0FE2C251389
:1026F00023C0941321C0E1101FC08F7080618093AC
:102700001E020E94CA12C6010E94191280911E0266
:10271000F80185838F2D2B960FB6F894DEBF0FBE80
:10272000CDBFDF91CF911F910F91FF90EF90DF9080
:10273000CF90BF90AF900895AB2829F0842F8523C8
:102740008F3F09F016C180E0F82FF170DF2EE09185
:10275000E7012091E80136E080FD1CC0EE20D1F2B7
:1027600080911E02816080931E02F12CD3CF8E2FA8
:1027700090E03E9FF0011124E751FE4F6181651307
:1027800006C06081641303C06281E612E7CFFC01DA
:102790003196E770E213EBCF4F8358878F8198858E
:1027A0000E944318292F22952F70903260F0225FEB
:1027B0002F70223078F49F7051F0F8019581907F4E
:1027C00031F4D12C0AC09F7011F08823D1F3805EC0
:1027D0008830B8F3C8010E941912FD2C9BCF251335
:1027E00006C0941304C0F801EE2009F470C04F83B2
:1027F00058878F8198850E948612882319F1EE20D0
:1028000009F180911E02803270F0209119023091FE
:102810001A023A8329831B82BD82AC828E83CE0149
:1028200001960E94191286E0F801A9E1B2E0019038
:102830000D928A95E1F70E94D8120E94CA12FF24D5
:10284000F39468CFC8010E941912F9CF311113C057
:102850007A2DBB86AA866E2D8B850E948A1289E10D
:1028600092E00E94191286E0F60111928A95E9F72A
:102870000E94CA127ACF2513BACF9413B8CFE110B1
:10288000B6CFF8018583C8010E94191286E0F601CF
:1028900011928A95E9F73ECFE83CF10508F040C077
:1028A000FE2CEE2079F225132AC0941328C08091C3
:1028B0001E0280FD1BC0982F907FC1F0F801858318
:1028C000903F31F0982F907F905F8F70892B858398
:1028D000C8010E94191286E0F801A9E1B2E0019056
:1028E0000D928A95E1F70E94CA1214CF86E0F80192
:1028F000A9E1B2E001900D928A95E1F70BCF4F83E9
:1029000058878F8198850E94861281118CCF809183
:102910001E02816080931E02C8010E941912FACE25
:102920007A2DBB86AA866E2D8B850E948A1286E040
:10293000F60111928A95E9F7D6CFEE2009F482CFFD
:102940004F8358878F8198850E948612F82E88239E
:1029500009F478CF86E0F801A9E1B2E001900D9288
:102960008A95E1F789E192E00E945B0E0E94D812FD
:10297000BACF81E08E25E8CE1F93CF93DF93CDB7FA
:10298000DEB72C970FB6F894DEBF0FBECDBF4F83D6
:10299000588769877A878B879C87CE0107960E9424
:1029A0002E13882369F08A859B85892B39F04F8106
:1029B0005885842F85238F3F09F077C016E065C0C6
:1029C00086E0FE013796DE01119601900D928A9500
:1029D000E1F76A857B856115710581F35F81488523
:1029E000842F85238F3F51F32091E80130E0C90106
:1029F000019687709927E091E701E817190671F4AD
:102A00000E9459121092E8011092E70186E0E9E174
:102A1000F2E0DF011D928A95E9F7D0CF59834A830E
:102A20007D836C8396E0929FD001939FB00D11241B
:102A3000A751BE4FFE01319601900D929A95E1F794
:102A40008093E8010E94A912B9CF819FC00111248F
:102A500087519E4F0E942E138823E9F0E091E701F1
:102A60001E9FF0011124E751FE4F40815181628188
:102A70007381848195810E9499128091E70190E091
:102A80000196877099278093E7018091E7019091E3
:102A9000E8018913DACF2C960FB6F894DEBF0FBE8B
:102AA000CDBFDF91CF911F91089569857A858B8580
:102AB0009C850E94991282CFEF92FF920F931F93F1
:102AC000CF93DF938C01892B89F0F12CEE24E394D2
:102AD000E8012196F8018491843709F457C0A0F4E5
:102AE000823009F43EC048F48130D1F0DF91CF91BB
:102AF0001F910F91FF90EF9008959CEF980F9037E2
:102B0000A8F70E94600E0AC0853709F44CC09CE704
:102B1000980F903758F78F770E94F60E8E0116C0E7
:102B20000E5F1F4FFE01849190E2980F983060F481
:102B30008770FE2D01C0FF0F8A95EAF78F2F0E9444
:102B4000C6180E94F01802C00E94600E8F2D81509E
:102B500008F4BECFEFE9FFE03197F1F700C00000C5
:102B6000F6CF0E5F1F4FFE01849190E2980F9830D0
:102B700050F48770FE2D01C0FF0F8A95EAF78F2F62
:102B80000E94CC18DECF0E94F60EE0CF0E5F1F4FE2
:102B9000FE01C491C150D0F28FE99FE00197F1F797
:102BA00000C00000F7CF0E5F1F4FFE01F490CECFA4
:102BB00008950C94D8150E94D91560934102709322
:102BC000420280934302909344020C94431208956E
:102BD0000C94DB15CF93DF9300D000D0CDB7DEB7D8
:102BE00069837A838B839C83809141029091420216
:102BF000A0914302B091440229813A814B815C81CA
:102C0000282B392B4A2B5B2B29833A834B835C83FC
:102C1000CA01B9010F900F900F900F90DF91CF91E3
:102C20000C94DB15CF93DF9300D000D0CDB7DEB787
:102C300069837A838B839C838091410290914202C5
:102C4000A0914302B091440229813A814B815C8179
:102C5000282339234A235B2329833A834B835C83CC
:102C6000CA01B9010F900F900F900F90DF91CF9193
:102C70000C94DB15CF93DF9300D000D0CDB7DEB737
:102C800069837A838B839C83809141029091420275
:102C9000A0914302B091440229813A814B815C8129
:102CA000282739274A275B2729833A834B835C836C
:102CB000CA01B9010F900F900F900F90DF91CF9143
:102CC0000C94DB150C94AC030E94621660933D02D9
:102CD00070933E0280933F02909340020C94431203
:102CE00060E070E0CB010C9464160F931F93CF93B8
:102CF000DF9300D000D0CDB7DEB741E050E060E018
:102D000070E08A019B0104C0000F111F221F331FB6
:102D10008A95D2F709831A832B833C83C901B801B2
:102D20000F900F900F900F90DF91CF911F910F9107
:102D30000C9464160F931F93CF93DF9300D000D0B1
:102D4000CDB7DEB741E050E060E070E004C0440F72
:102D5000551F661F771F8A95D2F780913D0290918B
:102D60003E02A0913F02B09140028A019B01082BD4
:102D7000192B2A2B3B2B09831A832B833C83C901F4
:102D8000B8010F900F900F900F90DF91CF911F918E
:102D90000F910C9464160F931F93CF93DF9300D081
:102DA00000D0CDB7DEB741E050E060E070E004C095
:102DB000440F551F661F771F8A95D2F7409550958F
:102DC0006095709580913D0290913E02A0913F02E6
:102DD000B09140028A019B01082319232A233B2337
:102DE00009831A832B833C83C901B8010F900F908C
:102DF0000F900F90DF91CF911F910F910C9464165B
:102E00000F931F93CF93DF9300D000D0CDB7DEB7E1
:102E100041E050E060E070E004C0440F551F661FC1
:102E2000771F8A95D2F780913D0290913E02A09142
:102E30003F02B09140028A019B01082719272A27E7
:102E40003B2709831A832B833C83C901B8010F9068
:102E50000F900F900F90DF91CF911F910F910C94D5
:102E60006416CF93DF9300D000D0CDB7DEB769836F
:102E70007A838B839C8380913D0290913E02A09146
:102E80003F02B091400229813A814B815C81282B1D
:102E9000392B4A2B5B2B29833A834B835C83CA01F2
:102EA000B9010F900F900F900F90DF91CF910C947C
:102EB0006416CF93DF9300D000D0CDB7DEB769831F
:102EC0007A838B839C8380913D0290913E02A091F6
:102ED0003F02B091400229813A814B815C812823D5
:102EE00039234A235B2329833A834B835C83CA01BA
:102EF000B9010F900F900F900F90DF91CF910C942C
:102F00006416CF93DF9300D000D0CDB7DEB76983CE
:102F10007A838B839C8380913D0290913E02A091A5
:102F20003F02B091400229813A814B815C81282780
:102F300039274A275B2729833A834B835C83CA015D
:102F4000B9010F900F900F900F90DF91CF910C94DB
:102F500064160895E82F2CE0929FE00D11248E2F27
:102F6000877041E001C0440F8A95EAF7E695E6953F
:102F7000E69585E0E89FF0011124E15EFD4F30E029
:102F800020E070E05191DF011197CB01022E02C0C9
:102F9000969587950A94E2F7817081958527842319
:102FA00085278C932F5F3F4F2530310559F70895C2
:102FB000E82F2CE0929FE00D11249E2F9770E6954C
:102FC000E695E69585E0E89FF0011124E15EFD4F6E
:102FD00050E040E080E0219130E0092E02C03695BB
:102FE00027950A94E2F721703327042E01C0220F9F
:102FF0000A94EAF7822B4F5F5F4F4530510559F72E
:103000000895BF92CF92DF92EF92FF920F931F939A
:10301000CF93DF938C01C0903D02D0903E02E090B0
:103020003F02F09040028091410290914202A091B3
:103030004302B0914402C82AD92AEA2AFB2ACFE1E6
:10304000D0E0BC2ED701C6010C2E04C0B695A795C2
:10305000979587950A94D2F780FD0EC0219788F73F
:10306000B12C8B2DDF91CF911F910F91FF90EF909D
:10307000DF90CF90BF900895B8018C2F0E94D905A2
:10308000019761F3EECFCF93DF93D82FC92F0E9422
:1030900001186D2F7C2FDF91CF910C94D9051F93D0
:1030A000CF93DF93162FD72F9091E601992339F014
:1030B000862F972FDF91CF911F910C94431888236F
:1030C00091F0862F972F0E940118C82F682F812F0B
:1030D0009D2F0E94AA17612F7D2F8C2FDF91CF91FA
:1030E0001F910C94D905862F972F0E94D817C82FAF
:1030F000F2CF682F80913801909139010C948E1A8B
:10310000682F80913801909139010C94901A809128
:103110003801909139010C94921A8091450285955D
:1031200085958595089580914502877008959091C1
:103130004502977081E009F480E008958091510282
:10314000089590915102982B909351020895982FD1
:103150009095809151028923809351020895109295
:103160005102089580915002089590915002982B39
:10317000909350020895982F909580915002892342
:1031800080935002089510925002089590914F023A
:10319000982B90934F020895982F909580914F020D
:1031A000892380934F02089510924F0208958091D1
:1031B0004602089508950C94DA18909146029817E3
:1031C00021F0809346020C94DB180895809146020A
:1031D000882329F01092460280E00C94DB180895B1
:1031E000E0913801F0913901809151028083E091A2
:1031F0003801F0913901808190915002892B8083B0
:10320000E0913801F0913901808190914F02892B32
:10321000808390914602992381F0E0913801F091EA
:1032200039018081892B8083809138019091390107
:103230000E94421A81110E94E618809138019091F3
:1032400039010C94320D08950C94231998E0899F4C
:1032500090011124622B609345020E949A1680917E
:1032600045028595859585950C9424191092450203
:1032700080E00C94241990914502809589238093D5
:103280004502282F277071F4282F082E000C330BCD
:103290009217130639F08595859585950E94CB1672
:1032A0000C94361908950F931F93462F572FBC0186
:1032B000CB01AA27BB270097A105B105E9F1AC0115
:1032C000BD0180E1052F162F272F3327011511058A
:1032D0002105310519F0885FB901A8018A019B0118
:1032E000F4E03695279517950795FA95D1F70115CE
:1032F00011052105310519F08C5FB901A8018A017A
:103300009B01E2E03695279517950795EA95D1F749
:10331000011511052105310519F08E5FB901A801CC
:103320007695679557954795452B462B472B09F082
:103330008F5F1F910F91089580E0C4CF90E080E0EF
:103340000E9406269C0181E02C3E3E4F09F080E061
:10335000089582E090E00C94FE2583E090E00C94C8
:10336000FE25CF9384E090E00E94FE25C82F81E2E5
:1033700090E00E94FE25982F8C2FCF910895CF9337
:10338000682FC92F84E090E00E940C266C2F81E208
:1033900090E0CF910C940C26AB01BC018FE090E043
:1033A0000C941E26AB01BC0183E190E00C941E2618
:1033B00060E070E0CB010C94D21960E070E0CB01CA
:1033C0000E94CC190C94D8196CEE7EEF90E080E04E
:1033D0000E942A2660E082E090E00E940C2660E0D5
:1033E00083E090E00E940C2610924102109242026B
:1033F000109243021092440260E084E090E00E9448
:103400000C2660E081E290E00E940C2660E085E0FE
:1034100090E00E940C2660E086E090E00E940C267E
:103420006FEF87E090E00E940C2640E050E0BA0188
:1034300088E090E00E941E2660E08DE090E00E940F
:103440000C2640E050E0BA0188E190E00E941E2680
:1034500060E087E190E00E940C2640E050E0BA0175
:103460008CE190E00E941E2660E080E290E00E94E5
:103470000C260C94DD190C94E419682F8EE090E072
:103480000C940C26AC019C012E5F3F4F485F5F4FB0
:1034900080E02417350709F40895F90191919F01FF
:1034A0009923B9F38F5FF5CF9C01662351F0FC019E
:1034B0003296285F3F4F8191861729F0E217F30774
:1034C000D1F780E0089581E008959C01FC013296D7
:1034D0008FEF90E04191461751F08F3F19F4411161
:1034E00001C0892F9F5F9630A9F78F3F09F4089597
:1034F000280F311D87FD3A95F901628308959C01DB
:10350000FC013296285F3F4F8191861303C0DF0193
:1035100011971C92E217F307B9F708950C94651AF6
:103520000C947F1AFC01329686E0DF011D928A9589
:10353000E9F7089508950895CF930E949A1A0E947A
:1035400036080E949B1AC0E08C2F0E94C707892B67
:1035500031F4CF5FC430C1F780E0CF91089581E0AE
:10356000FCCF82E084BD93E095BD9AEF97BD809338
:103570006E0008952FB7F8948091090390910A0383
:10358000A0910B03B0910C032FBF08959C014FB77E
:10359000F8948091090390910A03A0910B03B091D4
:1035A0000C034FBF821B930B089578941F921FB694
:1035B0001F9211248F939F93AF93BF938091090320
:1035C00090910A03A0910B03B0910C030196A11DE9
:1035D000B11D8093090390930A03A0930B03B0934A
:1035E0000C03BF91AF919F918F911F901FBE1F90B1
:1035F000189588E198E00FB6F894A895809360003C
:103600000FBE90936000A895F894D8E0CEEF28E321
:10361000299320E0299314BEFFCF0895CF93DF9321
:1036200000D000D0CDB7DEB70E949E19811102C034
:103630000E943B1A0E94A919809352020E94B1195C
:1036400090930E0380930D030E94AD19282F30E054
:1036500050E040E029833A834B835C83CA01B9017F
:103660000F900F900F900F90DF91CF910C94E81571
:1036700080915A0280FF12C060913F0185E0689FEF
:10368000B00111247595679575956795603871053A
:10369000A8F561157105A1F1862F089581FF09C074
:1036A00060913F0185E0689FB00111247595679591
:1036B000EDCF60913F0182FD0AC0809159028823BD
:1036C000D1F090913E0160913F01891728F085E08B
:1036D000689FB0011124DACF869FB001112485E0E4
:1036E000869F9001879F300D1124692F70E0C901DA
:1036F0000E943123CBCF65E070E0CECF8FE70895F5
:1037000081E0089580915A0280FF0CC060913B01D6
:1037100070E075956795759567956115710549F127
:10372000862F089581FF06C060913B0170E075957A
:103730006795F3CF60913B0182FD0BC090915902D8
:103740009923A1F060913A0180913B01961738F0DE
:10375000682F70E06038710500F38FE70895899F46
:10376000C001112470E00E943123F4CF61E070E0C9
:10377000D7CF81E00895803F31F40E94381B8195B6
:1037800080935D020895813F19F40E94381BF8CFA1
:10379000823F31F40E94381B819580935C0208952A
:1037A000833F19F40E94381BF8CF893F29F40E9407
:1037B000821B80935E0208958A3F21F40E94821B3F
:1037C0008195F7CF8B3F31F40E94821B81958093C6
:1037D0005F0208958C3F19F40E94821BF8CF843F4A
:1037E00031F480915B02816080935B020895853F94
:1037F00021F480915B028260F7CF863F21F48091B3
:103800005B028460F1CF873F21F480915B02886086
:10381000EBCF883F21F480915B028061E5CF8D3F43
:1038200031F480915A02816080935A0208958E3F4C
:1038300021F480915A028260F7CF8F3FB9F78091CF
:103840005A028460F1CF90915C02803F41F48091F4
:103850005D0287FD10925D02992371F00895813F0A
:1038600029F480915D021816ACF3F6CF823F81F403
:1038700097FFF2CF10925C0280915D0290915E0200
:10388000892B90915F02892B49F710925902089574
:10389000833F19F4191674F3DFCF893F39F480910F
:1038A0005E021816CCF610925E02D6CF8A3F29F43B
:1038B00080915E0287FFD0CFF6CF8B3F39F48091A5
:1038C0005F0287FFC9CF10925F02C6CF8C3F29F4F9
:1038D00080915F021816BCF3BFCF843F31F4809112
:1038E0005B028E7F80935B02B7CF853F21F480918E
:1038F0005B028D7FF7CF863F21F480915B028B7F47
:10390000F1CF873F21F480915B02877FEBCF883F27
:1039100021F480915B028F7EE5CF8D3F31F4809161
:103920005A028E7F80935A0297CF8E3F21F4809166
:103930005A028D7FF7CF8F3F09F08ECF80915A02C8
:103940008B7FF0CF8BE592E00E943D0D0E94BA1A6A
:1039500090935802809357020895CF93DF9300D03D
:1039600000D00F92CDB7DEB785E0EBE5F2E0DE01E7
:10397000119601900D928A95E1F780915C029091E9
:103980005D02892B81F080915502909156020E9430
:10399000C61A9C0180915902882329F19091400117
:1039A0009217130668F180915E0290915F02892B55
:1039B00091F080915302909154020E94C61A9C018A
:1039C00080915902882309F477C090913C019217A5
:1039D000130608F47FC00F900F900F900F900F9078
:1039E000DF91CF910895409141019AE0499FA00154
:1039F000112442175307B8F68F5F8093590202C013
:103A00008F3FD1F710925E0210925F0280915C02AC
:103A1000181624F40E94381B80935C0280915C028B
:103A200087FF05C00E94381B819580935C028091BE
:103A30005D02181624F40E94381B80935D02809169
:103A40005D0287FF05C00E94381B819580935D024F
:103A500030915C023323A1F020915D02222381F09A
:103A600045EB3403C00111249923F1F090935C02DB
:103A700045EB2403900111243323D1F030935D02F0
:103A80000E94A21C80915702909158029093560276
:103A90008093550285E0FE013196ABE5B2E00190DE
:103AA0000D928A95E1F77FCF81E080935C02E0CFB1
:103AB00081E080935D02E4CF40913D019AE0499F0F
:103AC000A00111244217530708F085CF8F5F809320
:103AD000590202C08F3FD1F710925C0210925D0232
:103AE00080915E02181624F40E94821B80935E026D
:103AF00080915E0287FF05C00E94821B81958093A2
:103B00005E0280915F02181624F40E94821B80934B
:103B10005F0280915F0287FF05C00E94821B819532
:103B200080935F0230915E023323A1F020915F0207
:103B3000222381F045EB3403C00111249923F1F0D5
:103B400090935E0245EB2403900111243323D1F0BE
:103B500030935F020E94A21C8091570290915802FC
:103B6000909354028093530285E0FE013196ABE5B9
:103B7000B2E001900D928A95E1F72DCF81E080931C
:103B80005E02E0CF81E080935F02E4CF85E0EBE569
:103B9000F2E0DF011D928A95E9F710925902109226
:103BA0005A020895843009F442C038F48230E9F0B2
:103BB000833061F1813041F00895853009F448C0C7
:103BC000863009F456C0089580914101482F460F70
:103BD0005527551F4F3F510524F4680F609341014D
:103BE00008958FEF80934101089580914001482FFF
:103BF000460F5527551F4F3F510524F4680F60931A
:103C0000400108958FEF80934001089580913F0116
:103C1000482F460F5527551F4F3F510524F4680F75
:103C200060933F0108958FEF80933F010895809145
:103C30003E01482F460F5527551F4F3F510524F48D
:103C4000680F60933E0108958FEF80933E010895C1
:103C500080913B01482F460F5527551F4F3F510577
:103C600024F4680F60933B0108958FEF80933B012C
:103C7000089580913A01482F460F5527551F4F3F11
:103C8000510524F4680F60933A0108958FEF8093F3
:103C90003A010895843071F138F48230A9F083300C
:103CA000F1F0813031F00895853079F18630C1F13D
:103CB000089580914101681720F4861B809341018B
:103CC000089510924101089580914001681720F4F1
:103CD000861B8093400108951092400108958091C1
:103CE0003F01681720F4861B80933F0108951092CE
:103CF0003F01089580913E01681720F4861B809350
:103D00003E01089510923E01089580913B0168178D
:103D100020F4861B80933B01089510923B01089587
:103D200080913A01681720F4861B80933A01089528
:103D300010923A0108950F931F93CF93DF9300D011
:103D400000D0CDB7DEB741E050E060E070E08A011E
:103D50009B0104C0000F111F221F331F8A95D2F749
:103D600009831A832B833C83C901B8010E94E8159B
:103D70000F900F900F900F90DF91CF911F910F91A7
:103D80000C945912EBEFE80FEF3308F061C0F0E04C
:103D9000EB55F94D0C9445230E94DF1F0E94260D20
:103DA0000E94550581E008950E943B1AFBCF809147
:103DB0005202807F8093520281E0809361020895D5
:103DC0000E9459122FEF83ED90E3215080409040E4
:103DD000E1F700C000000E94F91AE4CF909152026E
:103DE000892F8E7F90FF81608093520280FDDACF11
:103DF000817F80935202D6CF90915202892F8D7F7E
:103E000091FF82608093520281FFCCCF8091520259
:103E10008160EFCF90915202892F8B7F92FF846057
:103E20008093520282FDF2CFBDCF90915202892F32
:103E3000877F93FF88608093520283FDE7CFB2CFE4
:103E400080E00E949B1EAECF8953FBCF8D51F9CFEE
:103E500080E0089580E008950C942A1F8E518A30E6
:103E600030F4E82FF0E0E154FE4F8081089580E0C7
:103E70000895CF93C82F809161028130A1F08230E4
:103E8000A1F181117AC00E949E18823209F077C098
:103E90008C2F0E942A1F81111BC08C2F0E94C21ED2
:103EA0008170CF9108950E949E18823289F38C2FE1
:103EB0000E942C1F81110AC0C431A1F060F4CB30E4
:103EC00029F0C03169F782E08093610281E0E8CF98
:103ED00081E090E0E5CFC93229F081E0C83301F3F9
:103EE00080E0DECF10926102FBCFCB3469F198F411
:103EF000C43240F4CE3100F5C73061F1C43121F055
:103F000081E0CFCFC932E1F780916002882381F050
:103F100010926002F5CFC135A9F061E0C235A9F079
:103F20006AE0CE3469F7809160020E944A1EE8CFB1
:103F300081E080936102B5CF8C2F0E942E1F809369
:103F40006002DECF61E0EFCF6AE0809160020E9404
:103F5000D21DD6CF8EE18093410182E38093400150
:103F60008AE080933F0184E180933E0188E0809362
:103F70003B0188E280933A01C3CF1092610280E056
:103F800090CFE1E8F0E0808188608083808181606B
:103F900080838FB7F89420ED33E03093890020932D
:103FA00088008FBF0895EFE6F0E080818260808313
:103FB0000895EFE6F0E080818D7F80830895EFE63D
:103FC000F0E0808192E08927808308951F920F920C
:103FD0000FB60F9211242F933F934F935F936F93DC
:103FE0007F938F939F93AF93BF93EF93FF938091B2
:103FF0006202909163020196909363028093620241
:10400000811103C082E00E945505E0916302E695AC
:10401000E695F0E0E857FD4FE491809162028E133F
:1040200003C080E00E945505FF91EF91BF91AF91D1
:104030009F918F917F916F915F914F913F912F91C0
:104040000F900FBE0F901F9018950E94BA1AD82F8C
:10405000192F80E880936100109261000E947B0D0F
:104060000E943E210E94210D0E941E23539A80E04F
:10407000815061F553987894FFEF20E732E0F150DA
:1040800020403040E1F700C000000E94830D0E94F4
:10409000C11FC0E00CE080912903882309F1109230
:1040A00029030E94BA1AD82F192F0E94D91F0E94E3
:1040B000292280912F03882329F080911A0384FDFF
:1040C0000E948B0D0E94F220C0E0E5CFA895EFE999
:1040D000FFE03197F1F700C00000CACFC1E0DBCFAD
:1040E0008D2F912F0E94C61A069700F10E94D31FB0
:1040F0000E949C1AC82F882389F3F8949AB15B9A7E
:10410000892F8C608AB98BB180278BB98FE7E8E360
:10411000F1E08150E040F040E1F700C000008BB1D9
:1041200080278BB99AB95B987894B5CFCC2309F4E2
:10413000BECFDECF8091F5020895CF93DF9300D0FC
:104140000F92CDB7DEB79B0190916602981307C01E
:1041500040916402509165024617570791F0809391
:104160006602309365022093640289833B832A832D
:104170008091460384FF05C063E0CE0101960E9452
:1041800025220F900F900F90DF91CF910895BC01E1
:1041900084E00C949D20BC0183E00C949D20CF937F
:1041A000DF9300D000D000D0CDB7DEB7FC0182E0B5
:1041B000898385E0DE01129601900D928A95E1F7E0
:1041C0008091460384FF05C066E0CE0101960E94FF
:1041D000252226960FB6F894DEBF0FBECDBFDF9125
:1041E000CF910895CF93DF93CAE0D0E080911A0376
:1041F00084FF1AC08091720290917302981789F01F
:1042000028E0829FC001112468E08C589D4F0E94D5
:1042100021228091720290E001968F7099278093FD
:104220007202DF91CF9108950E9429228FE99FE0C9
:104230000197F1F700C000002197C1F6F2CFFC0111
:10424000A0917302B0E09D012F5F3F4F2F70332785
:1042500080917202821771F083E0AA0FBB1F8A95CA
:10426000E1F7AC58BD4F88E001900D928A95E1F7D7
:10427000209373020E9429220C94F22082E491E0A0
:104280000895FC01808180768032D1F48181813073
:1042900041F48AE692E090932B0380932A0388E00E
:1042A0000895823041F484EF92E090932B03809341
:1042B0002A0381E008958A3029F483818093F402EF
:1042C00080E008958930E1F78281938181159240E1
:1042D00069F484819581892B49F481E08093690296
:1042E0008681978190936802809367028FEF08958B
:1042F000FC018091670290916802892B61F08091A6
:104300006902813041F490819093F5021092680225
:104310001092670208958FEF08950895FC0183813C
:10432000833059F130F48130C1F08230F1F080E017
:104330000895813209F444C08232C9F7848195819D
:10434000009709F44EC0019791F785E493E09093AC
:104350002B0380932A0381E8089583E093E09093F0
:104360002B0380932A0382E1089588EC92E09093D6
:104370002B0380932A038BE3089582818230C1F05E
:1043800050F481110DC081E493E090932B0380934E
:104390002A0384E00895833051F685E193E0F5CF58
:1043A00089E293E090932B0380932A0386E108959A
:1043B0008BE193E090932B0380932A038CE0089584
:1043C0008281882331F0813009F0B1CF83EF92E010
:1043D00002C08AED92E090932B0380932A0389E038
:1043E000089586EC93E090932B0380932A0380E456
:1043F00008951F93CF93DF93782F162FEA018881BA
:1044000084FF1CC0898128E882278983AE014E5F22
:104410005F4FFA01272F392F710FD9012F5F3F4FBF
:104420008C9181937213F9CF612FCA010E946102AE
:104430001C5F1883DF91CF911F9108958AE58883CF
:10444000E5CF4AE153E00C94F92146E453E00C94A3
:10445000F921CF93DF9360912C03635067FD12C065
:1044600080912803CCE0D0E0C81BD109C05DDC4FAF
:1044700080912703803108F059C0CE010E948D2120
:1044800010922C0380914D0184FF43C080914C0118
:104490008F3F09F43EC0C82F893008F0C8E0982F3C
:1044A0009C1B90934C0190910F0328E892279093C6
:1044B0000F03882301F180912A0390912B0320910F
:1044C000F6024C2F480F26FFAEC0FC0120E133E07E
:1044D0005491D9015C932F5F3F4F31964E13F8CF23
:1044E0002FEF2C0F30E02F5F3F4F820F931F9093E1
:1044F0002B0380932A036C2F80E193E00E946102DA
:1045000084E08C0FC83019F09FEF90934C0180939A
:104510004D0184E199B19C7031F48150D9F710922A
:104520002D0310922603DF91CF9108958D3209F06B
:1045300067C0683009F0A4CF83EC80930F038AE54D
:1045400080934D011092F6028881807671F0CE0141
:104550000E9441218F3FC1F4988197FD8E8190E8A0
:104560009093F60280934C018BCF2A81109218030E
:104570009981911111C01092190328E133E082E072
:1045800030932B0320932A039F819111EBCF9E81BF
:10459000981740F7892FE6CF953029F420932D0303
:1045A00028E133E0EDCF963099F49B81913021F4EE
:1045B000CE010E948E2108C09230D1F39330C1F316
:1045C0009132B1F39232A1F390E49093F602C2CF0C
:1045D000983079F0993019F420932F03E1CF9A3075
:1045E00061F09B30E9F69BE490931B0390934703A3
:1045F000D7CF2FE233E081E0C3CF28E133E0FBCF18
:104600008091F60287FF3CCFCE010E9478218F3F38
:1046100021F48EE180934D0133CF882309F430CF0C
:1046200010924C012DCFE0E1F3E09C01D9012F5F06
:104630003F4F5C9151934213F9CF52CFE9E6F0E03E
:10464000808188608083E99AAAE1B3E08BE41196C7
:104650008C931197E6E4F3E081838AE58C93808361
:10466000089597FB072E16F4009407D077FD09D024
:104670000E944B2307FC05D03EF4909581959F4FF7
:104680000895709561957F4F0895EE0FFF1F059077
:10469000F491E02D0994AA1BBB1B51E107C0AA1F8E
:1046A000BB1FA617B70710F0A61BB70B881F991FD3
:1046B0005A95A9F780959095BC01CD010895AEE07B
:1046C000B0E0E5E6F3E20C944E260D891E898F8951
:1046D000988D26E02C831A83098397FF02C080E01F
:1046E00090E801979E838D83AE01455E5F4F698D93
:1046F0007A8DCE0101960E948F234D815E8157FDF8
:104700000AC02F813885421753070CF49A01020F13
:10471000131FF80110822E96E4E00C946A26ABE099
:10472000B0E0E5E9F3E20C9440267C013B018A010C
:10473000FC0117821682838181FFB9C19AE0292E7C
:10474000CE0101965C01F7019381F30193FD859100
:1047500093FF81913F01882309F446C1853239F4E2
:1047600093FD859193FF81913F01853229F4B70133
:1047700090E00E947025E7CF912C412C512CFFE155
:10478000F51538F08B3209F188F4803201F183326B
:1047900021F157FC3AC020ED280F2A3040F556FE93
:1047A0001FC0929C200D1124922E06C08D3291F0D4
:1047B000803379F7689450F8F30193FD859193FF66
:1047C00081913F018111DBCF20C0689451F868943A
:1047D00052F8F2CF689453F8EFCF689454F8ECCFC6
:1047E000429C200D1124422E689455F8E5CF8E325C
:1047F00029F456FCF9C0689456F8DECF8C3619F4CB
:10480000689457F8D9CF8836B9F2982F9F7D955480
:104810009330C0F08336A1F18337C1F1833509F0BD
:104820005BC0F801C190D1908F01692D70E056FCFA
:1048300002C06FEF7FEFC6010E945A254C016894B9
:1048400057F80AC00C5F1F4F2FE3298388248394F5
:10485000912C6501E89457F853FC04C048141904DE
:1048600009F018F5342C8114910431F5332009F442
:104870006ACFB70180E290E00E9470253A94F6CFAB
:10488000F801808189830E5F1F4FE0CFF801C1904E
:10489000D1908F01692D70E056FC02C06FEF7FEF61
:1048A000C6010E9465254C01D5CFB70180E290E09A
:1048B0000E9470254A94D2CFF60157FC859157FE8D
:1048C00081916F01B70190E00E94702531103A94F8
:1048D000F1E08F1A9108C7CF843619F0893609F0B4
:1048E00074C0F80157FE6AC06191719181919191F4
:1048F0008F01252D2F76D22E97FF09C09095809598
:10490000709561957F4F8F4F9F4F6894D7F82AE03D
:1049100030E0A5010E94A025C82ECA188C2C5D2C61
:10492000D6FE0CC0E89450F8C91440F4D4FE05C07B
:10493000D2FC03C0FD2DFE7E5F2E892C54FE8FC05D
:10494000FE01EC0DF11D8081803309F081C0252D21
:10495000297E522E852D8870382E53FC8FC050FE34
:1049600089C09C2C841418F44C0C942C981854FE78
:104970008BC0B70180E390E00E94702552FE09C011
:1049800088E790E051FE02C088E590E0B7010E9400
:104990007025C91408F484C0CA94D12C9FEFC91A99
:1049A000D90ACA0CDB1CF60182916F01B70190E0B5
:1049B0000E947025AC14BD04B1F758CF619171917C
:1049C000072E000C880B990B93CFD52CE894D4F8C4
:1049D0002AE030E0853739F1952D997FD92E8F3631
:1049E00001F148F48835A9F0F701868197812B966B
:1049F000E2E10C945C26803749F08837A9F7D4FEB1
:104A000002C06894D2F820E130E00DC06894D4F878
:104A1000F6CF54FE03C0E92FE660DE2E20E132E03F
:104A200002C028E030E0F801D7FE0DC0619171911D
:104A3000819191918F01A5010E94A025C82ECA18CD
:104A4000E894D7F86BCF6191719190E080E0F2CF5C
:104A500052FC02C083947ECF839483947BCF852DB8
:104A6000867809F477CFF6CFB70180E290E00E9414
:104A7000702583948414C0F3312C79CF342C3818EA
:104A8000841408F474CFF8CF852D867809F481CF8B
:104A90008BE251FE80E257FC8DE2B70190E077CFC8
:104AA000B70180E390E00E9470259A9472CF8FEF57
:104AB0009FEF9DCFFC010590615070400110D8F729
:104AC000809590958E0F9F1F0895FC016150704056
:104AD00001900110D8F7809590958E0F9F1F089533
:104AE0000F931F93CF93DF93182F092FEB018B8127
:104AF00081FD09C01FEF0FEF812F902FDF91CF9124
:104B00001F910F91089582FF14C02E813F818C81E7
:104B10009D81281739073CF4E881F981CF0101967E
:104B20009983888310838E819F8101969F838E83D2
:104B3000E3CFE885F985812F0995892BA1F3DACF99
:104B4000FA01AA27283051F1203181F1E8946F93BE
:104B50006E7F6E5F7F4F8F4F9F4FAF4FB1E03ED064
:104B6000B4E03CD0670F781F891F9A1FA11D680F02
:104B7000791F8A1F911DA11D6A0F711D811D911D35
:104B8000A11D20D009F468943F912AE0269F1124AA
:104B90003019305D3193DEF6CF010895462F47700E
:104BA000405D4193B3E00FD0C9F7F6CF462F4F7069
:104BB000405D4A3318F0495D31FD4052419302D0C7
:104BC000A9F7EACFB4E0A69597958795779567956D
:104BD000BA95C9F700976105710508959B01AC016D
:104BE0000A2E06945795479537952795BA95C9F794
:104BF000620F731F841F951FA01D0895F999FECFA2
:104C000092BD81BDF89A992780B50895A8E1B0E0DA
:104C100042E050E00C943226262FF999FECF92BD47
:104C200081BDF89A019700B4021639F01FBA20BD71
:104C30000FB6F894FA9AF99A0FBE08950396272FA3
:104C40000E940D260E940C26252F0E940D26242F3F
:104C50000C940D260196272F0E940D260C940C26ED
:104C6000DC01CB01FC01F999FECF06C0F2BDE1BD2C
:104C7000F89A319600B40D9241505040B8F708951B
:104C80002F923F924F925F926F927F928F929F925C
:104C9000AF92BF92CF92DF92EF92FF920F931F934A
:104CA000CF93DF93CDB7DEB7CA1BDB0B0FB6F894FB
:104CB000DEBF0FBECDBF09942A88398848885F843B
:104CC0006E847D848C849B84AA84B984C884DF80AC
:104CD000EE80FD800C811B81AA81B981CE0FD11D90
:104CE0000FB6F894DEBF0FBECDBFED010895F89466
:104CF000FFCF010A070A0B0A190A1D0A210A250A11
:104D00002B0A330A370A3B0A3F0A4B0A4F0A530A57
:104D1000570A5D0A7B0A650A0F0A150A430A470A01
:104D20002F0A610A710A840A880AA60FA60F0810C2
:104D300008105D107910D60FD60FBD1070118111BB
:104D40008111E211D60FD60FEB11E01ED71EEE1E19
:104D5000D21E281F281FD21E281F281F0A1F281FE7
:104D6000151F281F281F281F281F281FD21E281F75
:104D7000281FD21E281FFC1E281FCC1E261F261FE0
:104D8000261F261F261F261F261F261F261F201F01
:104D9000281FE01ED41E281F281F281F281F281F79
:104DA000281F281F281F281F281F201F281F281FD3
:104DB000D21E281F241F241F241F241F241F241F2A
:084DC000241F241F241F201FE3
:104DC800D10AE10AF00A000000000000000000001B
:104DD800000000003001D10AE10AF00A00000000DA
:104DE800000000000000000000002C01E3003E006D
:104DF800E1003900FFAF000147022808641E140AC9
:104E0800321E9A201F21CF20CB20C720FF5AE20054
:104E1800E900EA00B500B600B700CD008301CC0078
:104E28008A0192019401210223022402250226020A
:104E380027022A02B300B4006F00700030979695DD
:104E48003231606162639190343533940A25640A83
:104E580000E200E900EA00B500B600B700CD008323
:104E680001CC008A01920194012102230224022527
:104E780002260227022A02B300B4006F0070000164
:0A4E880002030405060708090000F4
:00000001FF
