:100000000C9403020C944A020C9465020C944A026C
:100010000C944A020C944A020C944A020C944A0230
:100020000C944A020C944A020C944A020C947B1FD2
:100030000C944A020C944A020C946A1A0C944A02D8
:100040000C944A020C944A020C944A020C944A0200
:100050000C944A020C944A020C944A020C944A02F0
:100060000C944A020C944A02290014001A00080059
:10007000150017001C0018000C00120013002A00C5
:100080002B0004001600070009000A000B000D00F9
:100090000E000F002F00300000571D001B0006004F
:1000A0001900050011001000330034003100D95C44
:1000B000E000E300E200E60001512C432C43025132
:1000C000360037003800640029001E001F002000A1
:1000D00021002200230024002500260027002A00FA
:1000E00001003A003B003C003D003E003F000000A4
:1000F00000004B004E004C00010040004100420057
:100100004300440045004600AC004A004D00280072
:10011000010001000100010000002C002C00000083
:10012000BB00AA00A900AE0029004A0052004D0001
:100130004B00000000000000F0002D002E002A00FF
:100140000100500051004F004E0000000000F2007E
:10015000F100F300F6004C00010000000000000078
:10016000000000000000F400AC00F50000002800D2
:10017000010001000100010000002C002C00000023
:10018000AB00AA00A900AE00015C4A0052004D007D
:100190004B000000000000005F00600061005400A0
:1001A0000100500051004F004E0000000000000010
:1001B0005C005D005E0055000100000000000000D2
:1001C000000000000000000059005A005B005600CB
:1001D000010001000100010000000000000000001B
:1001E000620063005800570000000000000000009B
:1001F0002A2B280000000000000000000000000082
:1002000000000029000000002C1E3420212224348C
:100210002627252E362D3738271E1F20212223245E
:1002200025263333362E37381F0405060708090AFA
:100230000B0C0D0E0F101112131415161718191A96
:100240001B1C1D2F3130232D350405060708090A14
:100250000B0C0D0E0F101112131415161718191A76
:100260001B1C1D2F3130354C000000000000000029
:100270000000000000000000000000007E0F00D41D
:10028000FFFFFFC700000078000000000000000032
:10029000000000010204060A0F17202C3A4A5D7183
:1002A000879DB3C7DAE9F5FCFFFCF5E9DAC7B39D32
:1002B00087715D4A3A2C20170F0A060402010000DC
:1002C000000000000000000009023B00020100A045
:1002D00032090400000103010100092101010001AC
:1002E0002240000705810308000109040100010301
:1002F000000000092101010001228100070583039C
:100300000800011201100100000008C016DB2702DE
:1003100000010203010403300000000C0350006CD4
:10032000006100690064000000160364006D00397C
:10033000007200650063006F0072006400730000CB
:10034000000403090405010902A10185020901A1B4
:10035000000509190129051500250195057501817B
:1003600002950175038103050109300931158125C5
:100370007F95027508810609381581257F950175DD
:10038000088106050C0A38021581257F950175083C
:100390008106C0C005010980A101850319012AB7A2
:1003A00000150126B700950175108100C0050C09E4
:1003B00001A101850419012AA002150126A00295B8
:1003C0000175108100C005010906A101050719E0AA
:1003D00029E7150025019508750181029501750829
:1003E00081030507190029FF150026FF00950675F2
:1003F00008810005081901290595057501910295E7
:100400000175039103C011241FBECFEFD8E0DEBFFA
:10041000CDBF04B603FE27C0809138039091390305
:10042000A0913A03B0913B038730904BA740B04B6B
:10043000D1F4109238031092390310923A031092BB
:100440003B0314BE84B7877F84BF0FB6F894A8958A
:1004500080916000886180936000109260000FBE00
:10046000E0E0F8E3099511E0A0E0B1E0E2EFFCE4A0
:1004700002C005900D92A03BB107D9F723E0A0EB95
:10048000B1E001C01D92A833B207E1F70E94BA1F84
:100490000C940C260C940000A82FB92F80E090E05B
:1004A00041E050EA609530E009C02D918227979590
:1004B000879510F084279527305EC8F36F5FA8F307
:1004C0000895EADF8D939D930895CF93CFB7CF938F
:1004D000DF93C3954B9BE9F74B9B10C04B9B0EC022
:1004E0004B9B0CC04B9B0AC04B9B08C04B9B06C050
:1004F000C0910F03C395C0930F038EC06F93C0913B
:100500000E03DD27CA5EDC4F2F9365E54B9B03C0CE
:100510002F916F91E1CF0F931F934F9320E040E114
:100520005F9309B10C7003FB27F93F9350E03BE068
:1005300039C01C7040642F77012F5F5F1EC0406878
:1005400019B11C702F7752501FC0406409B12F772A
:100550000C70D1F15F5F00C023C0406219B12F77EA
:100560001C7091F15F5F00C025C00C7010275150C6
:1005700012F45D5F0000115027952C3F19B1C8F6A9
:100580001C700127015027952C3FC8F6422749933C
:1005900009B10C7010274F73115027952C3FA8F606
:1005A0004695469519B11C7079F0012701502795A1
:1005B0002C3F98F66B5A60F3315009B1B0F600C089
:1005C00012E01CBB00271CC03B503195C31BD04020
:1005D00012E01CBB0881033C21F10B3411F1209186
:1005E0000C031981110F1213EDCF4A81441F0936F4
:1005F00069F10D3211F0013E29F74F7009F0042F17
:10060000009314033F915F914F911F910F912F9190
:100610006F91CCB3C1FD5DCFDF91CF91CFBFCF91B3
:10062000189520911403222369F3109112031123CA
:10063000E9F53430EAF13093120320930D03109161
:100640000E033BE0311B30930E0332C000911203C6
:10065000013064F50AE54F7049F43091330134FDFF
:1006600028C000933301C5EFD2E027C0433049F0E2
:100670003091000334FD1DC000930003C1E0D3E0BE
:100680001CC030912C0334FD14C000932C03CDE228
:10069000D3E013C0052710E000C000000BB91AC05A
:1006A000052710E0221F1DC010E021C04AE502C04E
:1006B00032ED432FC4E1D0E032E01AB11C605B9A06
:1006C0000BB11AB95CE020E865E320FF05270BB900
:1006D000279517951C3FF0F66695B8F7B1F720FF00
:1006E00005270BB9279517951C3FD0F62795179529
:1006F00017FF052700001C3F0BB9B0F629913A956A
:1007000019F7037F10911303110FC651D0400BB995
:1007100011F010930C0312E01CBB08601AB1137F98
:10072000402F437F54E05A95F1F70BB91AB94BB9F2
:1007300069CF0C94A1030C94A4070C941B040C9493
:100740002E050E94040D80FD06C083E50E943E0E2A
:1007500083E50C94D40E0895CF93DF939C01FB01A5
:100760009A9581159F4160F5E901CC27D170D90197
:10077000AA27B270B90166277470A901442758707E
:1007800034FF10C080E1CD2B09F480E0AB2B09F0E1
:100790008062672B09F08064452B09F08068DF9147
:1007A000CF91099481E0CD2B09F480E0AB2B09F0C7
:1007B0008260672B09F08460452B89F38860EFCF56
:1007C000DF91CF910895CF93DF93EC01805E910983
:1007D000089720F063E172E1209711F46DE37FE068
:1007E000CE010E94AC038C2FDF91CF910C943E0E72
:1007F000CF93DF93EC010E94D40ECE01805E91096D
:10080000089720F06AE172E1209711F464E47FE038
:10081000CE01DF91CF910C94AC03CF93DF93D82F0F
:10082000C92F0E94E3038D2F9C2FDF91CF910C9451
:10083000F80381E0089581E0089508950C941D0463
:100840001F93CF93DF9300D000D00F92CDB7DEB7C8
:1008500049835A836B833091CC0189819A8131110C
:100860001DC06623B9F02223A9F00E94E117182FBA
:10087000682F89819A810E948A1769817A81812FE4
:100880000F900F900F900F900F90DF91CF911F91CD
:100890000C949B050E94B817182FEFCF0E94E11708
:1008A00069817A81EDCFFC01262F408151816281DF
:1008B000738184810C942004CF93DF93D82FC92FA8
:1008C00060E00E9453046D2F7C2FDF91CF910C9438
:1008D0001E04FF920F931F93CF93DF93E82FF0E056
:1008E000E851FE4FF490C82FC695C695C695D0E046
:1008F000FE01E858FD4F0491877010E0082E02C0F9
:10090000159507950A94E2F701701127C859DD4F34
:10091000FE01C491D0E002C0D595C7958A95E2F753
:10092000C170DD270115110519F081EE0E943E0E00
:10093000209719F086EE0E943E0E8F2D0E942A0FFE
:10094000CD2B19F086EE0E94D40E012B41F081EEE2
:10095000DF91CF911F910F91FF900C94D40EDF91F6
:10096000CF911F910F91FF900895EF92FF920F93F7
:100970001F93CF93DF93EC01162F0AE08881882321
:1009800009F456C0813009F050C08981813061F48A
:100990007E0122E0E20EF11CCA818C2F0E943E0EE5
:1009A0008C2F0E94D40E09C0823099F47E0182E01F
:1009B000E80EF11C8A810E943E0EE7012196812FEC
:1009C0008150E0F2EFE9FFE03197F1F700C000005D
:1009D000F7CF833031F47E01E2E0EE0EF11C8A8124
:1009E000E0CF843011F02196E9CF2A81229690E061
:1009F00080E0AE014F5F5F4F2053330B2A3031054B
:100A000048F00197D8F2EFE9FFE03197F1F700C025
:100A10000000F7CF089FB001099F700D1124C90194
:100A2000860F971F2981EA01E4CF0E946904C6CF8F
:100A3000DF91CF911F910F91FF90EF90089560E0AB
:100A40000C94B5040E943319811102C00E94D01980
:100A50000C9499030E94C30B0C949B03089581E0AE
:100A600008950C942F05CF93C82F0E949F038C2FBD
:100A7000CF910C94310508950E9437120E943B05D6
:100A80002FEF84E39CE0215080409040E1F700C0CC
:100A900000000C948E1A0F931F93CF93DF93EC01F9
:100AA00061E00E9453048C01BE010E94220BBE0132
:100AB000C8010E949D03882389F1BE01C8010E94DC
:100AC000690B882359F1BE01C8010E948E0C88234E
:100AD00029F1BE01C8010E9453098823F9F0BE0123
:100AE000C8010E9497098823C9F0BE01C8010E946D
:100AF0006A0A882399F08A81882339F001158CE5E8
:100B0000180751F00E3D1C4579F0CE01DF91CF91D1
:100B10001F910F910C9419040E943C0580E0DF9115
:100B2000CF911F910F9108950E94D019F7CF90E0B7
:100B300080E008950895972F70E02CE0929F600D5B
:100B4000711D1124FB0190E3899FE00DF11D11241B
:100B5000EE0FFF1FE859FF4F859194910895FC0116
:100B6000EE0FFF1FE857FD4F859194910895CF93A5
:100B7000DF930E949B050E94C906EC01811520E5C8
:100B8000920708F04BC0811530E4930708F0B2C01B
:100B9000803E910518F5803C910508F09FC0883A89
:100BA000910570F4853A910508F095C08130910562
:100BB00029F10497813A910508F1D0E0C0E01EC008
:100BC0008F3B9105D1F3C85AD0E0CC0FDD1FCC5C30
:100BD000DE4F0990D881C02DD46410C0811540E249
:100BE000940780F48F3F910509F040F4883E910509
:100BF00028F0805F9109D0654097F8F6CE01DF912B
:100C0000CF910895C11580E3D80708F46DC0CE01D7
:100C10009927D3FD6CC0EC01D06CF0CFC11595E5E0
:100C2000D90760F5C11524E5D20708F094C0C115B5
:100C300033E5D30778F4C11542E5D40708F07AC04C
:100C4000C11581E5D80708F458C0DC2FCC27C16F47
:100C5000D06AD4CFCE018370992721E030E002C062
:100C6000220F331F8A95E2F7C695C69590E2C99F79
:100C7000E0011124C22BD32BDA68C0CFC1152AE5BD
:100C8000D207B0F4C11539E5D30708F074C0C11517
:100C900046E5D40708F464C0CE0198558F3F91050E
:100CA00011F008F08ACFDC2FCC27C06FD06AA6CF16
:100CB000CE0190568115904208F07FCF8D2F8F7115
:100CC0000E94610790E0982F882788279F719C01D8
:100CD0002C2BE9014EC0A497D06490CF805C910981
:100CE0000E94AF05EC018ACFCE019F70F9CFEC01D5
:100CF000D86C84CFDF70D06A81CFCE0174E0969536
:100D000087957A95E1F783702C2F26952695237089
:100D100040E2249F90011124382B8C2F8370C1E076
:100D2000D0E002C0CC0FDD1F8A95E2F7C22BD32B97
:100D3000DC6864CFCE018370992721E030E002C0E7
:100D4000220F331F8A95E2F7C695C69580E2C89FA9
:100D5000E0011124EBCFDC2FCC27C46FD06A4ECF3B
:100D60008C2F0E946107C82FD0E0DC2FCC27CC2726
:100D7000DF71D06243CF8C2F8F700E94610734E007
:100D8000D695C7953A95E1F7CF70DC2FC82FD0697B
:100D900035CF803E910599F1C8F48133910509F46E
:100DA00076C048F48932910509F46AC08A32910507
:100DB00009F474C0089589339105D1F08238910502
:100DC000B9F08533910509F454C00895843E910526
:100DD00099F138F4823E9105F9F0833E910509F1CD
:100DE0000895863E910599F1873E9105B9F10895E0
:100DF0002091F3022370A1F080EE90E008952091FD
:100E0000F30220FD52C03091F40230FF09C024FFEC
:100E10004FC090E080E004C02091F30222FDF7CFA4
:100E200008952091F30222FD46C03091F40230FD76
:100E3000E3CF24FFF5CFEDCF2091F40221FFF0CFD7
:100E40008091F30284FDE5CF87EE90E00895209134
:100E5000F30223FFE5CF24FDDCCFF6CF2091F30290
:100E600023FD2CC03091F40231FFE3CF84EE90E0FB
:100E700008952091F30225FFD3CF89E290E00895F1
:100E80002091F30225FFCCCF85E390E008952091D7
:100E9000F30226FFC5CF8AE290E008952091F30285
:100EA00026FFBECF81E390E0089589E390E00895A6
:100EB00083EE90E0089582EE90E0089586EE90E053
:100EC00008959091F30292FF06C0282F28712830D0
:100ED000F9F4877F846093FF06C0282F287128319A
:100EE000F1F4877E84612091F40220FF06C0382F40
:100EF00038713830D9F4877F816021FF06C0282FF0
:100F000028712831D1F4877E816194FD877E089510
:100F1000282F24712430F9F68B7F8860DCCF282FAE
:100F20002471243101F78B7E8861DDCF382F317138
:100F3000313019F78E7F8860E0CF282F2171213161
:100F400021F78E7E8861E1CF0895E82FF0E0EE0F63
:100F5000FF1FEB51FD4F808191810895089580EA34
:100F60008A95F1F70895CF93DF93AEE6B1E042E7BB
:100F700051E0C1E0D0E08D91E82FE295EF70F0E014
:100F800061A18F709E0101C0220F8A95EAF7922F0E
:100F90009095962391A382A1822B82A34A175B0787
:100FA00051F7A2E6B1E04EE651E0C1E0D0E08D910C
:100FB000E82FE295EF70F0E061A18F709E0101C013
:100FC000220F8A95EAF7922F9095962391A382A1FA
:100FD000822B82A34A175B0751F71092DE02109210
:100FE000DD021092E6021092E5021092E0021092E9
:100FF000DF021092E8021092E7021092E2021092D1
:10100000E1021092EA021092E9021092E4021092B8
:10101000E3021092EC021092EB0284E00E94AC0812
:10102000DF91CF910C9422054F925F926F927F9245
:101030008F929F92AF92BF92CF92DF92EF92FF92E8
:101040000F931F93CF93DF938DEDE82E82E0F82E60
:101050009EE6A92E91E0B92E512C88248394912CE0
:10106000D7016D907D907D01FD01129212928F014A
:10107000D5018D915D01C82FC295CF70D0E099A1A7
:101080008F70640101C0CC0C8A95EAF7892F8C29F6
:1010900089A38AA14C2C409484218AA30E94AF0783
:1010A000E2E6F1E030E020E06191A62FA295AF707A
:1010B000B0E090968C91D8014D915C9190E06F706A
:1010C00002C0959587956A95E2F780FD42C0C401FC
:1010D000022E02C0880F991F0A94E2F7482B592B61
:1010E000D80111965C934E932F5F3F4F2C30310502
:1010F000D9F689A1482249A28AA1C82ACAA281E0B8
:101100002D913C912615370509F480E0582AB5EE5B
:10111000EB16B2E0FB0609F0A3CF252D44E065EE07
:1011200072E08DED92E00E94AD080E942A05852DA7
:10113000DF91CF911F910F91FF90EF90DF90CF90B3
:10114000BF90AF909F908F907F906F905F904F90E7
:10115000089590E080E0C2CF0895FF920F931F930F
:10116000CF93DF93F82E092F162FD72FC42F2223CA
:1011700049F081E08093B2010E944F1A9093B1012F
:101180008093B0018091B2018823A1F08091B001D9
:101190009091B1010E945B1A069760F0EF2DF02F3D
:1011A000A12FBD2F90E080E0D0E08C179D0744F088
:1011B0001092B201DF91CF911F910F91FF9008958E
:1011C000219131912D933D930196EFCF0F931F9372
:1011D000CF93DF93C62FD42F022FFC018281882367
:1011E000C9F06093B5010E944F1A9093B4018093A7
:1011F000B30180E28C0F883008F050C0C77081E0E6
:1012000001C0880FCA95EAF7DF91CF911F910F9126
:101210000C943D0F1091B501161335C08091B301A8
:101220009091B4010E945B1A883C910560F5C0E280
:10123000CD0F1D17B9F080E2810F883040F4177090
:1012400081E001C0880F1A95EAF70E94440FC83068
:1012500048F481E09D2F977001C0880F9A95EAF7B6
:101260000E943D0F802F0E942A0FC830B8F4D7701B
:1012700081E001C0880FDA95EAF7DF91CF911F91E5
:101280000F910C94440F80E28C0F883038F4C770B3
:1012900081E001C0880FCA95EAF7EFCFDF91CF91C7
:1012A0001F910F9108959C01CB01233F4CE534071A
:1012B00069F190F4283DFCE53F0721F1293D4CE51B
:1012C000340781F1273D3C45B1F0FC018281882340
:1012D00061F11092B5010895253FFCE53F07D1F07B
:1012E000263F4CE53407D1F0243F3C4571F727E217
:1012F00045EE64EE03C026E241EE61EE0E94E60890
:1013000080E0089527E245EE65EEF8CF26E241EE53
:1013100060EEF4CF26E241EE62EEF0CF27E245EE3A
:1013200066EEECCF28E241E0EFCF81E00895CF9365
:10133000DF93EC01FB018281882309F4C9C0C63127
:10134000FCE5DF07E0F4C2309CE5D907F0F00E942D
:1013500046199093F4028093F302C631ECE5DE0760
:1013600020F5C230FCE5DF0798F48091F3029091FC
:10137000F4020E9454190E94371280E006C09E01B8
:101380002A5F3C452930310510F3DF91CF91089554
:10139000FE01E350FC458091F3028160E331F105E9
:1013A00088F4E25FF94D0C94DA22CA5FDC45C9305B
:1013B000D105D8F6CF5DD94DFE010C94DA2280918B
:1013C000F30282608093F302D0CF8091F3028460B5
:1013D000F9CF8091F3028860F5CF8091F4028160AB
:1013E0008093F402C2CF8091F4028260F9CF8091A1
:1013F000F3028061E7CF8091F3028062E3CF8091B6
:10140000F3028064DFCF0E9437128091F30280687C
:10141000D9CF8091F3028C60D5CF8091F4028360A4
:10142000DFCF8091F3028E7FCDCF8091F3028D7F4D
:10143000C9CF8091F3028B7FC5CF8091F302877F64
:10144000C1CF8091F4028E7FCBCF8091F4028D7F4B
:10145000C7CF8091F3028F7EB5CF8091F3028F7D4D
:10146000B1CF8091F3028F7BADCF0E943712809174
:10147000F3028F77A7CF8091F302837FA3CF809170
:10148000F4028C7FADCF8091F30282FB992790F913
:1014900021E0922790FB82F990FB83F993CF809112
:1014A000F402982F909591708E7F892B90FB81F993
:1014B00097CF0E9437129091F302892F97FB87F9FB
:1014C000805880CF81E00E94D2194FCF80E0FBCFBF
:1014D00081E05BCFCF93DF93EB0186319C4511F523
:1014E0000E947E189A81992399F08A7A91E009F4F2
:1014F00090E09093B601811109C089E20E945918C9
:101500000E94D01880E0DF91CF91089585E3F6CF57
:101510008091B601811104C089E20E946018F0CF69
:1015200085E3FBCF81E0EFCFCF93DF93EC0181E048
:10153000898B8F810E94811888850E9495180E944E
:10154000D018EA81FB81309739F06C897D89CE0112
:101550000696DF91CF910994DF91CF910895CF93B3
:10156000DF93EC01FB018881823031F48281938129
:101570000E94E30381E08B87DF91CF910895FB0107
:10158000DC018C91813021F4808191810C94E30302
:10159000823019F482819381F9CF0895FB01DC0137
:1015A0008C91813021F4808191810C94F8038230F8
:1015B00019F482819381F9CF0895EF92FF920F93EE
:1015C0001F93CF93DF93EC018A85811134C0EB80A8
:1015D000FC8087E5F81A26E12E9DC0012F9D900D15
:1015E0001124DC01A050BF4F1496ED91FC9115978A
:1015F000309731F054966D917C918A5F9E4F09959A
:1016000086E18E9D80018F9D100D112400501F4F8B
:10161000F80187810E948718F80180850E949B1835
:101620000E94D018188219861B861E821D82109275
:10163000B8011092B701DF91CF911F910F91FF90E8
:10164000EF900895DF92EF92FF920F931F93CF9345
:10165000DF938C01FB018281882391F080911A0134
:101660008F3F71F0C0E0D1E0F12CE12CDD24D39468
:1016700080911A01082E000C990B8E159F0544F4D9
:10168000DF91CF911F910F91FF90EF90DF90089520
:101690008E818823C9F089859A858017910739F44E
:1016A0008091B7019091B8018017910769F0DF86AA
:1016B0001C870B878989811103C0CE010E94940A7F
:1016C000CE0106960E94DD0AFFEFEF1AFF0A66962A
:1016D000CFCFEF92FF920F931F93CF93DF938C01A5
:1016E000FB0197558F3F910509F0D0F520911A0124
:1016F000022E000C330B2817390714F480931A01BB
:10170000228136E1389F7001399FF00C1124E701E6
:10171000C050DF4F288B92818E81992349F11A871F
:1017200009878F5F8E830E944F1A9E878D870E9444
:10173000B7188F830E947E1888870E949218988518
:10174000982B9887E881F981309731F06C897D89F1
:10175000C7018A5F9E4F09951093B8010093B701A6
:1017600081E0DF91CF911F910F91FF90EF9008954D
:101770008823B1F38989882399F3C7018A5F9E4F33
:101780000E94DD0AEDCFEF92FF920F931F93CF934C
:10179000DF9380911A0110E006E18F3FC1F5DF91E0
:1017A000CF911F910F91FF90EF900895029FF0014C
:1017B000039FF00D1124E050FF4FE288F388E114FD
:1017C000F10419F488ECE82EF12C029FE001039F4C
:1017D000D00D1124C050DF4F8E818823B9F08D8544
:1017E0009E850E945B1AE816F90680F4109F70012E
:1017F00011248989811105C0C70180509F4F0E9423
:10180000940AC7018A5F9E4F0E94DD0A1F5F212F45
:1018100030E080911A01082E000C990B8217930773
:101820002CF6BDCF0F931F93CF93DF93CDB7DEB7C9
:1018300028970FB6F894DEBF0FBECDBF80911C0174
:101840008F9380911B018F9382E791E09F938F93F9
:101850001F9288E08F938E010F5F1F4F1F930F938E
:101860000E94F422C8010E941F050FB6F894DEBF43
:101870000FBECDBF28960FB6F894DEBF0FBECDBF0A
:10188000DF91CF911F910F910895CF93DF93D82FC0
:10189000C92F0E944F1A9093BC018093BB01D09333
:1018A000B901C093BA01DF91CF9108958091B90138
:1018B0009091BA01892BE1F08091BB019091BC011C
:1018C0000E945B1A20911B0130911C0128173907D7
:1018D00080F48091B9019091BA0192600E940D0448
:1018E0001092BC011092BB011092BA011092B90182
:1018F00008958091B9010E942A0FF2CF10921D0124
:101900000C94560C80911D01882321F010921D012A
:101910000C94560C81E080931D0108951F93CF9382
:10192000DF93EC01FB011281112309F464C08931BA
:101930009C4509F456C0CA318CE5D807B0F5C731CB
:10194000ECE5DE0709F43FC080911B0190911C017A
:101950000597C831FCE5DF07D9F1C933D10508F592
:10196000CD32D10530F4C832D105A8F4C430D10548
:10197000A8F00E94560C80911D01882369F10E94F5
:101980007E18811129C0CE010E94450C82E00E9480
:101990001B1910E021C0CB32D10559F30E94560C1F
:1019A0001BC0C436D10529F3F9CFCB318CE5D8075C
:1019B000D9F0CC31ECE5DE07D9F0CA31DC4571F75E
:1019C0000E94820C09C080911B0190911C01059618
:1019D00090931C0180931B01812FDF91CF911F9168
:1019E00008950E94120CF8CF81E080931D01F4CF7E
:1019F0000E947E0CF1CF0E94560C11E0EDCF909327
:101A0000C2018093C1010895E091C101F091C2012A
:101A1000309721F00190F081E02D099480E0089545
:101A2000E091C101F091C201309721F00280F38171
:101A3000E02D09940895E091C101F091C201309721
:101A400021F00480F581E02D099408952091BF01D3
:101A50003091C0012817390771F09093C00180932D
:101A6000BF01E091C101F091C201309721F00680E1
:101A7000F781E02D099408952091BD013091BE01B8
:101A80002817390771F09093BE018093BD01E09152
:101A9000C101F091C201309721F00084F185E02D61
:101AA00009940895089508950C94520D08950C9486
:101AB000560D0E94530D0C94540D81E008950C9422
:101AC0005D0D0E94461A0E94B3070E94A31A0C944F
:101AD000570D9F92AF92BF92CF92DF92EF92FF92FB
:101AE0000F931F93CF93DF9300D000D00F92CDB709
:101AF000DEB70E9414080E945F0D882309F46EC0AF
:101B000054ECA52E51E0B52E10E000E0902E802F71
:101B10000E94A5077C01F501C190D1905F01C81614
:101B2000D90609F455C08091380281FD0E94AE07A4
:101B300096012E253F2580E0CC24C394D12CA90109
:101B40004C215D21452BF1F189839A82EC20FD2007
:101B500081E0EF2809F480E08B830E944F1A8160B6
:101B6000782F9D838C8349815A816B818D810E945E
:101B7000100E000F111FF801EC53FE4F8081918170
:101B8000C826D926D182C0820E94421C0E94040D20
:101B90009091C301891799F10E94040D8093C301AC
:101BA0000F900F900F900F900F90DF91CF911F919A
:101BB0000F91FF90EF90DF90CF90BF90AF909F90EC
:101BC0000C9433058F5FCC0CDD1C8C3009F0B7CF43
:101BD0000F5F1F4F0430110509F098CF8FEF8983F5
:101BE0008A831B820E944F1A8160782F9D838C8389
:101BF00049815A816B818D810E94100EC5CF0F9053
:101C00000F900F900F900F90DF91CF911F910F9138
:101C1000FF90EF90DF90CF90BF90AF909F9008958E
:101C2000CF93DF93CDB7DEB72B970FB6F894DEBF17
:101C30000FBECDBF4F83588769877A878B871E82F7
:101C400085E0FE013796DE01119601900D928A958E
:101C5000E1F749815A816B817C818D819E812B9630
:101C60000FB6F894DEBF0FBECDBFDF91CF910C94BD
:101C70009A14FC01808191810C942318CF93C82F72
:101C8000882309F48FC08238C1F40E94040D81FDBD
:101C900089C089E30E9459180E94D0182FEF31EEB5
:101CA00084E0215030408040E1F700C0000089E32B
:101CB0000E946018CF910C94D0188338A1F40E9430
:101CC000040D80FD6FC083E50E9459180E94D01852
:101CD0009FEF21EE34E0915020403040E1F700C00A
:101CE000000083E5E5CF8438A1F40E94040D82FD55
:101CF00059C087E40E9459180E94D0188FEF91EEC6
:101D000024E0815090402040E1F700C0000087E4CB
:101D1000CFCF8CEF8C0F813AB8F48C2F0E94CE1E5F
:101D2000811140C06C2F80911E0190911F010E9473
:101D3000E919882329F08C2F0E9460180E94D0187E
:101D40008C2F0E945918B6CF80E28C0F883048F44F
:101D5000C77081E001C0880FCA95EAF70E94811818
:101D6000A9CF8BE58C0F833038F42C2F2452330B02
:101D7000C901CF910C94260DE8E5EC0FE73150F442
:101D8000F0E0EE0FFF1FE958FE4F80819181CF9167
:101D90000C943C0DC03F30F08C2F0E94501BCF9113
:101DA0000C94371CCF910895882309F452C08238CF
:101DB00071F40E94040D81FF4CC089E30E94591800
:101DC0000E94D01889E30E9460180C94D0188338C0
:101DD00059F40E94040D80FF3CC083E50E9459180D
:101DE0000E94D01883E5EFCF843859F40E94040D87
:101DF00082FF2FC087E40E9459180E94D01887E400
:101E0000E2CF9CEF980F913AF0F290E2980F983061
:101E100050F4877091E001C0990F8A95EAF7892FF5
:101E20000E948718D2CF9BE5980F933020F490E062
:101E300080E00C94260D98E5980F973120F490E0FF
:101E400080E00C943C0D803F20F00E94B81B0C9465
:101E5000371C0895CF93C82F0E943E0EC93349F412
:101E60002FEF87EE93E0215080409040E1F700C0D3
:101E700000008C2FCF910C94D40E882321F00E9467
:101E800081180C94D0180895882321F00E94871897
:101E90000C94D0180895AF92BF92CF92DF92EF9238
:101EA000FF920F931F93CF93DF9300D000D00F9238
:101EB000CDB7DEB76C016D837983FC010581029596
:101EC0000F70128111110E94A3180E947718E82E3A
:101ED000882371F01123B1F08D81805E883090F0FD
:101EE00082E00E941B190E94771891E0E82EE926F3
:101EF000A980A2949FE0A922B12CF501E65DF94DDD
:101F00000C94DA22E12CF4CF09810F70F981F07F73
:101F100011F00295007F1123B1F0002361F08D8153
:101F2000805E883018F02D81211109C0802F0E9419
:101F300081180E94D0188D810E943E0E15C0802FFE
:101F40000E949518F6CF8D810E94D40E002361F077
:101F50008D81805E883018F04D81411133C0802F13
:101F60000E9487180E94D01858E0A51AB10864E0B2
:101F7000A616B10420F40E94040D0E943305EE2041
:101F800009F40EC20E94731880FD0AC2F601128283
:101F90000E946D180E947A16C6010E94F7110E94D5
:101FA0006D180F900F900F900F900F90DF91CF91C1
:101FB0001F910F91FF90EF90DF90CF90BF90AF9067
:101FC0000C94AB16802F0E949B18CCCF59815F7068
:101FD000F52E6981607F603219F0F29480EFF8226B
:101FE0007D81772369F0713049F1112391F100234C
:101FF00051F1F601858180FF9ECF8F70858323C0CC
:10200000112381F0011106C00E94B7188F290E9488
:102010003D0FAACF0130C1F70E94B7188F290E9447
:10202000BD18A2CF011106C00E94C6188F2D0E94B4
:10203000440F9ACF013009F497CFF6CF112329F03E
:10204000063008F091CF8F2DE2CF053008F08CCF0D
:10205000EDCF002359F3FD81F93349F42FEF47EE1B
:1020600053E0215040405040E1F700C000008D8116
:102070000E94D40E79CF898186958695837069F008
:10208000813009F071CF8D8199819370111102C057
:1020900090E080E00E943C0D67CF8D819981937024
:1020A000111102C090E080E00E94260D5DCF112347
:1020B00011F16D81653F99F0663FB9F0643F49F4D5
:1020C0008091ED029091EE0281609093EE028093F8
:1020D000ED028D810E94501B0E94371C45CF8091DC
:1020E000ED029091EE028260F0CF8091ED0290912E
:1020F000EE028460EACF7D81753F89F0763FA9F0DA
:10210000743F49F48091ED029091EE028E7F90939E
:10211000EE028093ED028D810E94B81BDDCF80918D
:10212000ED029091EE028D7FF2CF8091ED029091C1
:10213000EE028B7FECCF8981837009F059C01111B9
:1021400013CF4D81429546954770440F440F8D81C2
:102150008F7090E0B0E0A0E0042E04C0880F991FBB
:10216000AA1FBB1F0A94D2F7ED8100E010E098018E
:10217000E4FF0FC00FE010E020E030E004C0000FEB
:10218000111F221F331F4A95D2F7009510952095F5
:102190003095F981F695F695F370FD83B901A801A4
:1021A000482B592B6A2B7B2B49835A836B837C8367
:1021B000F23081F0F330A9F0F13029F0CB01BA010F
:1021C0000E94F015D1CE69817A818B819C810E9419
:1021D000C815CACE69817A818B819C810E941816AC
:1021E000C3CE69817A818B819C810E94C615BCCE49
:1021F0008695112311F089818170882309F4B4CE6A
:102200004D81429546954770440F440F8D818F70E4
:1022100090E0B0E0A0E0042E04C0880F991FAA1F30
:10222000BB1F0A94D2F75D8100E010E0980154FFD3
:102230000FC00FE010E020E030E004C0000F111FDD
:10224000221F331F4A95D2F700951095209530959F
:1022500069816695669563706D83B901A801482B05
:10226000592B6A2B7B2B49835A836B837C835D813B
:1022700069817A818B819C81523051F0533059F0C1
:10228000513019F00E9439176FCE0E9411176CCE91
:102290000E94611769CE0E94441666CE69816F70F4
:1022A0006983112329F0862F0E947A168D81AFCE83
:1022B0008D810E94440F89810E94AB1655CE7D818D
:1022C000723FA1F160F4703FE1F0713F41F11123E1
:1022D00009F445C001112FCE89818F7124C08D81F1
:1022E000833F49F1843F99F7112379F199819F71D7
:1022F0009983892F0E947A1663E089810E940619CA
:1023000033CE112341F0053008F02ECE89818F7134
:102310000E94E01629CE063008F026CEF7CF89813C
:102320008F71112349F20E947A161ECE89818F7116
:102330001123C9F3C1CF112329F089818F710E9424
:10234000551612CE0E9450160FCE81E00E941B1926
:10235000023008F409CE82E00E941B1905CE00234A
:1023600061F0ED81E93309F082CEFFEF27EE43E023
:10237000F15020404040E1F778CE89818F719CCFA9
:1023800049814F706D81C6010E9497050E943A15E0
:10239000EBCD49814F706D81C6010E949A05E4CD55
:1023A0000F900F900F900F900F90DF91CF911F9192
:1023B0000F91FF90EF90DF90CF90BF90AF90089576
:1023C0000F931F93CF93DF93EC01688179818A810A
:1023D0000E942F188C010E9489170E94C515B80110
:1023E000CE01DF91CF911F910F910C944B0FCF93A2
:1023F000DF93EC018B819C81892B29F08881998165
:1024000089238F3F19F4DF91CF910895CE010E9467
:102410004B058823C1F3CE010E94E011CE01DF916C
:10242000CF910C945C04882321F00E9495180C94A1
:10243000D0180895882321F00E949B180C94D0187E
:1024400008950E94A3180E94B4180E94D0180E94F8
:102450005B1D0E94371C90E080E00E94260D90E0FA
:1024600080E00C943C0D0E9467180C9421120E948D
:102470008F180C943312282F892F82958F70903CDF
:1024800080F48A30B0F4843020F4823090F480E01C
:1024900008958630E1F781E0283E88F0213FB9F7C2
:1024A0000EC08C3011F08F3091F793FB882780F9A4
:1024B000089581E0203F39F018F4283E40F7089550
:1024C000243F29F7FCCF08950E9423180C943B1257
:1024D000CF93DF9300D000D00F92CDB7DEB70F902F
:1024E0000F900F900F900F90DF91CF910895CF93A1
:1024F000DF9300D000D000D0CDB7DEB726960FB660
:10250000F894DEBF0FBECDBFDF91CF9108951F932A
:10251000CF93DF93E091CD0116E08091CE018E1331
:1025200004C0DF91CF911F910895CE2FD0E01E9F60
:10253000F0011124E153FE4F40815181628173818A
:10254000848195810E947712FE013196E770E5CF74
:102550004091FF01509100026091010270910202CE
:1025600080910302909104020C9477121F93CF93F1
:10257000DF9380910402807FA9F480910102882377
:1025800089F08091CD01C091CE016091FF017091E1
:102590000002A0910202B0910302D62FD72316E0C9
:1025A000C81304C0DF91CF911F91089590E0109758
:1025B00011F0DF3F19F401968770F2CF189F900158
:1025C000199F300D1124F901E153FE4F418147134A
:1025D000F2CF40814613EFCF42814111ECCF4381CE
:1025E00054814A1B5B0B483C510528F7809104023B
:1025F0008F70806180930402F901EC52FE4F80815C
:102600008F70806180838FEF91E00E94F711DF91DE
:10261000CF911F910C948712AF92BF92CF92DF920D
:10262000EF92FF920F931F93CF93DF93CDB7DEB757
:102630002B970FB6F894DEBF0FBECDBF8C0185E09F
:10264000F801DE01179601900D928A95E1F7F801E5
:1026500040815181E2808FEFC82E81E0D82E6091B9
:102660000202709103026115710509F444C1909151
:10267000FF0120910002822F89238F3F09F43BC183
:10268000A380B480F0900102F501E61BF70BFF2058
:1026900009F4E0C080910402382F307FE83CF10556
:1026A00008F0B2C0311179C0FE2C251323C0941359
:1026B00021C0E1101FC08F708061809304020E94CE
:1026C000A812C6010E94F71180910402F8018583C7
:1026D0008F2D2B960FB6F894DEBF0FBECDBFDF91C6
:1026E000CF911F910F91FF90EF90DF90CF90BF900F
:1026F000AF900895AB2829F0842F85238F3F09F0F0
:1027000016C180E0F82FF170DF2EE091CD0120910D
:10271000CE0136E080FD1CC0EE20D1F28091040293
:10272000816080930402F12CD3CF8E2F90E03E9FE6
:10273000F0011124E153FE4F6181651306C06081F1
:10274000641303C06281E612E7CFFC013196E770A3
:10275000E213EBCF4F8358878F8198850E9423180F
:10276000292F22952F70903260F0225F2F70223037
:1027700078F49F7051F0F8019581907F31F4D12C5D
:102780000AC09F7011F08823D1F3805E8830B8F3BF
:10279000C8010E94F711FD2C9BCF251306C094138E
:1027A00004C0F801EE2009F470C04F8358878F8170
:1027B00098850E946412882319F1EE2009F1809116
:1027C0000402803270F02091FF01309100023A83C0
:1027D00029831B82BD82AC828E83CE0101960E942A
:1027E000F71186E0F801AFEFB1E001900D928A9504
:1027F000E1F70E94B6120E94A812FF24F39468CF5A
:10280000C8010E94F711F9CF311113C07A2DBB8690
:10281000AA866E2D8B850E9468128FEF91E00E9430
:10282000F71186E0F60111928A95E9F70E94A81245
:102830007ACF2513BACF9413B8CFE110B6CFF801F1
:102840008583C8010E94F71186E0F60111928A95EE
:10285000E9F73ECFE83CF10508F040C0FE2CEE2041
:1028600079F225132AC0941328C08091040280FDB8
:102870001BC0982F907FC1F0F8018583903F31F005
:10288000982F907F905F8F70892B8583C8010E945D
:10289000F71186E0F801AFEFB1E001900D928A9553
:1028A000E1F70E94A81214CF86E0F801AFEFB1E083
:1028B00001900D928A95E1F70BCF4F8358878F8156
:1028C00098850E94641281118CCF809104028160EE
:1028D00080930402C8010E94F711FACE7A2DBB86BC
:1028E000AA866E2D8B850E94681286E0F6011192F1
:1028F0008A95E9F7D6CFEE2009F482CF4F83588727
:102900008F8198850E946412F82E882309F478CF6D
:1029100086E0F801AFEFB1E001900D928A95E1F702
:102920008FEF91E00E94390E0E94B612BACF81E07B
:102930008E25E8CE1F93CF93DF93CDB7DEB72C97CC
:102940000FB6F894DEBF0FBECDBF4F83588769879F
:102950007A878B879C87CE0107960E940C13882369
:1029600069F08A859B85892B39F04F815885842FA2
:1029700085238F3F09F077C016E065C086E0FE0131
:102980003796DE01119601900D928A95E1F76A85DE
:102990007B856115710581F35F814885842F8523CF
:1029A0008F3F51F32091CE0130E0C901019687702D
:1029B0009927E091CD01E817190671F40E943712AA
:1029C0001092CE011092CD0186E0EFEFF1E0DF0131
:1029D0001D928A95E9F7D0CF59834A837D836C8312
:1029E00096E0929FD001939FB00D1124A153BE4F4A
:1029F000FE01319601900D929A95E1F78093CE01F8
:102A00000E948712B9CF819FC001112481539E4F2C
:102A10000E940C138823E9F0E091CD011E9FF00184
:102A20001124E153FE4F4081518162817381848181
:102A300095810E9477128091CD0190E00196877078
:102A400099278093CD018091CD019091CE0189137A
:102A5000DACF2C960FB6F894DEBF0FBECDBFDF9154
:102A6000CF911F91089569857A858B859C850E94F9
:102A7000771282CFEF92FF920F931F93CF93DF9342
:102A80008C01892B89F0F12CEE24E394E801219646
:102A9000F8018491843709F457C0A0F4823009F416
:102AA0003EC048F48130D1F0DF91CF911F910F915A
:102AB000FF90EF9008959CEF980F9037A8F70E9431
:102AC0003E0E0AC0853709F44CC09CE7980F90373A
:102AD00058F78F770E94D40E8E0116C00E5F1F4FDD
:102AE000FE01849190E2980F983060F48770FE2D7B
:102AF00001C0FF0F8A95EAF78F2F0E94A6180E9447
:102B0000D01802C00E943E0E8F2D815008F4BECF17
:102B1000EFE9FFE03197F1F700C00000F6CF0E5F5C
:102B20001F4FFE01849190E2980F983050F4877007
:102B3000FE2D01C0FF0F8A95EAF78F2F0E94AC1877
:102B4000DECF0E94D40EE0CF0E5F1F4FFE01C49176
:102B5000C150D0F28FE99FE00197F1F700C000006B
:102B6000F7CF0E5F1F4FFE01F490CECF08950C9467
:102B7000B6150E94B71560932702709328028093C0
:102B8000290290932A020C94211208950C94B915ED
:102B9000CF93DF9300D000D0CDB7DEB769837A83BF
:102BA0008B839C838091270290912802A091290217
:102BB000B0912A0229813A814B815C81282B392BE3
:102BC0004A2B5B2B29833A834B835C83CA01B9016F
:102BD0000F900F900F900F90DF91CF910C94B9153B
:102BE000CF93DF9300D000D0CDB7DEB769837A836F
:102BF0008B839C838091270290912802A0912902C7
:102C0000B0912A0229813A814B815C8128233923A2
:102C10004A235B2329833A834B835C83CA01B9012E
:102C20000F900F900F900F90DF91CF910C94B915EA
:102C3000CF93DF9300D000D0CDB7DEB769837A831E
:102C40008B839C838091270290912802A091290276
:102C5000B0912A0229813A814B815C81282739274A
:102C60004A275B2729833A834B835C83CA01B901D6
:102C70000F900F900F900F90DF91CF910C94B9159A
:102C80000C94B6150C9440160E94421660932302D1
:102C90007093240280932502909326020C942112B3
:102CA00060E070E0CB010C9444160F931F93CF9318
:102CB000DF9300D000D0CDB7DEB741E050E060E058
:102CC00070E08A019B0104C0000F111F221F331FF7
:102CD0008A95D2F709831A832B833C83C901B801F3
:102CE0000F900F900F900F90DF91CF911F910F9148
:102CF0000C9444160F931F93CF93DF9300D000D012
:102D0000CDB7DEB741E050E060E070E004C0440FB2
:102D1000551F661F771F8A95D2F7809123029091E5
:102D20002402A0912502B09126028A019B01082B62
:102D3000192B2A2B3B2B09831A832B833C83C90134
:102D4000B8010F900F900F900F90DF91CF911F91CE
:102D50000F910C9444160F931F93CF93DF9300D0E1
:102D600000D0CDB7DEB741E050E060E070E004C0D5
:102D7000440F551F661F771F8A95D2F740955095CF
:102D8000609570958091230290912402A091250274
:102D9000B09126028A019B01082319232A233B2391
:102DA00009831A832B833C83C901B8010F900F90CC
:102DB0000F900F90DF91CF911F910F910C944416BB
:102DC0000F931F93CF93DF9300D000D0CDB7DEB722
:102DD00041E050E060E070E004C0440F551F661F02
:102DE000771F8A95D2F78091230290912402A091B7
:102DF0002502B09126028A019B01082719272A275C
:102E00003B2709831A832B833C83C901B8010F90A8
:102E10000F900F900F90DF91CF911F910F910C9415
:102E20004416CF93DF9300D000D0CDB7DEB76983CF
:102E30007A838B839C838091230290912402A091BA
:102E40002502B091260229813A814B815C81282B91
:102E5000392B4A2B5B2B29833A834B835C83CA0132
:102E6000B9010F900F900F900F90DF91CF910C94BC
:102E70004416CF93DF9300D000D0CDB7DEB769837F
:102E80007A838B839C838091230290912402A0916A
:102E90002502B091260229813A814B815C81282349
:102EA00039234A235B2329833A834B835C83CA01FA
:102EB000B9010F900F900F900F90DF91CF910C946C
:102EC0004416CF93DF9300D000D0CDB7DEB769832F
:102ED0007A838B839C838091230290912402A0911A
:102EE0002502B091260229813A814B815C812827F5
:102EF00039274A275B2729833A834B835C83CA019E
:102F0000B9010F900F900F900F90DF91CF910C941B
:102F100044160895E82F2CE0929FE00D11248E2F87
:102F2000877041E001C0440F8A95EAF7E695E6957F
:102F3000E69585E0E89FF0011124EB5FFD4F30E05E
:102F400020E070E05191DF011197CB01022E02C009
:102F5000969587950A94E2F7817081958527842359
:102F600085278C932F5F3F4F2530310559F7089502
:102F7000E82F2CE0929FE00D11249E2F9770E6958C
:102F8000E695E69585E0E89FF0011124EB5FFD4FA3
:102F900050E040E080E0219130E0092E02C03695FB
:102FA00027950A94E2F721703327042E01C0220FDF
:102FB0000A94EAF7822B4F5F5F4F4530510559F76E
:102FC0000895BF92CF92DF92EF92FF920F931F93DB
:102FD000CF93DF938C01C0902302D0902402E09025
:102FE0002502F09026028091270290912802A0915C
:102FF0002902B0912A02C82AD92AEA2AFB2ACFE15B
:10300000D0E0BC2ED701C6010C2E04C0B695A79502
:10301000979587950A94D2F780FD0EC0219788F77F
:10302000B12C8B2DDF91CF911F910F91FF90EF90DD
:10303000DF90CF90BF900895B8018C2F0E94B70504
:10304000019761F3EECFCF93DF93D82FC92F0E9462
:10305000E1176D2F7C2FDF91CF910C94B7051F9353
:10306000CF93DF93162FD72F9091CC01992339F06E
:10307000862F972FDF91CF911F910C9423188823CF
:1030800091F0862F972F0E94E117C82F682F812F6C
:103090009D2F0E948A17612F7D2F8C2FDF91CF915A
:1030A0001F910C94B705862F972F0E94B817C82F31
:1030B000F2CF682F80911E0190911F010C94231A6A
:1030C000682F80911E0190911F010C94251A809108
:1030D0001E0190911F010C94271A80912B02859557
:1030E00085958595089580912B028770089590911C
:1030F0002B02977081E009F480E0089580913702F7
:10310000089590913702982B909337020895982F45
:103110009095809137028923809337020895109209
:103120003702089580913602089590913602982BC7
:10313000909336020895982F9095809136028923B6
:1031400080933602089510923602089590913502C8
:10315000982B909335020895982F90958091350281
:103160008923809335020895109235020895809145
:103170002C02089508950C94BA1890912C02981777
:1031800021F080932C020C94BB18089580912C029E
:10319000882329F010922C0280E00C94BB1808952B
:1031A000E0911E01F0911F01809137028083E09130
:1031B0001E01F0911F01808190913602892B80833E
:1031C000E0911E01F0911F01808190913502892BC1
:1031D000808390912C02992381F0E0911E01F0915F
:1031E0001F018081892B808380911E0190911F0196
:1031F0000E94D71981110E94C61880911E019091DA
:103200001F010C94100D08950C94031998E0899FE8
:1032100090011124622B60932B020E947A168091F8
:103220002B028595859585950C94041910922B0297
:1032300080E00C94041990912B028095892380934F
:103240002B02282F277071F4282F082E000C330B27
:103250009217130639F08595859585950E94AB16D2
:103260000C941619089590E080E00E949B259C0123
:1032700081E02C3E3E4F09F080E0089582E090E02E
:103280000C94932583E090E00C949325CF9384E0F5
:1032900090E00E949325C82F81E290E00E94932540
:1032A000982F8C2FCF910895CF93682FC92F84E04A
:1032B00090E00E94A1256C2F81E290E0CF910C94C8
:1032C000A125AB01BC018FE090E00C94B325AB01CC
:1032D000BC0183E190E00C94B32560E070E0CB0189
:1032E0000C94671960E070E0CB010E9461190C94A6
:1032F0006D196CEE7EEF90E080E00E94BF2560E0EB
:1033000082E090E00E94A12560E083E090E00E94CE
:10331000A1251092270210922802109229021092E1
:103320002A0260E084E090E00E94A12560E081E252
:1033300090E00E94A12560E085E090E00E94A12538
:1033400060E086E090E00E94A1256FEF87E090E0CA
:103350000E94A12540E050E0BA0188E090E00E9480
:10336000B32560E08DE090E00E94A12540E050E0B0
:10337000BA0188E190E00E94B32560E087E190E027
:103380000E94A12540E050E0BA018CE190E00E944B
:10339000B32560E080E290E00E94A1250C947219B0
:1033A0000C947919682F8EE090E00C94A125AC0163
:1033B0009C012E5F3F4F485F5F4F80E02417350729
:1033C00009F40895F90191919F019923B9F38F5F51
:1033D000F5CF9C01662351F0FC013296285F3F4FE8
:1033E0008191861729F0E217F307D1F780E008955D
:1033F00081E008959C01FC0132968FEF90E04191AD
:10340000461751F08F3F19F4411101C0892F9F5F7A
:103410009630A9F78F3F09F40895280F311D87FDD5
:103420003A95F901628308959C01FC013296285F68
:103430003F4F8191861303C0DF0111971C92E21761
:10344000F307B9F708950C94FA190C94141AFC01B7
:10345000329686E0DF011D928A95E9F70895089576
:103460000895CF930E942F1A0E9414080E94301AC8
:10347000C0E08C2F0E94A507892B31F4CF5FC430A8
:10348000C1F780E0CF91089581E0FCCF82E084BD58
:1034900093E095BD9AEF97BD80936E0008952FB786
:1034A000F8948091EF029091F002A091F102B09116
:1034B000F2022FBF08959C014FB7F8948091EF025C
:1034C0009091F002A091F102B091F2024FBF821BE5
:1034D000930B089578941F921FB61F9211248F9317
:1034E0009F93AF93BF938091EF029091F002A091D0
:1034F000F102B091F2020196A11DB11D8093EF027D
:103500009093F002A093F102B093F202BF91AF91B9
:103510009F918F911F901FBE1F90189588E198E092
:103520000FB6F894A895809360000FBE909360004A
:10353000A895F894D8E0CEEF28E3299320E02993CA
:1035400014BEFFCF0895CF93DF9300D000D0CDB746
:10355000DEB70E943319811102C00E94D0190E9467
:103560003E19809338020E9446199093F40280938A
:10357000F3020E944219282F30E050E040E02983F6
:103580003A834B835C83CA01B9010F900F900F906F
:103590000F90DF91CF910C94C6158091400280FF6F
:1035A00012C06091250185E0689FB00111247595D6
:1035B00067957595679560387105A8F56115710572
:1035C000A1F1862F089581FF09C06091250185E052
:1035D000689FB001112475956795EDCF6091250125
:1035E00082FD0AC080913F028823D1F0909124018E
:1035F00060912501891728F085E0689FB0011124AA
:10360000DACF869FB001112485E0869F9001879FC5
:10361000300D1124692F70E0C9010E94C622CBCF62
:1036200065E070E0CECF8FE7089581E00895809146
:10363000400280FF0CC06091210170E07595679594
:10364000759567956115710549F1862F089581FF7C
:1036500006C06091210170E075956795F3CF609188
:10366000210182FD0BC090913F029923A1F060914E
:10367000200180912101961738F0682F70E06038A2
:10368000710500F38FE70895899FC001112470E050
:103690000E94C622F4CF61E070E0D7CF81E00895A8
:1036A000803F31F40E94CD1A8195809343020895A2
:1036B000813F19F40E94CD1AF8CF823F31F40E9465
:1036C000CD1A8195809342020895833F19F40E9498
:1036D000CD1AF8CF893F29F40E94171B809344022A
:1036E00008958A3F21F40E94171B8195F7CF8B3FE5
:1036F00031F40E94171B81958093450208958C3FF9
:1037000019F40E94171BF8CF843F31F480914102D5
:103710008160809341020895853F21F480914102A8
:103720008260F7CF863F21F4809141028460F1CF1F
:10373000873F21F4809141028860EBCF883F21F4DC
:10374000809141028061E5CF8D3F31F4809140024C
:1037500081608093400208958E3F21F48091400261
:103760008260F7CF8F3FB9F7809140028460F1CF3C
:1037700090914202803F41F48091430287FD109274
:103780004302992371F00895813F29F48091430207
:103790001816ACF3F6CF823F81F497FFF2CF109268
:1037A00042028091430290914402892B90914502FC
:1037B000892B49F710923F020895833F19F4191697
:1037C00074F3DFCF893F39F4809144021816CCF6A8
:1037D00010924402D6CF8A3F29F48091440287FF99
:1037E000D0CFF6CF8B3F39F48091450287FFC9CF08
:1037F00010924502C6CF8C3F29F4809145021816DD
:10380000BCF3BFCF843F31F4809141028E7F80931F
:103810004102B7CF853F21F4809141028D7FF7CFE0
:10382000863F21F4809141028B7FF1CF873F21F4C5
:1038300080914102877FEBCF883F21F48091410244
:103840008F7EE5CF8D3F31F4809140028E7F809353
:10385000400297CF8E3F21F4809140028D7FF7CFB9
:103860008F3F09F08ECF809140028B7FF0CF81E4B3
:1038700092E00E941B0D0E944F1A90933E0280938B
:103880003D020895CF93DF9300D000D00F92CDB7C3
:10389000DEB785E0E1E4F2E0DE01119601900D92E1
:1038A0008A95E1F78091420290914302892B81F041
:1038B00080913B0290913C020E945B1A9C01809196
:1038C0003F02882329F1909126019217130668F18F
:1038D0008091440290914502892B91F080913902A8
:1038E00090913A020E945B1A9C0180913F028823CA
:1038F00009F477C0909122019217130608F47FC053
:103900000F900F900F900F900F90DF91CF9108952F
:10391000409127019AE0499FA001112442175307C3
:10392000B8F68F5F80933F0202C08F3FD1F71092AD
:1039300044021092450280914202181624F40E941B
:10394000CD1A809342028091420287FF05C00E94F7
:10395000CD1A81958093420280914302181624F477
:103960000E94CD1A809343028091430287FF05C0D5
:103970000E94CD1A819580934302309142023323F5
:10398000A1F020914302222381F045EB3403C001D2
:1039900011249923F1F09093420245EB2403900106
:1039A00011243323D1F0309343020E94371C8091BD
:1039B0003D0290913E0290933C0280933B0285E051
:1039C000FE013196A1E4B2E001900D928A95E1F7F3
:1039D0007FCF81E080934202E0CF81E08093430279
:1039E000E4CF409123019AE0499FA001112442179E
:1039F000530708F085CF8F5F80933F0202C08F3F4F
:103A0000D1F710924202109243028091440218169C
:103A100024F40E94171B809344028091440287FF84
:103A200005C00E94171B8195809344028091450236
:103A3000181624F40E94171B8093450280914502BA
:103A400087FF05C00E94171B819580934502309126
:103A500044023323A1F020914502222381F045EB5B
:103A60003403C00111249923F1F09093440245EBF3
:103A70002403900111243323D1F0309345020E9496
:103A8000371C80913D0290913E0290933A028093C0
:103A9000390285E0FE013196A1E4B2E001900D9279
:103AA0008A95E1F72DCF81E080934402E0CF81E059
:103AB00080934502E4CF85E0E1E4F2E0DF011D926E
:103AC0008A95E9F710923F021092400208958430DF
:103AD00009F442C038F48230E9F0833061F181307A
:103AE00041F00895853009F448C0863009F456C085
:103AF000089580912701482F460F5527551F4F3FA6
:103B0000510524F4680F6093270108958FEF809387
:103B10002701089580912601482F460F5527551FEC
:103B20004F3F510524F4680F6093260108958FEFED
:103B300080932601089580912501482F460F55272F
:103B4000551F4F3F510524F4680F609325010895D8
:103B50008FEF80932501089580912401482F460F0F
:103B60005527551F4F3F510524F4680F60932401DA
:103B700008958FEF80932401089580912101482FAB
:103B8000460F5527551F4F3F510524F4680F60938A
:103B9000210108958FEF80932101089580912001E4
:103BA000482F460F5527551F4F3F510524F4680FE6
:103BB0006093200108958FEF809320010895843051
:103BC00071F138F48230A9F08330F1F0813031F0B6
:103BD0000895853079F18630C1F1089580912701EB
:103BE000681720F4861B80932701089510922701FF
:103BF000089580912601681720F4861B8093260182
:103C0000089510922601089580912501681720F4E7
:103C1000861B8093250108951092250108958091B7
:103C20002401681720F4861B8093240108951092C4
:103C30002401089580912101681720F4861B809348
:103C400021010895109221010895809120016817A3
:103C500020F4861B8093200108951092200108957E
:103C60000F931F93CF93DF9300D000D0CDB7DEB773
:103C700041E050E060E070E08A019B0104C0000F69
:103C8000111F221F331F8A95D2F709831A832B83B2
:103C90003C83C901B8010E94C6150F900F900F9088
:103CA0000F90DF91CF911F910F910C943712EBEF92
:103CB000E80FEF3308F061C0F0E0E65CF94D0C94DA
:103CC000DA220E94741F0E94040D0E94330581E0D5
:103CD00008950E94D019FBCF80913802807F809395
:103CE000380281E08093470208950E9437122FEF37
:103CF00083ED90E3215080409040E1F700C0000048
:103D00000E948E1AE4CF90913802892F8E7F90FF07
:103D100081608093380280FDDACF817F8093380202
:103D2000D6CF90913802892F8D7F91FF826080934A
:103D3000380281FFCCCF809138028160EFCF909123
:103D40003802892F8B7F92FF84608093380282FD36
:103D5000F2CFBDCF90913802892F877F93FF886083
:103D60008093380283FDE7CFB2CF80E00E94301EFF
:103D7000AECF8953FBCF8D51F9CF80E0089580E01D
:103D800008950C94BF1E8E518A3030F4E82FF0E075
:103D9000EB55FE4F8081089580E00895CF93C82FA2
:103DA000809147028130A1F08230A1F181117AC067
:103DB0000E947E18823209F077C08C2F0E94BF1EAD
:103DC00081111BC08C2F0E94571E8170CF910895C6
:103DD0000E947E18823289F38C2F0E94C11E8111AD
:103DE0000AC0C431A1F060F4CB3029F0C03169F7CA
:103DF00082E08093470281E0E8CF81E090E0E5CF68
:103E0000C93229F081E0C83301F380E0DECF10929F
:103E10004702FBCFCB3469F198F4C43240F4CE3181
:103E200000F5C73061F1C43121F081E0CFCFC93254
:103E3000E1F780914602882381F010924602F5CF87
:103E4000C135A9F061E0C235A9F06AE0CE3469F766
:103E5000809146020E94DF1DE8CF81E080934702F7
:103E6000B5CF8C2F0E94C31E80934602DECF61E047
:103E7000EFCF6AE0809146020E94671DD6CF8EE1A7
:103E80008093270182E3809326018AE080932501B5
:103E900084E18093240188E08093210188E280936B
:103EA0002001C3CF1092470280E090CFE1E8F0E01C
:103EB0008081886080838081816080838FB7F8945F
:103EC00020ED33E030938900209388008FBF089560
:103ED000EFE6F0E08081826080830895EFE6F0E015
:103EE00080818D7F80830895EFE6F0E0808192E00D
:103EF0008927808308951F920F920FB60F92112485
:103F00002F933F934F935F936F937F938F939F93E1
:103F1000AF93BF93EF93FF93809148029091490232
:103F200001969093490280934802811103C082E078
:103F30000E943305E0914902E695E695F0E0E857E6
:103F4000FD4FE491809148028E1303C080E00E94EF
:103F50003305FF91EF91BF91AF919F918F917F9129
:103F60006F915F914F913F912F910F900FBE0F90E6
:103F70001F9018950E944F1AD82F192F80E8809310
:103F80006100109261000E94590D0E94D3200E948E
:103F9000FF0C0E94B322539A80E0815061F5539840
:103FA0007894FFEF20E732E0F15020403040E1F715
:103FB00000C000000E94610D0E94561FC0E00CE08E
:103FC00080910F03882309F110920F030E944F1A6A
:103FD000D82F192F0E946E1F0E94BE2180911503B9
:103FE000882329F08091000384FD0E94690D0E94BE
:103FF0008720C0E0E5CFA895EFE9FFE03197F1F722
:1040000000C00000CACFC1E0DBCF8D2F912F0E94EE
:104010005B1A069700F10E94681F0E94311AC82F90
:10402000882389F3F8949AB15B9A892F8C608AB9B6
:104030008BB180278BB98FE7E8E3F1E08150E04056
:10404000F040E1F700C000008BB180278BB99AB92E
:104050005B987894B5CFCC2309F4BECFDECF8091A6
:10406000DB020895CF93DF9300D00F92CDB7DEB778
:104070009B0190914C02981307C040914A025091C5
:104080004B024617570791F080934C0230934B0236
:1040900020934A0289833B832A8380912C0384FFE7
:1040A00005C063E0CE0101960E94BA210F900F90E7
:1040B0000F90DF91CF910895BC0184E00C943220E1
:1040C000BC0183E00C943220CF93DF9300D000D06A
:1040D00000D0CDB7DEB7FC0182E0898385E0DE0148
:1040E000129601900D928A95E1F780912C0384FF3E
:1040F00005C066E0CE0101960E94BA2126960FB651
:10410000F894DEBF0FBECDBFDF91CF910895CF935E
:10411000DF93CAE0D0E08091000384FF1AC0809151
:10412000580290915902981789F028E0829FC001A7
:10413000112468E0865A9D4F0E94B6218091580252
:1041400090E001968F70992780935802DF91CF916C
:1041500008950E94BE218FE99FE00197F1F700C00A
:1041600000002197C1F6F2CFFC01A0915902B0E006
:104170009D012F5F3F4F2F70332780915802821788
:1041800071F083E0AA0FBB1F8A95E1F7A65ABD4FD5
:1041900088E001900D928A95E1F7209359020E94E0
:1041A000BE210C94872088E291E00895FC01808173
:1041B00080768032D1F48181813041F480E592E0D3
:1041C000909311038093100388E00895823041F4A6
:1041D0008AED92E0909311038093100381E008959B
:1041E0008A3029F483818093DA0280E0089589304F
:1041F000E1F7828193818115924069F484819581F0
:10420000892B49F481E080934F02868197819093B6
:104210004E0280934D028FEF0895FC0180914D0274
:1042200090914E02892B61F080914F02813041F4D0
:1042300090819093DB0210924E0210924D020895ED
:104240008FEF08950895FC018381833059F130F494
:104250008130C1F08230F1F080E00895813209F4BC
:1042600044C08232C9F784819581009709F44EC019
:10427000019791F785E493E09093110380931003E5
:1042800081E8089583E093E09093110380931003F5
:1042900082E1089588EC92E09093110380931003DB
:1042A0008BE3089582818230C1F050F481110DC0FA
:1042B00081E493E0909311038093100384E00895C8
:1042C000833051F685E193E0F5CF89E293E0909356
:1042D00011038093100386E108958BE193E090939E
:1042E0001103809310038CE008958281882331F0BC
:1042F000813009F0B1CF83EF92E002C08AED92E005
:10430000909311038093100389E0089586EC93E065
:10431000909311038093100380E408951F93CF932B
:10432000DF93782F162FEA01888184FF1CC08981D2
:1043300028E882278983AE014E5F5F4FFA01272F5D
:10434000392F710FD9012F5F3F4F8C9181937213D9
:10435000F9CF612FCA010E9461021C5F1883DF91AF
:10436000CF911F9108958AE58883E5CF40E053E01F
:104370000C948E214CE253E00C948E21CF93DF936A
:1043800060911203635067FD12C080910E03CCE070
:10439000D0E0C81BD109CA5EDC4F80910D0380318B
:1043A00008F059C0CE010E94222110921203809180
:1043B000330184FF43C0809132018F3F09F43EC036
:1043C000C82F893008F0C8E0982F9C1B90933201C9
:1043D0009091F50228E892279093F502882301F145
:1043E00080911003909111032091DC024C2F480F13
:1043F00026FFAEC0FC0126EF32E05491D9015C9358
:104400002F5F3F4F31964E13F8CF2FEF2C0F30E038
:104410002F5F3F4F820F931F9093110380931003E0
:104420006C2F86EF92E00E94610284E08C0FC8300E
:1044300019F09FEF909332018093330184E199B199
:104440009C7031F48150D9F71092130310920C0331
:10445000DF91CF9108958D3209F067C0683009F07F
:10446000A4CF83EC8093F5028AE580933301109208
:10447000DC028881807671F0CE010E94D6208F3FC9
:10448000C1F4988197FD8E8190E89093DC0280932F
:1044900032018BCF2A811092FE029981911111C0B5
:1044A0001092FF022EEF32E082E03093110320934E
:1044B00010039F819111EBCF9E81981740F7892FB0
:1044C000E6CF953029F4209313032EEF32E0EDCFA1
:1044D000963099F49B81913021F4CE010E942321E2
:1044E00008C09230D1F39330C1F39132B1F39232DC
:1044F000A1F390E49093DC02C2CF983079F0993028
:1045000019F420931503E1CF9A3061F09B30E9F65E
:104510009BE49093010390932D03D7CF25E133E0E3
:1045200081E0C3CF2EEF32E0FBCF8091DC0287FF2A
:104530003CCFCE010E940D218F3F21F48EE180936C
:10454000330133CF882309F430CF109232012DCFBD
:10455000E6EFF2E09C01D9012F5F3F4F5C91519350
:104560004213F9CF52CFE9E6F0E080818860808382
:10457000E99AA0E0B3E08BE411968C931197ECE2FA
:10458000F3E081838AE58C938083089597FB072E5F
:1045900016F4009407D077FD09D00E94E02207FCB2
:1045A00005D03EF4909581959F4F08957095619543
:1045B0007F4F0895EE0FFF1F0590F491E02D0994B1
:1045C000AA1BBB1B51E107C0AA1FBB1FA617B70739
:1045D00010F0A61BB70B881F991F5A95A9F7809555
:1045E0009095BC01CD010895AEE0B0E0EAEFF2E2B3
:1045F0000C94E3250D891E898F89988D26E02C83E4
:104600001A83098397FF02C080E090E801979E8398
:104610008D83AE01455E5F4F698D7A8DCE01019627
:104620000E9424234D815E8157FD0AC02F81388569
:10463000421753070CF49A01020F131FF80110825E
:104640002E96E4E00C94FF25ABE0B0E0EAE2F3E262
:104650000C94D5257C013B018A01FC01178216824E
:10466000838181FFB9C19AE0292ECE0101965C01B8
:10467000F7019381F30193FD859193FF81913F01B0
:10468000882309F446C1853239F493FD859193FF5F
:1046900081913F01853229F4B70190E00E94052500
:1046A000E7CF912C412C512CFFE1F51538F08B32DE
:1046B00009F188F4803201F1833221F157FC3AC0CC
:1046C00020ED280F2A3040F556FE1FC0929C200D89
:1046D0001124922E06C08D3291F0803379F76894C0
:1046E00050F8F30193FD859193FF81913F01811172
:1046F000DBCF20C0689451F8689452F8F2CF6894E8
:1047000053F8EFCF689454F8ECCF429C200D11245D
:10471000422E689455F8E5CF8E3229F456FCF9C044
:10472000689456F8DECF8C3619F4689457F8D9CFD0
:104730008836B9F2982F9F7D95549330C0F0833618
:10474000A1F18337C1F1833509F05BC0F801C19055
:10475000D1908F01692D70E056FC02C06FEF7FEFA2
:10476000C6010E94EF244C01689457F80AC00C5F00
:104770001F4F2FE3298388248394912C6501E894AB
:1047800057F853FC04C04814190409F018F5342CE8
:104790008114910431F5332009F46ACFB70180E226
:1047A00090E00E9405253A94F6CFF8018081898334
:1047B0000E5F1F4FE0CFF801C190D1908F01692D9E
:1047C00070E056FC02C06FEF7FEFC6010E94FA2432
:1047D0004C01D5CFB70180E290E00E9405254A94B4
:1047E000D2CFF60157FC859157FE81916F01B70139
:1047F00090E00E94052531103A94F1E08F1A91085B
:10480000C7CF843619F0893609F074C0F80157FE15
:104810006AC061917191819191918F01252D2F76BF
:10482000D22E97FF09C090958095709561957F4F26
:104830008F4F9F4F6894D7F82AE030E0A5010E947F
:104840003525C82ECA188C2C5D2CD6FE0CC0E894D9
:1048500050F8C91440F4D4FE05C0D2FC03C0FD2DAD
:10486000FE7E5F2E892C54FE8FC0FE01EC0DF11DE3
:104870008081803309F081C0252D297E522E852D1F
:104880008870382E53FC8FC050FE89C09C2C841435
:1048900018F44C0C942C981854FE8BC0B70180E38C
:1048A00090E00E94052552FE09C088E790E051FE85
:1048B00002C088E590E0B7010E940525C91408F4FC
:1048C00084C0CA94D12C9FEFC91AD90ACA0CDB1C28
:1048D000F60182916F01B70190E00E940525AC14AA
:1048E000BD04B1F758CF61917191072E000C880B70
:1048F000990B93CFD52CE894D4F82AE030E0853793
:1049000039F1952D997FD92E8F3601F148F48835EC
:10491000A9F0F701868197812B96E2E10C94F125AD
:10492000803749F08837A9F7D4FE02C06894D2F8DE
:1049300020E130E00DC06894D4F8F6CF54FE03C0F7
:10494000E92FE660DE2E20E132E002C028E030E010
:10495000F801D7FE0DC061917191819191918F0104
:10496000A5010E943525C82ECA18E894D7F86BCF48
:104970006191719190E080E0F2CF52FC02C083948B
:104980007ECF839483947BCF852D867809F477CF6F
:10499000F6CFB70180E290E00E940525839484144D
:1049A000C0F3312C79CF342C3818841408F474CF28
:1049B000F8CF852D867809F481CF8BE251FE80E215
:1049C00057FC8DE2B70190E077CFB70180E390E02C
:1049D0000E9405259A9472CF8FEF9FEF9DCFFC0127
:1049E0000590615070400110D8F7809590958E0F1A
:1049F0009F1F0895FC016150704001900110D8F78D
:104A0000809590958E0F9F1F08950F931F93CF93BE
:104A1000DF93182F092FEB018B8181FD09C01FEF58
:104A20000FEF812F902FDF91CF911F910F9108955C
:104A300082FF14C02E813F818C819D812817390708
:104A40003CF4E881F981CF01019699838883108332
:104A50008E819F8101969F838E83E3CFE885F985C0
:104A6000812F0995892BA1F3DACFFA01AA272830E3
:104A700051F1203181F1E8946F936E7F6E5F7F4F2B
:104A80008F4F9F4FAF4FB1E03ED0B4E03CD0670FA7
:104A9000781F891F9A1FA11D680F791F8A1F911DFA
:104AA000A11D6A0F711D811D911DA11D20D009F44A
:104AB00068943F912AE0269F11243019305D31938C
:104AC000DEF6CF010895462F4770405D4193B3E075
:104AD0000FD0C9F7F6CF462F4F70405D4A3318F01C
:104AE000495D31FD4052419302D0A9F7EACFB4E0CD
:104AF000A6959795879577956795BA95C9F7009785
:104B00006105710508959B01AC010A2E0694579525
:104B1000479537952795BA95C9F7620F731F841F7C
:104B2000951FA01D0895F999FECF92BD81BDF89AF9
:104B3000992780B50895A8E1B0E042E050E00C94D8
:104B4000C725262FF999FECF92BD81BDF89A01970E
:104B500000B4021639F01FBA20BD0FB6F894FA9AC5
:104B6000F99A0FBE08950396272F0E94A2250E944E
:104B7000A125252F0E94A225242F0C94A225019661
:104B8000272F0E94A2250C94A125DC01CB01FC015A
:104B9000F999FECF06C0F2BDE1BDF89A319600B496
:104BA0000D9241505040B8F708952F923F924F9286
:104BB0005F926F927F928F929F92AF92BF92CF92AD
:104BC000DF92EF92FF920F931F93CF93DF93CDB7B6
:104BD000DEB7CA1BDB0B0FB6F894DEBF0FBECDBF2E
:104BE00009942A88398848885F846E847D848C84FF
:104BF0009B84AA84B984C884DF80EE80FD800C8108
:104C00001B81AA81B981CE0FD11D0FB6F894DEBFEA
:104C10000FBECDBFED010895F894FFCFDF09E50980
:104C2000E909F709FB09FF09030A090A110A150A2C
:104C3000190A1D0A290A2D0A310A350A3B0A590A9E
:104C4000430AED09F309210A250A0D0A3F0A4F0A12
:104C5000620A660A840F840FE60FE60F3B105710B6
:104C6000B40FB40F9B104E115F115F11C011B40F40
:104C7000B40FC911751E6C1E831E671EBD1EBD1E9E
:104C8000671EBD1EBD1E9F1EBD1EAA1EBD1EBD1ED3
:104C9000BD1EBD1EBD1E671EBD1EBD1E671EBD1EE8
:104CA000911EBD1E611EBB1EBB1EBB1EBB1EBB1EBE
:104CB000BB1EBB1EBB1EBB1EB51EBD1E751E691EC8
:104CC000BD1EBD1EBD1EBD1EBD1EBD1EBD1EBD1E0C
:104CD000BD1EBD1EB51EBD1EBD1E671EBD1EB91E5E
:104CE000B91EB91EB91EB91EB91EB91EB91EB91E0C
:024CF000B51EEF
:104CF200AF0ABF0ACE0A0000000000000000000058
:104D0200000000001601E1003900FFAF00012D0292
:104D12002808641E140A321E2F20B420642060204A
:104D22005C20FF5AE200E900EA00B500B600B700D5
:104D3200CD008301CC008A01920194012102230259
:104D420024022502260227022A02B300B4006F00C1
:104D5200700030979695323160616263919034357C
:104D620033940A25640A00E200E900EA00B500B6BD
:104D720000B700CD008301CC008A01920194012189
:104D820002230224022502260227022A02B300B4C9
:104D9200006F007000010203040506070809000005
:00000001FF
